Archive member included to satisfy reference by file (symbol)

c:/rt-threadstudio/repo/extract/toolchain_support_packages/arm/gnu_tools_for_arm_embedded_processors/5.4.1/bin/../lib/gcc/arm-none-eabi/5.4.1/../../../../arm-none-eabi/lib/armv7e-m/fpu\libc.a(lib_a-atoi.o)
                              ./rt-thread/components/drivers/sensors/sensor_cmd.o (atoi)
c:/rt-threadstudio/repo/extract/toolchain_support_packages/arm/gnu_tools_for_arm_embedded_processors/5.4.1/bin/../lib/gcc/arm-none-eabi/5.4.1/../../../../arm-none-eabi/lib/armv7e-m/fpu\libc.a(lib_a-exit.o)
                              c:/rt-threadstudio/repo/extract/toolchain_support_packages/arm/gnu_tools_for_arm_embedded_processors/5.4.1/bin/../lib/gcc/arm-none-eabi/5.4.1/../../../../arm-none-eabi/lib/armv7e-m/fpu/crt0.o (exit)
c:/rt-threadstudio/repo/extract/toolchain_support_packages/arm/gnu_tools_for_arm_embedded_processors/5.4.1/bin/../lib/gcc/arm-none-eabi/5.4.1/../../../../arm-none-eabi/lib/armv7e-m/fpu\libc.a(lib_a-fclose.o)
                              ./rt-thread/components/libc/compilers/gcc/newlib/stdio.o (fclose)
c:/rt-threadstudio/repo/extract/toolchain_support_packages/arm/gnu_tools_for_arm_embedded_processors/5.4.1/bin/../lib/gcc/arm-none-eabi/5.4.1/../../../../arm-none-eabi/lib/armv7e-m/fpu\libc.a(lib_a-fflush.o)
                              c:/rt-threadstudio/repo/extract/toolchain_support_packages/arm/gnu_tools_for_arm_embedded_processors/5.4.1/bin/../lib/gcc/arm-none-eabi/5.4.1/../../../../arm-none-eabi/lib/armv7e-m/fpu\libc.a(lib_a-fclose.o) (__sflush_r)
c:/rt-threadstudio/repo/extract/toolchain_support_packages/arm/gnu_tools_for_arm_embedded_processors/5.4.1/bin/../lib/gcc/arm-none-eabi/5.4.1/../../../../arm-none-eabi/lib/armv7e-m/fpu\libc.a(lib_a-fileno.o)
                              ./rt-thread/components/libc/compilers/gcc/newlib/stdio.o (fileno)
c:/rt-threadstudio/repo/extract/toolchain_support_packages/arm/gnu_tools_for_arm_embedded_processors/5.4.1/bin/../lib/gcc/arm-none-eabi/5.4.1/../../../../arm-none-eabi/lib/armv7e-m/fpu\libc.a(lib_a-findfp.o)
                              c:/rt-threadstudio/repo/extract/toolchain_support_packages/arm/gnu_tools_for_arm_embedded_processors/5.4.1/bin/../lib/gcc/arm-none-eabi/5.4.1/../../../../arm-none-eabi/lib/armv7e-m/fpu\libc.a(lib_a-fclose.o) (__sinit)
c:/rt-threadstudio/repo/extract/toolchain_support_packages/arm/gnu_tools_for_arm_embedded_processors/5.4.1/bin/../lib/gcc/arm-none-eabi/5.4.1/../../../../arm-none-eabi/lib/armv7e-m/fpu\libc.a(lib_a-fopen.o)
                              ./rt-thread/components/libc/compilers/gcc/newlib/stdio.o (fopen)
c:/rt-threadstudio/repo/extract/toolchain_support_packages/arm/gnu_tools_for_arm_embedded_processors/5.4.1/bin/../lib/gcc/arm-none-eabi/5.4.1/../../../../arm-none-eabi/lib/armv7e-m/fpu\libc.a(lib_a-fseek.o)
                              c:/rt-threadstudio/repo/extract/toolchain_support_packages/arm/gnu_tools_for_arm_embedded_processors/5.4.1/bin/../lib/gcc/arm-none-eabi/5.4.1/../../../../arm-none-eabi/lib/armv7e-m/fpu\libc.a(lib_a-fopen.o) (_fseek_r)
c:/rt-threadstudio/repo/extract/toolchain_support_packages/arm/gnu_tools_for_arm_embedded_processors/5.4.1/bin/../lib/gcc/arm-none-eabi/5.4.1/../../../../arm-none-eabi/lib/armv7e-m/fpu\libc.a(lib_a-fseeko.o)
                              c:/rt-threadstudio/repo/extract/toolchain_support_packages/arm/gnu_tools_for_arm_embedded_processors/5.4.1/bin/../lib/gcc/arm-none-eabi/5.4.1/../../../../arm-none-eabi/lib/armv7e-m/fpu\libc.a(lib_a-fseek.o) (_fseeko_r)
c:/rt-threadstudio/repo/extract/toolchain_support_packages/arm/gnu_tools_for_arm_embedded_processors/5.4.1/bin/../lib/gcc/arm-none-eabi/5.4.1/../../../../arm-none-eabi/lib/armv7e-m/fpu\libc.a(lib_a-fwalk.o)
                              c:/rt-threadstudio/repo/extract/toolchain_support_packages/arm/gnu_tools_for_arm_embedded_processors/5.4.1/bin/../lib/gcc/arm-none-eabi/5.4.1/../../../../arm-none-eabi/lib/armv7e-m/fpu\libc.a(lib_a-findfp.o) (_fwalk)
c:/rt-threadstudio/repo/extract/toolchain_support_packages/arm/gnu_tools_for_arm_embedded_processors/5.4.1/bin/../lib/gcc/arm-none-eabi/5.4.1/../../../../arm-none-eabi/lib/armv7e-m/fpu\libc.a(lib_a-impure.o)
                              ./rt-thread/components/libc/compilers/gcc/newlib/stdio.o (_global_impure_ptr)
c:/rt-threadstudio/repo/extract/toolchain_support_packages/arm/gnu_tools_for_arm_embedded_processors/5.4.1/bin/../lib/gcc/arm-none-eabi/5.4.1/../../../../arm-none-eabi/lib/armv7e-m/fpu\libc.a(lib_a-makebuf.o)
                              c:/rt-threadstudio/repo/extract/toolchain_support_packages/arm/gnu_tools_for_arm_embedded_processors/5.4.1/bin/../lib/gcc/arm-none-eabi/5.4.1/../../../../arm-none-eabi/lib/armv7e-m/fpu\libc.a(lib_a-fseeko.o) (__smakebuf_r)
c:/rt-threadstudio/repo/extract/toolchain_support_packages/arm/gnu_tools_for_arm_embedded_processors/5.4.1/bin/../lib/gcc/arm-none-eabi/5.4.1/../../../../arm-none-eabi/lib/armv7e-m/fpu\libc.a(lib_a-memcmp.o)
                              ./rt-thread/components/finsh/shell.o (memcmp)
c:/rt-threadstudio/repo/extract/toolchain_support_packages/arm/gnu_tools_for_arm_embedded_processors/5.4.1/bin/../lib/gcc/arm-none-eabi/5.4.1/../../../../arm-none-eabi/lib/armv7e-m/fpu\libc.a(lib_a-memcpy.o)
                              ./rt-thread/components/finsh/shell.o (memcpy)
c:/rt-threadstudio/repo/extract/toolchain_support_packages/arm/gnu_tools_for_arm_embedded_processors/5.4.1/bin/../lib/gcc/arm-none-eabi/5.4.1/../../../../arm-none-eabi/lib/armv7e-m/fpu\libc.a(lib_a-memset.o)
                              c:/rt-threadstudio/repo/extract/toolchain_support_packages/arm/gnu_tools_for_arm_embedded_processors/5.4.1/bin/../lib/gcc/arm-none-eabi/5.4.1/../../../../arm-none-eabi/lib/armv7e-m/fpu/crt0.o (memset)
c:/rt-threadstudio/repo/extract/toolchain_support_packages/arm/gnu_tools_for_arm_embedded_processors/5.4.1/bin/../lib/gcc/arm-none-eabi/5.4.1/../../../../arm-none-eabi/lib/armv7e-m/fpu\libc.a(lib_a-refill.o)
                              c:/rt-threadstudio/repo/extract/toolchain_support_packages/arm/gnu_tools_for_arm_embedded_processors/5.4.1/bin/../lib/gcc/arm-none-eabi/5.4.1/../../../../arm-none-eabi/lib/armv7e-m/fpu\libc.a(lib_a-fseeko.o) (__srefill_r)
c:/rt-threadstudio/repo/extract/toolchain_support_packages/arm/gnu_tools_for_arm_embedded_processors/5.4.1/bin/../lib/gcc/arm-none-eabi/5.4.1/../../../../arm-none-eabi/lib/armv7e-m/fpu\libc.a(lib_a-setvbuf.o)
                              ./rt-thread/components/libc/compilers/gcc/newlib/stdio.o (setvbuf)
c:/rt-threadstudio/repo/extract/toolchain_support_packages/arm/gnu_tools_for_arm_embedded_processors/5.4.1/bin/../lib/gcc/arm-none-eabi/5.4.1/../../../../arm-none-eabi/lib/armv7e-m/fpu\libc.a(lib_a-snprintf.o)
                              ./rt-thread/components/libc/compilers/gcc/newlib/stdio.o (snprintf)
c:/rt-threadstudio/repo/extract/toolchain_support_packages/arm/gnu_tools_for_arm_embedded_processors/5.4.1/bin/../lib/gcc/arm-none-eabi/5.4.1/../../../../arm-none-eabi/lib/armv7e-m/fpu\libc.a(lib_a-stdio.o)
                              c:/rt-threadstudio/repo/extract/toolchain_support_packages/arm/gnu_tools_for_arm_embedded_processors/5.4.1/bin/../lib/gcc/arm-none-eabi/5.4.1/../../../../arm-none-eabi/lib/armv7e-m/fpu\libc.a(lib_a-findfp.o) (__sread)
c:/rt-threadstudio/repo/extract/toolchain_support_packages/arm/gnu_tools_for_arm_embedded_processors/5.4.1/bin/../lib/gcc/arm-none-eabi/5.4.1/../../../../arm-none-eabi/lib/armv7e-m/fpu\libc.a(lib_a-strcat.o)
                              ./rt-thread/components/drivers/sensors/sensor.o (strcat)
c:/rt-threadstudio/repo/extract/toolchain_support_packages/arm/gnu_tools_for_arm_embedded_processors/5.4.1/bin/../lib/gcc/arm-none-eabi/5.4.1/../../../../arm-none-eabi/lib/armv7e-m/fpu\libc.a(lib_a-strcmp.o)
                              ./rt-thread/components/drivers/sensors/sensor_cmd.o (strcmp)
c:/rt-threadstudio/repo/extract/toolchain_support_packages/arm/gnu_tools_for_arm_embedded_processors/5.4.1/bin/../lib/gcc/arm-none-eabi/5.4.1/../../../../arm-none-eabi/lib/armv7e-m/fpu\libc.a(lib_a-strcpy.o)
                              ./rt-thread/components/finsh/shell.o (strcpy)
c:/rt-threadstudio/repo/extract/toolchain_support_packages/arm/gnu_tools_for_arm_embedded_processors/5.4.1/bin/../lib/gcc/arm-none-eabi/5.4.1/../../../../arm-none-eabi/lib/armv7e-m/fpu\libc.a(lib_a-strlen.o)
                              ./rt-thread/components/finsh/msh.o (strlen)
c:/rt-threadstudio/repo/extract/toolchain_support_packages/arm/gnu_tools_for_arm_embedded_processors/5.4.1/bin/../lib/gcc/arm-none-eabi/5.4.1/../../../../arm-none-eabi/lib/armv7e-m/fpu\libc.a(lib_a-strncmp.o)
                              ./rt-thread/components/finsh/cmd.o (strncmp)
c:/rt-threadstudio/repo/extract/toolchain_support_packages/arm/gnu_tools_for_arm_embedded_processors/5.4.1/bin/../lib/gcc/arm-none-eabi/5.4.1/../../../../arm-none-eabi/lib/armv7e-m/fpu\libc.a(lib_a-strncpy.o)
                              ./rt-thread/components/finsh/shell.o (strncpy)
c:/rt-threadstudio/repo/extract/toolchain_support_packages/arm/gnu_tools_for_arm_embedded_processors/5.4.1/bin/../lib/gcc/arm-none-eabi/5.4.1/../../../../arm-none-eabi/lib/armv7e-m/fpu\libc.a(lib_a-strtol.o)
                              c:/rt-threadstudio/repo/extract/toolchain_support_packages/arm/gnu_tools_for_arm_embedded_processors/5.4.1/bin/../lib/gcc/arm-none-eabi/5.4.1/../../../../arm-none-eabi/lib/armv7e-m/fpu\libc.a(lib_a-atoi.o) (_strtol_r)
c:/rt-threadstudio/repo/extract/toolchain_support_packages/arm/gnu_tools_for_arm_embedded_processors/5.4.1/bin/../lib/gcc/arm-none-eabi/5.4.1/../../../../arm-none-eabi/lib/armv7e-m/fpu\libc.a(lib_a-svfprintf.o)
                              c:/rt-threadstudio/repo/extract/toolchain_support_packages/arm/gnu_tools_for_arm_embedded_processors/5.4.1/bin/../lib/gcc/arm-none-eabi/5.4.1/../../../../arm-none-eabi/lib/armv7e-m/fpu\libc.a(lib_a-snprintf.o) (_svfprintf_r)
c:/rt-threadstudio/repo/extract/toolchain_support_packages/arm/gnu_tools_for_arm_embedded_processors/5.4.1/bin/../lib/gcc/arm-none-eabi/5.4.1/../../../../arm-none-eabi/lib/armv7e-m/fpu\libc.a(lib_a-__call_atexit.o)
                              c:/rt-threadstudio/repo/extract/toolchain_support_packages/arm/gnu_tools_for_arm_embedded_processors/5.4.1/bin/../lib/gcc/arm-none-eabi/5.4.1/../../../../arm-none-eabi/lib/armv7e-m/fpu\libc.a(lib_a-exit.o) (__call_exitprocs)
c:/rt-threadstudio/repo/extract/toolchain_support_packages/arm/gnu_tools_for_arm_embedded_processors/5.4.1/bin/../lib/gcc/arm-none-eabi/5.4.1/../../../../arm-none-eabi/lib/armv7e-m/fpu\libc.a(lib_a-atexit.o)
                              c:/rt-threadstudio/repo/extract/toolchain_support_packages/arm/gnu_tools_for_arm_embedded_processors/5.4.1/bin/../lib/gcc/arm-none-eabi/5.4.1/../../../../arm-none-eabi/lib/armv7e-m/fpu\libc.a(lib_a-__call_atexit.o) (atexit)
c:/rt-threadstudio/repo/extract/toolchain_support_packages/arm/gnu_tools_for_arm_embedded_processors/5.4.1/bin/../lib/gcc/arm-none-eabi/5.4.1/../../../../arm-none-eabi/lib/armv7e-m/fpu\libc.a(lib_a-dtoa.o)
                              c:/rt-threadstudio/repo/extract/toolchain_support_packages/arm/gnu_tools_for_arm_embedded_processors/5.4.1/bin/../lib/gcc/arm-none-eabi/5.4.1/../../../../arm-none-eabi/lib/armv7e-m/fpu\libc.a(lib_a-svfprintf.o) (_dtoa_r)
c:/rt-threadstudio/repo/extract/toolchain_support_packages/arm/gnu_tools_for_arm_embedded_processors/5.4.1/bin/../lib/gcc/arm-none-eabi/5.4.1/../../../../arm-none-eabi/lib/armv7e-m/fpu\libc.a(lib_a-fini.o)
                              c:/rt-threadstudio/repo/extract/toolchain_support_packages/arm/gnu_tools_for_arm_embedded_processors/5.4.1/bin/../lib/gcc/arm-none-eabi/5.4.1/../../../../arm-none-eabi/lib/armv7e-m/fpu\libc.a(lib_a-__call_atexit.o) (__libc_fini_array)
c:/rt-threadstudio/repo/extract/toolchain_support_packages/arm/gnu_tools_for_arm_embedded_processors/5.4.1/bin/../lib/gcc/arm-none-eabi/5.4.1/../../../../arm-none-eabi/lib/armv7e-m/fpu\libc.a(lib_a-flags.o)
                              c:/rt-threadstudio/repo/extract/toolchain_support_packages/arm/gnu_tools_for_arm_embedded_processors/5.4.1/bin/../lib/gcc/arm-none-eabi/5.4.1/../../../../arm-none-eabi/lib/armv7e-m/fpu\libc.a(lib_a-fopen.o) (__sflags)
c:/rt-threadstudio/repo/extract/toolchain_support_packages/arm/gnu_tools_for_arm_embedded_processors/5.4.1/bin/../lib/gcc/arm-none-eabi/5.4.1/../../../../arm-none-eabi/lib/armv7e-m/fpu\libc.a(lib_a-locale.o)
                              c:/rt-threadstudio/repo/extract/toolchain_support_packages/arm/gnu_tools_for_arm_embedded_processors/5.4.1/bin/../lib/gcc/arm-none-eabi/5.4.1/../../../../arm-none-eabi/lib/armv7e-m/fpu\libc.a(lib_a-strtol.o) (__locale_ctype_ptr_l)
c:/rt-threadstudio/repo/extract/toolchain_support_packages/arm/gnu_tools_for_arm_embedded_processors/5.4.1/bin/../lib/gcc/arm-none-eabi/5.4.1/../../../../arm-none-eabi/lib/armv7e-m/fpu\libc.a(lib_a-localeconv.o)
                              c:/rt-threadstudio/repo/extract/toolchain_support_packages/arm/gnu_tools_for_arm_embedded_processors/5.4.1/bin/../lib/gcc/arm-none-eabi/5.4.1/../../../../arm-none-eabi/lib/armv7e-m/fpu\libc.a(lib_a-svfprintf.o) (_localeconv_r)
c:/rt-threadstudio/repo/extract/toolchain_support_packages/arm/gnu_tools_for_arm_embedded_processors/5.4.1/bin/../lib/gcc/arm-none-eabi/5.4.1/../../../../arm-none-eabi/lib/armv7e-m/fpu\libc.a(lib_a-malloc.o)
                              c:/rt-threadstudio/repo/extract/toolchain_support_packages/arm/gnu_tools_for_arm_embedded_processors/5.4.1/bin/../lib/gcc/arm-none-eabi/5.4.1/../../../../arm-none-eabi/lib/armv7e-m/fpu\libc.a(lib_a-setvbuf.o) (malloc)
c:/rt-threadstudio/repo/extract/toolchain_support_packages/arm/gnu_tools_for_arm_embedded_processors/5.4.1/bin/../lib/gcc/arm-none-eabi/5.4.1/../../../../arm-none-eabi/lib/armv7e-m/fpu\libc.a(lib_a-mbtowc_r.o)
                              c:/rt-threadstudio/repo/extract/toolchain_support_packages/arm/gnu_tools_for_arm_embedded_processors/5.4.1/bin/../lib/gcc/arm-none-eabi/5.4.1/../../../../arm-none-eabi/lib/armv7e-m/fpu\libc.a(lib_a-locale.o) (__ascii_mbtowc)
c:/rt-threadstudio/repo/extract/toolchain_support_packages/arm/gnu_tools_for_arm_embedded_processors/5.4.1/bin/../lib/gcc/arm-none-eabi/5.4.1/../../../../arm-none-eabi/lib/armv7e-m/fpu\libc.a(lib_a-memchr.o)
                              c:/rt-threadstudio/repo/extract/toolchain_support_packages/arm/gnu_tools_for_arm_embedded_processors/5.4.1/bin/../lib/gcc/arm-none-eabi/5.4.1/../../../../arm-none-eabi/lib/armv7e-m/fpu\libc.a(lib_a-svfprintf.o) (memchr)
c:/rt-threadstudio/repo/extract/toolchain_support_packages/arm/gnu_tools_for_arm_embedded_processors/5.4.1/bin/../lib/gcc/arm-none-eabi/5.4.1/../../../../arm-none-eabi/lib/armv7e-m/fpu\libc.a(lib_a-mprec.o)
                              c:/rt-threadstudio/repo/extract/toolchain_support_packages/arm/gnu_tools_for_arm_embedded_processors/5.4.1/bin/../lib/gcc/arm-none-eabi/5.4.1/../../../../arm-none-eabi/lib/armv7e-m/fpu\libc.a(lib_a-dtoa.o) (_Balloc)
c:/rt-threadstudio/repo/extract/toolchain_support_packages/arm/gnu_tools_for_arm_embedded_processors/5.4.1/bin/../lib/gcc/arm-none-eabi/5.4.1/../../../../arm-none-eabi/lib/armv7e-m/fpu\libc.a(lib_a-svfiprintf.o)
                              c:/rt-threadstudio/repo/extract/toolchain_support_packages/arm/gnu_tools_for_arm_embedded_processors/5.4.1/bin/../lib/gcc/arm-none-eabi/5.4.1/../../../../arm-none-eabi/lib/armv7e-m/fpu\libc.a(lib_a-svfprintf.o) (__ssprint_r)
c:/rt-threadstudio/repo/extract/toolchain_support_packages/arm/gnu_tools_for_arm_embedded_processors/5.4.1/bin/../lib/gcc/arm-none-eabi/5.4.1/../../../../arm-none-eabi/lib/armv7e-m/fpu\libc.a(lib_a-wctomb_r.o)
                              c:/rt-threadstudio/repo/extract/toolchain_support_packages/arm/gnu_tools_for_arm_embedded_processors/5.4.1/bin/../lib/gcc/arm-none-eabi/5.4.1/../../../../arm-none-eabi/lib/armv7e-m/fpu\libc.a(lib_a-locale.o) (__ascii_wctomb)
c:/rt-threadstudio/repo/extract/toolchain_support_packages/arm/gnu_tools_for_arm_embedded_processors/5.4.1/bin/../lib/gcc/arm-none-eabi/5.4.1/../../../../arm-none-eabi/lib/armv7e-m/fpu\libc.a(lib_a-__atexit.o)
                              c:/rt-threadstudio/repo/extract/toolchain_support_packages/arm/gnu_tools_for_arm_embedded_processors/5.4.1/bin/../lib/gcc/arm-none-eabi/5.4.1/../../../../arm-none-eabi/lib/armv7e-m/fpu\libc.a(lib_a-atexit.o) (__register_exitproc)
c:/rt-threadstudio/repo/extract/toolchain_support_packages/arm/gnu_tools_for_arm_embedded_processors/5.4.1/bin/../lib/gcc/arm-none-eabi/5.4.1/../../../../arm-none-eabi/lib/armv7e-m/fpu\libc.a(lib_a-ctype_.o)
                              c:/rt-threadstudio/repo/extract/toolchain_support_packages/arm/gnu_tools_for_arm_embedded_processors/5.4.1/bin/../lib/gcc/arm-none-eabi/5.4.1/../../../../arm-none-eabi/lib/armv7e-m/fpu\libc.a(lib_a-locale.o) (_ctype_)
c:/rt-threadstudio/repo/extract/toolchain_support_packages/arm/gnu_tools_for_arm_embedded_processors/5.4.1/bin/../lib/gcc/arm-none-eabi/5.4.1/../../../../arm-none-eabi/lib/armv7e-m/fpu\libc.a(lib_a-memmove.o)
                              c:/rt-threadstudio/repo/extract/toolchain_support_packages/arm/gnu_tools_for_arm_embedded_processors/5.4.1/bin/../lib/gcc/arm-none-eabi/5.4.1/../../../../arm-none-eabi/lib/armv7e-m/fpu\libc.a(lib_a-svfiprintf.o) (memmove)
c:/rt-threadstudio/repo/extract/toolchain_support_packages/arm/gnu_tools_for_arm_embedded_processors/5.4.1/bin/../lib/gcc/arm-none-eabi/5.4.1/armv7e-m/fpu\libgcc.a(_arm_addsubdf3.o)
                              c:/rt-threadstudio/repo/extract/toolchain_support_packages/arm/gnu_tools_for_arm_embedded_processors/5.4.1/bin/../lib/gcc/arm-none-eabi/5.4.1/../../../../arm-none-eabi/lib/armv7e-m/fpu\libc.a(lib_a-dtoa.o) (__aeabi_dsub)
c:/rt-threadstudio/repo/extract/toolchain_support_packages/arm/gnu_tools_for_arm_embedded_processors/5.4.1/bin/../lib/gcc/arm-none-eabi/5.4.1/armv7e-m/fpu\libgcc.a(_arm_muldivdf3.o)
                              ./rt-thread/components/drivers/misc/rt_drv_pwm.o (__aeabi_dmul)
c:/rt-threadstudio/repo/extract/toolchain_support_packages/arm/gnu_tools_for_arm_embedded_processors/5.4.1/bin/../lib/gcc/arm-none-eabi/5.4.1/armv7e-m/fpu\libgcc.a(_arm_cmpdf2.o)
                              c:/rt-threadstudio/repo/extract/toolchain_support_packages/arm/gnu_tools_for_arm_embedded_processors/5.4.1/bin/../lib/gcc/arm-none-eabi/5.4.1/../../../../arm-none-eabi/lib/armv7e-m/fpu\libc.a(lib_a-svfprintf.o) (__aeabi_dcmpeq)
c:/rt-threadstudio/repo/extract/toolchain_support_packages/arm/gnu_tools_for_arm_embedded_processors/5.4.1/bin/../lib/gcc/arm-none-eabi/5.4.1/armv7e-m/fpu\libgcc.a(_arm_unorddf2.o)
                              c:/rt-threadstudio/repo/extract/toolchain_support_packages/arm/gnu_tools_for_arm_embedded_processors/5.4.1/bin/../lib/gcc/arm-none-eabi/5.4.1/../../../../arm-none-eabi/lib/armv7e-m/fpu\libc.a(lib_a-svfprintf.o) (__aeabi_dcmpun)
c:/rt-threadstudio/repo/extract/toolchain_support_packages/arm/gnu_tools_for_arm_embedded_processors/5.4.1/bin/../lib/gcc/arm-none-eabi/5.4.1/armv7e-m/fpu\libgcc.a(_arm_fixdfsi.o)
                              ./rt-thread/components/drivers/misc/rt_drv_pwm.o (__aeabi_d2iz)
c:/rt-threadstudio/repo/extract/toolchain_support_packages/arm/gnu_tools_for_arm_embedded_processors/5.4.1/bin/../lib/gcc/arm-none-eabi/5.4.1/armv7e-m/fpu\libgcc.a(_aeabi_uldivmod.o)
                              ./Libraries/rt_drivers/drv_pwm.o (__aeabi_uldivmod)
c:/rt-threadstudio/repo/extract/toolchain_support_packages/arm/gnu_tools_for_arm_embedded_processors/5.4.1/bin/../lib/gcc/arm-none-eabi/5.4.1/armv7e-m/fpu\libgcc.a(_udivmoddi4.o)
                              c:/rt-threadstudio/repo/extract/toolchain_support_packages/arm/gnu_tools_for_arm_embedded_processors/5.4.1/bin/../lib/gcc/arm-none-eabi/5.4.1/armv7e-m/fpu\libgcc.a(_aeabi_uldivmod.o) (__udivmoddi4)
c:/rt-threadstudio/repo/extract/toolchain_support_packages/arm/gnu_tools_for_arm_embedded_processors/5.4.1/bin/../lib/gcc/arm-none-eabi/5.4.1/armv7e-m/fpu\libgcc.a(_dvmd_tls.o)
                              c:/rt-threadstudio/repo/extract/toolchain_support_packages/arm/gnu_tools_for_arm_embedded_processors/5.4.1/bin/../lib/gcc/arm-none-eabi/5.4.1/armv7e-m/fpu\libgcc.a(_aeabi_uldivmod.o) (__aeabi_ldiv0)

Allocating common symbols
Common symbol       size              file

door_open_sem       0x20              ./applications/smart_door.o
rt_interrupt_to_thread
                    0x4               ./rt-thread/libcpu/arm/cortex-m4/cpuport.o
DMAPTPRxDescToGet   0x4               ./Libraries/N32_Std_Driver/n32g45x_std_periph_driver/src/n32g45x_eth.o
rt_interrupt_from_thread
                    0x4               ./rt-thread/libcpu/arm/cortex-m4/cpuport.o
shell               0x4               ./rt-thread/components/finsh/shell.o
DMARxDescToGet      0x4               ./Libraries/N32_Std_Driver/n32g45x_std_periph_driver/src/n32g45x_eth.o
rt_thread_switch_interrupt_flag
                    0x4               ./rt-thread/libcpu/arm/cortex-m4/cpuport.o
DMATxDescToSet      0x4               ./Libraries/N32_Std_Driver/n32g45x_std_periph_driver/src/n32g45x_eth.o
nuidPICC            0x4               ./packages/rc522-latest/examples/read_nuid.o
rt_thread_priority_table
                    0x100             ./rt-thread/src/scheduler.o
serial1             0x54              ./Libraries/rt_drivers/drv_usart.o
rt_object_put_hook  0x4               ./rt-thread/src/object.o
add_finger_sem      0x20              ./applications/smart_door.o
rt_current_priority
                    0x1               ./rt-thread/src/scheduler.o
rt_assert_hook      0x4               ./rt-thread/src/kservice.o
rt_object_take_hook
                    0x4               ./rt-thread/src/object.o
rt_thread_ready_priority_group
                    0x4               ./rt-thread/src/scheduler.o
pwm_device          0x44              ./Libraries/rt_drivers/drv_pwm.o
rt_object_trytake_hook
                    0x4               ./rt-thread/src/object.o
serial2             0x54              ./Libraries/rt_drivers/drv_usart.o
DMAPTPTxDescToSet   0x4               ./Libraries/N32_Std_Driver/n32g45x_std_periph_driver/src/n32g45x_eth.o

Discarded input sections

 .text          0x00000000        0x0 c:/rt-threadstudio/repo/extract/toolchain_support_packages/arm/gnu_tools_for_arm_embedded_processors/5.4.1/bin/../lib/gcc/arm-none-eabi/5.4.1/armv7e-m/fpu/crti.o
 .data          0x00000000        0x0 c:/rt-threadstudio/repo/extract/toolchain_support_packages/arm/gnu_tools_for_arm_embedded_processors/5.4.1/bin/../lib/gcc/arm-none-eabi/5.4.1/armv7e-m/fpu/crti.o
 .bss           0x00000000        0x0 c:/rt-threadstudio/repo/extract/toolchain_support_packages/arm/gnu_tools_for_arm_embedded_processors/5.4.1/bin/../lib/gcc/arm-none-eabi/5.4.1/armv7e-m/fpu/crti.o
 .data          0x00000000        0x4 c:/rt-threadstudio/repo/extract/toolchain_support_packages/arm/gnu_tools_for_arm_embedded_processors/5.4.1/bin/../lib/gcc/arm-none-eabi/5.4.1/armv7e-m/fpu/crtbegin.o
 .fini_array    0x00000000        0x4 c:/rt-threadstudio/repo/extract/toolchain_support_packages/arm/gnu_tools_for_arm_embedded_processors/5.4.1/bin/../lib/gcc/arm-none-eabi/5.4.1/armv7e-m/fpu/crtbegin.o
 .text          0x00000000       0x74 c:/rt-threadstudio/repo/extract/toolchain_support_packages/arm/gnu_tools_for_arm_embedded_processors/5.4.1/bin/../lib/gcc/arm-none-eabi/5.4.1/../../../../arm-none-eabi/lib/armv7e-m/fpu/crt0.o
 .data          0x00000000        0x0 c:/rt-threadstudio/repo/extract/toolchain_support_packages/arm/gnu_tools_for_arm_embedded_processors/5.4.1/bin/../lib/gcc/arm-none-eabi/5.4.1/../../../../arm-none-eabi/lib/armv7e-m/fpu/crt0.o
 .bss           0x00000000        0x0 c:/rt-threadstudio/repo/extract/toolchain_support_packages/arm/gnu_tools_for_arm_embedded_processors/5.4.1/bin/../lib/gcc/arm-none-eabi/5.4.1/../../../../arm-none-eabi/lib/armv7e-m/fpu/crt0.o
 .ARM.extab     0x00000000        0x0 c:/rt-threadstudio/repo/extract/toolchain_support_packages/arm/gnu_tools_for_arm_embedded_processors/5.4.1/bin/../lib/gcc/arm-none-eabi/5.4.1/../../../../arm-none-eabi/lib/armv7e-m/fpu/crt0.o
 .ARM.exidx     0x00000000        0x8 c:/rt-threadstudio/repo/extract/toolchain_support_packages/arm/gnu_tools_for_arm_embedded_processors/5.4.1/bin/../lib/gcc/arm-none-eabi/5.4.1/../../../../arm-none-eabi/lib/armv7e-m/fpu/crt0.o
 .ARM.attributes
                0x00000000       0x20 c:/rt-threadstudio/repo/extract/toolchain_support_packages/arm/gnu_tools_for_arm_embedded_processors/5.4.1/bin/../lib/gcc/arm-none-eabi/5.4.1/../../../../arm-none-eabi/lib/armv7e-m/fpu/crt0.o
 .text          0x00000000        0x0 ./rt-thread/src/clock.o
 .data          0x00000000        0x0 ./rt-thread/src/clock.o
 .bss           0x00000000        0x0 ./rt-thread/src/clock.o
 .text.rt_tick_set
                0x00000000       0x28 ./rt-thread/src/clock.o
 .text.rt_tick_get_millisecond
Memory Configuration

Name             Origin             Length             Attributes
CODE             0x08000000         0x00040000         xr
DATA             0x20000000         0x00010000         rw
*default*        0x00000000         0xffffffff

Linker script and memory map

LOAD c:/rt-threadstudio/repo/extract/toolchain_support_packages/arm/gnu_tools_for_arm_embedded_processors/5.4.1/bin/../lib/gcc/arm-none-eabi/5.4.1/armv7e-m/fpu/crti.o
LOAD c:/rt-threadstudio/repo/extract/toolchain_support_packages/arm/gnu_tools_for_arm_embedded_processors/5.4.1/bin/../lib/gcc/arm-none-eabi/5.4.1/armv7e-m/fpu/crtbegin.o
LOAD c:/rt-threadstudio/repo/extract/toolchain_support_packages/arm/gnu_tools_for_arm_embedded_processors/5.4.1/bin/../lib/gcc/arm-none-eabi/5.4.1/../../../../arm-none-eabi/lib/armv7e-m/fpu/crt0.o
LOAD ./rt-thread/src/clock.o
LOAD ./rt-thread/src/components.o
LOAD ./rt-thread/src/device.o
LOAD ./rt-thread/src/idle.o
LOAD ./rt-thread/src/ipc.o
LOAD ./rt-thread/src/irq.o
LOAD ./rt-thread/src/kservice.o
LOAD ./rt-thread/src/mem.o
LOAD ./rt-thread/src/mempool.o
LOAD ./rt-thread/src/object.o
LOAD ./rt-thread/src/scheduler.o
LOAD ./rt-thread/src/thread.o
LOAD ./rt-thread/src/timer.o
LOAD ./rt-thread/libcpu/arm/cortex-m4/context_gcc.o
LOAD ./rt-thread/libcpu/arm/cortex-m4/cpuport.o
LOAD ./rt-thread/libcpu/arm/common/backtrace.o
LOAD ./rt-thread/libcpu/arm/common/div0.o
LOAD ./rt-thread/libcpu/arm/common/showmem.o
LOAD ./rt-thread/components/libc/compilers/gcc/newlib/libc.o
LOAD ./rt-thread/components/libc/compilers/gcc/newlib/stdio.o
LOAD ./rt-thread/components/libc/compilers/gcc/newlib/syscalls.o
LOAD ./rt-thread/components/libc/compilers/common/stdlib.o
LOAD ./rt-thread/components/libc/compilers/common/time.o
LOAD ./rt-thread/components/finsh/cmd.o
LOAD ./rt-thread/components/finsh/msh.o
LOAD ./rt-thread/components/finsh/shell.o
LOAD ./rt-thread/components/drivers/src/completion.o
LOAD ./rt-thread/components/drivers/src/dataqueue.o
LOAD ./rt-thread/components/drivers/src/pipe.o
LOAD ./rt-thread/components/drivers/src/ringblk_buf.o
LOAD ./rt-thread/components/drivers/src/ringbuffer.o
LOAD ./rt-thread/components/drivers/src/waitqueue.o
LOAD ./rt-thread/components/drivers/src/workqueue.o
LOAD ./rt-thread/components/drivers/spi/spi_core.o
LOAD ./rt-thread/components/drivers/spi/spi_dev.o
LOAD ./rt-thread/components/drivers/serial/serial.o
LOAD ./rt-thread/components/drivers/sensors/sensor.o
LOAD ./rt-thread/components/drivers/sensors/sensor_cmd.o
LOAD ./rt-thread/components/drivers/misc/pin.o
LOAD ./rt-thread/components/drivers/misc/rt_drv_pwm.o
LOAD ./rt-thread/components/drivers/i2c/i2c-bit-ops.o
LOAD ./rt-thread/components/drivers/i2c/i2c_core.o
LOAD ./rt-thread/components/drivers/i2c/i2c_dev.o
LOAD ./packages/rc522-latest/src/mfrc522.o
LOAD ./packages/rc522-latest/port/mfrc522_rtt_port.o
LOAD ./packages/rc522-latest/port/mfrc522_rtt_stm32_port.o
LOAD ./packages/rc522-latest/examples/change_uid.o
LOAD ./packages/rc522-latest/examples/dunp_info.o
LOAD ./packages/rc522-latest/examples/firmware_check.o
LOAD ./packages/rc522-latest/examples/fix_brickeduid.o
LOAD ./packages/rc522-latest/examples/mifare_classic_value_block.o
LOAD ./packages/rc522-latest/examples/read_nuid.o
LOAD ./packages/fingerprint-latest/fingerprint.o
LOAD ./packages/fingerprint-latest/fingerprint_sample.o
LOAD ./packages/MultiButton-latest/examples/event_async.o
LOAD ./packages/MultiButton-latest/multi_button.o
LOAD ./board/msp/n32_msp.o
LOAD ./board/board.o
LOAD ./applications/main.o
LOAD ./applications/smart_door.o
LOAD ./Libraries/rt_drivers/drv_common.o
LOAD ./Libraries/rt_drivers/drv_gpio.o
LOAD ./Libraries/rt_drivers/drv_pwm.o
LOAD ./Libraries/rt_drivers/drv_soft_i2c.o
LOAD ./Libraries/rt_drivers/drv_spi.o
LOAD ./Libraries/rt_drivers/drv_usart.o
LOAD ./Libraries/N32_Std_Driver/n32g45x_std_periph_driver/src/misc.o
LOAD ./Libraries/N32_Std_Driver/n32g45x_std_periph_driver/src/n32g45x_adc.o
LOAD ./Libraries/N32_Std_Driver/n32g45x_std_periph_driver/src/n32g45x_bkp.o
LOAD ./Libraries/N32_Std_Driver/n32g45x_std_periph_driver/src/n32g45x_can.o
LOAD ./Libraries/N32_Std_Driver/n32g45x_std_periph_driver/src/n32g45x_comp.o
LOAD ./Libraries/N32_Std_Driver/n32g45x_std_periph_driver/src/n32g45x_crc.o
LOAD ./Libraries/N32_Std_Driver/n32g45x_std_periph_driver/src/n32g45x_dac.o
LOAD ./Libraries/N32_Std_Driver/n32g45x_std_periph_driver/src/n32g45x_dbg.o
LOAD ./Libraries/N32_Std_Driver/n32g45x_std_periph_driver/src/n32g45x_dma.o
LOAD ./Libraries/N32_Std_Driver/n32g45x_std_periph_driver/src/n32g45x_dvp.o
LOAD ./Libraries/N32_Std_Driver/n32g45x_std_periph_driver/src/n32g45x_eth.o
LOAD ./Libraries/N32_Std_Driver/n32g45x_std_periph_driver/src/n32g45x_exti.o
LOAD ./Libraries/N32_Std_Driver/n32g45x_std_periph_driver/src/n32g45x_flash.o
LOAD ./Libraries/N32_Std_Driver/n32g45x_std_periph_driver/src/n32g45x_gpio.o
LOAD ./Libraries/N32_Std_Driver/n32g45x_std_periph_driver/src/n32g45x_i2c.o
LOAD ./Libraries/N32_Std_Driver/n32g45x_std_periph_driver/src/n32g45x_iwdg.o
LOAD ./Libraries/N32_Std_Driver/n32g45x_std_periph_driver/src/n32g45x_opamp.o
LOAD ./Libraries/N32_Std_Driver/n32g45x_std_periph_driver/src/n32g45x_pwr.o
LOAD ./Libraries/N32_Std_Driver/n32g45x_std_periph_driver/src/n32g45x_qspi.o
LOAD ./Libraries/N32_Std_Driver/n32g45x_std_periph_driver/src/n32g45x_rcc.o
LOAD ./Libraries/N32_Std_Driver/n32g45x_std_periph_driver/src/n32g45x_rtc.o
LOAD ./Libraries/N32_Std_Driver/n32g45x_std_periph_driver/src/n32g45x_sdio.o
LOAD ./Libraries/N32_Std_Driver/n32g45x_std_periph_driver/src/n32g45x_spi.o
LOAD ./Libraries/N32_Std_Driver/n32g45x_std_periph_driver/src/n32g45x_tim.o
LOAD ./Libraries/N32_Std_Driver/n32g45x_std_periph_driver/src/n32g45x_tsc.o
LOAD ./Libraries/N32_Std_Driver/n32g45x_std_periph_driver/src/n32g45x_usart.o
LOAD ./Libraries/N32_Std_Driver/n32g45x_std_periph_driver/src/n32g45x_wwdg.o
LOAD ./Libraries/N32_Std_Driver/n32g45x_std_periph_driver/src/n32g45x_xfmc.o
LOAD ./Libraries/N32_Std_Driver/CMSIS/device/startup/startup_n32g45x_gcc.o
LOAD ./Libraries/N32_Std_Driver/CMSIS/device/system_n32g45x.o
LOAD c:/rt-threadstudio/repo/extract/toolchain_support_packages/arm/gnu_tools_for_arm_embedded_processors/5.4.1/bin/../lib/gcc/arm-none-eabi/5.4.1/../../../../arm-none-eabi/lib/armv7e-m/fpu\libm.a
LOAD c:/rt-threadstudio/repo/extract/toolchain_support_packages/arm/gnu_tools_for_arm_embedded_processors/5.4.1/bin/../lib/gcc/arm-none-eabi/5.4.1/../../../../arm-none-eabi/lib/armv7e-m/fpu\libc.a
START GROUP
LOAD c:/rt-threadstudio/repo/extract/toolchain_support_packages/arm/gnu_tools_for_arm_embedded_processors/5.4.1/bin/../lib/gcc/arm-none-eabi/5.4.1/armv7e-m/fpu\libgcc.a
LOAD c:/rt-threadstudio/repo/extract/toolchain_support_packages/arm/gnu_tools_for_arm_embedded_processors/5.4.1/bin/../lib/gcc/arm-none-eabi/5.4.1/../../../../arm-none-eabi/lib/armv7e-m/fpu\libc.a
END GROUP
LOAD c:/rt-threadstudio/repo/extract/toolchain_support_packages/arm/gnu_tools_for_arm_embedded_processors/5.4.1/bin/../lib/gcc/arm-none-eabi/5.4.1/armv7e-m/fpu/crtend.o
LOAD c:/rt-threadstudio/repo/extract/toolchain_support_packages/arm/gnu_tools_for_arm_embedded_processors/5.4.1/bin/../lib/gcc/arm-none-eabi/5.4.1/armv7e-m/fpu/crtn.o
                0x00000200                _system_stack_size = 0x200

.text           0x08000000    0x1a604
                0x08000000                . = ALIGN (0x4)
                0x08000000                _stext = .
 *(.isr_vector)
 .isr_vector    0x08000000      0x188 ./Libraries/N32_Std_Driver/CMSIS/device/startup/startup_n32g45x_gcc.o
                0x08000000                g_pfnVectors
                0x08000188                . = ALIGN (0x4)
 *(.text)
 .text          0x08000188       0x5c c:/rt-threadstudio/repo/extract/toolchain_support_packages/arm/gnu_tools_for_arm_embedded_processors/5.4.1/bin/../lib/gcc/arm-none-eabi/5.4.1/armv7e-m/fpu/crtbegin.o
 .text          0x080001e4      0x13c ./rt-thread/libcpu/arm/cortex-m4/context_gcc.o
                0x080001e4                rt_hw_interrupt_disable
                0x080001ec                rt_hw_interrupt_enable
                0x080001f2                rt_hw_context_switch_interrupt
                0x080001f2                rt_hw_context_switch
                0x08000212                PendSV_Handler
                0x0800027e                rt_hw_context_switch_to
                0x080002c4                rt_hw_interrupt_thread_switch
                0x080002c8                HardFault_Handler
 .text          0x08000320      0x134 c:/rt-threadstudio/repo/extract/toolchain_support_packages/arm/gnu_tools_for_arm_embedded_processors/5.4.1/bin/../lib/gcc/arm-none-eabi/5.4.1/../../../../arm-none-eabi/lib/armv7e-m/fpu\libc.a(lib_a-memcpy.o)
                0x08000320                memcpy
 *fill*         0x08000454        0xc 00000000
 .text          0x08000460      0x2dc c:/rt-threadstudio/repo/extract/toolchain_support_packages/arm/gnu_tools_for_arm_embedded_processors/5.4.1/bin/../lib/gcc/arm-none-eabi/5.4.1/../../../../arm-none-eabi/lib/armv7e-m/fpu\libc.a(lib_a-strcmp.o)
                0x08000468                strcmp
 *fill*         0x0800073c        0x4 00000000
 .text          0x08000740       0xdc c:/rt-threadstudio/repo/extract/toolchain_support_packages/arm/gnu_tools_for_arm_embedded_processors/5.4.1/bin/../lib/gcc/arm-none-eabi/5.4.1/../../../../arm-none-eabi/lib/armv7e-m/fpu\libc.a(lib_a-strlen.o)
                0x08000740                strlen
 .text          0x0800081c      0x370 c:/rt-threadstudio/repo/extract/toolchain_support_packages/arm/gnu_tools_for_arm_embedded_processors/5.4.1/bin/../lib/gcc/arm-none-eabi/5.4.1/armv7e-m/fpu\libgcc.a(_arm_addsubdf3.o)
                0x0800081c                __aeabi_drsub
                0x08000824                __aeabi_dsub
                0x08000824                __subdf3
                0x08000828                __aeabi_dadd
                0x08000828                __adddf3
                0x08000aa0                __floatunsidf
                0x08000aa0                __aeabi_ui2d
                0x08000ac0                __floatsidf
                0x08000ac0                __aeabi_i2d
                0x08000ae4                __aeabi_f2d
                0x08000ae4                __extendsfdf2
                0x08000b20                __floatundidf
                0x08000b20                __aeabi_ul2d
                0x08000b30                __floatdidf
                0x08000b30                __aeabi_l2d
 .text          0x08000b8c      0x424 c:/rt-threadstudio/repo/extract/toolchain_support_packages/arm/gnu_tools_for_arm_embedded_processors/5.4.1/bin/../lib/gcc/arm-none-eabi/5.4.1/armv7e-m/fpu\libgcc.a(_arm_muldivdf3.o)
                0x08000b8c                __aeabi_dmul
                0x08000b8c                __muldf3
                0x08000de0                __divdf3
                0x08000de0                __aeabi_ddiv
 .text          0x08000fb0       0x50 c:/rt-threadstudio/repo/extract/toolchain_support_packages/arm/gnu_tools_for_arm_embedded_processors/5.4.1/bin/../lib/gcc/arm-none-eabi/5.4.1/armv7e-m/fpu\libgcc.a(_arm_fixdfsi.o)
                0x08000fb0                __aeabi_d2iz
                0x08000fb0                __fixdfsi
 .text          0x08001000       0x30 c:/rt-threadstudio/repo/extract/toolchain_support_packages/arm/gnu_tools_for_arm_embedded_processors/5.4.1/bin/../lib/gcc/arm-none-eabi/5.4.1/armv7e-m/fpu\libgcc.a(_aeabi_uldivmod.o)
                0x08001000                __aeabi_uldivmod
 .text          0x08001030      0x2e4 c:/rt-threadstudio/repo/extract/toolchain_support_packages/arm/gnu_tools_for_arm_embedded_processors/5.4.1/bin/../lib/gcc/arm-none-eabi/5.4.1/armv7e-m/fpu\libgcc.a(_udivmoddi4.o)
                0x08001030                __udivmoddi4
 .text          0x08001314        0x4 c:/rt-threadstudio/repo/extract/toolchain_support_packages/arm/gnu_tools_for_arm_embedded_processors/5.4.1/bin/../lib/gcc/arm-none-eabi/5.4.1/armv7e-m/fpu\libgcc.a(_dvmd_tls.o)
                0x08001314                __aeabi_idiv0
                0x08001314                __aeabi_ldiv0
 *(.text.*)
 .text.rt_tick_get
                0x08001318       0x18 ./rt-thread/src/clock.o
                0x08001318                rt_tick_get
 .text.rt_tick_increase
                0x08001330       0x6c ./rt-thread/src/clock.o
                0x08001330                rt_tick_increase
 .text.rt_tick_from_millisecond
                0x0800139c       0x74 ./rt-thread/src/clock.o
                0x0800139c                rt_tick_from_millisecond
 .text.rti_start
                0x08001410       0x10 ./rt-thread/src/components.o
 .text.rti_board_start
                0x08001420       0x10 ./rt-thread/src/components.o
 .text.rti_board_end
                0x08001430       0x10 ./rt-thread/src/components.o
 .text.rti_end  0x08001440       0x10 ./rt-thread/src/components.o
 .text.rt_components_board_init
                0x08001450       0x30 ./rt-thread/src/components.o
                0x08001450                rt_components_board_init
 .text.rt_components_init
                0x08001480       0x30 ./rt-thread/src/components.o
                0x08001480                rt_components_init
 .text.entry    0x080014b0       0x10 ./rt-thread/src/components.o
                0x080014b0                entry
 .text.main_thread_entry
                0x080014c0       0x18 ./rt-thread/src/components.o
                0x080014c0                main_thread_entry
 .text.rt_application_init
                0x080014d8       0x4c ./rt-thread/src/components.o
                0x080014d8                rt_application_init
 .text.rtthread_startup
                0x08001524       0x30 ./rt-thread/src/components.o
                0x08001524                rtthread_startup
 .text.rt_device_register
                0x08001554       0x54 ./rt-thread/src/device.o
                0x08001554                rt_device_register
 .text.rt_device_find
                0x080015a8       0x1c ./rt-thread/src/device.o
                0x080015a8                rt_device_find
 .text.rt_device_open
                0x080015c4      0x118 ./rt-thread/src/device.o
                0x080015c4                rt_device_open
 .text.rt_device_close
                0x080016dc       0x9c ./rt-thread/src/device.o
                0x080016dc                rt_device_close
 .text.rt_device_read
                0x08001778       0x88 ./rt-thread/src/device.o
                0x08001778                rt_device_read
 .text.rt_device_write
                0x08001800       0x88 ./rt-thread/src/device.o
                0x08001800                rt_device_write
 .text.rt_device_control
                0x08001888       0x68 ./rt-thread/src/device.o
                0x08001888                rt_device_control
 .text.rt_device_set_rx_indicate
                0x080018f0       0x54 ./rt-thread/src/device.o
                0x080018f0                rt_device_set_rx_indicate
 .text.rt_list_insert_after
                0x08001944       0x34 ./rt-thread/src/idle.o
 .text.rt_list_remove
                0x08001978       0x38 ./rt-thread/src/idle.o
 .text.rt_thread_defunct_enqueue
                0x080019b0       0x20 ./rt-thread/src/idle.o
                0x080019b0                rt_thread_defunct_enqueue
 .text.rt_thread_defunct_dequeue
                0x080019d0       0x38 ./rt-thread/src/idle.o
                0x080019d0                rt_thread_defunct_dequeue
 .text.rt_defunct_execute
                0x08001a08       0xac ./rt-thread/src/idle.o
 .text.rt_thread_idle_entry
                0x08001ab4       0x38 ./rt-thread/src/idle.o
 .text.rt_thread_idle_init
                0x08001aec       0x74 ./rt-thread/src/idle.o
                0x08001aec                rt_thread_idle_init
 .text.rt_list_init
                0x08001b60       0x24 ./rt-thread/src/ipc.o
 .text.rt_list_insert_before
                0x08001b84       0x34 ./rt-thread/src/ipc.o
 .text.rt_list_isempty
                0x08001bb8       0x24 ./rt-thread/src/ipc.o
 .text._ipc_object_init
                0x08001bdc       0x1c ./rt-thread/src/ipc.o
 .text._ipc_list_suspend
                0x08001bf8       0xa4 ./rt-thread/src/ipc.o
 .text._ipc_list_resume
                0x08001c9c       0x20 ./rt-thread/src/ipc.o
 .text._ipc_list_resume_all
                0x08001cbc       0x48 ./rt-thread/src/ipc.o
 .text.rt_sem_init
                0x08001d04       0x6c ./rt-thread/src/ipc.o
                0x08001d04                rt_sem_init
 .text.rt_sem_create
                0x08001d70       0x90 ./rt-thread/src/ipc.o
                0x08001d70                rt_sem_create
 .text.rt_sem_take
                0x08001e00      0x160 ./rt-thread/src/ipc.o
                0x08001e00                rt_sem_take
 .text.rt_sem_release
                0x08001f60       0xbc ./rt-thread/src/ipc.o
                0x08001f60                rt_sem_release
 .text.rt_sem_control
                0x0800201c       0x84 ./rt-thread/src/ipc.o
                0x0800201c                rt_sem_control
 .text.rt_mutex_init
                0x080020a0       0x64 ./rt-thread/src/ipc.o
                0x080020a0                rt_mutex_init
 .text.rt_mutex_take
                0x08002104      0x1ec ./rt-thread/src/ipc.o
                0x08002104                rt_mutex_take
 .text.rt_mutex_release
                0x080022f0      0x1bc ./rt-thread/src/ipc.o
                0x080022f0                rt_mutex_release
 .text.rt_interrupt_enter
                0x080024ac       0x40 ./rt-thread/src/irq.o
                0x080024ac                rt_interrupt_enter
 .text.rt_interrupt_leave
                0x080024ec       0x40 ./rt-thread/src/irq.o
                0x080024ec                rt_interrupt_leave
 .text.rt_interrupt_get_nest
                0x0800252c       0x28 ./rt-thread/src/irq.o
                0x0800252c                rt_interrupt_get_nest
 .text.rt_set_errno
                0x08002554       0x40 ./rt-thread/src/kservice.o
                0x08002554                rt_set_errno
 .text.rt_memset
                0x08002594       0xb8 ./rt-thread/src/kservice.o
                0x08002594                rt_memset
 .text.rt_memcpy
                0x0800264c       0xd4 ./rt-thread/src/kservice.o
                0x0800264c                rt_memcpy
 .text.rt_memmove
                0x08002720       0x84 ./rt-thread/src/kservice.o
                0x08002720                rt_memmove
 .text.rt_strncpy
                0x080027a4       0x64 ./rt-thread/src/kservice.o
                0x080027a4                rt_strncpy
 .text.rt_strncmp
                0x08002808       0x4c ./rt-thread/src/kservice.o
                0x08002808                rt_strncmp
 .text.rt_show_version
                0x08002854       0x4c ./rt-thread/src/kservice.o
                0x08002854                rt_show_version
 .text.divide   0x080028a0       0x68 ./rt-thread/src/kservice.o
 .text.skip_atoi
                0x08002908       0x40 ./rt-thread/src/kservice.o
 .text.print_number
                0x08002948      0x1dc ./rt-thread/src/kservice.o
 .text.rt_vsnprintf
                0x08002b24      0x560 ./rt-thread/src/kservice.o
                0x08002b24                rt_vsnprintf
 .text.rt_vsprintf
                0x08003084       0x24 ./rt-thread/src/kservice.o
                0x08003084                rt_vsprintf
 .text.rt_sprintf
                0x080030a8       0x2c ./rt-thread/src/kservice.o
                0x080030a8                rt_sprintf
 .text.rt_console_get_device
                0x080030d4       0x18 ./rt-thread/src/kservice.o
                0x080030d4                rt_console_get_device
 .text.rt_console_set_device
                0x080030ec       0x58 ./rt-thread/src/kservice.o
                0x080030ec                rt_console_set_device
 .text.rt_hw_console_output
                0x08003144       0x14 ./rt-thread/src/kservice.o
                0x08003144                rt_hw_console_output
 .text.rt_kprintf
                0x08003158       0x5c ./rt-thread/src/kservice.o
                0x08003158                rt_kprintf
 .text.__rt_ffs
                0x080031b4       0x70 ./rt-thread/src/kservice.o
                0x080031b4                __rt_ffs
 .text.rt_assert_handler
                0x08003224       0x4c ./rt-thread/src/kservice.o
                0x08003224                rt_assert_handler
 .text.plug_holes
                0x08003270      0x100 ./rt-thread/src/mem.o
 .text.rt_system_heap_init
                0x08003370      0x118 ./rt-thread/src/mem.o
                0x08003370                rt_system_heap_init
 .text.rt_malloc
                0x08003488      0x294 ./rt-thread/src/mem.o
                0x08003488                rt_malloc
 .text.rt_calloc
                0x0800371c       0x3c ./rt-thread/src/mem.o
                0x0800371c                rt_calloc
 .text.rt_free  0x08003758      0x188 ./rt-thread/src/mem.o
                0x08003758                rt_free
 .text.list_mem
                0x080038e0       0x44 ./rt-thread/src/mem.o
                0x080038e0                list_mem
 .text.rt_list_insert_after
                0x08003924       0x34 ./rt-thread/src/object.o
 .text.rt_list_remove
                0x08003958       0x38 ./rt-thread/src/object.o
 .text.rt_object_get_information
                0x08003990       0x48 ./rt-thread/src/object.o
                0x08003990                rt_object_get_information
 .text.rt_object_init
                0x080039d8       0xcc ./rt-thread/src/object.o
                0x080039d8                rt_object_init
 .text.rt_object_detach
                0x08003aa4       0x5c ./rt-thread/src/object.o
                0x08003aa4                rt_object_detach
 .text.rt_object_allocate
                0x08003b00       0xd8 ./rt-thread/src/object.o
                0x08003b00                rt_object_allocate
 .text.rt_object_delete
                0x08003bd8       0x7c ./rt-thread/src/object.o
                0x08003bd8                rt_object_delete
 .text.rt_object_is_systemobject
                0x08003c54       0x3c ./rt-thread/src/object.o
                0x08003c54                rt_object_is_systemobject
 .text.rt_object_get_type
                0x08003c90       0x34 ./rt-thread/src/object.o
                0x08003c90                rt_object_get_type
 .text.rt_object_find
                0x08003cc4       0xb4 ./rt-thread/src/object.o
                0x08003cc4                rt_object_find
 .text.rt_list_init
                0x08003d78       0x24 ./rt-thread/src/scheduler.o
 .text.rt_list_insert_before
                0x08003d9c       0x34 ./rt-thread/src/scheduler.o
 .text.rt_list_remove
                0x08003dd0       0x38 ./rt-thread/src/scheduler.o
 .text.rt_list_isempty
                0x08003e08       0x24 ./rt-thread/src/scheduler.o
 .text._rt_scheduler_stack_check
                0x08003e2c       0x94 ./rt-thread/src/scheduler.o
 .text._scheduler_get_highest_priority_thread
                0x08003ec0       0x38 ./rt-thread/src/scheduler.o
 .text.rt_system_scheduler_init
                0x08003ef8       0x38 ./rt-thread/src/scheduler.o
                0x08003ef8                rt_system_scheduler_init
 .text.rt_system_scheduler_start
                0x08003f30       0x38 ./rt-thread/src/scheduler.o
                0x08003f30                rt_system_scheduler_start
 .text.rt_schedule
                0x08003f68      0x19c ./rt-thread/src/scheduler.o
                0x08003f68                rt_schedule
 .text.rt_schedule_insert_thread
                0x08004104       0xac ./rt-thread/src/scheduler.o
                0x08004104                rt_schedule_insert_thread
 .text.rt_schedule_remove_thread
                0x080041b0       0x70 ./rt-thread/src/scheduler.o
                0x080041b0                rt_schedule_remove_thread
 .text.rt_enter_critical
                0x08004220       0x2c ./rt-thread/src/scheduler.o
                0x08004220                rt_enter_critical
 .text.rt_exit_critical
                0x0800424c       0x54 ./rt-thread/src/scheduler.o
                0x0800424c                rt_exit_critical
 .text.rt_list_init
                0x080042a0       0x24 ./rt-thread/src/thread.o
 .text.rt_list_remove
                0x080042c4       0x38 ./rt-thread/src/thread.o
 .text._thread_cleanup_execute
                0x080042fc       0x2c ./rt-thread/src/thread.o
 .text._thread_exit
                0x08004328       0x5c ./rt-thread/src/thread.o
 .text._thread_init
                0x08004384       0xf8 ./rt-thread/src/thread.o
 .text.rt_thread_init
                0x0800447c       0x70 ./rt-thread/src/thread.o
                0x0800447c                rt_thread_init
 .text.rt_thread_self
                0x080044ec       0x18 ./rt-thread/src/thread.o
                0x080044ec                rt_thread_self
 .text.rt_thread_startup
                0x08004504       0xa0 ./rt-thread/src/thread.o
                0x08004504                rt_thread_startup
 .text.rt_thread_detach
                0x080045a4       0xc8 ./rt-thread/src/thread.o
                0x080045a4                rt_thread_detach
 .text.rt_thread_create
                0x0800466c       0x64 ./rt-thread/src/thread.o
                0x0800466c                rt_thread_create
 .text.rt_thread_delete
                0x080046d0       0xb4 ./rt-thread/src/thread.o
                0x080046d0                rt_thread_delete
 .text.rt_thread_sleep
                0x08004784       0x8c ./rt-thread/src/thread.o
                0x08004784                rt_thread_sleep
 .text.rt_thread_delay
                0x08004810       0x18 ./rt-thread/src/thread.o
                0x08004810                rt_thread_delay
 .text.rt_thread_mdelay
                0x08004828       0x20 ./rt-thread/src/thread.o
                0x08004828                rt_thread_mdelay
 .text.rt_thread_control
                0x08004848       0xf0 ./rt-thread/src/thread.o
                0x08004848                rt_thread_control
 .text.rt_thread_suspend
                0x08004938       0xcc ./rt-thread/src/thread.o
                0x08004938                rt_thread_suspend
 .text.rt_thread_resume
                0x08004a04       0x98 ./rt-thread/src/thread.o
                0x08004a04                rt_thread_resume
 .text.rt_thread_timeout
                0x08004a9c       0x90 ./rt-thread/src/thread.o
                0x08004a9c                rt_thread_timeout
 .text.rt_list_init
                0x08004b2c       0x24 ./rt-thread/src/timer.o
 .text.rt_list_insert_after
                0x08004b50       0x34 ./rt-thread/src/timer.o
 .text.rt_list_remove
                0x08004b84       0x38 ./rt-thread/src/timer.o
 .text.rt_list_isempty
                0x08004bbc       0x24 ./rt-thread/src/timer.o
 .text._timer_init
                0x08004be0       0x68 ./rt-thread/src/timer.o
 .text._timer_list_next_timeout
                0x08004c48       0x40 ./rt-thread/src/timer.o
 .text._timer_remove
                0x08004c88       0x34 ./rt-thread/src/timer.o
 .text.rt_timer_init
                0x08004cbc       0x4c ./rt-thread/src/timer.o
                0x08004cbc                rt_timer_init
 .text.rt_timer_detach
                0x08004d08       0x90 ./rt-thread/src/timer.o
                0x08004d08                rt_timer_detach
 .text.rt_timer_create
                0x08004d98       0x40 ./rt-thread/src/timer.o
                0x08004d98                rt_timer_create
 .text.rt_timer_start
                0x08004dd8      0x244 ./rt-thread/src/timer.o
                0x08004dd8                rt_timer_start
 .text.rt_timer_stop
                0x0800501c       0x94 ./rt-thread/src/timer.o
                0x0800501c                rt_timer_stop
 .text.rt_timer_control
                0x080050b0       0xd0 ./rt-thread/src/timer.o
                0x080050b0                rt_timer_control
 .text.rt_timer_check
                0x08005180      0x108 ./rt-thread/src/timer.o
                0x08005180                rt_timer_check
 .text.rt_soft_timer_check
                0x08005288      0x120 ./rt-thread/src/timer.o
                0x08005288                rt_soft_timer_check
 .text._timer_thread_entry
                0x080053a8       0x58 ./rt-thread/src/timer.o
 .text.rt_system_timer_init
                0x08005400       0x34 ./rt-thread/src/timer.o
                0x08005400                rt_system_timer_init
 .text.rt_system_timer_thread_init
                0x08005434       0x68 ./rt-thread/src/timer.o
                0x08005434                rt_system_timer_thread_init
 .text.rt_hw_stack_init
                0x0800549c       0x90 ./rt-thread/libcpu/arm/cortex-m4/cpuport.o
                0x0800549c                rt_hw_stack_init
 .text.usage_fault_track
                0x0800552c       0xc4 ./rt-thread/libcpu/arm/cortex-m4/cpuport.o
 .text.bus_fault_track
                0x080055f0       0xcc ./rt-thread/libcpu/arm/cortex-m4/cpuport.o
 .text.mem_manage_fault_track
                0x080056bc       0xb4 ./rt-thread/libcpu/arm/cortex-m4/cpuport.o
 .text.hard_fault_track
                0x08005770       0x78 ./rt-thread/libcpu/arm/cortex-m4/cpuport.o
 .text.rt_hw_hard_fault_exception
                0x080057e8      0x184 ./rt-thread/libcpu/arm/cortex-m4/cpuport.o
                0x080057e8                rt_hw_hard_fault_exception
 .text.rt_hw_cpu_reset
                0x0800596c       0x1c ./rt-thread/libcpu/arm/cortex-m4/cpuport.o
                0x0800596c                rt_hw_cpu_reset
 .text.libc_system_init
                0x08005988       0x10 ./rt-thread/components/libc/compilers/gcc/newlib/libc.o
                0x08005988                libc_system_init
 .text._malloc_r
                0x08005998       0x28 ./rt-thread/components/libc/compilers/gcc/newlib/syscalls.o
                0x08005998                _malloc_r
 .text.rt_list_isempty
                0x080059c0       0x24 ./rt-thread/components/finsh/cmd.o
 .text.rt_list_len
                0x080059e4       0x38 ./rt-thread/components/finsh/cmd.o
 .text.hello    0x08005a1c       0x14 ./rt-thread/components/finsh/cmd.o
                0x08005a1c                hello
 .text.clear    0x08005a30       0x14 ./rt-thread/components/finsh/cmd.o
 .text.version  0x08005a44       0x10 ./rt-thread/components/finsh/cmd.o
                0x08005a44                version
 .text.object_split
                0x08005a54       0x28 ./rt-thread/components/finsh/cmd.o
 .text.list_find_init
                0x08005a7c       0x48 ./rt-thread/components/finsh/cmd.o
 .text.list_get_next
                0x08005ac4       0xc8 ./rt-thread/components/finsh/cmd.o
 .text.list_thread
                0x08005b8c      0x208 ./rt-thread/components/finsh/cmd.o
                0x08005b8c                list_thread
 .text.show_wait_queue
                0x08005d94       0x50 ./rt-thread/components/finsh/cmd.o
 .text.list_sem
                0x08005de4      0x12c ./rt-thread/components/finsh/cmd.o
                0x08005de4                list_sem
 .text.list_event
                0x08005f10      0x118 ./rt-thread/components/finsh/cmd.o
                0x08005f10                list_event
 .text.list_mutex
                0x08006028       0xe8 ./rt-thread/components/finsh/cmd.o
                0x08006028                list_mutex
 .text.list_mailbox
                0x08006110      0x13c ./rt-thread/components/finsh/cmd.o
                0x08006110                list_mailbox
 .text.list_msgqueue
                0x0800624c      0x12c ./rt-thread/components/finsh/cmd.o
                0x0800624c                list_msgqueue
 .text.list_mempool
                0x08006378      0x144 ./rt-thread/components/finsh/cmd.o
                0x08006378                list_mempool
 .text.list_timer
                0x080064bc      0x108 ./rt-thread/components/finsh/cmd.o
                0x080064bc                list_timer
 .text.list_device
                0x080065c4       0xf0 ./rt-thread/components/finsh/cmd.o
                0x080065c4                list_device
 .text.list     0x080066b4       0x6c ./rt-thread/components/finsh/cmd.o
                0x080066b4                list
 .text.msh_help
                0x08006720       0x5c ./rt-thread/components/finsh/msh.o
                0x08006720                msh_help
 .text.cmd_ps   0x0800677c       0x18 ./rt-thread/components/finsh/msh.o
                0x0800677c                cmd_ps
 .text.cmd_free
                0x08006794       0x18 ./rt-thread/components/finsh/msh.o
                0x08006794                cmd_free
 .text.msh_split
                0x080067ac      0x170 ./rt-thread/components/finsh/msh.o
 .text.msh_get_cmd
                0x0800691c       0x64 ./rt-thread/components/finsh/msh.o
 .text._msh_exec_cmd
                0x08006980       0xd4 ./rt-thread/components/finsh/msh.o
 .text.msh_exec
                0x08006a54       0x8c ./rt-thread/components/finsh/msh.o
                0x08006a54                msh_exec
 .text.str_common
                0x08006ae0       0x4c ./rt-thread/components/finsh/msh.o
 .text.msh_auto_complete
                0x08006b2c       0xb4 ./rt-thread/components/finsh/msh.o
                0x08006b2c                msh_auto_complete
 .text.finsh_get_prompt
                0x08006be0       0x7c ./rt-thread/components/finsh/shell.o
                0x08006be0                finsh_get_prompt
 .text.finsh_set_prompt_mode
                0x08006c5c       0x48 ./rt-thread/components/finsh/shell.o
                0x08006c5c                finsh_set_prompt_mode
 .text.finsh_getchar
                0x08006ca4       0x6c ./rt-thread/components/finsh/shell.o
                0x08006ca4                finsh_getchar
 .text.finsh_rx_ind
                0x08006d10       0x3c ./rt-thread/components/finsh/shell.o
 .text.finsh_set_device
                0x08006d4c       0xd8 ./rt-thread/components/finsh/shell.o
                0x08006d4c                finsh_set_device
 .text.shell_auto_complete
                0x08006e24       0x34 ./rt-thread/components/finsh/shell.o
 .text.shell_handle_history
                0x08006e58       0x34 ./rt-thread/components/finsh/shell.o
 .text.shell_push_history
                0x08006e8c      0x160 ./rt-thread/components/finsh/shell.o
 .text.finsh_thread_entry
                0x08006fec      0x5d0 ./rt-thread/components/finsh/shell.o
                0x08006fec                finsh_thread_entry
 .text.finsh_system_function_init
                0x080075bc       0x2c ./rt-thread/components/finsh/shell.o
                0x080075bc                finsh_system_function_init
 .text.finsh_system_init
                0x080075e8       0x9c ./rt-thread/components/finsh/shell.o
                0x080075e8                finsh_system_init
 .text.rt_list_init
                0x08007684       0x24 ./rt-thread/components/drivers/src/completion.o
 .text.rt_list_insert_before
                0x080076a8       0x34 ./rt-thread/components/drivers/src/completion.o
 .text.rt_list_isempty
                0x080076dc       0x24 ./rt-thread/components/drivers/src/completion.o
 .text.rt_completion_init
                0x08007700       0x44 ./rt-thread/components/drivers/src/completion.o
                0x08007700                rt_completion_init
 .text.rt_completion_wait
                0x08007744       0xfc ./rt-thread/components/drivers/src/completion.o
                0x08007744                rt_completion_wait
 .text.rt_completion_done
                0x08007840       0x70 ./rt-thread/components/drivers/src/completion.o
                0x08007840                rt_completion_done
 .text.rt_list_init
                0x080078b0       0x24 ./rt-thread/components/drivers/src/dataqueue.o
 .text.rt_list_insert_before
                0x080078d4       0x34 ./rt-thread/components/drivers/src/dataqueue.o
 .text.rt_list_isempty
                0x08007908       0x24 ./rt-thread/components/drivers/src/dataqueue.o
 .text.rt_data_queue_init
                0x0800792c       0xc0 ./rt-thread/components/drivers/src/dataqueue.o
                0x0800792c                rt_data_queue_init
 .text.rt_data_queue_push
                0x080079ec      0x1ec ./rt-thread/components/drivers/src/dataqueue.o
                0x080079ec                rt_data_queue_push
 .text.rt_data_queue_pop
                0x08007bd8      0x248 ./rt-thread/components/drivers/src/dataqueue.o
                0x08007bd8                rt_data_queue_pop
 .text.rt_data_queue_peek
                0x08007e20       0xa4 ./rt-thread/components/drivers/src/dataqueue.o
                0x08007e20                rt_data_queue_peek
 .text.rt_data_queue_reset
                0x08007ec4       0xfc ./rt-thread/components/drivers/src/dataqueue.o
                0x08007ec4                rt_data_queue_reset
 .text.rt_data_queue_deinit
                0x08007fc0       0x70 ./rt-thread/components/drivers/src/dataqueue.o
                0x08007fc0                rt_data_queue_deinit
 .text.rt_data_queue_len
                0x08008030       0xc8 ./rt-thread/components/drivers/src/dataqueue.o
                0x08008030                rt_data_queue_len
 .text.rt_spi_bus_register
                0x080080f8       0x4c ./rt-thread/components/drivers/spi/spi_core.o
                0x080080f8                rt_spi_bus_register
 .text.rt_spi_bus_attach_device
                0x08008144       0x64 ./rt-thread/components/drivers/spi/spi_core.o
                0x08008144                rt_spi_bus_attach_device
 .text.rt_spi_configure
                0x080081a8       0x94 ./rt-thread/components/drivers/spi/spi_core.o
                0x080081a8                rt_spi_configure
 .text.rt_spi_transfer
                0x0800823c      0x108 ./rt-thread/components/drivers/spi/spi_core.o
                0x0800823c                rt_spi_transfer
 .text.rt_spi_transfer_message
                0x08008344       0xdc ./rt-thread/components/drivers/spi/spi_core.o
                0x08008344                rt_spi_transfer_message
 .text._spi_bus_device_read
                0x08008420       0x58 ./rt-thread/components/drivers/spi/spi_dev.o
 .text._spi_bus_device_write
                0x08008478       0x58 ./rt-thread/components/drivers/spi/spi_dev.o
 .text._spi_bus_device_control
                0x080084d0       0x28 ./rt-thread/components/drivers/spi/spi_dev.o
 .text.rt_spi_bus_device_init
                0x080084f8       0x70 ./rt-thread/components/drivers/spi/spi_dev.o
                0x080084f8                rt_spi_bus_device_init
 .text._spidev_device_read
                0x08008568       0x58 ./rt-thread/components/drivers/spi/spi_dev.o
 .text._spidev_device_write
                0x080085c0       0x58 ./rt-thread/components/drivers/spi/spi_dev.o
 .text._spidev_device_control
                0x08008618       0x28 ./rt-thread/components/drivers/spi/spi_dev.o
 .text.rt_spidev_device_init
                0x08008640       0x70 ./rt-thread/components/drivers/spi/spi_dev.o
                0x08008640                rt_spidev_device_init
 .text._serial_poll_rx
                0x080086b0       0x80 ./rt-thread/components/drivers/serial/serial.o
 .text._serial_poll_tx
                0x08008730       0x7c ./rt-thread/components/drivers/serial/serial.o
 .text._serial_int_rx
                0x080087ac       0xd8 ./rt-thread/components/drivers/serial/serial.o
 .text._serial_int_tx
                0x08008884       0xc4 ./rt-thread/components/drivers/serial/serial.o
 .text._serial_check_buffer_size
                0x08008948       0x38 ./rt-thread/components/drivers/serial/serial.o
 .text._serial_fifo_calc_recved_len
                0x08008980       0x88 ./rt-thread/components/drivers/serial/serial.o
 .text.rt_dma_calc_recved_len
                0x08008a08       0x18 ./rt-thread/components/drivers/serial/serial.o
 .text.rt_dma_recv_update_get_index
                0x08008a20       0xa4 ./rt-thread/components/drivers/serial/serial.o
 .text.rt_dma_recv_update_put_index
                0x08008ac4       0xf8 ./rt-thread/components/drivers/serial/serial.o
 .text._serial_dma_rx
                0x08008bbc      0x198 ./rt-thread/components/drivers/serial/serial.o
 .text._serial_dma_tx
                0x08008d54       0x70 ./rt-thread/components/drivers/serial/serial.o
 .text.rt_serial_init
                0x08008dc4       0x5c ./rt-thread/components/drivers/serial/serial.o
 .text.rt_serial_open
                0x08008e20      0x36c ./rt-thread/components/drivers/serial/serial.o
 .text.rt_serial_close
                0x0800918c      0x1e0 ./rt-thread/components/drivers/serial/serial.o
 .text.rt_serial_read
                0x0800936c       0x84 ./rt-thread/components/drivers/serial/serial.o
 .text.rt_serial_write
                0x080093f0       0x84 ./rt-thread/components/drivers/serial/serial.o
 .text.rt_serial_control
                0x08009474       0xd0 ./rt-thread/components/drivers/serial/serial.o
 .text.rt_hw_serial_register
                0x08009544       0x9c ./rt-thread/components/drivers/serial/serial.o
                0x08009544                rt_hw_serial_register
 .text.rt_hw_serial_isr
                0x080095e0      0x264 ./rt-thread/components/drivers/serial/serial.o
                0x080095e0                rt_hw_serial_isr
 .text.sensor_show_data
                0x08009844      0x368 ./rt-thread/components/drivers/sensors/sensor_cmd.o
 .text.rx_callback
                0x08009bac       0x24 ./rt-thread/components/drivers/sensors/sensor_cmd.o
 .text.sensor_fifo_rx_entry
                0x08009bd0       0xb0 ./rt-thread/components/drivers/sensors/sensor_cmd.o
 .text.sensor_fifo
                0x08009c80      0x108 ./rt-thread/components/drivers/sensors/sensor_cmd.o
 .text.sensor_irq_rx_entry
                0x08009d88       0x50 ./rt-thread/components/drivers/sensors/sensor_cmd.o
 .text.sensor_int
                0x08009dd8      0x108 ./rt-thread/components/drivers/sensors/sensor_cmd.o
 .text.sensor_polling
                0x08009ee0      0x10c ./rt-thread/components/drivers/sensors/sensor_cmd.o
 .text.sensor   0x08009fec      0x5ec ./rt-thread/components/drivers/sensors/sensor_cmd.o
 .text._pin_read
                0x0800a5d8       0x60 ./rt-thread/components/drivers/misc/pin.o
 .text._pin_write
                0x0800a638       0x5c ./rt-thread/components/drivers/misc/pin.o
 .text._pin_control
                0x0800a694       0x58 ./rt-thread/components/drivers/misc/pin.o
 .text.rt_device_pin_register
                0x0800a6ec       0x74 ./rt-thread/components/drivers/misc/pin.o
                0x0800a6ec                rt_device_pin_register
 .text.rt_pin_mode
                0x0800a760       0x40 ./rt-thread/components/drivers/misc/pin.o
                0x0800a760                rt_pin_mode
 .text.rt_pin_write
                0x0800a7a0       0x40 ./rt-thread/components/drivers/misc/pin.o
                0x0800a7a0                rt_pin_write
 .text.rt_pin_read
                0x0800a7e0       0x3c ./rt-thread/components/drivers/misc/pin.o
                0x0800a7e0                rt_pin_read
 .text._pwm_control
                0x0800a81c       0x38 ./rt-thread/components/drivers/misc/rt_drv_pwm.o
 .text._pwm_read
                0x0800a854       0x64 ./rt-thread/components/drivers/misc/rt_drv_pwm.o
 .text._pwm_write
                0x0800a8b8       0x80 ./rt-thread/components/drivers/misc/rt_drv_pwm.o
 .text.rt_device_pwm_register
                0x0800a938       0x78 ./rt-thread/components/drivers/misc/rt_drv_pwm.o
                0x0800a938                rt_device_pwm_register
 .text.rt_pwm_enable
                0x0800a9b0       0x5c ./rt-thread/components/drivers/misc/rt_drv_pwm.o
                0x0800a9b0                rt_pwm_enable
 .text.rt_pwm_disable
                0x0800aa0c       0x5c ./rt-thread/components/drivers/misc/rt_drv_pwm.o
                0x0800aa0c                rt_pwm_disable
 .text.rt_pwm_set
                0x0800aa68       0x54 ./rt-thread/components/drivers/misc/rt_drv_pwm.o
                0x0800aa68                rt_pwm_set
 .text.rt_pwm_get
                0x0800aabc       0x34 ./rt-thread/components/drivers/misc/rt_drv_pwm.o
                0x0800aabc                rt_pwm_get
 .text.pwm_enable
                0x0800aaf0       0x74 ./rt-thread/components/drivers/misc/rt_drv_pwm.o
 .text.pwm_disable
                0x0800ab64       0x74 ./rt-thread/components/drivers/misc/rt_drv_pwm.o
 .text.pwm_set  0x0800abd8       0x94 ./rt-thread/components/drivers/misc/rt_drv_pwm.o
 .text.pwm_get  0x0800ac6c      0x120 ./rt-thread/components/drivers/misc/rt_drv_pwm.o
 .text.i2c_delay
                0x0800ad8c       0x20 ./rt-thread/components/drivers/i2c/i2c-bit-ops.o
 .text.i2c_delay2
                0x0800adac       0x1c ./rt-thread/components/drivers/i2c/i2c-bit-ops.o
 .text.SCL_H    0x0800adc8       0x74 ./rt-thread/components/drivers/i2c/i2c-bit-ops.o
 .text.i2c_start
                0x0800ae3c       0x34 ./rt-thread/components/drivers/i2c/i2c-bit-ops.o
 .text.i2c_restart
                0x0800ae70       0x4c ./rt-thread/components/drivers/i2c/i2c-bit-ops.o
 .text.i2c_stop
                0x0800aebc       0x44 ./rt-thread/components/drivers/i2c/i2c-bit-ops.o
 .text.i2c_waitack
                0x0800af00       0x80 ./rt-thread/components/drivers/i2c/i2c-bit-ops.o
 .text.i2c_writeb
                0x0800af80       0x8c ./rt-thread/components/drivers/i2c/i2c-bit-ops.o
 .text.i2c_readb
                0x0800b00c       0x88 ./rt-thread/components/drivers/i2c/i2c-bit-ops.o
 .text.i2c_send_bytes
                0x0800b094       0x98 ./rt-thread/components/drivers/i2c/i2c-bit-ops.o
 .text.i2c_send_ack_or_nack
                0x0800b12c       0x74 ./rt-thread/components/drivers/i2c/i2c-bit-ops.o
 .text.i2c_recv_bytes
                0x0800b1a0       0x7c ./rt-thread/components/drivers/i2c/i2c-bit-ops.o
 .text.i2c_send_address
                0x0800b21c       0x64 ./rt-thread/components/drivers/i2c/i2c-bit-ops.o
 .text.i2c_bit_send_address
                0x0800b280      0x164 ./rt-thread/components/drivers/i2c/i2c-bit-ops.o
 .text.i2c_bit_xfer
                0x0800b3e4      0x108 ./rt-thread/components/drivers/i2c/i2c-bit-ops.o
 .text.rt_i2c_bit_add_bus
                0x0800b4ec       0x28 ./rt-thread/components/drivers/i2c/i2c-bit-ops.o
                0x0800b4ec                rt_i2c_bit_add_bus
 .text.rt_i2c_bus_device_register
                0x0800b514       0x64 ./rt-thread/components/drivers/i2c/i2c_core.o
                0x0800b514                rt_i2c_bus_device_register
 .text.rt_i2c_transfer
                0x0800b578       0x6c ./rt-thread/components/drivers/i2c/i2c_core.o
                0x0800b578                rt_i2c_transfer
 .text.rt_i2c_control
                0x0800b5e4       0x54 ./rt-thread/components/drivers/i2c/i2c_core.o
                0x0800b5e4                rt_i2c_control
 .text.rt_i2c_master_send
                0x0800b638       0x4c ./rt-thread/components/drivers/i2c/i2c_core.o
                0x0800b638                rt_i2c_master_send
 .text.rt_i2c_master_recv
                0x0800b684       0x68 ./rt-thread/components/drivers/i2c/i2c_core.o
                0x0800b684                rt_i2c_master_recv
 .text.rt_i2c_core_init
                0x0800b6ec       0x10 ./rt-thread/components/drivers/i2c/i2c_core.o
                0x0800b6ec                rt_i2c_core_init
 .text.i2c_bus_device_read
                0x0800b6fc       0x64 ./rt-thread/components/drivers/i2c/i2c_dev.o
 .text.i2c_bus_device_write
                0x0800b760       0x64 ./rt-thread/components/drivers/i2c/i2c_dev.o
 .text.i2c_bus_device_control
                0x0800b7c4       0xd0 ./rt-thread/components/drivers/i2c/i2c_dev.o
 .text.rt_i2c_bus_device_device_init
                0x0800b894       0x78 ./rt-thread/components/drivers/i2c/i2c_dev.o
                0x0800b894                rt_i2c_bus_device_device_init
 .text.mfrc522_spi_send_no_take_no_release
                0x0800b90c       0x48 ./packages/rc522-latest/src/mfrc522.o
 .text.mfrc522_spi_recv_no_take_no_release
                0x0800b954       0x48 ./packages/rc522-latest/src/mfrc522.o
 .text.mfrc522_spi_send_then_recv_no_take_no_release
                0x0800b99c       0x74 ./packages/rc522-latest/src/mfrc522.o
 .text.MFRC522  0x0800ba10       0x54 ./packages/rc522-latest/src/mfrc522.o
                0x0800ba10                MFRC522
 .text.PCD_WriteReg_Byte
                0x0800ba64       0x50 ./packages/rc522-latest/src/mfrc522.o
                0x0800ba64                PCD_WriteReg_Byte
 .text.PCD_WriteRegister
                0x0800bab4       0x5c ./packages/rc522-latest/src/mfrc522.o
                0x0800bab4                PCD_WriteRegister
 .text.PCD_ReadReg_Byte
                0x0800bb10       0x64 ./packages/rc522-latest/src/mfrc522.o
                0x0800bb10                PCD_ReadReg_Byte
 .text.PCD_ReadRegister
                0x0800bb74      0x11c ./packages/rc522-latest/src/mfrc522.o
                0x0800bb74                PCD_ReadRegister
 .text.PCD_SetRegisterBitMask
                0x0800bc90       0x3c ./packages/rc522-latest/src/mfrc522.o
                0x0800bc90                PCD_SetRegisterBitMask
 .text.PCD_ClearRegisterBitMask
                0x0800bccc       0x44 ./packages/rc522-latest/src/mfrc522.o
                0x0800bccc                PCD_ClearRegisterBitMask
 .text.PCD_CalculateCRC
                0x0800bd10       0x98 ./packages/rc522-latest/src/mfrc522.o
                0x0800bd10                PCD_CalculateCRC
 .text.PCD_Init
                0x0800bda8      0x108 ./packages/rc522-latest/src/mfrc522.o
                0x0800bda8                PCD_Init
 .text.PCD_Reset
                0x0800beb0       0x3c ./packages/rc522-latest/src/mfrc522.o
                0x0800beb0                PCD_Reset
 .text.PCD_AntennaOn
                0x0800beec       0x34 ./packages/rc522-latest/src/mfrc522.o
                0x0800beec                PCD_AntennaOn
 .text.PCD_PerformSelfTest
                0x0800bf20      0x14c ./packages/rc522-latest/src/mfrc522.o
                0x0800bf20                PCD_PerformSelfTest
 .text.PCD_TransceiveData
                0x0800c06c       0x44 ./packages/rc522-latest/src/mfrc522.o
                0x0800c06c                PCD_TransceiveData
 .text.PCD_CommunicateWithPICC
                0x0800c0b0      0x1cc ./packages/rc522-latest/src/mfrc522.o
                0x0800c0b0                PCD_CommunicateWithPICC
 .text.PICC_RequestA
                0x0800c27c       0x20 ./packages/rc522-latest/src/mfrc522.o
                0x0800c27c                PICC_RequestA
 .text.PICC_WakeupA
                0x0800c29c       0x20 ./packages/rc522-latest/src/mfrc522.o
                0x0800c29c                PICC_WakeupA
 .text.PICC_REQA_or_WUPA
                0x0800c2bc       0x74 ./packages/rc522-latest/src/mfrc522.o
                0x0800c2bc                PICC_REQA_or_WUPA
 .text.PICC_Select
                0x0800c330      0x484 ./packages/rc522-latest/src/mfrc522.o
                0x0800c330                PICC_Select
 .text.PICC_HaltA
                0x0800c7b4       0x64 ./packages/rc522-latest/src/mfrc522.o
                0x0800c7b4                PICC_HaltA
 .text.PCD_Authenticate
                0x0800c818       0xac ./packages/rc522-latest/src/mfrc522.o
                0x0800c818                PCD_Authenticate
 .text.PCD_StopCrypto1
                0x0800c8c4       0x10 ./packages/rc522-latest/src/mfrc522.o
                0x0800c8c4                PCD_StopCrypto1
 .text.MIFARE_Read
                0x0800c8d4       0x6c ./packages/rc522-latest/src/mfrc522.o
                0x0800c8d4                MIFARE_Read
 .text.MIFARE_Write
                0x0800c940       0x68 ./packages/rc522-latest/src/mfrc522.o
                0x0800c940                MIFARE_Write
 .text.MIFARE_Decrement
                0x0800c9a8       0x24 ./packages/rc522-latest/src/mfrc522.o
                0x0800c9a8                MIFARE_Decrement
 .text.MIFARE_Increment
                0x0800c9cc       0x24 ./packages/rc522-latest/src/mfrc522.o
                0x0800c9cc                MIFARE_Increment
 .text.MIFARE_TwoStepHelper
                0x0800c9f0       0x58 ./packages/rc522-latest/src/mfrc522.o
                0x0800c9f0                MIFARE_TwoStepHelper
 .text.MIFARE_Transfer
                0x0800ca48       0x38 ./packages/rc522-latest/src/mfrc522.o
                0x0800ca48                MIFARE_Transfer
 .text.MIFARE_GetValue
                0x0800ca80       0x4c ./packages/rc522-latest/src/mfrc522.o
                0x0800ca80                MIFARE_GetValue
 .text.MIFARE_SetValue
                0x0800cacc       0x88 ./packages/rc522-latest/src/mfrc522.o
                0x0800cacc                MIFARE_SetValue
 .text.PCD_MIFARE_Transceive
                0x0800cb54       0xe0 ./packages/rc522-latest/src/mfrc522.o
                0x0800cb54                PCD_MIFARE_Transceive
 .text.GetStatusCodeName
                0x0800cc34      0x104 ./packages/rc522-latest/src/mfrc522.o
                0x0800cc34                GetStatusCodeName
 .text.PICC_GetType
                0x0800cd38      0x158 ./packages/rc522-latest/src/mfrc522.o
                0x0800cd38                PICC_GetType
 .text.PICC_GetTypeName
                0x0800ce90      0x120 ./packages/rc522-latest/src/mfrc522.o
                0x0800ce90                PICC_GetTypeName
 .text.PCD_DumpVersionToSerial
                0x0800cfb0       0xb4 ./packages/rc522-latest/src/mfrc522.o
                0x0800cfb0                PCD_DumpVersionToSerial
 .text.PICC_DumpToSerial
                0x0800d064       0xac ./packages/rc522-latest/src/mfrc522.o
                0x0800d064                PICC_DumpToSerial
 .text.PICC_DumpDetailsToSerial
                0x0800d110       0xcc ./packages/rc522-latest/src/mfrc522.o
                0x0800d110                PICC_DumpDetailsToSerial
 .text.PICC_DumpMifareClassicToSerial
                0x0800d1dc       0x80 ./packages/rc522-latest/src/mfrc522.o
                0x0800d1dc                PICC_DumpMifareClassicToSerial
 .text.PICC_DumpMifareClassicSectorToSerial
                0x0800d25c      0x4c8 ./packages/rc522-latest/src/mfrc522.o
                0x0800d25c                PICC_DumpMifareClassicSectorToSerial
 .text.PICC_DumpMifareUltralightToSerial
                0x0800d724      0x114 ./packages/rc522-latest/src/mfrc522.o
                0x0800d724                PICC_DumpMifareUltralightToSerial
 .text.MIFARE_SetAccessBits
                0x0800d838      0x130 ./packages/rc522-latest/src/mfrc522.o
                0x0800d838                MIFARE_SetAccessBits
 .text.MIFARE_OpenUidBackdoor
                0x0800d968      0x188 ./packages/rc522-latest/src/mfrc522.o
                0x0800d968                MIFARE_OpenUidBackdoor
 .text.MIFARE_SetUid
                0x0800daf0      0x238 ./packages/rc522-latest/src/mfrc522.o
                0x0800daf0                MIFARE_SetUid
 .text.MIFARE_UnbrickUidSector
                0x0800dd28       0x70 ./packages/rc522-latest/src/mfrc522.o
                0x0800dd28                MIFARE_UnbrickUidSector
 .text.PICC_IsNewCardPresent
                0x0800dd98       0x58 ./packages/rc522-latest/src/mfrc522.o
                0x0800dd98                PICC_IsNewCardPresent
 .text.PICC_ReadCardSerial
                0x0800ddf0       0x2c ./packages/rc522-latest/src/mfrc522.o
                0x0800ddf0                PICC_ReadCardSerial
 .text.get_uid  0x0800de1c       0x14 ./packages/rc522-latest/src/mfrc522.o
                0x0800de1c                get_uid
 .text.PCD_End  0x0800de30       0x20 ./packages/rc522-latest/src/mfrc522.o
                0x0800de30                PCD_End
 .text.timerout
                0x0800de50       0x20 ./packages/rc522-latest/src/mfrc522.o
 .text.rt_hw_spi_rc522_init
                0x0800de70       0x7c ./packages/rc522-latest/port/mfrc522_rtt_port.o
 .text.change_uid
                0x0800deec      0x12c ./packages/rc522-latest/examples/change_uid.o
                0x0800deec                change_uid
 .text.dump_info
                0x0800e018       0x6c ./packages/rc522-latest/examples/dunp_info.o
                0x0800e018                dump_info
 .text.firmware_check
                0x0800e084       0xa4 ./packages/rc522-latest/examples/firmware_check.o
                0x0800e084                firmware_check
 .text.fix_brickeduid
                0x0800e128       0x44 ./packages/rc522-latest/examples/fix_brickeduid.o
                0x0800e128                fix_brickeduid
 .text.mifare_classic_value_block
                0x0800e16c      0x4e8 ./packages/rc522-latest/examples/mifare_classic_value_block.o
                0x0800e16c                mifare_classic_value_block
 .text.dump_byte_array
                0x0800e654       0x5c ./packages/rc522-latest/examples/mifare_classic_value_block.o
 .text.formatValueBlock
                0x0800e6b0      0x188 ./packages/rc522-latest/examples/mifare_classic_value_block.o
 .text.read_nuid
                0x0800e838      0x1a8 ./packages/rc522-latest/examples/read_nuid.o
                0x0800e838                read_nuid
 .text.printHex
                0x0800e9e0       0x5c ./packages/rc522-latest/examples/read_nuid.o
                0x0800e9e0                printHex
 .text.printDec
                0x0800ea3c       0x5c ./packages/rc522-latest/examples/read_nuid.o
                0x0800ea3c                printDec
 .text.tx_buf_add_checksum
                0x0800ea98       0x88 ./packages/fingerprint-latest/fingerprint.o
 .text.cnt_checksum
                0x0800eb20       0xf8 ./packages/fingerprint-latest/fingerprint.o
 .text.cnt_tx_pkg_size
                0x0800ec18       0x30 ./packages/fingerprint-latest/fingerprint.o
 .text.cnt_rx_pkg_size
                0x0800ec48       0x58 ./packages/fingerprint-latest/fingerprint.o
 .text.master_get_rx
                0x0800eca0      0x15c ./packages/fingerprint-latest/fingerprint.o
 .text.make_prefix
                0x0800edfc       0x44 ./packages/fingerprint-latest/fingerprint.o
 .text.fp_get_image
                0x0800ee40       0xb0 ./packages/fingerprint-latest/fingerprint.o
                0x0800ee40                fp_get_image
 .text.fp_gen_char
                0x0800eef0       0xbc ./packages/fingerprint-latest/fingerprint.o
                0x0800eef0                fp_gen_char
 .text.fp_reg_model
                0x0800efac       0xb0 ./packages/fingerprint-latest/fingerprint.o
                0x0800efac                fp_reg_model
 .text.fp_store_char
                0x0800f05c       0xd4 ./packages/fingerprint-latest/fingerprint.o
                0x0800f05c                fp_store_char
 .text.fp_delet_char
                0x0800f130       0xe4 ./packages/fingerprint-latest/fingerprint.o
                0x0800f130                fp_delet_char
 .text.fp_empty
                0x0800f214       0xb0 ./packages/fingerprint-latest/fingerprint.o
                0x0800f214                fp_empty
 .text.fp_read_sys_para
                0x0800f2c4      0x164 ./packages/fingerprint-latest/fingerprint.o
                0x0800f2c4                fp_read_sys_para
 .text.fp_vfy_pwd
                0x0800f428       0xb0 ./packages/fingerprint-latest/fingerprint.o
                0x0800f428                fp_vfy_pwd
 .text.fp_auto_identify
                0x0800f4d8      0x128 ./packages/fingerprint-latest/fingerprint.o
                0x0800f4d8                fp_auto_identify
 .text.fp_valid_templete_num
                0x0800f600       0xcc ./packages/fingerprint-latest/fingerprint.o
                0x0800f600                fp_valid_templete_num
 .text.fp_read_index_table
                0x0800f6cc       0xe0 ./packages/fingerprint-latest/fingerprint.o
                0x0800f6cc                fp_read_index_table
 .text.fp_rx_handle
                0x0800f7ac       0x24 ./packages/fingerprint-latest/fingerprint.o
 .text.fp_hand_shake
                0x0800f7d0      0x12c ./packages/fingerprint-latest/fingerprint.o
 .text.fp_init  0x0800f8fc       0xa8 ./packages/fingerprint-latest/fingerprint.o
                0x0800f8fc                fp_init
 .text.fp_port  0x0800f9a4       0x44 ./packages/fingerprint-latest/fingerprint_sample.o
                0x0800f9a4                fp_port
 .text.fp_delet_char_cmd
                0x0800f9e8       0x5c ./packages/fingerprint-latest/fingerprint_sample.o
                0x0800f9e8                fp_delet_char_cmd
 .text.fp_get_sys_para
                0x0800fa44       0x8c ./packages/fingerprint-latest/fingerprint_sample.o
                0x0800fa44                fp_get_sys_para
 .text.fp_get_num
                0x0800fad0       0x38 ./packages/fingerprint-latest/fingerprint_sample.o
                0x0800fad0                fp_get_num
 .text.get_eff_id
                0x0800fb08       0x88 ./packages/fingerprint-latest/fingerprint_sample.o
                0x0800fb08                get_eff_id
 .text.get_id_state
                0x0800fb90       0x5c ./packages/fingerprint-latest/fingerprint_sample.o
                0x0800fb90                get_id_state
 .text.get_id_state_cmd
                0x0800fbec       0x5c ./packages/fingerprint-latest/fingerprint_sample.o
                0x0800fbec                get_id_state_cmd
 .text.ShowErrMessage
                0x0800fc48       0x18 ./packages/fingerprint-latest/fingerprint_sample.o
                0x0800fc48                ShowErrMessage
 .text.fp_add_fp
                0x0800fc60      0x1e0 ./packages/fingerprint-latest/fingerprint_sample.o
                0x0800fc60                fp_add_fp
 .text.fp_read  0x0800fe40       0x98 ./packages/fingerprint-latest/fingerprint_sample.o
                0x0800fe40                fp_read
 .text.button_init
                0x0800fed8       0x5c ./packages/MultiButton-latest/multi_button.o
                0x0800fed8                button_init
 .text.button_attach
                0x0800ff34       0x28 ./packages/MultiButton-latest/multi_button.o
                0x0800ff34                button_attach
 .text.get_button_event
                0x0800ff5c       0x20 ./packages/MultiButton-latest/multi_button.o
                0x0800ff5c                get_button_event
 .text.button_handler
                0x0800ff7c      0x37c ./packages/MultiButton-latest/multi_button.o
                0x0800ff7c                button_handler
 .text.button_start
                0x080102f8       0x4c ./packages/MultiButton-latest/multi_button.o
                0x080102f8                button_start
 .text.button_ticks
                0x08010344       0x2c ./packages/MultiButton-latest/multi_button.o
                0x08010344                button_ticks
 .text.n32_msp_usart_init
                0x08010370       0xb8 ./board/msp/n32_msp.o
                0x08010370                n32_msp_usart_init
 .text.n32_msp_spi_init
                0x08010428       0x88 ./board/msp/n32_msp.o
                0x08010428                n32_msp_spi_init
 .text.n32_msp_tim_init
                0x080104b0       0xd4 ./board/msp/n32_msp.o
                0x080104b0                n32_msp_tim_init
 .text.uart_test_rw
                0x08010584       0xc4 ./board/msp/n32_msp.o
 .text.uart_test
                0x08010648       0x1c ./board/msp/n32_msp.o
 .text.pwm_set_test
                0x08010664       0x4c ./board/msp/n32_msp.o
 .text.pwm_led_sample
                0x080106b0       0x64 ./board/msp/n32_msp.o
 .text.pwm_led_sample_off
                0x08010714       0x40 ./board/msp/n32_msp.o
 .text.__NVIC_SetPriority
                0x08010754       0x54 ./board/board.o
 .text.SysTick_Config
                0x080107a8       0x44 ./board/board.o
 .text.SystemClock_Config
                0x080107ec       0x2c ./board/board.o
                0x080107ec                SystemClock_Config
 .text.SysTick_Handler
                0x08010818       0x14 ./board/board.o
                0x08010818                SysTick_Handler
 .text.rt_hw_board_init
                0x0801082c       0x38 ./board/board.o
                0x0801082c                rt_hw_board_init
 .text.main     0x08010864       0x70 ./applications/main.o
                0x08010864                main
 .text.key1_button_read_pin
                0x080108d4       0x14 ./applications/smart_door.o
 .text.key1_button_callback
                0x080108e8       0xc4 ./applications/smart_door.o
 .text.key2_button_read_pin
                0x080109ac       0x14 ./applications/smart_door.o
 .text.key2_button_callback
                0x080109c0       0xa8 ./applications/smart_door.o
 .text.button_thread_entry
                0x08010a68       0xe4 ./applications/smart_door.o
 .text.nfc_thread_entry
                0x08010b4c       0x84 ./applications/smart_door.o
 .text.fingerprint_thread_entry
                0x08010bd0       0xbc ./applications/smart_door.o
 .text.door_open_entry
                0x08010c8c       0xe4 ./applications/smart_door.o
 .text.door_control_init
                0x08010d70      0x110 ./applications/smart_door.o
                0x08010d70                door_control_init
 .text.reboot   0x08010e80       0x18 ./Libraries/rt_drivers/drv_common.o
 .text.rt_hw_us_delay
                0x08010e98       0x84 ./Libraries/rt_drivers/drv_common.o
                0x08010e98                rt_hw_us_delay
 .text.get_pin  0x08010f1c       0x48 ./Libraries/rt_drivers/drv_gpio.o
                0x08010f1c                get_pin
 .text.n32_pin_write
                0x08010f64       0x54 ./Libraries/rt_drivers/drv_gpio.o
                0x08010f64                n32_pin_write
 .text.n32_pin_read
                0x08010fb8       0x50 ./Libraries/rt_drivers/drv_gpio.o
                0x08010fb8                n32_pin_read
 .text.n32_pin_mode
                0x08011008       0x94 ./Libraries/rt_drivers/drv_gpio.o
                0x08011008                n32_pin_mode
 .text.bit2bitno
                0x0801109c       0x40 ./Libraries/rt_drivers/drv_gpio.o
 .text.get_pin_irq_map
                0x080110dc       0x3c ./Libraries/rt_drivers/drv_gpio.o
 .text.n32_pin_attach_irq
                0x08011118      0x14c ./Libraries/rt_drivers/drv_gpio.o
                0x08011118                n32_pin_attach_irq
 .text.n32_pin_dettach_irq
                0x08011264       0xd4 ./Libraries/rt_drivers/drv_gpio.o
                0x08011264                n32_pin_dettach_irq
 .text.n32_pin_irq_enable
                0x08011338      0x18c ./Libraries/rt_drivers/drv_gpio.o
                0x08011338                n32_pin_irq_enable
 .text.n32_hw_pin_init
                0x080114c4       0x24 ./Libraries/rt_drivers/drv_gpio.o
                0x080114c4                n32_hw_pin_init
 .text.pin_irq_hdr
                0x080114e8       0x70 ./Libraries/rt_drivers/drv_gpio.o
 .text.EXTI0_IRQHandler
                0x08011558       0x18 ./Libraries/rt_drivers/drv_gpio.o
                0x08011558                EXTI0_IRQHandler
 .text.EXTI1_IRQHandler
                0x08011570       0x18 ./Libraries/rt_drivers/drv_gpio.o
                0x08011570                EXTI1_IRQHandler
 .text.EXTI2_IRQHandler
                0x08011588       0x18 ./Libraries/rt_drivers/drv_gpio.o
                0x08011588                EXTI2_IRQHandler
 .text.EXTI3_IRQHandler
                0x080115a0       0x18 ./Libraries/rt_drivers/drv_gpio.o
                0x080115a0                EXTI3_IRQHandler
 .text.EXTI4_IRQHandler
                0x080115b8       0x18 ./Libraries/rt_drivers/drv_gpio.o
                0x080115b8                EXTI4_IRQHandler
 .text.EXTI9_5_IRQHandler
                0x080115d0       0x70 ./Libraries/rt_drivers/drv_gpio.o
                0x080115d0                EXTI9_5_IRQHandler
 .text.EXTI15_10_IRQHandler
                0x08011640       0x88 ./Libraries/rt_drivers/drv_gpio.o
                0x08011640                EXTI15_10_IRQHandler
 .text.drv_pwm_enable
                0x080116c8       0xb8 ./Libraries/rt_drivers/drv_pwm.o
 .text.drv_pwm_get
                0x08011780      0x170 ./Libraries/rt_drivers/drv_pwm.o
 .text.drv_pwm_set
                0x080118f0      0x1b4 ./Libraries/rt_drivers/drv_pwm.o
 .text.drv_pwm_control
                0x08011aa4       0x74 ./Libraries/rt_drivers/drv_pwm.o
 .text.rt_hw_pwm_init
                0x08011b18       0xd8 ./Libraries/rt_drivers/drv_pwm.o
 .text.n32_i2c_gpio_init
                0x08011bf0       0x48 ./Libraries/rt_drivers/drv_soft_i2c.o
 .text.n32_set_sda
                0x08011c38       0x38 ./Libraries/rt_drivers/drv_soft_i2c.o
 .text.n32_set_scl
                0x08011c70       0x38 ./Libraries/rt_drivers/drv_soft_i2c.o
 .text.n32_get_sda
                0x08011ca8       0x20 ./Libraries/rt_drivers/drv_soft_i2c.o
 .text.n32_get_scl
                0x08011cc8       0x20 ./Libraries/rt_drivers/drv_soft_i2c.o
 .text.n32_udelay
                0x08011ce8       0x84 ./Libraries/rt_drivers/drv_soft_i2c.o
 .text.n32_i2c_bus_unlock
                0x08011d6c       0x6c ./Libraries/rt_drivers/drv_soft_i2c.o
 .text.rt_hw_i2c_init
                0x08011dd8       0xdc ./Libraries/rt_drivers/drv_soft_i2c.o
                0x08011dd8                rt_hw_i2c_init
 .text.configure
                0x08011eb4      0x1b4 ./Libraries/rt_drivers/drv_spi.o
 .text.xfer     0x08012068      0x194 ./Libraries/rt_drivers/drv_spi.o
 .text.rt_hw_spi_init
                0x080121fc       0x40 ./Libraries/rt_drivers/drv_spi.o
                0x080121fc                rt_hw_spi_init
 .text.__NVIC_EnableIRQ
                0x0801223c       0x3c ./Libraries/rt_drivers/drv_usart.o
 .text.__NVIC_DisableIRQ
                0x08012278       0x44 ./Libraries/rt_drivers/drv_usart.o
 .text.n32_uart_configure
                0x080122bc      0x140 ./Libraries/rt_drivers/drv_usart.o
 .text.n32_uart_control
                0x080123fc       0x94 ./Libraries/rt_drivers/drv_usart.o
 .text.n32_uart_putc
                0x08012490       0xa0 ./Libraries/rt_drivers/drv_usart.o
 .text.n32_uart_getc
                0x08012530       0x54 ./Libraries/rt_drivers/drv_usart.o
 .text.dma_uart_rx_idle_isr
                0x08012584       0x78 ./Libraries/rt_drivers/drv_usart.o
 .text.dma_rx_done_isr
                0x080125fc       0x5c ./Libraries/rt_drivers/drv_usart.o
 .text.uart_isr
                0x08012658       0xe4 ./Libraries/rt_drivers/drv_usart.o
 .text.USART1_IRQHandler
                0x0801273c       0x1c ./Libraries/rt_drivers/drv_usart.o
                0x0801273c                USART1_IRQHandler
 .text.DMA1_Channel5_IRQHandler
                0x08012758       0x1c ./Libraries/rt_drivers/drv_usart.o
                0x08012758                DMA1_Channel5_IRQHandler
 .text.USART2_IRQHandler
                0x08012774       0x1c ./Libraries/rt_drivers/drv_usart.o
                0x08012774                USART2_IRQHandler
 .text.DMA1_Channel6_IRQHandler
                0x08012790       0x1c ./Libraries/rt_drivers/drv_usart.o
                0x08012790                DMA1_Channel6_IRQHandler
 .text.NVIC_Configuration
                0x080127ac       0x30 ./Libraries/rt_drivers/drv_usart.o
 .text.DMA_Configuration
                0x080127dc       0xf8 ./Libraries/rt_drivers/drv_usart.o
 .text.rt_hw_usart_init
                0x080128d4       0xa0 ./Libraries/rt_drivers/drv_usart.o
                0x080128d4                rt_hw_usart_init
 .text.NVIC_Init
                0x08012974       0xc8 ./Libraries/N32_Std_Driver/n32g45x_std_periph_driver/src/misc.o
                0x08012974                NVIC_Init
 .text.DMA_DeInit
                0x08012a3c      0x1e0 ./Libraries/N32_Std_Driver/n32g45x_std_periph_driver/src/n32g45x_dma.o
                0x08012a3c                DMA_DeInit
 .text.DMA_Init
                0x08012c1c       0x80 ./Libraries/N32_Std_Driver/n32g45x_std_periph_driver/src/n32g45x_dma.o
                0x08012c1c                DMA_Init
 .text.DMA_EnableChannel
                0x08012c9c       0x3c ./Libraries/N32_Std_Driver/n32g45x_std_periph_driver/src/n32g45x_dma.o
                0x08012c9c                DMA_EnableChannel
 .text.DMA_ConfigInt
                0x08012cd8       0x3c ./Libraries/N32_Std_Driver/n32g45x_std_periph_driver/src/n32g45x_dma.o
                0x08012cd8                DMA_ConfigInt
 .text.DMA_GetCurrDataCounter
                0x08012d14       0x1c ./Libraries/N32_Std_Driver/n32g45x_std_periph_driver/src/n32g45x_dma.o
                0x08012d14                DMA_GetCurrDataCounter
 .text.DMA_ClearFlag
                0x08012d30       0x1c ./Libraries/N32_Std_Driver/n32g45x_std_periph_driver/src/n32g45x_dma.o
                0x08012d30                DMA_ClearFlag
 .text.EXTI_InitPeripheral
                0x08012d4c       0xe4 ./Libraries/N32_Std_Driver/n32g45x_std_periph_driver/src/n32g45x_exti.o
                0x08012d4c                EXTI_InitPeripheral
 .text.EXTI_GetITStatus
                0x08012e30       0x48 ./Libraries/N32_Std_Driver/n32g45x_std_periph_driver/src/n32g45x_exti.o
                0x08012e30                EXTI_GetITStatus
 .text.EXTI_ClrITPendBit
                0x08012e78       0x20 ./Libraries/N32_Std_Driver/n32g45x_std_periph_driver/src/n32g45x_exti.o
                0x08012e78                EXTI_ClrITPendBit
 .text.GPIO_InitPeripheral
                0x08012e98      0x17c ./Libraries/N32_Std_Driver/n32g45x_std_periph_driver/src/n32g45x_gpio.o
                0x08012e98                GPIO_InitPeripheral
 .text.GPIO_InitStruct
                0x08013014       0x28 ./Libraries/N32_Std_Driver/n32g45x_std_periph_driver/src/n32g45x_gpio.o
                0x08013014                GPIO_InitStruct
 .text.GPIO_ReadInputDataBit
                0x0801303c       0x34 ./Libraries/N32_Std_Driver/n32g45x_std_periph_driver/src/n32g45x_gpio.o
                0x0801303c                GPIO_ReadInputDataBit
 .text.GPIO_SetBits
                0x08013070       0x20 ./Libraries/N32_Std_Driver/n32g45x_std_periph_driver/src/n32g45x_gpio.o
                0x08013070                GPIO_SetBits
 .text.GPIO_ResetBits
                0x08013090       0x20 ./Libraries/N32_Std_Driver/n32g45x_std_periph_driver/src/n32g45x_gpio.o
                0x08013090                GPIO_ResetBits
 .text.GPIO_ConfigEXTILine
                0x080130b0       0x84 ./Libraries/N32_Std_Driver/n32g45x_std_periph_driver/src/n32g45x_gpio.o
                0x080130b0                GPIO_ConfigEXTILine
 .text.RCC_ConfigTim18Clk
                0x08013134       0x38 ./Libraries/N32_Std_Driver/n32g45x_std_periph_driver/src/n32g45x_rcc.o
                0x08013134                RCC_ConfigTim18Clk
 .text.RCC_GetClocksFreqValue
                0x0801316c      0x1a0 ./Libraries/N32_Std_Driver/n32g45x_std_periph_driver/src/n32g45x_rcc.o
                0x0801316c                RCC_GetClocksFreqValue
 .text.RCC_EnableAHBPeriphClk
                0x0801330c       0x40 ./Libraries/N32_Std_Driver/n32g45x_std_periph_driver/src/n32g45x_rcc.o
                0x0801330c                RCC_EnableAHBPeriphClk
 .text.RCC_EnableAPB2PeriphClk
                0x0801334c       0x40 ./Libraries/N32_Std_Driver/n32g45x_std_periph_driver/src/n32g45x_rcc.o
                0x0801334c                RCC_EnableAPB2PeriphClk
 .text.RCC_EnableAPB1PeriphClk
                0x0801338c       0x40 ./Libraries/N32_Std_Driver/n32g45x_std_periph_driver/src/n32g45x_rcc.o
                0x0801338c                RCC_EnableAPB1PeriphClk
 .text.SPI_Init
                0x080133cc       0x88 ./Libraries/N32_Std_Driver/n32g45x_std_periph_driver/src/n32g45x_spi.o
                0x080133cc                SPI_Init
 .text.SPI_Enable
                0x08013454       0x40 ./Libraries/N32_Std_Driver/n32g45x_std_periph_driver/src/n32g45x_spi.o
                0x08013454                SPI_Enable
 .text.SPI_I2S_TransmitData
                0x08013494       0x20 ./Libraries/N32_Std_Driver/n32g45x_std_periph_driver/src/n32g45x_spi.o
                0x08013494                SPI_I2S_TransmitData
 .text.SPI_I2S_ReceiveData
                0x080134b4       0x1c ./Libraries/N32_Std_Driver/n32g45x_std_periph_driver/src/n32g45x_spi.o
                0x080134b4                SPI_I2S_ReceiveData
 .text.SPI_I2S_GetStatus
                0x080134d0       0x38 ./Libraries/N32_Std_Driver/n32g45x_std_periph_driver/src/n32g45x_spi.o
                0x080134d0                SPI_I2S_GetStatus
 .text.TIM_InitTimeBase
                0x08013508      0x230 ./Libraries/N32_Std_Driver/n32g45x_std_periph_driver/src/n32g45x_tim.o
                0x08013508                TIM_InitTimeBase
 .text.TIM_InitOc1
                0x08013738       0xfc ./Libraries/N32_Std_Driver/n32g45x_std_periph_driver/src/n32g45x_tim.o
                0x08013738                TIM_InitOc1
 .text.TIM_InitOc2
                0x08013834      0x10c ./Libraries/N32_Std_Driver/n32g45x_std_periph_driver/src/n32g45x_tim.o
                0x08013834                TIM_InitOc2
 .text.TIM_InitOc3
                0x08013940      0x108 ./Libraries/N32_Std_Driver/n32g45x_std_periph_driver/src/n32g45x_tim.o
                0x08013940                TIM_InitOc3
 .text.TIM_InitOc4
                0x08013a48       0xcc ./Libraries/N32_Std_Driver/n32g45x_std_periph_driver/src/n32g45x_tim.o
                0x08013a48                TIM_InitOc4
 .text.TIM_InitTimBaseStruct
                0x08013b14       0x58 ./Libraries/N32_Std_Driver/n32g45x_std_periph_driver/src/n32g45x_tim.o
                0x08013b14                TIM_InitTimBaseStruct
 .text.TIM_InitOcStruct
                0x08013b6c       0x44 ./Libraries/N32_Std_Driver/n32g45x_std_periph_driver/src/n32g45x_tim.o
                0x08013b6c                TIM_InitOcStruct
 .text.TIM_Enable
                0x08013bb0       0x38 ./Libraries/N32_Std_Driver/n32g45x_std_periph_driver/src/n32g45x_tim.o
                0x08013bb0                TIM_Enable
 .text.TIM_EnableCtrlPwmOutputs
                0x08013be8       0x4c ./Libraries/N32_Std_Driver/n32g45x_std_periph_driver/src/n32g45x_tim.o
                0x08013be8                TIM_EnableCtrlPwmOutputs
 .text.TIM_ConfigArPreload
                0x08013c34       0x38 ./Libraries/N32_Std_Driver/n32g45x_std_periph_driver/src/n32g45x_tim.o
                0x08013c34                TIM_ConfigArPreload
 .text.TIM_ConfigOc1Preload
                0x08013c6c       0x38 ./Libraries/N32_Std_Driver/n32g45x_std_periph_driver/src/n32g45x_tim.o
                0x08013c6c                TIM_ConfigOc1Preload
 .text.TIM_ConfigOc2Preload
                0x08013ca4       0x3c ./Libraries/N32_Std_Driver/n32g45x_std_periph_driver/src/n32g45x_tim.o
                0x08013ca4                TIM_ConfigOc2Preload
 .text.TIM_ConfigOc3Preload
                0x08013ce0       0x38 ./Libraries/N32_Std_Driver/n32g45x_std_periph_driver/src/n32g45x_tim.o
                0x08013ce0                TIM_ConfigOc3Preload
 .text.TIM_ConfigOc4Preload
                0x08013d18       0x3c ./Libraries/N32_Std_Driver/n32g45x_std_periph_driver/src/n32g45x_tim.o
                0x08013d18                TIM_ConfigOc4Preload
 .text.TIM_EnableCapCmpCh
                0x08013d54       0x48 ./Libraries/N32_Std_Driver/n32g45x_std_periph_driver/src/n32g45x_tim.o
                0x08013d54                TIM_EnableCapCmpCh
 .text.USART_Init
                0x08013d9c      0x140 ./Libraries/N32_Std_Driver/n32g45x_std_periph_driver/src/n32g45x_usart.o
                0x08013d9c                USART_Init
 .text.USART_Enable
                0x08013edc       0x40 ./Libraries/N32_Std_Driver/n32g45x_std_periph_driver/src/n32g45x_usart.o
                0x08013edc                USART_Enable
 .text.USART_ConfigInt
                0x08013f1c       0x90 ./Libraries/N32_Std_Driver/n32g45x_std_periph_driver/src/n32g45x_usart.o
                0x08013f1c                USART_ConfigInt
 .text.USART_EnableDMA
                0x08013fac       0x48 ./Libraries/N32_Std_Driver/n32g45x_std_periph_driver/src/n32g45x_usart.o
                0x08013fac                USART_EnableDMA
 .text.USART_ReceiveData
                0x08013ff4       0x20 ./Libraries/N32_Std_Driver/n32g45x_std_periph_driver/src/n32g45x_usart.o
                0x08013ff4                USART_ReceiveData
 .text.USART_GetFlagStatus
                0x08014014       0x38 ./Libraries/N32_Std_Driver/n32g45x_std_periph_driver/src/n32g45x_usart.o
                0x08014014                USART_GetFlagStatus
 .text.USART_ClrFlag
                0x0801404c       0x24 ./Libraries/N32_Std_Driver/n32g45x_std_periph_driver/src/n32g45x_usart.o
                0x0801404c                USART_ClrFlag
 .text.USART_GetIntStatus
                0x08014070       0xb8 ./Libraries/N32_Std_Driver/n32g45x_std_periph_driver/src/n32g45x_usart.o
                0x08014070                USART_GetIntStatus
 .text.USART_ClrIntPendingBit
                0x08014128       0x3c ./Libraries/N32_Std_Driver/n32g45x_std_periph_driver/src/n32g45x_usart.o
                0x08014128                USART_ClrIntPendingBit
 .text.Reset_Handler
                0x08014164       0x44 ./Libraries/N32_Std_Driver/CMSIS/device/startup/startup_n32g45x_gcc.o
                0x08014164                Reset_Handler
 .text.Default_Handler
                0x080141a8        0x2 ./Libraries/N32_Std_Driver/CMSIS/device/startup/startup_n32g45x_gcc.o
                0x080141a8                TIM8_TRG_COM_IRQHandler
                0x080141a8                TIM8_CC_IRQHandler
                0x080141a8                DebugMon_Handler
                0x080141a8                TIM1_CC_IRQHandler
                0x080141a8                TSC_IRQHandler
                0x080141a8                SAC_IRQHandler
                0x080141a8                TIM6_IRQHandler
                0x080141a8                PVD_IRQHandler
                0x080141a8                SDIO_IRQHandler
                0x080141a8                DMA2_Channel8_IRQHandler
                0x080141a8                NMI_Handler
                0x080141a8                CAN2_RX1_IRQHandler
                0x080141a8                I2C3_ER_IRQHandler
                0x080141a8                I2C2_EV_IRQHandler
                0x080141a8                UsageFault_Handler
                0x080141a8                CAN2_SCE_IRQHandler
                0x080141a8                ADC1_2_IRQHandler
                0x080141a8                SPI1_IRQHandler
                0x080141a8                TAMPER_IRQHandler
                0x080141a8                CAN2_RX0_IRQHandler
                0x080141a8                TIM8_UP_IRQHandler
                0x080141a8                DMA2_Channel2_IRQHandler
                0x080141a8                DMA1_Channel4_IRQHandler
                0x080141a8                USART3_IRQHandler
                0x080141a8                DMA1_Channel7_IRQHandler
                0x080141a8                CAN1_RX1_IRQHandler
                0x080141a8                DVP_IRQHandler
                0x080141a8                UART5_IRQHandler
                0x080141a8                TIM4_IRQHandler
                0x080141a8                DMA2_Channel1_IRQHandler
                0x080141a8                I2C1_EV_IRQHandler
                0x080141a8                UART4_IRQHandler
                0x080141a8                DMA2_Channel4_IRQHandler
                0x080141a8                TIM3_IRQHandler
                0x080141a8                RCC_IRQHandler
                0x080141a8                TIM1_TRG_COM_IRQHandler
                0x080141a8                DMA1_Channel1_IRQHandler
                0x080141a8                Default_Handler
                0x080141a8                DMA2_Channel7_IRQHandler
                0x080141a8                DMA1_Channel8_IRQHandler
                0x080141a8                TIM7_IRQHandler
                0x080141a8                CAN2_TX_IRQHandler
                0x080141a8                TIM5_IRQHandler
                0x080141a8                I2C3_EV_IRQHandler
                0x080141a8                RTC_WKUP_IRQHandler
                0x080141a8                MMU_IRQHandler
                0x080141a8                ETH_WKUP_IRQHandler
                0x080141a8                SPI2_IRQHandler
                0x080141a8                MemManage_Handler
                0x080141a8                SVC_Handler
                0x080141a8                DMA2_Channel5_IRQHandler
                0x080141a8                USB_LP_CAN1_RX0_IRQHandler
                0x080141a8                USB_HP_CAN1_TX_IRQHandler
                0x080141a8                DMA1_Channel3_IRQHandler
                0x080141a8                ETH_IRQHandler
                0x080141a8                TIM1_UP_IRQHandler
                0x080141a8                WWDG_IRQHandler
                0x080141a8                I2C4_EV_IRQHandler
                0x080141a8                DMA2_Channel6_IRQHandler
                0x080141a8                TIM2_IRQHandler
                0x080141a8                TIM1_BRK_IRQHandler
                0x080141a8                ADC3_4_IRQHandler
                0x080141a8                RTCAlarm_IRQHandler
                0x080141a8                UART7_IRQHandler
                0x080141a8                UART6_IRQHandler
                0x080141a8                XFMC_IRQHandler
                0x080141a8                I2C2_ER_IRQHandler
                0x080141a8                DMA1_Channel2_IRQHandler
                0x080141a8                TIM8_BRK_IRQHandler
                0x080141a8                CAN1_SCE_IRQHandler
                0x080141a8                FLASH_IRQHandler
                0x080141a8                BusFault_Handler
                0x080141a8                SPI3_IRQHandler
                0x080141a8                I2C1_ER_IRQHandler
                0x080141a8                QSPI_IRQHandler
                0x080141a8                I2C4_ER_IRQHandler
                0x080141a8                USBWakeUp_IRQHandler
                0x080141a8                DMA2_Channel3_IRQHandler
 *fill*         0x080141aa        0x2 00000000
 .text.SystemInit
                0x080141ac       0xc0 ./Libraries/N32_Std_Driver/CMSIS/device/system_n32g45x.o
                0x080141ac                SystemInit
 .text.SetSysClock
                0x0801426c      0x134 ./Libraries/N32_Std_Driver/CMSIS/device/system_n32g45x.o
 .text.atoi     0x080143a0        0x8 c:/rt-threadstudio/repo/extract/toolchain_support_packages/arm/gnu_tools_for_arm_embedded_processors/5.4.1/bin/../lib/gcc/arm-none-eabi/5.4.1/../../../../arm-none-eabi/lib/armv7e-m/fpu\libc.a(lib_a-atoi.o)
                0x080143a0                atoi
 .text.memcmp   0x080143a8       0x64 c:/rt-threadstudio/repo/extract/toolchain_support_packages/arm/gnu_tools_for_arm_embedded_processors/5.4.1/bin/../lib/gcc/arm-none-eabi/5.4.1/../../../../arm-none-eabi/lib/armv7e-m/fpu\libc.a(lib_a-memcmp.o)
                0x080143a8                memcmp
 .text.memset   0x0801440c       0x9c c:/rt-threadstudio/repo/extract/toolchain_support_packages/arm/gnu_tools_for_arm_embedded_processors/5.4.1/bin/../lib/gcc/arm-none-eabi/5.4.1/../../../../arm-none-eabi/lib/armv7e-m/fpu\libc.a(lib_a-memset.o)
                0x0801440c                memset
 .text.strncmp  0x080144a8       0xa0 c:/rt-threadstudio/repo/extract/toolchain_support_packages/arm/gnu_tools_for_arm_embedded_processors/5.4.1/bin/../lib/gcc/arm-none-eabi/5.4.1/../../../../arm-none-eabi/lib/armv7e-m/fpu\libc.a(lib_a-strncmp.o)
                0x080144a8                strncmp
 .text.strncpy  0x08014548       0x68 c:/rt-threadstudio/repo/extract/toolchain_support_packages/arm/gnu_tools_for_arm_embedded_processors/5.4.1/bin/../lib/gcc/arm-none-eabi/5.4.1/../../../../arm-none-eabi/lib/armv7e-m/fpu\libc.a(lib_a-strncpy.o)
                0x08014548                strncpy
 .text._strtol_l.isra.0
                0x080145b0      0x138 c:/rt-threadstudio/repo/extract/toolchain_support_packages/arm/gnu_tools_for_arm_embedded_processors/5.4.1/bin/../lib/gcc/arm-none-eabi/5.4.1/../../../../arm-none-eabi/lib/armv7e-m/fpu\libc.a(lib_a-strtol.o)
 .text.strtol   0x080146e8       0x2c c:/rt-threadstudio/repo/extract/toolchain_support_packages/arm/gnu_tools_for_arm_embedded_processors/5.4.1/bin/../lib/gcc/arm-none-eabi/5.4.1/../../../../arm-none-eabi/lib/armv7e-m/fpu\libc.a(lib_a-strtol.o)
                0x080146e8                strtol
 .text.startup.register_fini
                0x08014714       0x14 c:/rt-threadstudio/repo/extract/toolchain_support_packages/arm/gnu_tools_for_arm_embedded_processors/5.4.1/bin/../lib/gcc/arm-none-eabi/5.4.1/../../../../arm-none-eabi/lib/armv7e-m/fpu\libc.a(lib_a-__call_atexit.o)
 .text.atexit   0x08014728        0xc c:/rt-threadstudio/repo/extract/toolchain_support_packages/arm/gnu_tools_for_arm_embedded_processors/5.4.1/bin/../lib/gcc/arm-none-eabi/5.4.1/../../../../arm-none-eabi/lib/armv7e-m/fpu\libc.a(lib_a-atexit.o)
                0x08014728                atexit
 .text.__libc_fini_array
                0x08014734       0x28 c:/rt-threadstudio/repo/extract/toolchain_support_packages/arm/gnu_tools_for_arm_embedded_processors/5.4.1/bin/../lib/gcc/arm-none-eabi/5.4.1/../../../../arm-none-eabi/lib/armv7e-m/fpu\libc.a(lib_a-fini.o)
                0x08014734                __libc_fini_array
 .text.__locale_ctype_ptr_l
                0x0801475c        0x8 c:/rt-threadstudio/repo/extract/toolchain_support_packages/arm/gnu_tools_for_arm_embedded_processors/5.4.1/bin/../lib/gcc/arm-none-eabi/5.4.1/../../../../arm-none-eabi/lib/armv7e-m/fpu\libc.a(lib_a-locale.o)
                0x0801475c                __locale_ctype_ptr_l
 .text.malloc   0x08014764       0x10 c:/rt-threadstudio/repo/extract/toolchain_support_packages/arm/gnu_tools_for_arm_embedded_processors/5.4.1/bin/../lib/gcc/arm-none-eabi/5.4.1/../../../../arm-none-eabi/lib/armv7e-m/fpu\libc.a(lib_a-malloc.o)
                0x08014764                malloc
 .text.__ascii_mbtowc
                0x08014774       0x2c c:/rt-threadstudio/repo/extract/toolchain_support_packages/arm/gnu_tools_for_arm_embedded_processors/5.4.1/bin/../lib/gcc/arm-none-eabi/5.4.1/../../../../arm-none-eabi/lib/armv7e-m/fpu\libc.a(lib_a-mbtowc_r.o)
                0x08014774                __ascii_mbtowc
 .text.__ascii_wctomb
                0x080147a0       0x1c c:/rt-threadstudio/repo/extract/toolchain_support_packages/arm/gnu_tools_for_arm_embedded_processors/5.4.1/bin/../lib/gcc/arm-none-eabi/5.4.1/../../../../arm-none-eabi/lib/armv7e-m/fpu\libc.a(lib_a-wctomb_r.o)
                0x080147a0                __ascii_wctomb
 .text.__register_exitproc
                0x080147bc       0xa4 c:/rt-threadstudio/repo/extract/toolchain_support_packages/arm/gnu_tools_for_arm_embedded_processors/5.4.1/bin/../lib/gcc/arm-none-eabi/5.4.1/../../../../arm-none-eabi/lib/armv7e-m/fpu\libc.a(lib_a-__atexit.o)
                0x080147bc                __register_exitproc
 *(.rodata)
 .rodata        0x08014860       0x17 ./rt-thread/src/components.o
 *fill*         0x08014877        0x1 00000000
 .rodata        0x08014878       0xf4 ./rt-thread/src/device.o
 .rodata        0x0801496c       0x34 ./rt-thread/src/idle.o
 .rodata        0x080149a0      0x476 ./rt-thread/src/ipc.o
 *fill*         0x08014e16        0x2 00000000
 .rodata        0x08014e18       0xd7 ./rt-thread/src/kservice.o
 *fill*         0x08014eef        0x1 00000000
 .rodata        0x08014ef0      0x2fa ./rt-thread/src/mem.o
 *fill*         0x080151ea        0x2 00000000
 .rodata        0x080151ec       0x91 ./rt-thread/src/object.o
 *fill*         0x0801527d        0x3 00000000
 .rodata        0x08015280       0x65 ./rt-thread/src/scheduler.o
 *fill*         0x080152e5        0x3 00000000
 .rodata        0x080152e8      0x19e ./rt-thread/src/thread.o
 *fill*         0x08015486        0x2 00000000
 .rodata        0x08015488       0xde ./rt-thread/src/timer.o
 *fill*         0x08015566        0x2 00000000
 .rodata        0x08015568      0x2ce ./rt-thread/libcpu/arm/cortex-m4/cpuport.o
 *fill*         0x08015836        0x2 00000000
 .rodata        0x08015838      0x665 ./rt-thread/components/finsh/cmd.o
 *fill*         0x08015e9d        0x3 00000000
 .rodata        0x08015ea0       0x78 ./rt-thread/components/finsh/msh.o
 .rodata        0x08015f18       0x91 ./rt-thread/components/finsh/shell.o
 *fill*         0x08015fa9        0x3 00000000
 .rodata        0x08015fac       0x72 ./rt-thread/components/drivers/src/completion.o
 *fill*         0x0801601e        0x2 00000000
 .rodata        0x08016020       0x90 ./rt-thread/components/drivers/src/dataqueue.o
 .rodata        0x080160b0       0x49 ./rt-thread/components/drivers/spi/spi_core.o
 *fill*         0x080160f9        0x3 00000000
 .rodata        0x080160fc       0x63 ./rt-thread/components/drivers/spi/spi_dev.o
 *fill*         0x0801615f        0x1 00000000
 .rodata        0x08016160      0x19a ./rt-thread/components/drivers/serial/serial.o
 *fill*         0x080162fa        0x2 00000000
 .rodata        0x080162fc      0x901 ./rt-thread/components/drivers/sensors/sensor_cmd.o
 *fill*         0x08016bfd        0x3 00000000
 .rodata        0x08016c00       0x37 ./rt-thread/components/drivers/misc/pin.o
 *fill*         0x08016c37        0x1 00000000
 .rodata        0x08016c38      0x1ab ./rt-thread/components/drivers/misc/rt_drv_pwm.o
 *fill*         0x08016de3        0x1 00000000
 .rodata        0x08016de4       0xb4 ./rt-thread/components/drivers/i2c/i2c-bit-ops.o
 .rodata        0x08016e98       0x8b ./rt-thread/components/drivers/i2c/i2c_core.o
 *fill*         0x08016f23        0x1 00000000
 .rodata        0x08016f24       0x22 ./rt-thread/components/drivers/i2c/i2c_dev.o
 *fill*         0x08016f46        0x2 00000000
 .rodata        0x08016f48      0x6bc ./packages/rc522-latest/src/mfrc522.o
 .rodata        0x08017604       0x34 ./packages/rc522-latest/port/mfrc522_rtt_port.o
 .rodata        0x08017638       0xa8 ./packages/rc522-latest/examples/change_uid.o
 .rodata        0x080176e0       0x35 ./packages/rc522-latest/examples/dunp_info.o
 *fill*         0x08017715        0x3 00000000
 .rodata        0x08017718       0xb6 ./packages/rc522-latest/examples/firmware_check.o
 *fill*         0x080177ce        0x2 00000000
 .rodata        0x080177d0       0x89 ./packages/rc522-latest/examples/fix_brickeduid.o
 *fill*         0x08017859        0x3 00000000
 .rodata        0x0801785c      0x3ae ./packages/rc522-latest/examples/mifare_classic_value_block.o
 *fill*         0x08017c0a        0x2 00000000
 .rodata        0x08017c0c       0xfb ./packages/rc522-latest/examples/read_nuid.o
 *fill*         0x08017d07        0x1 00000000
 .rodata        0x08017d08      0x1ef ./packages/fingerprint-latest/fingerprint.o
 *fill*         0x08017ef7        0x1 00000000
 .rodata        0x08017ef8      0x529 ./packages/fingerprint-latest/fingerprint_sample.o
 *fill*         0x08018421        0x3 00000000
 .rodata        0x08018424       0x81 ./board/msp/n32_msp.o
 *fill*         0x080184a5        0x3 00000000
 .rodata        0x080184a8        0x6 ./board/board.o
 *fill*         0x080184ae        0x2 00000000
 .rodata        0x080184b0      0x203 ./applications/smart_door.o
 *fill*         0x080186b3        0x1 00000000
 .rodata        0x080186b4        0x4 ./Libraries/rt_drivers/drv_gpio.o
 .rodata        0x080186b8       0x6b ./Libraries/rt_drivers/drv_pwm.o
 *fill*         0x08018723        0x1 00000000
 .rodata        0x08018724       0x19 ./Libraries/rt_drivers/drv_soft_i2c.o
 *fill*         0x0801873d        0x3 00000000
 .rodata        0x08018740       0x55 ./Libraries/rt_drivers/drv_spi.o
 *fill*         0x08018795        0x3 00000000
 .rodata        0x08018798       0x6c ./Libraries/rt_drivers/drv_usart.o
 *(.rodata*)
 .rodata.__FUNCTION__.5160
                0x08018804       0x14 ./rt-thread/src/components.o
 .rodata.__FUNCTION__.5069
                0x08018818        0xf ./rt-thread/src/device.o
 *fill*         0x08018827        0x1 00000000
 .rodata.__FUNCTION__.5074
                0x08018828       0x10 ./rt-thread/src/device.o
 .rodata.__FUNCTION__.5081
                0x08018838        0xf ./rt-thread/src/device.o
 *fill*         0x08018847        0x1 00000000
 .rodata.__FUNCTION__.5088
                0x08018848       0x10 ./rt-thread/src/device.o
 .rodata.__FUNCTION__.5094
                0x08018858       0x12 ./rt-thread/src/device.o
 *fill*         0x0801886a        0x2 00000000
 .rodata.__FUNCTION__.5101
                0x0801886c       0x1a ./rt-thread/src/device.o
 *fill*         0x08018886        0x2 00000000
 .rodata.__FUNCTION__.5152
                0x08018888       0x13 ./rt-thread/src/idle.o
 *fill*         0x0801889b        0x1 00000000
 .rodata.__FUNCTION__.5153
                0x0801889c        0xc ./rt-thread/src/ipc.o
 .rodata.__FUNCTION__.5165
                0x080188a8        0xe ./rt-thread/src/ipc.o
 *fill*         0x080188b6        0x2 00000000
 .rodata.__FUNCTION__.5177
                0x080188b8        0xc ./rt-thread/src/ipc.o
 .rodata.__FUNCTION__.5134
                0x080188c4       0x12 ./rt-thread/src/ipc.o
 *fill*         0x080188d6        0x2 00000000
 .rodata.__FUNCTION__.5188
                0x080188d8        0xf ./rt-thread/src/ipc.o
 *fill*         0x080188e7        0x1 00000000
 .rodata.__FUNCTION__.5195
                0x080188e8        0xf ./rt-thread/src/ipc.o
 *fill*         0x080188f7        0x1 00000000
 .rodata.__FUNCTION__.5202
                0x080188f8        0xe ./rt-thread/src/ipc.o
 *fill*         0x08018906        0x2 00000000
 .rodata.__FUNCTION__.5226
                0x08018908        0xe ./rt-thread/src/ipc.o
 *fill*         0x08018916        0x2 00000000
 .rodata.__FUNCTION__.5237
                0x08018918       0x11 ./rt-thread/src/ipc.o
 *fill*         0x08018929        0x3 00000000
 .rodata.__lowest_bit_bitmap
                0x0801892c      0x100 ./rt-thread/src/kservice.o
                0x0801892c                __lowest_bit_bitmap
 .rodata.large_digits.5285
                0x08018a2c       0x11 ./rt-thread/src/kservice.o
 *fill*         0x08018a3d        0x3 00000000
 .rodata.small_digits.5284
                0x08018a40       0x11 ./rt-thread/src/kservice.o
 *fill*         0x08018a51        0x3 00000000
 .rodata.__FUNCTION__.5142
                0x08018a54        0xb ./rt-thread/src/mem.o
 *fill*         0x08018a5f        0x1 00000000
 .rodata.__FUNCTION__.5151
                0x08018a60       0x14 ./rt-thread/src/mem.o
 .rodata.__FUNCTION__.5160
                0x08018a74        0xa ./rt-thread/src/mem.o
 *fill*         0x08018a7e        0x2 00000000
 .rodata.__FUNCTION__.5189
                0x08018a80        0x8 ./rt-thread/src/mem.o
 .rodata.__FUNCTION__.5191
                0x08018a88        0xf ./rt-thread/src/object.o
 *fill*         0x08018a97        0x1 00000000
 .rodata.__FUNCTION__.5200
                0x08018a98       0x11 ./rt-thread/src/object.o
 *fill*         0x08018aa9        0x3 00000000
 .rodata.__FUNCTION__.5209
                0x08018aac       0x13 ./rt-thread/src/object.o
 *fill*         0x08018abf        0x1 00000000
 .rodata.__FUNCTION__.5214
                0x08018ac0       0x11 ./rt-thread/src/object.o
 *fill*         0x08018ad1        0x3 00000000
 .rodata.__FUNCTION__.5218
                0x08018ad4       0x1a ./rt-thread/src/object.o
 *fill*         0x08018aee        0x2 00000000
 .rodata.__FUNCTION__.5222
                0x08018af0       0x13 ./rt-thread/src/object.o
 *fill*         0x08018b03        0x1 00000000
 .rodata.__FUNCTION__.5231
                0x08018b04        0xf ./rt-thread/src/object.o
 *fill*         0x08018b13        0x1 00000000
 .rodata.__FUNCTION__.5134
                0x08018b14       0x1a ./rt-thread/src/scheduler.o
 *fill*         0x08018b2e        0x2 00000000
 .rodata.__FUNCTION__.5172
                0x08018b30       0x1a ./rt-thread/src/scheduler.o
 *fill*         0x08018b4a        0x2 00000000
 .rodata.__FUNCTION__.5178
                0x08018b4c       0x1a ./rt-thread/src/scheduler.o
 *fill*         0x08018b66        0x2 00000000
 .rodata.__FUNCTION__.5149
                0x08018b68        0xd ./rt-thread/src/thread.o
 *fill*         0x08018b75        0x3 00000000
 .rodata.__FUNCTION__.5161
                0x08018b78        0xf ./rt-thread/src/thread.o
 *fill*         0x08018b87        0x1 00000000
 .rodata.__FUNCTION__.5170
                0x08018b88       0x12 ./rt-thread/src/thread.o
 *fill*         0x08018b9a        0x2 00000000
 .rodata.__FUNCTION__.5175
                0x08018b9c       0x11 ./rt-thread/src/thread.o
 *fill*         0x08018bad        0x3 00000000
 .rodata.__FUNCTION__.5191
                0x08018bb0       0x11 ./rt-thread/src/thread.o
 *fill*         0x08018bc1        0x3 00000000
 .rodata.__FUNCTION__.5202
                0x08018bc4       0x10 ./rt-thread/src/thread.o
 .rodata.__FUNCTION__.5225
                0x08018bd4       0x12 ./rt-thread/src/thread.o
 *fill*         0x08018be6        0x2 00000000
 .rodata.__FUNCTION__.5237
                0x08018be8       0x12 ./rt-thread/src/thread.o
 *fill*         0x08018bfa        0x2 00000000
 .rodata.__FUNCTION__.5242
                0x08018bfc       0x11 ./rt-thread/src/thread.o
 *fill*         0x08018c0d        0x3 00000000
 .rodata.__FUNCTION__.5248
                0x08018c10       0x12 ./rt-thread/src/thread.o
 *fill*         0x08018c22        0x2 00000000
 .rodata.__FUNCTION__.5166
                0x08018c24        0xe ./rt-thread/src/timer.o
 *fill*         0x08018c32        0x2 00000000
 .rodata.__FUNCTION__.5171
                0x08018c34       0x10 ./rt-thread/src/timer.o
 .rodata.__FUNCTION__.5196
                0x08018c44        0xf ./rt-thread/src/timer.o
 *fill*         0x08018c53        0x1 00000000
 .rodata.__FUNCTION__.5213
                0x08018c54        0xe ./rt-thread/src/timer.o
 *fill*         0x08018c62        0x2 00000000
 .rodata.__FUNCTION__.5220
                0x08018c64       0x11 ./rt-thread/src/timer.o
 *fill*         0x08018c75        0x3 00000000
 .rodata.name   0x08018c78      0x1e4 ./rt-thread/components/finsh/cmd.o
                0x08018c78                __fsym_hello_name
                0x08018c80                __fsym_hello_desc
                0x08018c90                __fsym_clear_name
                0x08018c98                __fsym_clear_desc
                0x08018cb4                __fsym_version_name
                0x08018cbc                __fsym_version_desc
                0x08018ce4                __fsym_list_thread_name
                0x08018cf0                __fsym_list_thread_desc
                0x08018cfc                __fsym_list_sem_name
                0x08018d08                __fsym_list_sem_desc
                0x08018d24                __fsym_list_event_name
                0x08018d30                __fsym_list_event_desc
                0x08018d48                __fsym_list_mutex_name
                0x08018d54                __fsym_list_mutex_desc
                0x08018d6c                __fsym_list_mailbox_name
                0x08018d7c                __fsym_list_mailbox_desc
                0x08018d94                __fsym_list_msgqueue_name
                0x08018da4                __fsym_list_msgqueue_desc
                0x08018dc4                __fsym_list_mempool_name
                0x08018dd4                __fsym_list_mempool_desc
                0x08018df0                __fsym_list_timer_name
                0x08018dfc                __fsym_list_timer_desc
                0x08018e14                __fsym_list_device_name
                0x08018e20                __fsym_list_device_desc
                0x08018e38                __fsym_list_name
                0x08018e40                __fsym_list_desc
 .rodata.device_type_str
                0x08018e5c       0x64 ./rt-thread/components/finsh/cmd.o
 .rodata.name   0x08018ec0       0x6d ./rt-thread/components/finsh/msh.o
                0x08018ec0                __fsym_help_name
                0x08018ec8                __fsym_help_desc
                0x08018ee0                __fsym_ps_name
                0x08018ee4                __fsym_ps_desc
                0x08018f00                __fsym_free_name
                0x08018f08                __fsym_free_desc
 *fill*         0x08018f2d        0x3 00000000
 .rodata.__FUNCTION__.5550
                0x08018f30        0xe ./rt-thread/components/finsh/msh.o
 *fill*         0x08018f3e        0x2 00000000
 .rodata.__FUNCTION__.6348
                0x08018f40       0x16 ./rt-thread/components/finsh/shell.o
 *fill*         0x08018f56        0x2 00000000
 .rodata.__FUNCTION__.6354
                0x08018f58        0xe ./rt-thread/components/finsh/shell.o
 *fill*         0x08018f66        0x2 00000000
 .rodata.__FUNCTION__.6362
                0x08018f68        0xd ./rt-thread/components/finsh/shell.o
 *fill*         0x08018f75        0x3 00000000
 .rodata.__FUNCTION__.6367
                0x08018f78       0x11 ./rt-thread/components/finsh/shell.o
 *fill*         0x08018f89        0x3 00000000
 .rodata.__FUNCTION__.6471
                0x08018f8c       0x13 ./rt-thread/components/drivers/src/completion.o
 *fill*         0x08018f9f        0x1 00000000
 .rodata.__FUNCTION__.6479
                0x08018fa0       0x13 ./rt-thread/components/drivers/src/completion.o
 *fill*         0x08018fb3        0x1 00000000
 .rodata.__FUNCTION__.6486
                0x08018fb4       0x13 ./rt-thread/components/drivers/src/completion.o
 *fill*         0x08018fc7        0x1 00000000
 .rodata.__FUNCTION__.6477
                0x08018fc8       0x13 ./rt-thread/components/drivers/src/dataqueue.o
 *fill*         0x08018fdb        0x1 00000000
 .rodata.__FUNCTION__.6487
                0x08018fdc       0x13 ./rt-thread/components/drivers/src/dataqueue.o
 *fill*         0x08018fef        0x1 00000000
 .rodata.__FUNCTION__.6502
                0x08018ff0       0x12 ./rt-thread/components/drivers/src/dataqueue.o
 *fill*         0x08019002        0x2 00000000
 .rodata.__FUNCTION__.6514
                0x08019004       0x13 ./rt-thread/components/drivers/src/dataqueue.o
 *fill*         0x08019017        0x1 00000000
 .rodata.__FUNCTION__.6520
                0x08019018       0x14 ./rt-thread/components/drivers/src/dataqueue.o
 .rodata.__FUNCTION__.6531
                0x0801902c       0x15 ./rt-thread/components/drivers/src/dataqueue.o
 *fill*         0x08019041        0x3 00000000
 .rodata.__FUNCTION__.6537
                0x08019044       0x12 ./rt-thread/components/drivers/src/dataqueue.o
 *fill*         0x08019056        0x2 00000000
 .rodata.__FUNCTION__.5820
                0x08019058       0x11 ./rt-thread/components/drivers/spi/spi_core.o
 *fill*         0x08019069        0x3 00000000
 .rodata.__FUNCTION__.5851
                0x0801906c       0x10 ./rt-thread/components/drivers/spi/spi_core.o
 .rodata.__FUNCTION__.5859
                0x0801907c       0x18 ./rt-thread/components/drivers/spi/spi_core.o
 .rodata.__FUNCTION__.5802
                0x08019094       0x15 ./rt-thread/components/drivers/spi/spi_dev.o
 *fill*         0x080190a9        0x3 00000000
 .rodata.__FUNCTION__.5810
                0x080190ac       0x16 ./rt-thread/components/drivers/spi/spi_dev.o
 *fill*         0x080190c2        0x2 00000000
 .rodata.__FUNCTION__.5824
                0x080190c4       0x17 ./rt-thread/components/drivers/spi/spi_dev.o
 *fill*         0x080190db        0x1 00000000
 .rodata.__FUNCTION__.5832
                0x080190dc       0x14 ./rt-thread/components/drivers/spi/spi_dev.o
 .rodata.__FUNCTION__.5840
                0x080190f0       0x15 ./rt-thread/components/drivers/spi/spi_dev.o
 *fill*         0x08019105        0x3 00000000
 .rodata.__FUNCTION__.5854
                0x08019108       0x16 ./rt-thread/components/drivers/spi/spi_dev.o
 *fill*         0x0801911e        0x2 00000000
 .rodata.__FUNCTION__.6520
                0x08019120       0x1d ./rt-thread/components/drivers/serial/serial.o
 *fill*         0x0801913d        0x3 00000000
 .rodata.__FUNCTION__.6529
                0x08019140       0x1d ./rt-thread/components/drivers/serial/serial.o
 *fill*         0x0801915d        0x3 00000000
 .rodata.__FUNCTION__.6535
                0x08019160       0x1d ./rt-thread/components/drivers/serial/serial.o
 *fill*         0x0801917d        0x3 00000000
 .rodata.__FUNCTION__.6561
                0x08019180        0xf ./rt-thread/components/drivers/serial/serial.o
 *fill*         0x0801918f        0x1 00000000
 .rodata.__FUNCTION__.6568
                0x08019190        0xf ./rt-thread/components/drivers/serial/serial.o
 *fill*         0x0801919f        0x1 00000000
 .rodata.__FUNCTION__.6578
                0x080191a0       0x10 ./rt-thread/components/drivers/serial/serial.o
 .rodata.__FUNCTION__.6591
                0x080191b0        0xf ./rt-thread/components/drivers/serial/serial.o
 *fill*         0x080191bf        0x1 00000000
 .rodata.__FUNCTION__.6495
                0x080191c0        0xf ./rt-thread/components/drivers/serial/serial.o
 *fill*         0x080191cf        0x1 00000000
 .rodata.__FUNCTION__.6542
                0x080191d0        0xf ./rt-thread/components/drivers/serial/serial.o
 *fill*         0x080191df        0x1 00000000
 .rodata.__FUNCTION__.6474
                0x080191e0       0x10 ./rt-thread/components/drivers/serial/serial.o
 .rodata.__FUNCTION__.6599
                0x080191f0       0x10 ./rt-thread/components/drivers/serial/serial.o
 .rodata.__FUNCTION__.6508
                0x08019200        0xf ./rt-thread/components/drivers/serial/serial.o
 *fill*         0x0801920f        0x1 00000000
 .rodata.__FUNCTION__.6484
                0x08019210       0x10 ./rt-thread/components/drivers/serial/serial.o
 .rodata.__FUNCTION__.6607
                0x08019220       0x12 ./rt-thread/components/drivers/serial/serial.o
 *fill*         0x08019232        0x2 00000000
 .rodata.__FUNCTION__.6622
                0x08019234       0x16 ./rt-thread/components/drivers/serial/serial.o
 *fill*         0x0801924a        0x2 00000000
 .rodata.__FUNCTION__.6631
                0x0801924c       0x11 ./rt-thread/components/drivers/serial/serial.o
 *fill*         0x0801925d        0x3 00000000
 .rodata.name   0x08019260       0xad ./rt-thread/components/drivers/sensors/sensor_cmd.o
                0x08019260                __fsym_sensor_fifo_name
                0x0801926c                __fsym_sensor_fifo_desc
                0x0801928c                __fsym_sensor_int_name
                0x08019298                __fsym_sensor_int_desc
                0x080192bc                __fsym_sensor_polling_name
                0x080192cc                __fsym_sensor_polling_desc
                0x080192f0                __fsym_sensor_name
                0x080192f8                __fsym_sensor_desc
 *fill*         0x0801930d        0x3 00000000
 .rodata.__FUNCTION__.5114
                0x08019310        0xa ./rt-thread/components/drivers/misc/pin.o
 *fill*         0x0801931a        0x2 00000000
 .rodata.__FUNCTION__.5123
                0x0801931c        0xb ./rt-thread/components/drivers/misc/pin.o
 *fill*         0x08019327        0x1 00000000
 .rodata.__FUNCTION__.5131
                0x08019328        0xd ./rt-thread/components/drivers/misc/pin.o
 *fill*         0x08019335        0x3 00000000
 .rodata.__FUNCTION__.5158
                0x08019338        0xc ./rt-thread/components/drivers/misc/pin.o
 .rodata.__FUNCTION__.5163
                0x08019344        0xd ./rt-thread/components/drivers/misc/pin.o
 *fill*         0x08019351        0x3 00000000
 .rodata.__FUNCTION__.5167
                0x08019354        0xc ./rt-thread/components/drivers/misc/pin.o
 .rodata.name   0x08019360       0xc8 ./rt-thread/components/drivers/misc/rt_drv_pwm.o
                0x08019360                __fsym_pwm_enable_name
                0x0801936c                __fsym_pwm_enable_desc
                0x08019394                __fsym_pwm_disable_name
                0x080193a0                __fsym_pwm_disable_desc
                0x080193cc                __fsym_pwm_set_name
                0x080193d4                __fsym_pwm_set_desc
                0x08019404                __fsym_pwm_get_name
                0x0801940c                __fsym_pwm_get_desc
 .rodata.i2c_bit_bus_ops
                0x08019428        0xc ./rt-thread/components/drivers/i2c/i2c-bit-ops.o
 .rodata.__FUNCTION__.6433
                0x08019434       0x13 ./rt-thread/components/drivers/i2c/i2c_core.o
 *fill*         0x08019447        0x1 00000000
 .rodata.__FUNCTION__.6402
                0x08019448       0x14 ./rt-thread/components/drivers/i2c/i2c_dev.o
 .rodata.__FUNCTION__.6412
                0x0801945c       0x15 ./rt-thread/components/drivers/i2c/i2c_dev.o
 *fill*         0x08019471        0x3 00000000
 .rodata.__FUNCTION__.6422
                0x08019474       0x17 ./rt-thread/components/drivers/i2c/i2c_dev.o
 *fill*         0x0801948b        0x1 00000000
 .rodata.__FUNCTION__.6435
                0x0801948c       0x1e ./rt-thread/components/drivers/i2c/i2c_dev.o
 *fill*         0x080194aa        0x2 00000000
 .rodata.MFRC522_firmware_referenceV0_0
                0x080194ac       0x40 ./packages/rc522-latest/src/mfrc522.o
 .rodata.MFRC522_firmware_referenceV1_0
                0x080194ec       0x40 ./packages/rc522-latest/src/mfrc522.o
 .rodata.MFRC522_firmware_referenceV2_0
                0x0801952c       0x40 ./packages/rc522-latest/src/mfrc522.o
 .rodata.FM17522_firmware_reference
                0x0801956c       0x40 ./packages/rc522-latest/src/mfrc522.o
 .rodata.__FUNCTION__.7010
                0x080195ac        0x8 ./packages/rc522-latest/src/mfrc522.o
 .rodata.name   0x080195b4       0x1d ./packages/rc522-latest/examples/change_uid.o
                0x080195b4                __fsym_change_uid_name
                0x080195c0                __fsym_change_uid_desc
 *fill*         0x080195d1        0x3 00000000
 .rodata.name   0x080195d4       0x1c ./packages/rc522-latest/examples/dunp_info.o
                0x080195d4                __fsym_dump_info_name
                0x080195e0                __fsym_dump_info_desc
 .rodata.name   0x080195f0       0x25 ./packages/rc522-latest/examples/firmware_check.o
                0x080195f0                __fsym_firmware_check_name
                0x08019600                __fsym_firmware_check_desc
 *fill*         0x08019615        0x3 00000000
 .rodata.name   0x08019618       0x26 ./packages/rc522-latest/examples/fix_brickeduid.o
                0x08019618                __fsym_fix_brickeduid_name
                0x08019628                __fsym_fix_brickeduid_desc
 *fill*         0x0801963e        0x2 00000000
 .rodata.name   0x08019640       0x3d ./packages/rc522-latest/examples/mifare_classic_value_block.o
                0x08019640                __fsym_mifare_classic_value_block_name
                0x0801965c                __fsym_mifare_classic_value_block_desc
 *fill*         0x0801967d        0x3 00000000
 .rodata.name   0x08019680       0x1c ./packages/rc522-latest/examples/read_nuid.o
                0x08019680                __fsym_read_nuid_name
                0x0801968c                __fsym_read_nuid_desc
 .rodata.__func__.6745
                0x0801969c        0xd ./packages/fingerprint-latest/fingerprint.o
 *fill*         0x080196a9        0x3 00000000
 .rodata.__func__.6751
                0x080196ac        0xc ./packages/fingerprint-latest/fingerprint.o
 .rodata.__func__.6766
                0x080196b8        0xd ./packages/fingerprint-latest/fingerprint.o
 *fill*         0x080196c5        0x3 00000000
 .rodata.__func__.6773
                0x080196c8        0xe ./packages/fingerprint-latest/fingerprint.o
 *fill*         0x080196d6        0x2 00000000
 .rodata.__func__.6780
                0x080196d8        0xe ./packages/fingerprint-latest/fingerprint.o
 *fill*         0x080196e6        0x2 00000000
 .rodata.__func__.6786
                0x080196e8        0x9 ./packages/fingerprint-latest/fingerprint.o
 *fill*         0x080196f1        0x3 00000000
 .rodata.__func__.6799
                0x080196f4       0x11 ./packages/fingerprint-latest/fingerprint.o
 *fill*         0x08019705        0x3 00000000
 .rodata.__func__.6805
                0x08019708        0xb ./packages/fingerprint-latest/fingerprint.o
 *fill*         0x08019713        0x1 00000000
 .rodata.__func__.6811
                0x08019714       0x11 ./packages/fingerprint-latest/fingerprint.o
 *fill*         0x08019725        0x3 00000000
 .rodata.__func__.6817
                0x08019728       0x16 ./packages/fingerprint-latest/fingerprint.o
 *fill*         0x0801973e        0x2 00000000
 .rodata.__func__.6824
                0x08019740       0x14 ./packages/fingerprint-latest/fingerprint.o
 .rodata.name   0x08019754      0x120 ./packages/fingerprint-latest/fingerprint_sample.o
                0x08019754                __fsym_fp_port_name
                0x0801975c                __fsym_fp_port_desc
                0x08019764                __fsym_fp_delet_char_cmd_name
                0x08019778                __fsym_fp_delet_char_cmd_desc
                0x0801978c                __fsym_fp_empty_name
                0x08019798                __fsym_fp_empty_desc
                0x080197a4                __fsym_fp_get_sys_para_name
                0x080197b4                __fsym_fp_get_sys_para_desc
                0x080197c8                __fsym_fp_get_num_name
                0x080197d4                __fsym_fp_get_num_desc
                0x080197ec                __fsym_get_eff_id_name
                0x080197f8                __fsym_get_eff_id_desc
                0x08019808                __fsym_get_id_state_cmd_name
                0x0801981c                __fsym_get_id_state_cmd_desc
                0x08019830                __fsym_fp_add_fp_name
                0x0801983c                __fsym_fp_add_fp_desc
                0x08019854                __fsym_fp_read_name
                0x0801985c                __fsym_fp_read_desc
 .rodata.name   0x08019874       0x57 ./board/msp/n32_msp.o
                0x08019874                __fsym_uart_test_name
                0x08019880                __fsym_uart_test_desc
                0x0801988c                __fsym_pwm_led_sample_name
                0x0801989c                __fsym_pwm_led_sample_desc
                0x080198a8                __fsym_pwm_led_sample_off_name
                0x080198bc                __fsym_pwm_led_sample_off_desc
 *fill*         0x080198cb        0x1 00000000
 .rodata.__FUNCTION__.10677
                0x080198cc        0xd ./board/msp/n32_msp.o
 *fill*         0x080198d9        0x3 00000000
 .rodata.name   0x080198dc       0x16 ./Libraries/rt_drivers/drv_common.o
                0x080198dc                __fsym_reboot_name
                0x080198e4                __fsym_reboot_desc
 *fill*         0x080198f2        0x2 00000000
 .rodata.pins   0x080198f4      0x7e4 ./Libraries/rt_drivers/drv_gpio.o
 .rodata.pin_irq_map
                0x0801a0d8       0xc0 ./Libraries/rt_drivers/drv_gpio.o
 .rodata._n32_pin_ops
                0x0801a198       0x1c ./Libraries/rt_drivers/drv_gpio.o
 .rodata.soft_i2c_config
                0x0801a1b4        0x8 ./Libraries/rt_drivers/drv_soft_i2c.o
 .rodata.n32_bit_ops_default
                0x0801a1bc       0x20 ./Libraries/rt_drivers/drv_soft_i2c.o
 .rodata.__FUNCTION__.10789
                0x0801a1dc        0xf ./Libraries/rt_drivers/drv_soft_i2c.o
 *fill*         0x0801a1eb        0x1 00000000
 .rodata.__FUNCTION__.10669
                0x0801a1ec        0xa ./Libraries/rt_drivers/drv_spi.o
 *fill*         0x0801a1f6        0x2 00000000
 .rodata.__FUNCTION__.10684
                0x0801a1f8        0x5 ./Libraries/rt_drivers/drv_spi.o
 *fill*         0x0801a1fd        0x3 00000000
 .rodata.n32_uart_ops
                0x0801a200       0x14 ./Libraries/rt_drivers/drv_usart.o
 .rodata.__FUNCTION__.10751
                0x0801a214       0x13 ./Libraries/rt_drivers/drv_usart.o
 *fill*         0x0801a227        0x1 00000000
 .rodata.__FUNCTION__.10759
                0x0801a228       0x11 ./Libraries/rt_drivers/drv_usart.o
 *fill*         0x0801a239        0x3 00000000
 .rodata.__FUNCTION__.10769
                0x0801a23c        0xe ./Libraries/rt_drivers/drv_usart.o
 *fill*         0x0801a24a        0x2 00000000
 .rodata.__FUNCTION__.10778
                0x0801a24c        0xe ./Libraries/rt_drivers/drv_usart.o
 *fill*         0x0801a25a        0x2 00000000
 .rodata.__FUNCTION__.10796
                0x0801a25c        0x9 ./Libraries/rt_drivers/drv_usart.o
 *fill*         0x0801a265        0x3 00000000
 .rodata.s_ApbAhbPresTable
                0x0801a268       0x10 ./Libraries/N32_Std_Driver/n32g45x_std_periph_driver/src/n32g45x_rcc.o
 .rodata.s_AdcHclkPresTable
                0x0801a278       0x10 ./Libraries/N32_Std_Driver/n32g45x_std_periph_driver/src/n32g45x_rcc.o
 .rodata.s_AdcPllClkPresTable
                0x0801a288       0x20 ./Libraries/N32_Std_Driver/n32g45x_std_periph_driver/src/n32g45x_rcc.o
 .rodata._global_impure_ptr
                0x0801a2a8        0x4 c:/rt-threadstudio/repo/extract/toolchain_support_packages/arm/gnu_tools_for_arm_embedded_processors/5.4.1/bin/../lib/gcc/arm-none-eabi/5.4.1/../../../../arm-none-eabi/lib/armv7e-m/fpu\libc.a(lib_a-impure.o)
                0x0801a2a8                _global_impure_ptr
 .rodata.str1.4
                0x0801a2ac       0x14 c:/rt-threadstudio/repo/extract/toolchain_support_packages/arm/gnu_tools_for_arm_embedded_processors/5.4.1/bin/../lib/gcc/arm-none-eabi/5.4.1/../../../../arm-none-eabi/lib/armv7e-m/fpu\libc.a(lib_a-locale.o)
                                 0x12 (size before relaxing)
 .rodata._ctype_
                0x0801a2c0      0x101 c:/rt-threadstudio/repo/extract/toolchain_support_packages/arm/gnu_tools_for_arm_embedded_processors/5.4.1/bin/../lib/gcc/arm-none-eabi/5.4.1/../../../../arm-none-eabi/lib/armv7e-m/fpu\libc.a(lib_a-ctype_.o)
                0x0801a2c0                _ctype_
 *(.glue_7)
 .glue_7        0x0801a3c1        0x0 linker stubs
 *(.glue_7t)
 .glue_7t       0x0801a3c1        0x0 linker stubs
 *(.gnu.linkonce.t*)
                0x0801a3c4                . = ALIGN (0x4)
 *fill*         0x0801a3c1        0x3 00000000
                0x0801a3c4                __fsymtab_start = .
 *(FSymTab)
 FSymTab        0x0801a3c4       0x9c ./rt-thread/components/finsh/cmd.o
                0x0801a3c4                __fsym_hello
                0x0801a3d0                __fsym_clear
                0x0801a3dc                __fsym_version
                0x0801a3e8                __fsym_list_thread
                0x0801a3f4                __fsym_list_sem
                0x0801a400                __fsym_list_event
                0x0801a40c                __fsym_list_mutex
                0x0801a418                __fsym_list_mailbox
                0x0801a424                __fsym_list_msgqueue
                0x0801a430                __fsym_list_mempool
                0x0801a43c                __fsym_list_timer
                0x0801a448                __fsym_list_device
                0x0801a454                __fsym_list
 FSymTab        0x0801a460       0x24 ./rt-thread/components/finsh/msh.o
                0x0801a460                __fsym_help
                0x0801a46c                __fsym_ps
                0x0801a478                __fsym_free
 FSymTab        0x0801a484       0x30 ./rt-thread/components/drivers/sensors/sensor_cmd.o
                0x0801a484                __fsym_sensor_fifo
                0x0801a490                __fsym_sensor_int
                0x0801a49c                __fsym_sensor_polling
                0x0801a4a8                __fsym_sensor
 FSymTab        0x0801a4b4       0x30 ./rt-thread/components/drivers/misc/rt_drv_pwm.o
                0x0801a4b4                __fsym_pwm_enable
                0x0801a4c0                __fsym_pwm_disable
                0x0801a4cc                __fsym_pwm_set
                0x0801a4d8                __fsym_pwm_get
 FSymTab        0x0801a4e4        0xc ./packages/rc522-latest/examples/change_uid.o
                0x0801a4e4                __fsym_change_uid
 FSymTab        0x0801a4f0        0xc ./packages/rc522-latest/examples/dunp_info.o
                0x0801a4f0                __fsym_dump_info
 FSymTab        0x0801a4fc        0xc ./packages/rc522-latest/examples/firmware_check.o
                0x0801a4fc                __fsym_firmware_check
 FSymTab        0x0801a508        0xc ./packages/rc522-latest/examples/fix_brickeduid.o
                0x0801a508                __fsym_fix_brickeduid
 FSymTab        0x0801a514        0xc ./packages/rc522-latest/examples/mifare_classic_value_block.o
                0x0801a514                __fsym_mifare_classic_value_block
 FSymTab        0x0801a520        0xc ./packages/rc522-latest/examples/read_nuid.o
                0x0801a520                __fsym_read_nuid
 FSymTab        0x0801a52c       0x6c ./packages/fingerprint-latest/fingerprint_sample.o
                0x0801a52c                __fsym_fp_port
                0x0801a538                __fsym_fp_delet_char_cmd
                0x0801a544                __fsym_fp_empty
                0x0801a550                __fsym_fp_get_sys_para
                0x0801a55c                __fsym_fp_get_num
                0x0801a568                __fsym_get_eff_id
                0x0801a574                __fsym_get_id_state_cmd
                0x0801a580                __fsym_fp_add_fp
                0x0801a58c                __fsym_fp_read
 FSymTab        0x0801a598       0x24 ./board/msp/n32_msp.o
                0x0801a598                __fsym_uart_test
                0x0801a5a4                __fsym_pwm_led_sample
                0x0801a5b0                __fsym_pwm_led_sample_off
 FSymTab        0x0801a5bc        0xc ./Libraries/rt_drivers/drv_common.o
                0x0801a5bc                __fsym_reboot
                0x0801a5c8                __fsymtab_end = .
                0x0801a5c8                . = ALIGN (0x4)
                0x0801a5c8                __vsymtab_start = .
 *(VSymTab)
                0x0801a5c8                __vsymtab_end = .
                0x0801a5c8                . = ALIGN (0x4)
                0x0801a5c8                __rt_init_start = .
 *(SORT(.rti_fn*))
 .rti_fn.0      0x0801a5c8        0x4 ./rt-thread/src/components.o
                0x0801a5c8                __rt_init_rti_start
 .rti_fn.0.end  0x0801a5cc        0x4 ./rt-thread/src/components.o
                0x0801a5cc                __rt_init_rti_board_start
 .rti_fn.1      0x0801a5d0        0x4 ./Libraries/rt_drivers/drv_gpio.o
                0x0801a5d0                __rt_init_n32_hw_pin_init
 .rti_fn.1      0x0801a5d4        0x4 ./Libraries/rt_drivers/drv_pwm.o
                0x0801a5d4                __rt_init_rt_hw_pwm_init
 .rti_fn.1      0x0801a5d8        0x4 ./Libraries/rt_drivers/drv_soft_i2c.o
                0x0801a5d8                __rt_init_rt_hw_i2c_init
 .rti_fn.1      0x0801a5dc        0x4 ./Libraries/rt_drivers/drv_spi.o
                0x0801a5dc                __rt_init_rt_hw_spi_init
 .rti_fn.1      0x0801a5e0        0x4 ./Libraries/rt_drivers/drv_usart.o
                0x0801a5e0                __rt_init_rt_hw_usart_init
 .rti_fn.1.end  0x0801a5e4        0x4 ./rt-thread/src/components.o
                0x0801a5e4                __rt_init_rti_board_end
 .rti_fn.4      0x0801a5e8        0x4 ./rt-thread/components/libc/compilers/gcc/newlib/libc.o
                0x0801a5e8                __rt_init_libc_system_init
 .rti_fn.4      0x0801a5ec        0x4 ./rt-thread/components/drivers/i2c/i2c_core.o
                0x0801a5ec                __rt_init_rt_i2c_core_init
 .rti_fn.4      0x0801a5f0        0x4 ./packages/rc522-latest/port/mfrc522_rtt_port.o
                0x0801a5f0                __rt_init_rt_hw_spi_rc522_init
 .rti_fn.6      0x0801a5f4        0x4 ./rt-thread/components/finsh/shell.o
                0x0801a5f4                __rt_init_finsh_system_init
 .rti_fn.6.end  0x0801a5f8        0x4 ./rt-thread/src/components.o
                0x0801a5f8                __rt_init_rti_end
                0x0801a5fc                __rt_init_end = .
                0x0801a5fc                . = ALIGN (0x4)
                [!provide]                PROVIDE (__ctors_start__, .)
 *(SORT(.init_array.*))
 .init_array.00000
                0x0801a5fc        0x4 c:/rt-threadstudio/repo/extract/toolchain_support_packages/arm/gnu_tools_for_arm_embedded_processors/5.4.1/bin/../lib/gcc/arm-none-eabi/5.4.1/../../../../arm-none-eabi/lib/armv7e-m/fpu\libc.a(lib_a-__call_atexit.o)
 *(.init_array)
 .init_array    0x0801a600        0x4 c:/rt-threadstudio/repo/extract/toolchain_support_packages/arm/gnu_tools_for_arm_embedded_processors/5.4.1/bin/../lib/gcc/arm-none-eabi/5.4.1/armv7e-m/fpu/crtbegin.o
                [!provide]                PROVIDE (__ctors_end__, .)
                0x0801a604                . = ALIGN (0x4)
                0x0801a604                _etext = .
                0x0801a604                __exidx_start = .

.vfp11_veneer   0x0801a604        0x0
 .vfp11_veneer  0x0801a604        0x0 linker stubs

.v4_bx          0x0801a604        0x0
 .v4_bx         0x0801a604        0x0 linker stubs

.init           0x0801a604        0x4
 .init          0x0801a604        0x4 c:/rt-threadstudio/repo/extract/toolchain_support_packages/arm/gnu_tools_for_arm_embedded_processors/5.4.1/bin/../lib/gcc/arm-none-eabi/5.4.1/armv7e-m/fpu/crti.o
                0x0801a604                _init

.fini           0x0801a608        0x4
 .fini          0x0801a608        0x4 c:/rt-threadstudio/repo/extract/toolchain_support_packages/arm/gnu_tools_for_arm_embedded_processors/5.4.1/bin/../lib/gcc/arm-none-eabi/5.4.1/armv7e-m/fpu/crti.o
                0x0801a608                _fini

.iplt           0x0801a60c        0x0
 .iplt          0x0801a60c        0x0 c:/rt-threadstudio/repo/extract/toolchain_support_packages/arm/gnu_tools_for_arm_embedded_processors/5.4.1/bin/../lib/gcc/arm-none-eabi/5.4.1/armv7e-m/fpu/crtbegin.o

.eh_frame       0x0801a60c        0x0
 .eh_frame      0x0801a60c        0x0 c:/rt-threadstudio/repo/extract/toolchain_support_packages/arm/gnu_tools_for_arm_embedded_processors/5.4.1/bin/../lib/gcc/arm-none-eabi/5.4.1/armv7e-m/fpu/crtbegin.o

.ARM.exidx      0x0801a60c        0x8
 *(.ARM.exidx* .gnu.linkonce.armexidx.*)
 .ARM.exidx     0x0801a60c        0x8 c:/rt-threadstudio/repo/extract/toolchain_support_packages/arm/gnu_tools_for_arm_embedded_processors/5.4.1/bin/../lib/gcc/arm-none-eabi/5.4.1/armv7e-m/fpu\libgcc.a(_udivmoddi4.o)
                0x0801a614                _sidata = .
                0x0801a614                __exidx_end = .

.rel.dyn        0x0801a614        0x0
 .rel.iplt      0x0801a614        0x0 c:/rt-threadstudio/repo/extract/toolchain_support_packages/arm/gnu_tools_for_arm_embedded_processors/5.4.1/bin/../lib/gcc/arm-none-eabi/5.4.1/armv7e-m/fpu/crtbegin.o

.data           0x20000000      0x8b8 load address 0x0801a614
                0x20000000                . = ALIGN (0x4)
                0x20000000                _sdata = .
 *(.data)
 *(.data.*)
 .data._rt_thread_defunct
                0x20000000        0x8 ./rt-thread/src/idle.o
 .data._object_container
                0x20000008       0x90 ./rt-thread/src/object.o
 .data._soft_timer_status
                0x20000098        0x1 ./rt-thread/src/timer.o
 *fill*         0x20000099        0x3 
 .data.tx_buf   0x2000009c       0x32 ./packages/fingerprint-latest/fingerprint.o
 *fill*         0x200000ce        0x2 
 .data.pin_irq_hdr_tab
                0x200000d0       0xc0 ./Libraries/rt_drivers/drv_gpio.o
                0x200000d0                pin_irq_hdr_tab
 .data.n32_pwm_obj
                0x20000190      0x140 ./Libraries/rt_drivers/drv_pwm.o
 .data.drv_ops  0x200002d0        0x4 ./Libraries/rt_drivers/drv_pwm.o
 .data.spi_ops  0x200002d4        0x8 ./Libraries/rt_drivers/drv_spi.o
 .data.uart1    0x200002dc       0x20 ./Libraries/rt_drivers/drv_usart.o
                0x200002dc                uart1
 .data.uart2    0x200002fc       0x20 ./Libraries/rt_drivers/drv_usart.o
                0x200002fc                uart2
 .data.SystemCoreClock
                0x2000031c        0x4 ./Libraries/N32_Std_Driver/CMSIS/device/system_n32g45x.o
                0x2000031c                SystemCoreClock
 .data.impure_data
                0x20000320      0x428 c:/rt-threadstudio/repo/extract/toolchain_support_packages/arm/gnu_tools_for_arm_embedded_processors/5.4.1/bin/../lib/gcc/arm-none-eabi/5.4.1/../../../../arm-none-eabi/lib/armv7e-m/fpu\libc.a(lib_a-impure.o)
 .data._impure_ptr
                0x20000748        0x4 c:/rt-threadstudio/repo/extract/toolchain_support_packages/arm/gnu_tools_for_arm_embedded_processors/5.4.1/bin/../lib/gcc/arm-none-eabi/5.4.1/../../../../arm-none-eabi/lib/armv7e-m/fpu\libc.a(lib_a-impure.o)
                0x20000748                _impure_ptr
 .data.__global_locale
                0x2000074c      0x16c c:/rt-threadstudio/repo/extract/toolchain_support_packages/arm/gnu_tools_for_arm_embedded_processors/5.4.1/bin/../lib/gcc/arm-none-eabi/5.4.1/../../../../arm-none-eabi/lib/armv7e-m/fpu\libc.a(lib_a-locale.o)
                0x2000074c                __global_locale
 *(.gnu.linkonce.d*)
                [!provide]                PROVIDE (__dtors_start__, .)
 *(SORT(.dtors.*))
 *(.dtors)
                [!provide]                PROVIDE (__dtors_end__, .)
                0x200008b8                . = ALIGN (0x4)
                0x200008b8                _edata = .

.jcr            0x200008b8        0x0 load address 0x0801aecc
 .jcr           0x200008b8        0x0 c:/rt-threadstudio/repo/extract/toolchain_support_packages/arm/gnu_tools_for_arm_embedded_processors/5.4.1/bin/../lib/gcc/arm-none-eabi/5.4.1/armv7e-m/fpu/crtbegin.o

.igot.plt       0x200008b8        0x0 load address 0x0801aecc
 .igot.plt      0x200008b8        0x0 c:/rt-threadstudio/repo/extract/toolchain_support_packages/arm/gnu_tools_for_arm_embedded_processors/5.4.1/bin/../lib/gcc/arm-none-eabi/5.4.1/armv7e-m/fpu/crtbegin.o

.stack          0x200008b8      0x200 load address 0x0801aecc
                0x200008b8                . = ALIGN (0x4)
                0x200008b8                _sstack = .
                0x20000ab8                . = (. + _system_stack_size)
 *fill*         0x200008b8      0x200 
                0x20000ab8                . = ALIGN (0x4)
                0x20000ab8                _estack = .
                0x20000ab8                __bss_start = .

.bss            0x20000ab8      0xaa0 load address 0x0801b0cc
                0x20000ab8                . = ALIGN (0x4)
                0x20000ab8                _sbss = .
 *(.bss)
 .bss           0x20000ab8       0x1c c:/rt-threadstudio/repo/extract/toolchain_support_packages/arm/gnu_tools_for_arm_embedded_processors/5.4.1/bin/../lib/gcc/arm-none-eabi/5.4.1/armv7e-m/fpu/crtbegin.o
 *(.bss.*)
 .bss.rt_tick   0x20000ad4        0x4 ./rt-thread/src/clock.o
 .bss.idle      0x20000ad8       0x80 ./rt-thread/src/idle.o
 .bss.rt_thread_stack
                0x20000b58      0x100 ./rt-thread/src/idle.o
 .bss.idle_hook_list
                0x20000c58       0x10 ./rt-thread/src/idle.o
 .bss.rt_interrupt_enter_hook
                0x20000c68        0x4 ./rt-thread/src/irq.o
 .bss.rt_interrupt_leave_hook
                0x20000c6c        0x4 ./rt-thread/src/irq.o
 .bss.rt_interrupt_nest
                0x20000c70        0x1 ./rt-thread/src/irq.o
                0x20000c70                rt_interrupt_nest
 *fill*         0x20000c71        0x3 
 .bss.__rt_errno
                0x20000c74        0x4 ./rt-thread/src/kservice.o
 .bss._console_device
                0x20000c78        0x4 ./rt-thread/src/kservice.o
 .bss.rt_log_buf.5397
                0x20000c7c       0x80 ./rt-thread/src/kservice.o
 .bss.rt_malloc_hook
                0x20000cfc        0x4 ./rt-thread/src/mem.o
 .bss.rt_free_hook
                0x20000d00        0x4 ./rt-thread/src/mem.o
 .bss.heap_ptr  0x20000d04        0x4 ./rt-thread/src/mem.o
 .bss.heap_end  0x20000d08        0x4 ./rt-thread/src/mem.o
 .bss.lfree     0x20000d0c        0x4 ./rt-thread/src/mem.o
 .bss.heap_sem  0x20000d10       0x20 ./rt-thread/src/mem.o
 .bss.mem_size_aligned
                0x20000d30        0x4 ./rt-thread/src/mem.o
 .bss.used_mem  0x20000d34        0x4 ./rt-thread/src/mem.o
 .bss.max_mem   0x20000d38        0x4 ./rt-thread/src/mem.o
 .bss.rt_object_attach_hook
                0x20000d3c        0x4 ./rt-thread/src/object.o
 .bss.rt_object_detach_hook
                0x20000d40        0x4 ./rt-thread/src/object.o
 .bss.rt_scheduler_lock_nest
                0x20000d44        0x2 ./rt-thread/src/scheduler.o
 *fill*         0x20000d46        0x2 
 .bss.rt_current_thread
                0x20000d48        0x4 ./rt-thread/src/scheduler.o
                0x20000d48                rt_current_thread
 .bss.rt_scheduler_hook
                0x20000d4c        0x4 ./rt-thread/src/scheduler.o
 .bss.rt_scheduler_switch_hook
                0x20000d50        0x4 ./rt-thread/src/scheduler.o
 .bss.rt_thread_suspend_hook
                0x20000d54        0x4 ./rt-thread/src/thread.o
 .bss.rt_thread_resume_hook
                0x20000d58        0x4 ./rt-thread/src/thread.o
 .bss.rt_thread_inited_hook
                0x20000d5c        0x4 ./rt-thread/src/thread.o
 .bss._timer_list
                0x20000d60        0x8 ./rt-thread/src/timer.o
 .bss._soft_timer_list
                0x20000d68        0x8 ./rt-thread/src/timer.o
 .bss._timer_thread
                0x20000d70       0x80 ./rt-thread/src/timer.o
 .bss._timer_thread_stack
                0x20000df0      0x200 ./rt-thread/src/timer.o
 .bss.rt_timer_enter_hook
                0x20000ff0        0x4 ./rt-thread/src/timer.o
 .bss.rt_timer_exit_hook
                0x20000ff4        0x4 ./rt-thread/src/timer.o
 .bss.random_nr.5195
                0x20000ff8        0x4 ./rt-thread/src/timer.o
 .bss.rt_exception_hook
                0x20000ffc        0x4 ./rt-thread/libcpu/arm/cortex-m4/cpuport.o
 .bss._syscall_table_begin
                0x20001000        0x4 ./rt-thread/components/finsh/shell.o
                0x20001000                _syscall_table_begin
 .bss._syscall_table_end
                0x20001004        0x4 ./rt-thread/components/finsh/shell.o
                0x20001004                _syscall_table_end
 .bss.finsh_prompt_custom
                0x20001008        0x4 ./rt-thread/components/finsh/shell.o
 .bss.finsh_prompt.6340
                0x2000100c       0x81 ./rt-thread/components/finsh/shell.o
 *fill*         0x2000108d        0x3 
 .bss.already_output.6515
                0x20001090        0x4 ./rt-thread/components/drivers/serial/serial.o
 .bss.sensor_rx_sem
                0x20001094        0x4 ./rt-thread/components/drivers/sensors/sensor_cmd.o
 .bss.tid1.6647
                0x20001098        0x4 ./rt-thread/components/drivers/sensors/sensor_cmd.o
 .bss.tid1.6666
                0x2000109c        0x4 ./rt-thread/components/drivers/sensors/sensor_cmd.o
 .bss.dev.6694  0x200010a0        0x4 ./rt-thread/components/drivers/sensors/sensor_cmd.o
 .bss._hw_pin   0x200010a4       0x44 ./rt-thread/components/drivers/misc/pin.o
 .bss.uid       0x200010e8        0xc ./packages/rc522-latest/src/mfrc522.o
 .bss._chipSelectPin
                0x200010f4        0x4 ./packages/rc522-latest/src/mfrc522.o
 .bss._resetPowerDownPin
                0x200010f8        0x4 ./packages/rc522-latest/src/mfrc522.o
 .bss.spi_dev_rc522
                0x200010fc        0x4 ./packages/rc522-latest/src/mfrc522.o
 .bss.msg       0x20001100        0x4 ./packages/rc522-latest/src/mfrc522.o
 .bss.tim_rc522
                0x20001104        0x4 ./packages/rc522-latest/src/mfrc522.o
 .bss.flag_500ms
                0x20001108        0x1 ./packages/rc522-latest/src/mfrc522.o
 *fill*         0x20001109        0x3 
 .bss.mfrc522_spi_dev
                0x2000110c       0x50 ./packages/rc522-latest/port/mfrc522_rtt_port.o
 .bss.spi_cs    0x2000115c        0x4 ./packages/rc522-latest/port/mfrc522_rtt_port.o
 .bss.uid       0x20001160        0x4 ./packages/rc522-latest/examples/change_uid.o
 .bss.key       0x20001164        0x6 ./packages/rc522-latest/examples/change_uid.o
 *fill*         0x2000116a        0x2 
 .bss.uid       0x2000116c        0x4 ./packages/rc522-latest/examples/dunp_info.o
 .bss.uid       0x20001170        0x4 ./packages/rc522-latest/examples/mifare_classic_value_block.o
 .bss.key       0x20001174        0x6 ./packages/rc522-latest/examples/mifare_classic_value_block.o
 *fill*         0x2000117a        0x2 
 .bss.key       0x2000117c        0x6 ./packages/rc522-latest/examples/read_nuid.o
 *fill*         0x20001182        0x2 
 .bss.uid       0x20001184        0x4 ./packages/rc522-latest/examples/read_nuid.o
 .bss.fp_dev    0x20001188        0x4 ./packages/fingerprint-latest/fingerprint.o
 .bss.flag_vfy  0x2000118c        0x1 ./packages/fingerprint-latest/fingerprint.o
 .bss.flag_init
                0x2000118d        0x1 ./packages/fingerprint-latest/fingerprint.o
 *fill*         0x2000118e        0x2 
 .bss.rx_sem    0x20001190       0x20 ./packages/fingerprint-latest/fingerprint.o
 .bss.rx_buf    0x200011b0       0x32 ./packages/fingerprint-latest/fingerprint.o
 *fill*         0x200011e2        0x2 
 .bss.head_handle
                0x200011e4        0x4 ./packages/MultiButton-latest/multi_button.o
 .bss.u2.10688  0x200011e8        0x4 ./board/msp/n32_msp.o
 .bss.key1_btn  0x200011ec       0x28 ./applications/smart_door.o
 .bss.key2_btn  0x20001214       0x28 ./applications/smart_door.o
 .bss.i2c_obj   0x2000123c       0x98 ./Libraries/rt_drivers/drv_soft_i2c.o
 .bss.spi_bus2.10716
                0x200012d4       0x70 ./Libraries/rt_drivers/drv_spi.o
 *(COMMON)
 COMMON         0x20001344        0x4 ./rt-thread/src/kservice.o
                0x20001344                rt_assert_hook
 COMMON         0x20001348        0xc ./rt-thread/src/object.o
                0x20001348                rt_object_put_hook
                0x2000134c                rt_object_take_hook
                0x20001350                rt_object_trytake_hook
 COMMON         0x20001354      0x108 ./rt-thread/src/scheduler.o
                0x20001354                rt_thread_priority_table
                0x20001454                rt_current_priority
                0x20001458                rt_thread_ready_priority_group
 COMMON         0x2000145c        0xc ./rt-thread/libcpu/arm/cortex-m4/cpuport.o
                0x2000145c                rt_interrupt_to_thread
                0x20001460                rt_interrupt_from_thread
                0x20001464                rt_thread_switch_interrupt_flag
 COMMON         0x20001468        0x4 ./rt-thread/components/finsh/shell.o
                0x20001468                shell
 COMMON         0x2000146c        0x4 ./packages/rc522-latest/examples/read_nuid.o
                0x2000146c                nuidPICC
 COMMON         0x20001470       0x40 ./applications/smart_door.o
                0x20001470                door_open_sem
                0x20001490                add_finger_sem
 COMMON         0x200014b0       0xa8 ./Libraries/rt_drivers/drv_usart.o
                0x200014b0                serial1
                0x20001504                serial2
                0x20001558                . = ALIGN (0x4)
                0x20001558                _ebss = .
 *(.bss.init)
                0x20001558                __bss_end = .
                0x20001558                _end = .

.stab
 *(.stab)

.stabstr
 *(.stabstr)

.stab.excl
 *(.stab.excl)

.stab.exclstr
 *(.stab.exclstr)

.stab.index
 *(.stab.index)

.stab.indexstr
 *(.stab.indexstr)

.comment        0x00000000       0x6e
 *(.comment)
 .comment       0x00000000       0x6e ./rt-thread/src/clock.o
                                 0x6f (size before relaxing)
 .comment       0x0000006e       0x6f ./rt-thread/src/components.o
 .comment       0x0000006e       0x6f ./rt-thread/src/device.o
 .comment       0x0000006e       0x6f ./rt-thread/src/idle.o
 .comment       0x0000006e       0x6f ./rt-thread/src/ipc.o
 .comment       0x0000006e       0x6f ./rt-thread/src/irq.o
 .comment       0x0000006e       0x6f ./rt-thread/src/kservice.o
 .comment       0x0000006e       0x6f ./rt-thread/src/mem.o
 .comment       0x0000006e       0x6f ./rt-thread/src/object.o
 .comment       0x0000006e       0x6f ./rt-thread/src/scheduler.o
 .comment       0x0000006e       0x6f ./rt-thread/src/thread.o
 .comment       0x0000006e       0x6f ./rt-thread/src/timer.o
 .comment       0x0000006e       0x6f ./rt-thread/libcpu/arm/cortex-m4/cpuport.o
 .comment       0x0000006e       0x6f ./rt-thread/components/libc/compilers/gcc/newlib/libc.o
 .comment       0x0000006e       0x6f ./rt-thread/components/libc/compilers/gcc/newlib/syscalls.o
 .comment       0x0000006e       0x6f ./rt-thread/components/finsh/cmd.o
 .comment       0x0000006e       0x6f ./rt-thread/components/finsh/msh.o
 .comment       0x0000006e       0x6f ./rt-thread/components/finsh/shell.o
 .comment       0x0000006e       0x6f ./rt-thread/components/drivers/src/completion.o
 .comment       0x0000006e       0x6f ./rt-thread/components/drivers/src/dataqueue.o
 .comment       0x0000006e       0x6f ./rt-thread/components/drivers/spi/spi_core.o
 .comment       0x0000006e       0x6f ./rt-thread/components/drivers/spi/spi_dev.o
 .comment       0x0000006e       0x6f ./rt-thread/components/drivers/serial/serial.o
 .comment       0x0000006e       0x6f ./rt-thread/components/drivers/sensors/sensor_cmd.o
 .comment       0x0000006e       0x6f ./rt-thread/components/drivers/misc/pin.o
 .comment       0x0000006e       0x6f ./rt-thread/components/drivers/misc/rt_drv_pwm.o
 .comment       0x0000006e       0x6f ./rt-thread/components/drivers/i2c/i2c-bit-ops.o
 .comment       0x0000006e       0x6f ./rt-thread/components/drivers/i2c/i2c_core.o
 .comment       0x0000006e       0x6f ./rt-thread/components/drivers/i2c/i2c_dev.o
 .comment       0x0000006e       0x6f ./packages/rc522-latest/src/mfrc522.o
 .comment       0x0000006e       0x6f ./packages/rc522-latest/port/mfrc522_rtt_port.o
 .comment       0x0000006e       0x6f ./packages/rc522-latest/examples/change_uid.o
 .comment       0x0000006e       0x6f ./packages/rc522-latest/examples/dunp_info.o
 .comment       0x0000006e       0x6f ./packages/rc522-latest/examples/firmware_check.o
 .comment       0x0000006e       0x6f ./packages/rc522-latest/examples/fix_brickeduid.o
 .comment       0x0000006e       0x6f ./packages/rc522-latest/examples/mifare_classic_value_block.o
 .comment       0x0000006e       0x6f ./packages/rc522-latest/examples/read_nuid.o
 .comment       0x0000006e       0x6f ./packages/fingerprint-latest/fingerprint.o
 .comment       0x0000006e       0x6f ./packages/fingerprint-latest/fingerprint_sample.o
 .comment       0x0000006e       0x6f ./packages/MultiButton-latest/multi_button.o
 .comment       0x0000006e       0x6f ./board/msp/n32_msp.o
 .comment       0x0000006e       0x6f ./board/board.o
 .comment       0x0000006e       0x6f ./applications/main.o
 .comment       0x0000006e       0x6f ./applications/smart_door.o
 .comment       0x0000006e       0x6f ./Libraries/rt_drivers/drv_common.o
 .comment       0x0000006e       0x6f ./Libraries/rt_drivers/drv_gpio.o
 .comment       0x0000006e       0x6f ./Libraries/rt_drivers/drv_pwm.o
 .comment       0x0000006e       0x6f ./Libraries/rt_drivers/drv_soft_i2c.o
 .comment       0x0000006e       0x6f ./Libraries/rt_drivers/drv_spi.o
 .comment       0x0000006e       0x6f ./Libraries/rt_drivers/drv_usart.o
 .comment       0x0000006e       0x6f ./Libraries/N32_Std_Driver/n32g45x_std_periph_driver/src/misc.o
 .comment       0x0000006e       0x6f ./Libraries/N32_Std_Driver/n32g45x_std_periph_driver/src/n32g45x_dma.o
 .comment       0x0000006e       0x6f ./Libraries/N32_Std_Driver/n32g45x_std_periph_driver/src/n32g45x_exti.o
 .comment       0x0000006e       0x6f ./Libraries/N32_Std_Driver/n32g45x_std_periph_driver/src/n32g45x_gpio.o
 .comment       0x0000006e       0x6f ./Libraries/N32_Std_Driver/n32g45x_std_periph_driver/src/n32g45x_rcc.o
 .comment       0x0000006e       0x6f ./Libraries/N32_Std_Driver/n32g45x_std_periph_driver/src/n32g45x_spi.o
 .comment       0x0000006e       0x6f ./Libraries/N32_Std_Driver/n32g45x_std_periph_driver/src/n32g45x_tim.o
 .comment       0x0000006e       0x6f ./Libraries/N32_Std_Driver/n32g45x_std_periph_driver/src/n32g45x_usart.o
 .comment       0x0000006e       0x6f ./Libraries/N32_Std_Driver/CMSIS/device/system_n32g45x.o

.ARM.attributes
                0x00000000       0x30
 .ARM.attributes
                0x00000000       0x22 c:/rt-threadstudio/repo/extract/toolchain_support_packages/arm/gnu_tools_for_arm_embedded_processors/5.4.1/bin/../lib/gcc/arm-none-eabi/5.4.1/armv7e-m/fpu/crti.o
 .ARM.attributes
                0x00000022       0x34 c:/rt-threadstudio/repo/extract/toolchain_support_packages/arm/gnu_tools_for_arm_embedded_processors/5.4.1/bin/../lib/gcc/arm-none-eabi/5.4.1/armv7e-m/fpu/crtbegin.o
 .ARM.attributes
                0x00000056       0x39 ./rt-thread/src/clock.o
 .ARM.attributes
                0x0000008f       0x39 ./rt-thread/src/components.o
 .ARM.attributes
                0x000000c8       0x39 ./rt-thread/src/device.o
 .ARM.attributes
                0x00000101       0x39 ./rt-thread/src/idle.o
 .ARM.attributes
                0x0000013a       0x39 ./rt-thread/src/ipc.o
 .ARM.attributes
                0x00000173       0x39 ./rt-thread/src/irq.o
 .ARM.attributes
                0x000001ac       0x39 ./rt-thread/src/kservice.o
 .ARM.attributes
                0x000001e5       0x39 ./rt-thread/src/mem.o
 .ARM.attributes
                0x0000021e       0x39 ./rt-thread/src/object.o
 .ARM.attributes
                0x00000257       0x39 ./rt-thread/src/scheduler.o
 .ARM.attributes
                0x00000290       0x39 ./rt-thread/src/thread.o
 .ARM.attributes
                0x000002c9       0x39 ./rt-thread/src/timer.o
 .ARM.attributes
                0x00000302       0x25 ./rt-thread/libcpu/arm/cortex-m4/context_gcc.o
 .ARM.attributes
                0x00000327       0x39 ./rt-thread/libcpu/arm/cortex-m4/cpuport.o
 .ARM.attributes
                0x00000360       0x39 ./rt-thread/components/libc/compilers/gcc/newlib/libc.o
 .ARM.attributes
                0x00000399       0x39 ./rt-thread/components/libc/compilers/gcc/newlib/syscalls.o
 .ARM.attributes
                0x000003d2       0x39 ./rt-thread/components/finsh/cmd.o
 .ARM.attributes
                0x0000040b       0x39 ./rt-thread/components/finsh/msh.o
 .ARM.attributes
                0x00000444       0x39 ./rt-thread/components/finsh/shell.o
 .ARM.attributes
                0x0000047d       0x39 ./rt-thread/components/drivers/src/completion.o
 .ARM.attributes
                0x000004b6       0x39 ./rt-thread/components/drivers/src/dataqueue.o
 .ARM.attributes
                0x000004ef       0x39 ./rt-thread/components/drivers/spi/spi_core.o
 .ARM.attributes
                0x00000528       0x39 ./rt-thread/components/drivers/spi/spi_dev.o
 .ARM.attributes
                0x00000561       0x39 ./rt-thread/components/drivers/serial/serial.o
 .ARM.attributes
                0x0000059a       0x39 ./rt-thread/components/drivers/sensors/sensor_cmd.o
 .ARM.attributes
                0x000005d3       0x39 ./rt-thread/components/drivers/misc/pin.o
 .ARM.attributes
                0x0000060c       0x39 ./rt-thread/components/drivers/misc/rt_drv_pwm.o
 .ARM.attributes
                0x00000645       0x39 ./rt-thread/components/drivers/i2c/i2c-bit-ops.o
 .ARM.attributes
                0x0000067e       0x39 ./rt-thread/components/drivers/i2c/i2c_core.o
 .ARM.attributes
                0x000006b7       0x39 ./rt-thread/components/drivers/i2c/i2c_dev.o
 .ARM.attributes
                0x000006f0       0x39 ./packages/rc522-latest/src/mfrc522.o
 .ARM.attributes
                0x00000729       0x39 ./packages/rc522-latest/port/mfrc522_rtt_port.o
 .ARM.attributes
                0x00000762       0x39 ./packages/rc522-latest/examples/change_uid.o
 .ARM.attributes
                0x0000079b       0x39 ./packages/rc522-latest/examples/dunp_info.o
 .ARM.attributes
                0x000007d4       0x39 ./packages/rc522-latest/examples/firmware_check.o
 .ARM.attributes
                0x0000080d       0x39 ./packages/rc522-latest/examples/fix_brickeduid.o
 .ARM.attributes
                0x00000846       0x39 ./packages/rc522-latest/examples/mifare_classic_value_block.o
 .ARM.attributes
                0x0000087f       0x39 ./packages/rc522-latest/examples/read_nuid.o
 .ARM.attributes
                0x000008b8       0x39 ./packages/fingerprint-latest/fingerprint.o
 .ARM.attributes
                0x000008f1       0x39 ./packages/fingerprint-latest/fingerprint_sample.o
 .ARM.attributes
                0x0000092a       0x39 ./packages/MultiButton-latest/multi_button.o
 .ARM.attributes
                0x00000963       0x39 ./board/msp/n32_msp.o
 .ARM.attributes
                0x0000099c       0x39 ./board/board.o
 .ARM.attributes
                0x000009d5       0x39 ./applications/main.o
 .ARM.attributes
                0x00000a0e       0x39 ./applications/smart_door.o
 .ARM.attributes
                0x00000a47       0x39 ./Libraries/rt_drivers/drv_common.o
 .ARM.attributes
                0x00000a80       0x39 ./Libraries/rt_drivers/drv_gpio.o
 .ARM.attributes
                0x00000ab9       0x39 ./Libraries/rt_drivers/drv_pwm.o
 .ARM.attributes
                0x00000af2       0x39 ./Libraries/rt_drivers/drv_soft_i2c.o
 .ARM.attributes
                0x00000b2b       0x39 ./Libraries/rt_drivers/drv_spi.o
 .ARM.attributes
                0x00000b64       0x39 ./Libraries/rt_drivers/drv_usart.o
 .ARM.attributes
                0x00000b9d       0x39 ./Libraries/N32_Std_Driver/n32g45x_std_periph_driver/src/misc.o
 .ARM.attributes
                0x00000bd6       0x39 ./Libraries/N32_Std_Driver/n32g45x_std_periph_driver/src/n32g45x_dma.o
 .ARM.attributes
                0x00000c0f       0x39 ./Libraries/N32_Std_Driver/n32g45x_std_periph_driver/src/n32g45x_exti.o
 .ARM.attributes
                0x00000c48       0x39 ./Libraries/N32_Std_Driver/n32g45x_std_periph_driver/src/n32g45x_gpio.o
 .ARM.attributes
                0x00000c81       0x39 ./Libraries/N32_Std_Driver/n32g45x_std_periph_driver/src/n32g45x_rcc.o
 .ARM.attributes
                0x00000cba       0x39 ./Libraries/N32_Std_Driver/n32g45x_std_periph_driver/src/n32g45x_spi.o
 .ARM.attributes
                0x00000cf3       0x39 ./Libraries/N32_Std_Driver/n32g45x_std_periph_driver/src/n32g45x_tim.o
 .ARM.attributes
                0x00000d2c       0x39 ./Libraries/N32_Std_Driver/n32g45x_std_periph_driver/src/n32g45x_usart.o
 .ARM.attributes
                0x00000d65       0x21 ./Libraries/N32_Std_Driver/CMSIS/device/startup/startup_n32g45x_gcc.o
 .ARM.attributes
                0x00000d86       0x39 ./Libraries/N32_Std_Driver/CMSIS/device/system_n32g45x.o
 .ARM.attributes
                0x00000dbf       0x34 c:/rt-threadstudio/repo/extract/toolchain_support_packages/arm/gnu_tools_for_arm_embedded_processors/5.4.1/bin/../lib/gcc/arm-none-eabi/5.4.1/../../../../arm-none-eabi/lib/armv7e-m/fpu\libc.a(lib_a-atoi.o)
 .ARM.attributes
                0x00000df3       0x34 c:/rt-threadstudio/repo/extract/toolchain_support_packages/arm/gnu_tools_for_arm_embedded_processors/5.4.1/bin/../lib/gcc/arm-none-eabi/5.4.1/../../../../arm-none-eabi/lib/armv7e-m/fpu\libc.a(lib_a-impure.o)
 .ARM.attributes
                0x00000e27       0x34 c:/rt-threadstudio/repo/extract/toolchain_support_packages/arm/gnu_tools_for_arm_embedded_processors/5.4.1/bin/../lib/gcc/arm-none-eabi/5.4.1/../../../../arm-none-eabi/lib/armv7e-m/fpu\libc.a(lib_a-memcmp.o)
 .ARM.attributes
                0x00000e5b       0x20 c:/rt-threadstudio/repo/extract/toolchain_support_packages/arm/gnu_tools_for_arm_embedded_processors/5.4.1/bin/../lib/gcc/arm-none-eabi/5.4.1/../../../../arm-none-eabi/lib/armv7e-m/fpu\libc.a(lib_a-memcpy.o)
 .ARM.attributes
                0x00000e7b       0x34 c:/rt-threadstudio/repo/extract/toolchain_support_packages/arm/gnu_tools_for_arm_embedded_processors/5.4.1/bin/../lib/gcc/arm-none-eabi/5.4.1/../../../../arm-none-eabi/lib/armv7e-m/fpu\libc.a(lib_a-memset.o)
 .ARM.attributes
                0x00000eaf       0x20 c:/rt-threadstudio/repo/extract/toolchain_support_packages/arm/gnu_tools_for_arm_embedded_processors/5.4.1/bin/../lib/gcc/arm-none-eabi/5.4.1/../../../../arm-none-eabi/lib/armv7e-m/fpu\libc.a(lib_a-strcmp.o)
 .ARM.attributes
                0x00000ecf       0x20 c:/rt-threadstudio/repo/extract/toolchain_support_packages/arm/gnu_tools_for_arm_embedded_processors/5.4.1/bin/../lib/gcc/arm-none-eabi/5.4.1/../../../../arm-none-eabi/lib/armv7e-m/fpu\libc.a(lib_a-strlen.o)
 .ARM.attributes
                0x00000eef       0x34 c:/rt-threadstudio/repo/extract/toolchain_support_packages/arm/gnu_tools_for_arm_embedded_processors/5.4.1/bin/../lib/gcc/arm-none-eabi/5.4.1/../../../../arm-none-eabi/lib/armv7e-m/fpu\libc.a(lib_a-strncmp.o)
 .ARM.attributes
                0x00000f23       0x34 c:/rt-threadstudio/repo/extract/toolchain_support_packages/arm/gnu_tools_for_arm_embedded_processors/5.4.1/bin/../lib/gcc/arm-none-eabi/5.4.1/../../../../arm-none-eabi/lib/armv7e-m/fpu\libc.a(lib_a-strncpy.o)
 .ARM.attributes
                0x00000f57       0x34 c:/rt-threadstudio/repo/extract/toolchain_support_packages/arm/gnu_tools_for_arm_embedded_processors/5.4.1/bin/../lib/gcc/arm-none-eabi/5.4.1/../../../../arm-none-eabi/lib/armv7e-m/fpu\libc.a(lib_a-strtol.o)
 .ARM.attributes
                0x00000f8b       0x34 c:/rt-threadstudio/repo/extract/toolchain_support_packages/arm/gnu_tools_for_arm_embedded_processors/5.4.1/bin/../lib/gcc/arm-none-eabi/5.4.1/../../../../arm-none-eabi/lib/armv7e-m/fpu\libc.a(lib_a-__call_atexit.o)
 .ARM.attributes
                0x00000fbf       0x34 c:/rt-threadstudio/repo/extract/toolchain_support_packages/arm/gnu_tools_for_arm_embedded_processors/5.4.1/bin/../lib/gcc/arm-none-eabi/5.4.1/../../../../arm-none-eabi/lib/armv7e-m/fpu\libc.a(lib_a-atexit.o)
 .ARM.attributes
                0x00000ff3       0x34 c:/rt-threadstudio/repo/extract/toolchain_support_packages/arm/gnu_tools_for_arm_embedded_processors/5.4.1/bin/../lib/gcc/arm-none-eabi/5.4.1/../../../../arm-none-eabi/lib/armv7e-m/fpu\libc.a(lib_a-fini.o)
 .ARM.attributes
                0x00001027       0x34 c:/rt-threadstudio/repo/extract/toolchain_support_packages/arm/gnu_tools_for_arm_embedded_processors/5.4.1/bin/../lib/gcc/arm-none-eabi/5.4.1/../../../../arm-none-eabi/lib/armv7e-m/fpu\libc.a(lib_a-locale.o)
 .ARM.attributes
                0x0000105b       0x34 c:/rt-threadstudio/repo/extract/toolchain_support_packages/arm/gnu_tools_for_arm_embedded_processors/5.4.1/bin/../lib/gcc/arm-none-eabi/5.4.1/../../../../arm-none-eabi/lib/armv7e-m/fpu\libc.a(lib_a-malloc.o)
 .ARM.attributes
                0x0000108f       0x34 c:/rt-threadstudio/repo/extract/toolchain_support_packages/arm/gnu_tools_for_arm_embedded_processors/5.4.1/bin/../lib/gcc/arm-none-eabi/5.4.1/../../../../arm-none-eabi/lib/armv7e-m/fpu\libc.a(lib_a-mbtowc_r.o)
 .ARM.attributes
                0x000010c3       0x34 c:/rt-threadstudio/repo/extract/toolchain_support_packages/arm/gnu_tools_for_arm_embedded_processors/5.4.1/bin/../lib/gcc/arm-none-eabi/5.4.1/../../../../arm-none-eabi/lib/armv7e-m/fpu\libc.a(lib_a-wctomb_r.o)
 .ARM.attributes
                0x000010f7       0x34 c:/rt-threadstudio/repo/extract/toolchain_support_packages/arm/gnu_tools_for_arm_embedded_processors/5.4.1/bin/../lib/gcc/arm-none-eabi/5.4.1/../../../../arm-none-eabi/lib/armv7e-m/fpu\libc.a(lib_a-__atexit.o)
 .ARM.attributes
                0x0000112b       0x34 c:/rt-threadstudio/repo/extract/toolchain_support_packages/arm/gnu_tools_for_arm_embedded_processors/5.4.1/bin/../lib/gcc/arm-none-eabi/5.4.1/../../../../arm-none-eabi/lib/armv7e-m/fpu\libc.a(lib_a-ctype_.o)
 .ARM.attributes
                0x0000115f       0x22 c:/rt-threadstudio/repo/extract/toolchain_support_packages/arm/gnu_tools_for_arm_embedded_processors/5.4.1/bin/../lib/gcc/arm-none-eabi/5.4.1/armv7e-m/fpu\libgcc.a(_arm_addsubdf3.o)
 .ARM.attributes
                0x00001181       0x22 c:/rt-threadstudio/repo/extract/toolchain_support_packages/arm/gnu_tools_for_arm_embedded_processors/5.4.1/bin/../lib/gcc/arm-none-eabi/5.4.1/armv7e-m/fpu\libgcc.a(_arm_muldivdf3.o)
 .ARM.attributes
                0x000011a3       0x22 c:/rt-threadstudio/repo/extract/toolchain_support_packages/arm/gnu_tools_for_arm_embedded_processors/5.4.1/bin/../lib/gcc/arm-none-eabi/5.4.1/armv7e-m/fpu\libgcc.a(_arm_fixdfsi.o)
 .ARM.attributes
                0x000011c5       0x22 c:/rt-threadstudio/repo/extract/toolchain_support_packages/arm/gnu_tools_for_arm_embedded_processors/5.4.1/bin/../lib/gcc/arm-none-eabi/5.4.1/armv7e-m/fpu\libgcc.a(_aeabi_uldivmod.o)
 .ARM.attributes
                0x000011e7       0x34 c:/rt-threadstudio/repo/extract/toolchain_support_packages/arm/gnu_tools_for_arm_embedded_processors/5.4.1/bin/../lib/gcc/arm-none-eabi/5.4.1/armv7e-m/fpu\libgcc.a(_udivmoddi4.o)
 .ARM.attributes
                0x0000121b       0x22 c:/rt-threadstudio/repo/extract/toolchain_support_packages/arm/gnu_tools_for_arm_embedded_processors/5.4.1/bin/../lib/gcc/arm-none-eabi/5.4.1/armv7e-m/fpu\libgcc.a(_dvmd_tls.o)

.debug
 *(.debug)

.line
 *(.line)

.debug_srcinfo
 *(.debug_srcinfo)

.debug_sfnames
 *(.debug_sfnames)

.debug_aranges  0x00000000     0x2020
 *(.debug_aranges)
 .debug_aranges
                0x00000000       0x40 ./rt-thread/src/clock.o
 .debug_aranges
                0x00000040       0x68 ./rt-thread/src/components.o
 .debug_aranges
                0x000000a8       0x80 ./rt-thread/src/device.o
 .debug_aranges
                0x00000128       0x68 ./rt-thread/src/idle.o
 .debug_aranges
                0x00000190      0x198 ./rt-thread/src/ipc.o
 .debug_aranges
                0x00000328       0x40 ./rt-thread/src/irq.o
 .debug_aranges
                0x00000368      0x120 ./rt-thread/src/kservice.o
 .debug_aranges
                0x00000488       0x68 ./rt-thread/src/mem.o
 .debug_aranges
                0x000004f0       0xa0 ./rt-thread/src/object.o
 .debug_aranges
                0x00000590       0x98 ./rt-thread/src/scheduler.o
 .debug_aranges
                0x00000628       0xd8 ./rt-thread/src/thread.o
 .debug_aranges
                0x00000700       0xc8 ./rt-thread/src/timer.o
 .debug_aranges
                0x000007c8       0x20 ./rt-thread/libcpu/arm/cortex-m4/context_gcc.o
 .debug_aranges
                0x000007e8       0x60 ./rt-thread/libcpu/arm/cortex-m4/cpuport.o
 .debug_aranges
                0x00000848       0x20 ./rt-thread/components/libc/compilers/gcc/newlib/libc.o
 .debug_aranges
                0x00000868       0xf0 ./rt-thread/components/libc/compilers/gcc/newlib/syscalls.o
 .debug_aranges
                0x00000958       0xb0 ./rt-thread/components/finsh/cmd.o
 .debug_aranges
                0x00000a08       0x60 ./rt-thread/components/finsh/msh.o
 .debug_aranges
                0x00000a68       0x98 ./rt-thread/components/finsh/shell.o
 .debug_aranges
                0x00000b00       0x48 ./rt-thread/components/drivers/src/completion.o
 .debug_aranges
                0x00000b48       0x68 ./rt-thread/components/drivers/src/dataqueue.o
 .debug_aranges
                0x00000bb0       0x70 ./rt-thread/components/drivers/spi/spi_core.o
 .debug_aranges
                0x00000c20       0x58 ./rt-thread/components/drivers/spi/spi_dev.o
 .debug_aranges
                0x00000c78       0xb0 ./rt-thread/components/drivers/serial/serial.o
 .debug_aranges
                0x00000d28       0x58 ./rt-thread/components/drivers/sensors/sensor_cmd.o
 .debug_aranges
                0x00000d80       0x70 ./rt-thread/components/drivers/misc/pin.o
 .debug_aranges
                0x00000df0       0x78 ./rt-thread/components/drivers/misc/rt_drv_pwm.o
 .debug_aranges
                0x00000e68       0x98 ./rt-thread/components/drivers/i2c/i2c-bit-ops.o
 .debug_aranges
                0x00000f00       0x50 ./rt-thread/components/drivers/i2c/i2c_core.o
 .debug_aranges
                0x00000f50       0x38 ./rt-thread/components/drivers/i2c/i2c_dev.o
 .debug_aranges
                0x00000f88      0x1f0 ./packages/rc522-latest/src/mfrc522.o
 .debug_aranges
                0x00001178       0x20 ./packages/rc522-latest/port/mfrc522_rtt_port.o
 .debug_aranges
                0x00001198       0x20 ./packages/rc522-latest/examples/change_uid.o
 .debug_aranges
                0x000011b8       0x20 ./packages/rc522-latest/examples/dunp_info.o
 .debug_aranges
                0x000011d8       0x20 ./packages/rc522-latest/examples/firmware_check.o
 .debug_aranges
                0x000011f8       0x20 ./packages/rc522-latest/examples/fix_brickeduid.o
 .debug_aranges
                0x00001218       0x30 ./packages/rc522-latest/examples/mifare_classic_value_block.o
 .debug_aranges
                0x00001248       0x30 ./packages/rc522-latest/examples/read_nuid.o
 .debug_aranges
                0x00001278       0xd0 ./packages/fingerprint-latest/fingerprint.o
 .debug_aranges
                0x00001348       0x70 ./packages/fingerprint-latest/fingerprint_sample.o
 .debug_aranges
                0x000013b8       0x50 ./packages/MultiButton-latest/multi_button.o
 .debug_aranges
                0x00001408       0x58 ./board/msp/n32_msp.o
 .debug_aranges
                0x00001460       0x48 ./board/board.o
 .debug_aranges
                0x000014a8       0x20 ./applications/main.o
 .debug_aranges
                0x000014c8       0x60 ./applications/smart_door.o
 .debug_aranges
                0x00001528       0x28 ./Libraries/rt_drivers/drv_common.o
 .debug_aranges
                0x00001550       0xa8 ./Libraries/rt_drivers/drv_gpio.o
 .debug_aranges
                0x000015f8       0x40 ./Libraries/rt_drivers/drv_pwm.o
 .debug_aranges
                0x00001638       0x58 ./Libraries/rt_drivers/drv_soft_i2c.o
 .debug_aranges
                0x00001690       0x30 ./Libraries/rt_drivers/drv_spi.o
 .debug_aranges
                0x000016c0       0x98 ./Libraries/rt_drivers/drv_usart.o
 .debug_aranges
                0x00001758       0x40 ./Libraries/N32_Std_Driver/n32g45x_std_periph_driver/src/misc.o
 .debug_aranges
                0x00001798       0x78 ./Libraries/N32_Std_Driver/n32g45x_std_periph_driver/src/n32g45x_dma.o
 .debug_aranges
                0x00001810       0x60 ./Libraries/N32_Std_Driver/n32g45x_std_periph_driver/src/n32g45x_exti.o
 .debug_aranges
                0x00001870       0xb0 ./Libraries/N32_Std_Driver/n32g45x_std_periph_driver/src/n32g45x_gpio.o
 .debug_aranges
                0x00001920      0x168 ./Libraries/N32_Std_Driver/n32g45x_std_periph_driver/src/n32g45x_rcc.o
 .debug_aranges
                0x00001a88       0xd0 ./Libraries/N32_Std_Driver/n32g45x_std_periph_driver/src/n32g45x_spi.o
 .debug_aranges
                0x00001b58      0x380 ./Libraries/N32_Std_Driver/n32g45x_std_periph_driver/src/n32g45x_tim.o
 .debug_aranges
                0x00001ed8       0xf0 ./Libraries/N32_Std_Driver/n32g45x_std_periph_driver/src/n32g45x_usart.o
 .debug_aranges
                0x00001fc8       0x28 ./Libraries/N32_Std_Driver/CMSIS/device/startup/startup_n32g45x_gcc.o
 .debug_aranges
                0x00001ff0       0x30 ./Libraries/N32_Std_Driver/CMSIS/device/system_n32g45x.o

.debug_pubnames
 *(.debug_pubnames)

.debug_info     0x00000000    0x275b8
 *(.debug_info .gnu.linkonce.wi.*)
 .debug_info    0x00000000      0x450 ./rt-thread/src/clock.o
 .debug_info    0x00000450      0x542 ./rt-thread/src/components.o
 .debug_info    0x00000992      0x8df ./rt-thread/src/device.o
 .debug_info    0x00001271      0x6ad ./rt-thread/src/idle.o
 .debug_info    0x0000191e     0x1c42 ./rt-thread/src/ipc.o
 .debug_info    0x00003560      0x1b4 ./rt-thread/src/irq.o
 .debug_info    0x00003714     0x1284 ./rt-thread/src/kservice.o
 .debug_info    0x00004998      0x6ca ./rt-thread/src/mem.o
 .debug_info    0x00005062      0x88a ./rt-thread/src/object.o
 .debug_info    0x000058ec      0x7f8 ./rt-thread/src/scheduler.o
 .debug_info    0x000060e4      0xc4d ./rt-thread/src/thread.o
 .debug_info    0x00006d31      0xb98 ./rt-thread/src/timer.o
 .debug_info    0x000078c9       0x9c ./rt-thread/libcpu/arm/cortex-m4/context_gcc.o
 .debug_info    0x00007965      0x41f ./rt-thread/libcpu/arm/cortex-m4/cpuport.o
 .debug_info    0x00007d84       0xcd ./rt-thread/components/libc/compilers/gcc/newlib/libc.o
 .debug_info    0x00007e51     0x1420 ./rt-thread/components/libc/compilers/gcc/newlib/syscalls.o
 .debug_info    0x00009271     0x1853 ./rt-thread/components/finsh/cmd.o
 .debug_info    0x0000aac4      0x616 ./rt-thread/components/finsh/msh.o
 .debug_info    0x0000b0da      0xd09 ./rt-thread/components/finsh/shell.o
 .debug_info    0x0000bde3      0x59c ./rt-thread/components/drivers/src/completion.o
 .debug_info    0x0000c37f      0x8e6 ./rt-thread/components/drivers/src/dataqueue.o
 .debug_info    0x0000cc65      0xd9a ./rt-thread/components/drivers/spi/spi_core.o
 .debug_info    0x0000d9ff      0xbc2 ./rt-thread/components/drivers/spi/spi_dev.o
 .debug_info    0x0000e5c1     0x1294 ./rt-thread/components/drivers/serial/serial.o
 .debug_info    0x0000f855     0x10dd ./rt-thread/components/drivers/sensors/sensor_cmd.o
 .debug_info    0x00010932      0xa1d ./rt-thread/components/drivers/misc/pin.o
 .debug_info    0x0001134f      0xba1 ./rt-thread/components/drivers/misc/rt_drv_pwm.o
 .debug_info    0x00011ef0      0xe24 ./rt-thread/components/drivers/i2c/i2c-bit-ops.o
 .debug_info    0x00012d14      0xaa3 ./rt-thread/components/drivers/i2c/i2c_core.o
 .debug_info    0x000137b7      0xa75 ./rt-thread/components/drivers/i2c/i2c_dev.o
 .debug_info    0x0001422c     0x244f ./packages/rc522-latest/src/mfrc522.o
 .debug_info    0x0001667b      0x99d ./packages/rc522-latest/port/mfrc522_rtt_port.o
 .debug_info    0x00017018      0x313 ./packages/rc522-latest/examples/change_uid.o
 .debug_info    0x0001732b      0x274 ./packages/rc522-latest/examples/dunp_info.o
 .debug_info    0x0001759f      0x233 ./packages/rc522-latest/examples/firmware_check.o
 .debug_info    0x000177d2      0x20a ./packages/rc522-latest/examples/fix_brickeduid.o
 .debug_info    0x000179dc      0x572 ./packages/rc522-latest/examples/mifare_classic_value_block.o
 .debug_info    0x00017f4e      0x418 ./packages/rc522-latest/examples/read_nuid.o
 .debug_info    0x00018366     0x1062 ./packages/fingerprint-latest/fingerprint.o
 .debug_info    0x000193c8      0xbd8 ./packages/fingerprint-latest/fingerprint_sample.o
 .debug_info    0x00019fa0      0x3ac ./packages/MultiButton-latest/multi_button.o
 .debug_info    0x0001a34c      0xf5e ./board/msp/n32_msp.o
 .debug_info    0x0001b2aa      0x77b ./board/board.o
 .debug_info    0x0001ba25       0xef ./applications/main.o
 .debug_info    0x0001bb14      0x8f5 ./applications/smart_door.o
 .debug_info    0x0001c409      0x2bd ./Libraries/rt_drivers/drv_common.o
 .debug_info    0x0001c6c6     0x10e4 ./Libraries/rt_drivers/drv_gpio.o
 .debug_info    0x0001d7aa      0xcbd ./Libraries/rt_drivers/drv_pwm.o
 .debug_info    0x0001e467      0xca1 ./Libraries/rt_drivers/drv_soft_i2c.o
 .debug_info    0x0001f108      0xe6a ./Libraries/rt_drivers/drv_spi.o
 .debug_info    0x0001ff72     0x13a1 ./Libraries/rt_drivers/drv_usart.o
 .debug_info    0x00021313      0x5d5 ./Libraries/N32_Std_Driver/n32g45x_std_periph_driver/src/misc.o
 .debug_info    0x000218e8      0x5c2 ./Libraries/N32_Std_Driver/n32g45x_std_periph_driver/src/n32g45x_dma.o
 .debug_info    0x00021eaa      0x3d4 ./Libraries/N32_Std_Driver/n32g45x_std_periph_driver/src/n32g45x_exti.o
 .debug_info    0x0002227e      0x81b ./Libraries/N32_Std_Driver/n32g45x_std_periph_driver/src/n32g45x_gpio.o
 .debug_info    0x00022a99      0xc23 ./Libraries/N32_Std_Driver/n32g45x_std_periph_driver/src/n32g45x_rcc.o
 .debug_info    0x000236bc      0x9d6 ./Libraries/N32_Std_Driver/n32g45x_std_periph_driver/src/n32g45x_spi.o
 .debug_info    0x00024092     0x2466 ./Libraries/N32_Std_Driver/n32g45x_std_periph_driver/src/n32g45x_tim.o
 .debug_info    0x000264f8      0xa57 ./Libraries/N32_Std_Driver/n32g45x_std_periph_driver/src/n32g45x_usart.o
 .debug_info    0x00026f4f       0xaf ./Libraries/N32_Std_Driver/CMSIS/device/startup/startup_n32g45x_gcc.o
 .debug_info    0x00026ffe      0x5ba ./Libraries/N32_Std_Driver/CMSIS/device/system_n32g45x.o

.debug_abbrev   0x00000000     0x67ee
 *(.debug_abbrev)
 .debug_abbrev  0x00000000      0x143 ./rt-thread/src/clock.o
 .debug_abbrev  0x00000143      0x166 ./rt-thread/src/components.o
 .debug_abbrev  0x000002a9      0x177 ./rt-thread/src/device.o
 .debug_abbrev  0x00000420      0x1e6 ./rt-thread/src/idle.o
 .debug_abbrev  0x00000606      0x1d2 ./rt-thread/src/ipc.o
 .debug_abbrev  0x000007d8       0xde ./rt-thread/src/irq.o
 .debug_abbrev  0x000008b6      0x2c1 ./rt-thread/src/kservice.o
 .debug_abbrev  0x00000b77      0x1ee ./rt-thread/src/mem.o
 .debug_abbrev  0x00000d65      0x1e2 ./rt-thread/src/object.o
 .debug_abbrev  0x00000f47      0x227 ./rt-thread/src/scheduler.o
 .debug_abbrev  0x0000116e      0x1fd ./rt-thread/src/thread.o
 .debug_abbrev  0x0000136b      0x275 ./rt-thread/src/timer.o
 .debug_abbrev  0x000015e0       0x14 ./rt-thread/libcpu/arm/cortex-m4/context_gcc.o
 .debug_abbrev  0x000015f4      0x1d6 ./rt-thread/libcpu/arm/cortex-m4/cpuport.o
 .debug_abbrev  0x000017ca       0x7d ./rt-thread/components/libc/compilers/gcc/newlib/libc.o
 .debug_abbrev  0x00001847      0x2bb ./rt-thread/components/libc/compilers/gcc/newlib/syscalls.o
 .debug_abbrev  0x00001b02      0x28c ./rt-thread/components/finsh/cmd.o
 .debug_abbrev  0x00001d8e      0x208 ./rt-thread/components/finsh/msh.o
 .debug_abbrev  0x00001f96      0x2d0 ./rt-thread/components/finsh/shell.o
 .debug_abbrev  0x00002266      0x182 ./rt-thread/components/drivers/src/completion.o
 .debug_abbrev  0x000023e8      0x201 ./rt-thread/components/drivers/src/dataqueue.o
 .debug_abbrev  0x000025e9      0x1d1 ./rt-thread/components/drivers/spi/spi_core.o
