Component: ARM Compiler 5.06 update 7 (build 960) Tool: armlink [4d3601]

==============================================================================

Section Cross References

    main.o(.text) refers to pin.o(.text) for rt_pin_mode
    main.o(.text) refers to smart_door.o(.text) for door_control_init
    main.o(.text) refers to thread.o(.text) for rt_thread_mdelay
    smart_door.o(.text) refers to pin.o(.text) for rt_pin_read
    smart_door.o(.text) refers to multi_button.o(.text) for get_button_event
    smart_door.o(.text) refers to kservice.o(.text) for rt_kprintf
    smart_door.o(.text) refers to ipc.o(.text) for rt_sem_release
    smart_door.o(.text) refers to fingerprint.o(.text) for fp_empty
    smart_door.o(.text) refers to thread.o(.text) for rt_thread_delay
    smart_door.o(.text) refers to mfrc522.o(.text) for MFRC522
    smart_door.o(.text) refers to fingerprint_sample.o(.text) for fp_add_fp
    smart_door.o(.text) refers to smart_door.o(.bss) for door_open_sem
    showmem.o(.text) refers to kservice.o(.text) for rt_assert_handler
    showmem.o(.text) refers to showmem.o(.constdata) for __FUNCTION__
    context_rvds.o(.text) refers to cpuport.o(.text) for rt_hw_hard_fault_exception
    context_rvds.o(.text) refers to cpuport.o(.data) for rt_thread_switch_interrupt_flag
    cpuport.o(.text) refers to kservice.o(.text) for rt_kprintf
    cpuport.o(.text) refers to thread.o(.text) for rt_thread_self
==============================================================================

Removing Unused input sections from the image.

    Removing smart_door.o(.rev16_text), (4 bytes).
    Removing smart_door.o(.revsh_text), (4 bytes).
    Removing smart_door.o(.rrx_text), (6 bytes).
    Removing smart_door.o(.constdata), (256 bytes).
    Removing div0.o(.text), (4 bytes).
    Removing showmem.o(.text), (120 bytes).
    Removing showmem.o(.constdata), (18 bytes).
    Removing backtrace.o(.text), (2 bytes).
    Removing pipe.o(.text), (648 bytes).
    Removing pipe.o(.constdata), (30 bytes).
    Removing ringblk_buf.o(.text), (1644 bytes).
    Removing ringblk_buf.o(.constdata), (274 bytes).
    Removing workqueue.o(.text), (1280 bytes).
    Removing workqueue.o(.constdata), (231 bytes).
    Removing ringbuffer.o(.text), (1484 bytes).
    Removing ringbuffer.o(.constdata), (233 bytes).
    Removing waitqueue.o(.text), (428 bytes).
    Removing waitqueue.o(.constdata), (15 bytes).
==============================================================================

Image Symbol Table

    Local Symbols

    Symbol Name                              Value     Ov Type        Size  Object(Section)

    ../clib/angel/boardlib.s                 0x00000000   Number         0  boardinit1.o ABSOLUTE
    ../clib/angel/boardlib.s                 0x00000000   Number         0  boardinit2.o ABSOLUTE
    ../clib/angel/boardlib.s                 0x00000000   Number         0  boardinit3.o ABSOLUTE
    ../clib/angel/boardlib.s                 0x00000000   Number         0  boardshut.o ABSOLUTE
    ../clib/angel/dczerorl2.s                0x00000000   Number         0  __dczerorl2.o ABSOLUTE
    ../clib/angel/handlers.s                 0x00000000   Number         0  __scatter_zi.o ABSOLUTE
    ../clib/angel/kernel.s                   0x00000000   Number         0  rtexit.o ABSOLUTE
    ../clib/angel/kernel.s                   0x00000000   Number         0  __rtentry.o ABSOLUTE
    ../clib/angel/kernel.s                   0x00000000   Number         0  rtexit2.o ABSOLUTE
    ../clib/angel/kernel.s                   0x00000000   Number         0  __rtentry4.o ABSOLUTE
    ../clib/angel/kernel.s                   0x00000000   Number         0  __rtentry2.o ABSOLUTE
    ../clib/angel/rt.s                       0x00000000   Number         0  rt_raise.o ABSOLUTE
    ../clib/angel/rt.s                       0x00000000   Number         0  aeabi_ldiv0.o ABSOLUTE
    ../clib/angel/rt.s                       0x00000000   Number         0  rt_locale_intlibspace.o ABSOLUTE
    ../clib/angel/rt.s                       0x00000000   Number         0  rt_locale.o ABSOLUTE
    ../clib/angel/rt.s                       0x00000000   Number         0  rt_div0.o ABSOLUTE
    ../clib/angel/rt.s                       0x00000000   Number         0  rt_ctype_table.o ABSOLUTE
    ../clib/angel/rt.s                       0x00000000   Number         0  rt_errno_addr_intlibspace.o ABSOLUTE
    ../clib/angel/rt.s                       0x00000000   Number         0  rt_errno_addr.o ABSOLUTE
    ../clib/angel/rt.s                       0x00000000   Number         0  aeabi_ldiv0_sigfpe.o ABSOLUTE
    ../clib/angel/scatter.s                  0x00000000   Number         0  __scatter.o ABSOLUTE
    ../clib/angel/startup.s                  0x00000000   Number         0  __main.o ABSOLUTE
    ../clib/angel/sys.s                      0x00000000   Number         0  sys_stackheap_outer.o ABSOLUTE
    ../clib/angel/sys.s                      0x00000000   Number         0  use_no_semi.o ABSOLUTE
    ../clib/angel/sys.s                      0x00000000   Number         0  libspace.o ABSOLUTE
    ../clib/armsys.c                         0x00000000   Number         0  argv_veneer.o ABSOLUTE
    ../clib/armsys.c                         0x00000000   Number         0  argv_veneer.o ABSOLUTE
    ../clib/armsys.c                         0x00000000   Number         0  _get_argv_nomalloc.o ABSOLUTE
    ../clib/armsys.c                         0x00000000   Number         0  no_argv.o ABSOLUTE
    ../clib/heapalloc.c                      0x00000000   Number         0  hrguard.o ABSOLUTE
    ../clib/heapalloc.c                      0x00000000   Number         0  hguard.o ABSOLUTE
    ../clib/heapaux.c                        0x00000000   Number         0  heapauxi.o ABSOLUTE
    ../clib/libinit.s                        0x00000000   Number         0  libshutdown2.o ABSOLUTE
    ../clib/libinit.s                        0x00000000   Number         0  libinit2.o ABSOLUTE
    ../clib/libinit.s                        0x00000000   Number         0  libshutdown.o ABSOLUTE
    ../clib/libinit.s                        0x00000000   Number         0  libinit.o ABSOLUTE
    ../clib/locale.s                         0x00000000   Number         0  lc_ctype_c.o ABSOLUTE
    ../clib/longlong.s                       0x00000000   Number         0  lludivv7m.o ABSOLUTE
    ../clib/memcpset.s                       0x00000000   Number         0  rt_memcpy_w.o ABSOLUTE
    ../clib/memcpset.s                       0x00000000   Number         0  rt_memclr.o ABSOLUTE
    ../clib/memcpset.s                       0x00000000   Number         0  rt_memclr_w.o ABSOLUTE
    ../clib/memcpset.s                       0x00000000   Number         0  strncpy.o ABSOLUTE
    ../clib/memcpset.s                       0x00000000   Number         0  strcmpv7m.o ABSOLUTE
    ../clib/memcpset.s                       0x00000000   Number         0  rt_memcpy_v6.o ABSOLUTE
    ../clib/scanf.c                          0x00000000   Number         0  _strtoul.o ABSOLUTE
    ../clib/scanf.c                          0x00000000   Number         0  atoi.o ABSOLUTE
    ../clib/scanf.c                          0x00000000   Number         0  strtol.o ABSOLUTE
    ../clib/scanf.c                          0x00000000   Number         0  _chval.o ABSOLUTE
    ../clib/signal.c                         0x00000000   Number         0  defsig_other.o ABSOLUTE
    ../clib/signal.c                         0x00000000   Number         0  defsig_cppl_inner.o ABSOLUTE
    ../clib/signal.c                         0x00000000   Number         0  defsig_segv_inner.o ABSOLUTE
    ../clib/signal.c                         0x00000000   Number         0  defsig_rtred_inner.o ABSOLUTE
    ../clib/signal.c                         0x00000000   Number         0  defsig_rtmem_inner.o ABSOLUTE
    ../clib/signal.c                         0x00000000   Number         0  defsig_stak_inner.o ABSOLUTE
    ../clib/signal.c                         0x00000000   Number         0  defsig_abrt_inner.o ABSOLUTE
    ../clib/signal.c                         0x00000000   Number         0  defsig_general.o ABSOLUTE
    ../clib/signal.c                         0x00000000   Number         0  __raise.o ABSOLUTE
    ../clib/signal.c                         0x00000000   Number         0  defsig_fpe_inner.o ABSOLUTE
    ../clib/signal.c                         0x00000000   Number         0  defsig_exit.o ABSOLUTE
    ../clib/signal.c                         0x00000000   Number         0  defsig_fpe_outer.o ABSOLUTE
    ../clib/signal.c                         0x00000000   Number         0  defsig_fpe_formal.o ABSOLUTE
    ../clib/signal.c                         0x00000000   Number         0  defsig_pvfn_inner.o ABSOLUTE
    ../clib/signal.c                         0x00000000   Number         0  defsig_rtmem_outer.o ABSOLUTE
    ../clib/signal.c                         0x00000000   Number         0  defsig_rtmem_formal.o ABSOLUTE
    ../clib/signal.s                         0x00000000   Number         0  defsig.o ABSOLUTE
    ../clib/stdlib.c                         0x00000000   Number         0  exit.o ABSOLUTE
    ../clib/string.c                         0x00000000   Number         0  strncmp.o ABSOLUTE
    ../clib/string.c                         0x00000000   Number         0  strcat.o ABSOLUTE
    ../clib/string.c                         0x00000000   Number         0  strlen.o ABSOLUTE
    ../clib/string.c                         0x00000000   Number         0  memcmp.o ABSOLUTE
    ../clib/string.c                         0x00000000   Number         0  strcpy.o ABSOLUTE
    ../fplib/ddiv.s                          0x00000000   Number         0  ddiv.o ABSOLUTE
    ../fplib/dfix.s                          0x00000000   Number         0  dfix.o ABSOLUTE
    ../fplib/dflt.s                          0x00000000   Number         0  dflt_clz.o ABSOLUTE
    ../fplib/dmul.s                          0x00000000   Number         0  dmul.o ABSOLUTE
    ../fplib/dnaninf.s                       0x00000000   Number         0  dnaninf.o ABSOLUTE
    ../fplib/dretinf.s                       0x00000000   Number         0  dretinf.o ABSOLUTE
    ../fplib/fpinit.s                        0x00000000   Number         0  fpinit.o ABSOLUTE
    ../fplib/usenofp.s                       0x00000000   Number         0  usenofp.o ABSOLUTE
    Libraries\N32_Std_Driver\CMSIS\device\startup\startup_n32g45x.s 0x00000000   Number         0  startup_n32g45x.o ABSOLUTE
    Libraries\N32_Std_Driver\CMSIS\device\system_n32g45x.c 0x00000000   Number         0  system_n32g45x.o ABSOLUTE
    Libraries\N32_Std_Driver\n32g45x_std_periph_driver\src\misc.c 0x00000000   Number         0  misc.o ABSOLUTE
    Libraries\N32_Std_Driver\n32g45x_std_periph_driver\src\n32g45x_adc.c 0x00000000   Number         0  n32g45x_adc.o ABSOLUTE
    Libraries\N32_Std_Driver\n32g45x_std_periph_driver\src\n32g45x_bkp.c 0x00000000   Number         0  n32g45x_bkp.o ABSOLUTE
    Libraries\N32_Std_Driver\n32g45x_std_periph_driver\src\n32g45x_can.c 0x00000000   Number         0  n32g45x_can.o ABSOLUTE
    Libraries\N32_Std_Driver\n32g45x_std_periph_driver\src\n32g45x_comp.c 0x00000000   Number         0  n32g45x_comp.o ABSOLUTE
    Libraries\N32_Std_Driver\n32g45x_std_periph_driver\src\n32g45x_crc.c 0x00000000   Number         0  n32g45x_crc.o ABSOLUTE
    Libraries\N32_Std_Driver\n32g45x_std_periph_driver\src\n32g45x_dac.c 0x00000000   Number         0  n32g45x_dac.o ABSOLUTE
    Libraries\N32_Std_Driver\n32g45x_std_periph_driver\src\n32g45x_dbg.c 0x00000000   Number         0  n32g45x_dbg.o ABSOLUTE
    Libraries\N32_Std_Driver\n32g45x_std_periph_driver\src\n32g45x_dma.c 0x00000000   Number         0  n32g45x_dma.o ABSOLUTE
    Libraries\N32_Std_Driver\n32g45x_std_periph_driver\src\n32g45x_dvp.c 0x00000000   Number         0  n32g45x_dvp.o ABSOLUTE
    Libraries\N32_Std_Driver\n32g45x_std_periph_driver\src\n32g45x_eth.c 0x00000000   Number         0  n32g45x_eth.o ABSOLUTE
    Libraries\N32_Std_Driver\n32g45x_std_periph_driver\src\n32g45x_exti.c 0x00000000   Number         0  n32g45x_exti.o ABSOLUTE
    Libraries\N32_Std_Driver\n32g45x_std_periph_driver\src\n32g45x_flash.c 0x00000000   Number         0  n32g45x_flash.o ABSOLUTE
    Libraries\N32_Std_Driver\n32g45x_std_periph_driver\src\n32g45x_gpio.c 0x00000000   Number         0  n32g45x_gpio.o ABSOLUTE
    Libraries\N32_Std_Driver\n32g45x_std_periph_driver\src\n32g45x_i2c.c 0x00000000   Number         0  n32g45x_i2c.o ABSOLUTE
    Libraries\N32_Std_Driver\n32g45x_std_periph_driver\src\n32g45x_iwdg.c 0x00000000   Number         0  n32g45x_iwdg.o ABSOLUTE
    Libraries\N32_Std_Driver\n32g45x_std_periph_driver\src\n32g45x_opamp.c 0x00000000   Number         0  n32g45x_opamp.o ABSOLUTE
    Libraries\N32_Std_Driver\n32g45x_std_periph_driver\src\n32g45x_pwr.c 0x00000000   Number         0  n32g45x_pwr.o ABSOLUTE
    Libraries\N32_Std_Driver\n32g45x_std_periph_driver\src\n32g45x_qspi.c 0x00000000   Number         0  n32g45x_qspi.o ABSOLUTE
    Libraries\N32_Std_Driver\n32g45x_std_periph_driver\src\n32g45x_rcc.c 0x00000000   Number         0  n32g45x_rcc.o ABSOLUTE
    Libraries\N32_Std_Driver\n32g45x_std_periph_driver\src\n32g45x_rtc.c 0x00000000   Number         0  n32g45x_rtc.o ABSOLUTE
    Libraries\N32_Std_Driver\n32g45x_std_periph_driver\src\n32g45x_sdio.c 0x00000000   Number         0  n32g45x_sdio.o ABSOLUTE
    Libraries\N32_Std_Driver\n32g45x_std_periph_driver\src\n32g45x_spi.c 0x00000000   Number         0  n32g45x_spi.o ABSOLUTE
    Libraries\N32_Std_Driver\n32g45x_std_periph_driver\src\n32g45x_tim.c 0x00000000   Number         0  n32g45x_tim.o ABSOLUTE
    Libraries\N32_Std_Driver\n32g45x_std_periph_driver\src\n32g45x_tsc.c 0x00000000   Number         0  n32g45x_tsc.o ABSOLUTE
    Libraries\N32_Std_Driver\n32g45x_std_periph_driver\src\n32g45x_usart.c 0x00000000   Number         0  n32g45x_usart.o ABSOLUTE
    Libraries\N32_Std_Driver\n32g45x_std_periph_driver\src\n32g45x_wwdg.c 0x00000000   Number         0  n32g45x_wwdg.o ABSOLUTE
    Libraries\N32_Std_Driver\n32g45x_std_periph_driver\src\n32g45x_xfmc.c 0x00000000   Number         0  n32g45x_xfmc.o ABSOLUTE
    Libraries\\N32_Std_Driver\\CMSIS\\device\\system_n32g45x.c 0x00000000   Number         0  system_n32g45x.o ABSOLUTE
    Libraries\\N32_Std_Driver\\n32g45x_std_periph_driver\\src\\misc.c 0x00000000   Number         0  misc.o ABSOLUTE
    Libraries\\N32_Std_Driver\\n32g45x_std_periph_driver\\src\\n32g45x_adc.c 0x00000000   Number         0  n32g45x_adc.o ABSOLUTE
    Libraries\\N32_Std_Driver\\n32g45x_std_periph_driver\\src\\n32g45x_bkp.c 0x00000000   Number         0  n32g45x_bkp.o ABSOLUTE
    Libraries\\N32_Std_Driver\\n32g45x_std_periph_driver\\src\\n32g45x_can.c 0x00000000   Number         0  n32g45x_can.o ABSOLUTE
    Libraries\\N32_Std_Driver\\n32g45x_std_periph_driver\\src\\n32g45x_comp.c 0x00000000   Number         0  n32g45x_comp.o ABSOLUTE
    Libraries\\N32_Std_Driver\\n32g45x_std_periph_driver\\src\\n32g45x_crc.c 0x00000000   Number         0  n32g45x_crc.o ABSOLUTE
    Libraries\\N32_Std_Driver\\n32g45x_std_periph_driver\\src\\n32g45x_dac.c 0x00000000   Number         0  n32g45x_dac.o ABSOLUTE
    Libraries\\N32_Std_Driver\\n32g45x_std_periph_driver\\src\\n32g45x_dbg.c 0x00000000   Number         0  n32g45x_dbg.o ABSOLUTE
    Libraries\\N32_Std_Driver\\n32g45x_std_periph_driver\\src\\n32g45x_dma.c 0x00000000   Number         0  n32g45x_dma.o ABSOLUTE
    Libraries\\N32_Std_Driver\\n32g45x_std_periph_driver\\src\\n32g45x_dvp.c 0x00000000   Number         0  n32g45x_dvp.o ABSOLUTE
    Libraries\\N32_Std_Driver\\n32g45x_std_periph_driver\\src\\n32g45x_eth.c 0x00000000   Number         0  n32g45x_eth.o ABSOLUTE
    Libraries\\N32_Std_Driver\\n32g45x_std_periph_driver\\src\\n32g45x_exti.c 0x00000000   Number         0  n32g45x_exti.o ABSOLUTE
    Libraries\\N32_Std_Driver\\n32g45x_std_periph_driver\\src\\n32g45x_flash.c 0x00000000   Number         0  n32g45x_flash.o ABSOLUTE
    Libraries\\N32_Std_Driver\\n32g45x_std_periph_driver\\src\\n32g45x_gpio.c 0x00000000   Number         0  n32g45x_gpio.o ABSOLUTE
    Libraries\\N32_Std_Driver\\n32g45x_std_periph_driver\\src\\n32g45x_i2c.c 0x00000000   Number         0  n32g45x_i2c.o ABSOLUTE
    Libraries\\N32_Std_Driver\\n32g45x_std_periph_driver\\src\\n32g45x_iwdg.c 0x00000000   Number         0  n32g45x_iwdg.o ABSOLUTE
    Libraries\\N32_Std_Driver\\n32g45x_std_periph_driver\\src\\n32g45x_opamp.c 0x00000000   Number         0  n32g45x_opamp.o ABSOLUTE
    Libraries\\N32_Std_Driver\\n32g45x_std_periph_driver\\src\\n32g45x_pwr.c 0x00000000   Number         0  n32g45x_pwr.o ABSOLUTE
    Libraries\\N32_Std_Driver\\n32g45x_std_periph_driver\\src\\n32g45x_qspi.c 0x00000000   Number         0  n32g45x_qspi.o ABSOLUTE
    Libraries\\N32_Std_Driver\\n32g45x_std_periph_driver\\src\\n32g45x_rcc.c 0x00000000   Number         0  n32g45x_rcc.o ABSOLUTE
    Libraries\\N32_Std_Driver\\n32g45x_std_periph_driver\\src\\n32g45x_rtc.c 0x00000000   Number         0  n32g45x_rtc.o ABSOLUTE
    Libraries\\N32_Std_Driver\\n32g45x_std_periph_driver\\src\\n32g45x_sdio.c 0x00000000   Number         0  n32g45x_sdio.o ABSOLUTE
    Libraries\\N32_Std_Driver\\n32g45x_std_periph_driver\\src\\n32g45x_spi.c 0x00000000   Number         0  n32g45x_spi.o ABSOLUTE
    Libraries\\N32_Std_Driver\\n32g45x_std_periph_driver\\src\\n32g45x_tim.c 0x00000000   Number         0  n32g45x_tim.o ABSOLUTE
    Libraries\\N32_Std_Driver\\n32g45x_std_periph_driver\\src\\n32g45x_tsc.c 0x00000000   Number         0  n32g45x_tsc.o ABSOLUTE
    Libraries\\N32_Std_Driver\\n32g45x_std_periph_driver\\src\\n32g45x_usart.c 0x00000000   Number         0  n32g45x_usart.o ABSOLUTE
    Libraries\\N32_Std_Driver\\n32g45x_std_periph_driver\\src\\n32g45x_wwdg.c 0x00000000   Number         0  n32g45x_wwdg.o ABSOLUTE
    Libraries\\N32_Std_Driver\\n32g45x_std_periph_driver\\src\\n32g45x_xfmc.c 0x00000000   Number         0  n32g45x_xfmc.o ABSOLUTE
    Libraries\\rt_drivers\\drv_common.c      0x00000000   Number         0  drv_common.o ABSOLUTE
    Libraries\\rt_drivers\\drv_gpio.c        0x00000000   Number         0  drv_gpio.o ABSOLUTE
    Libraries\\rt_drivers\\drv_pwm.c         0x00000000   Number         0  drv_pwm.o ABSOLUTE
    Libraries\\rt_drivers\\drv_soft_i2c.c    0x00000000   Number         0  drv_soft_i2c.o ABSOLUTE
    Libraries\\rt_drivers\\drv_spi.c         0x00000000   Number         0  drv_spi.o ABSOLUTE
    Libraries\\rt_drivers\\drv_usart.c       0x00000000   Number         0  drv_usart.o ABSOLUTE
    Libraries\rt_drivers\drv_common.c        0x00000000   Number         0  drv_common.o ABSOLUTE
    Libraries\rt_drivers\drv_gpio.c          0x00000000   Number         0  drv_gpio.o ABSOLUTE
    Libraries\rt_drivers\drv_pwm.c           0x00000000   Number         0  drv_pwm.o ABSOLUTE
    Libraries\rt_drivers\drv_soft_i2c.c      0x00000000   Number         0  drv_soft_i2c.o ABSOLUTE
    Libraries\rt_drivers\drv_spi.c           0x00000000   Number         0  drv_spi.o ABSOLUTE
    Libraries\rt_drivers\drv_usart.c         0x00000000   Number         0  drv_usart.o ABSOLUTE
    applications\\smart_door.c               0x00000000   Number         0  smart_door.o ABSOLUTE
    applications\main.c                      0x00000000   Number         0  main.o ABSOLUTE
    applications\smart_door.c                0x00000000   Number         0  smart_door.o ABSOLUTE
    board\\board.c                           0x00000000   Number         0  board.o ABSOLUTE
    board\\msp\\n32_msp.c                    0x00000000   Number         0  n32_msp.o ABSOLUTE
    board\board.c                            0x00000000   Number         0  board.o ABSOLUTE
    board\msp\n32_msp.c                      0x00000000   Number         0  n32_msp.o ABSOLUTE
    dc.s                                     0x00000000   Number         0  dc.o ABSOLUTE
    packages\MultiButton-latest\examples\event_async.c 0x00000000   Number         0  event_async.o ABSOLUTE
    packages\MultiButton-latest\multi_button.c 0x00000000   Number         0  multi_button.o ABSOLUTE
    packages\\rc522-latest\\port\\mfrc522_rtt_stm32_port.c 0x00000000   Number         0  mfrc522_rtt_stm32_port.o ABSOLUTE
    packages\fingerprint-latest\fingerprint.c 0x00000000   Number         0  fingerprint.o ABSOLUTE
    packages\fingerprint-latest\fingerprint_sample.c 0x00000000   Number         0  fingerprint_sample.o ABSOLUTE
    packages\rc522-latest\examples\change_uid.c 0x00000000   Number         0  change_uid.o ABSOLUTE
    packages\rc522-latest\examples\dunp_info.c 0x00000000   Number         0  dunp_info.o ABSOLUTE
    packages\rc522-latest\examples\firmware_check.c 0x00000000   Number         0  firmware_check.o ABSOLUTE
    packages\rc522-latest\examples\fix_brickeduid.c 0x00000000   Number         0  fix_brickeduid.o ABSOLUTE
    packages\rc522-latest\examples\mifare_classic_value_block.c 0x00000000   Number         0  mifare_classic_value_block.o ABSOLUTE
    packages\rc522-latest\examples\read_nuid.c 0x00000000   Number         0  read_nuid.o ABSOLUTE
    packages\rc522-latest\port\mfrc522_rtt_port.c 0x00000000   Number         0  mfrc522_rtt_port.o ABSOLUTE
    packages\rc522-latest\port\mfrc522_rtt_stm32_port.c 0x00000000   Number         0  mfrc522_rtt_stm32_port.o ABSOLUTE
    packages\rc522-latest\src\mfrc522.c      0x00000000   Number         0  mfrc522.o ABSOLUTE
    rt-thread\components\drivers\i2c\i2c-bit-ops.c 0x00000000   Number         0  i2c-bit-ops.o ABSOLUTE
    rt-thread\components\drivers\i2c\i2c_core.c 0x00000000   Number         0  i2c_core.o ABSOLUTE
    rt-thread\components\drivers\i2c\i2c_dev.c 0x00000000   Number         0  i2c_dev.o ABSOLUTE
    rt-thread\components\drivers\misc\pin.c  0x00000000   Number         0  pin.o ABSOLUTE
    rt-thread\components\drivers\misc\rt_drv_pwm.c 0x00000000   Number         0  rt_drv_pwm.o ABSOLUTE
    rt-thread\components\drivers\sensors\sensor.c 0x00000000   Number         0  sensor.o ABSOLUTE
    rt-thread\components\drivers\sensors\sensor_cmd.c 0x00000000   Number         0  sensor_cmd.o ABSOLUTE
    rt-thread\components\drivers\serial\serial.c 0x00000000   Number         0  serial.o ABSOLUTE
    rt-thread\components\drivers\spi\spi_core.c 0x00000000   Number         0  spi_core.o ABSOLUTE
    rt-thread\components\drivers\spi\spi_dev.c 0x00000000   Number         0  spi_dev.o ABSOLUTE
    rt-thread\components\drivers\src\completion.c 0x00000000   Number         0  completion.o ABSOLUTE
    rt-thread\components\drivers\src\dataqueue.c 0x00000000   Number         0  dataqueue.o ABSOLUTE
    rt-thread\components\drivers\src\pipe.c  0x00000000   Number         0  pipe.o ABSOLUTE
    rt-thread\components\drivers\src\ringblk_buf.c 0x00000000   Number         0  ringblk_buf.o ABSOLUTE
    rt-thread\components\drivers\src\ringbuffer.c 0x00000000   Number         0  ringbuffer.o ABSOLUTE
    rt-thread\components\drivers\src\waitqueue.c 0x00000000   Number         0  waitqueue.o ABSOLUTE
    rt-thread\components\drivers\src\workqueue.c 0x00000000   Number         0  workqueue.o ABSOLUTE
    rt-thread\components\finsh\cmd.c         0x00000000   Number         0  cmd.o ABSOLUTE
    rt-thread\components\finsh\msh.c         0x00000000   Number         0  msh.o ABSOLUTE
    rt-thread\components\finsh\shell.c       0x00000000   Number         0  shell.o ABSOLUTE
    rt-thread\components\libc\compilers\armlibc\libc.c 0x00000000   Number         0  libc.o ABSOLUTE
    rt-thread\components\libc\compilers\armlibc\mem_std.c 0x00000000   Number         0  mem_std.o ABSOLUTE
    rt-thread\components\libc\compilers\armlibc\syscalls.c 0x00000000   Number         0  syscalls.o ABSOLUTE
    rt-thread\components\libc\compilers\common\stdlib.c 0x00000000   Number         0  stdlib.o ABSOLUTE
    rt-thread\components\libc\compilers\common\time.c 0x00000000   Number         0  time.o ABSOLUTE
    rt-thread\libcpu\arm\common\backtrace.c  0x00000000   Number         0  backtrace.o ABSOLUTE
    rt-thread\libcpu\arm\common\div0.c       0x00000000   Number         0  div0.o ABSOLUTE
    rt-thread\libcpu\arm\common\showmem.c    0x00000000   Number         0  showmem.o ABSOLUTE
    rt-thread\libcpu\arm\cortex-m4\context_rvds.S 0x00000000   Number         0  context_rvds.o ABSOLUTE
    rt-thread\libcpu\arm\cortex-m4\cpuport.c 0x00000000   Number         0  cpuport.o ABSOLUTE
    rt-thread\src\clock.c                    0x00000000   Number         0  clock.o ABSOLUTE
    rt-thread\src\components.c               0x00000000   Number         0  components.o ABSOLUTE
    rt-thread\src\device.c                   0x00000000   Number         0  device.o ABSOLUTE
    rt-thread\src\idle.c                     0x00000000   Number         0  idle.o ABSOLUTE
    rt-thread\src\ipc.c                      0x00000000   Number         0  ipc.o ABSOLUTE
    rt-thread\src\irq.c                      0x00000000   Number         0  irq.o ABSOLUTE
    rt-thread\src\kservice.c                 0x00000000   Number         0  kservice.o ABSOLUTE
    rt-thread\src\mem.c                      0x00000000   Number         0  mem.o ABSOLUTE
    rt-thread\src\mempool.c                  0x00000000   Number         0  mempool.o ABSOLUTE
    rt-thread\src\object.c                   0x00000000   Number         0  object.o ABSOLUTE
    rt-thread\src\scheduler.c                0x00000000   Number         0  scheduler.o ABSOLUTE
    rt-thread\src\thread.c                   0x00000000   Number         0  thread.o ABSOLUTE
    rt-thread\src\timer.c                    0x00000000   Number         0  timer.o ABSOLUTE
    RESET                                    0x08000000   Section      408  startup_n32g45x.o(RESET)
    !!!main                                  0x08000198   Section        8  __main.o(!!!main)
    !!!scatter                               0x080001a0   Section       52  __scatter.o(!!!scatter)
    !!dczerorl2                              0x080001d4   Section       90  __dczerorl2.o(!!dczerorl2)
    !!handler_zi                             0x08000230   Section       28  __scatter_zi.o(!!handler_zi)
    .ARM.Collect$$libinit$$00000000          0x0800024c   Section        2  libinit.o(.ARM.Collect$$libinit$$00000000)
    .ARM.Collect$$libinit$$00000001          0x0800024e   Section        4  libinit2.o(.ARM.Collect$$libinit$$00000001)
    .ARM.Collect$$libinit$$00000004          0x08000252   Section        0  libinit2.o(.ARM.Collect$$libinit$$00000004)
    .ARM.Collect$$libinit$$0000000A          0x08000252   Section        0  libinit2.o(.ARM.Collect$$libinit$$0000000A)
    .ARM.Collect$$libinit$$0000000C          0x08000252   Section        0  libinit2.o(.ARM.Collect$$libinit$$0000000C)
    .ARM.Collect$$libinit$$0000000E          0x08000252   Section        0  libinit2.o(.ARM.Collect$$libinit$$0000000E)
    .ARM.Collect$$libinit$$0000000F          0x08000252   Section        6  libinit2.o(.ARM.Collect$$libinit$$0000000F)
    .ARM.Collect$$libinit$$00000011          0x08000258   Section        0  libinit2.o(.ARM.Collect$$libinit$$00000011)
    .ARM.Collect$$libinit$$00000012          0x08000258   Section       12  libinit2.o(.ARM.Collect$$libinit$$00000012)
    .ARM.Collect$$libinit$$00000013          0x08000264   Section        0  libinit2.o(.ARM.Collect$$libinit$$00000013)
    .ARM.Collect$$libinit$$00000015          0x08000264   Section        0  libinit2.o(.ARM.Collect$$libinit$$00000015)
    .ARM.Collect$$libinit$$00000017          0x08000264   Section        0  libinit2.o(.ARM.Collect$$libinit$$00000017)
    .ARM.Collect$$libinit$$00000019          0x08000264   Section        0  libinit2.o(.ARM.Collect$$libinit$$00000019)
    .ARM.Collect$$libinit$$0000001B          0x08000264   Section        0  libinit2.o(.ARM.Collect$$libinit$$0000001B)
    .ARM.Collect$$libinit$$0000001D          0x08000264   Section        0  libinit2.o(.ARM.Collect$$libinit$$0000001D)
    .ARM.Collect$$libinit$$0000001F          0x08000264   Section        0  libinit2.o(.ARM.Collect$$libinit$$0000001F)
    .ARM.Collect$$libinit$$00000021          0x08000264   Section        0  libinit2.o(.ARM.Collect$$libinit$$00000021)
    .ARM.Collect$$libinit$$00000023          0x08000264   Section        0  libinit2.o(.ARM.Collect$$libinit$$00000023)
    .ARM.Collect$$libinit$$00000025          0x08000264   Section        0  libinit2.o(.ARM.Collect$$libinit$$00000025)
    .ARM.Collect$$libinit$$0000002C          0x08000264   Section        0  libinit2.o(.ARM.Collect$$libinit$$0000002C)
    .ARM.Collect$$libinit$$0000002E          0x08000264   Section        0  libinit2.o(.ARM.Collect$$libinit$$0000002E)
    .ARM.Collect$$libinit$$00000030          0x08000264   Section        0  libinit2.o(.ARM.Collect$$libinit$$00000030)
    .ARM.Collect$$libinit$$00000032          0x08000264   Section        0  libinit2.o(.ARM.Collect$$libinit$$00000032)
    .ARM.Collect$$libinit$$00000033          0x08000264   Section        2  libinit2.o(.ARM.Collect$$libinit$$00000033)
    .ARM.Collect$$libshutdown$$00000000      0x08000266   Section        2  libshutdown.o(.ARM.Collect$$libshutdown$$00000000)
    .ARM.Collect$$libshutdown$$00000002      0x08000268   Section        0  libshutdown2.o(.ARM.Collect$$libshutdown$$00000002)
    .ARM.Collect$$libshutdown$$00000004      0x08000268   Section        0  libshutdown2.o(.ARM.Collect$$libshutdown$$00000004)
    .ARM.Collect$$libshutdown$$00000006      0x08000268   Section        0  libshutdown2.o(.ARM.Collect$$libshutdown$$00000006)
    .ARM.Collect$$libshutdown$$00000009      0x08000268   Section        0  libshutdown2.o(.ARM.Collect$$libshutdown$$00000009)
    .ARM.Collect$$libshutdown$$0000000C      0x08000268   Section        0  libshutdown2.o(.ARM.Collect$$libshutdown$$0000000C)
    .ARM.Collect$$libshutdown$$0000000E      0x08000268   Section        0  libshutdown2.o(.ARM.Collect$$libshutdown$$0000000E)
    .ARM.Collect$$libshutdown$$00000011      0x08000268   Section        0  libshutdown2.o(.ARM.Collect$$libshutdown$$00000011)
    .ARM.Collect$$libshutdown$$00000012      0x08000268   Section        2  libshutdown2.o(.ARM.Collect$$libshutdown$$00000012)
    .ARM.Collect$$rtentry$$00000000          0x0800026a   Section        0  __rtentry.o(.ARM.Collect$$rtentry$$00000000)
    .ARM.Collect$$rtentry$$00000002          0x0800026a   Section        0  __rtentry2.o(.ARM.Collect$$rtentry$$00000002)
    .ARM.Collect$$rtentry$$00000004          0x0800026a   Section        6  __rtentry4.o(.ARM.Collect$$rtentry$$00000004)
    .ARM.Collect$$rtentry$$00000009          0x08000270   Section        0  __rtentry2.o(.ARM.Collect$$rtentry$$00000009)
    .ARM.Collect$$rtentry$$0000000A          0x08000270   Section        4  __rtentry2.o(.ARM.Collect$$rtentry$$0000000A)
    .ARM.Collect$$rtentry$$0000000C          0x08000274   Section        0  __rtentry2.o(.ARM.Collect$$rtentry$$0000000C)
    .ARM.Collect$$rtentry$$0000000D          0x08000274   Section        8  __rtentry2.o(.ARM.Collect$$rtentry$$0000000D)
    .ARM.Collect$$rtexit$$00000000           0x0800027c   Section        2  rtexit.o(.ARM.Collect$$rtexit$$00000000)
    .ARM.Collect$$rtexit$$00000002           0x0800027e   Section        0  rtexit2.o(.ARM.Collect$$rtexit$$00000002)
    .ARM.Collect$$rtexit$$00000003           0x0800027e   Section        4  rtexit2.o(.ARM.Collect$$rtexit$$00000003)
    .ARM.Collect$$rtexit$$00000004           0x08000282   Section        6  rtexit2.o(.ARM.Collect$$rtexit$$00000004)
    .text                                    0x08000288   Section        0  main.o(.text)
    .text                                    0x080002e8   Section        0  smart_door.o(.text)
    key1_button_read_pin                     0x080002e9   Thumb Code    12  smart_door.o(.text)
    key1_button_callback                     0x080002f5   Thumb Code   120  smart_door.o(.text)
    key2_button_read_pin                     0x0800036d   Thumb Code    12  smart_door.o(.text)
    key2_button_callback                     0x08000379   Thumb Code   100  smart_door.o(.text)
    button_thread_entry                      0x080003dd   Thumb Code   202  smart_door.o(.text)
    nfc_thread_entry                         0x080004a7   Thumb Code   104  smart_door.o(.text)
    fingerprint_thread_entry                 0x0800050f   Thumb Code   154  smart_door.o(.text)
    door_open_entry                          0x080005a9   Thumb Code   178  smart_door.o(.text)
    .text                                    0x08000948   Section      308  context_rvds.o(.text)
    $v0                                      0x08000948   Number         0  context_rvds.o(.text)
    .text                                    0x08000a7c   Section        0  cpuport.o(.text)
    usage_fault_track                        0x08000acd   Thumb Code   122  cpuport.o(.text)
    bus_fault_track                          0x08000b47   Thumb Code   144  cpuport.o(.text)
    mem_manage_fault_track                   0x08000bd7   Thumb Code   126  cpuport.o(.text)
    hard_fault_track                         0x08000c55   Thumb Code    86  cpuport.o(.text)
    .text                                    0x08001088   Section        0  i2c_core.o(.text)
    .text                                    0x080012b0   Section        0  i2c_dev.o(.text)
    i2c_bus_device_read                      0x080012b1   Thumb Code    74  i2c_dev.o(.text)
    i2c_bus_device_write                     0x080012fb   Thumb Code    74  i2c_dev.o(.text)
    i2c_bus_device_control                   0x08001345   Thumb Code   138  i2c_dev.o(.text)
    .text                                    0x0800144c   Section        0  i2c-bit-ops.o(.text)
    SCL_H                                    0x0800144d   Thumb Code    76  i2c-bit-ops.o(.text)
    i2c_start                                0x08001499   Thumb Code    28  i2c-bit-ops.o(.text)
    i2c_restart                              0x080014b5   Thumb Code    48  i2c-bit-ops.o(.text)
    i2c_stop                                 0x080014e5   Thumb Code    46  i2c-bit-ops.o(.text)
    i2c_writeb                               0x08001513   Thumb Code    90  i2c-bit-ops.o(.text)
    i2c_readb                                0x0800156d   Thumb Code    88  i2c-bit-ops.o(.text)
    i2c_send_bytes                           0x080015c5   Thumb Code   102  i2c-bit-ops.o(.text)
    i2c_send_ack_or_nack                     0x0800162b   Thumb Code    74  i2c-bit-ops.o(.text)
    i2c_recv_bytes                           0x08001675   Thumb Code    86  i2c-bit-ops.o(.text)
    i2c_send_address                         0x080016cb   Thumb Code    72  i2c-bit-ops.o(.text)
    i2c_bit_send_address                     0x08001713   Thumb Code   258  i2c-bit-ops.o(.text)
    i2c_bit_xfer                             0x08001815   Thumb Code   172  i2c-bit-ops.o(.text)
    i2c_delay                                0x080018d5   Thumb Code    16  i2c-bit-ops.o(.text)
    i2c_delay2                               0x080018e5   Thumb Code    12  i2c-bit-ops.o(.text)
    i2c_waitack                              0x080018f1   Thumb Code    84  i2c-bit-ops.o(.text)
    .text                                    0x08001a0c   Section        0  rt_drv_pwm.o(.text)
    _pwm_control                             0x08001a0d   Thumb Code    42  rt_drv_pwm.o(.text)
    _pwm_read                                0x08001a37   Thumb Code    76  rt_drv_pwm.o(.text)
    _pwm_write                               0x08001a83   Thumb Code   100  rt_drv_pwm.o(.text)
    pwm_enable                               0x08001c11   Thumb Code    74  rt_drv_pwm.o(.text)
    pwm_disable                              0x08001c5b   Thumb Code    74  rt_drv_pwm.o(.text)
    pwm_set                                  0x08001ca5   Thumb Code    94  rt_drv_pwm.o(.text)
    pwm_get                                  0x08001d03   Thumb Code   194  rt_drv_pwm.o(.text)
    .text                                    0x08001f84   Section        0  pin.o(.text)
    _pin_read                                0x08001f85   Thumb Code    62  pin.o(.text)
    _pin_write                               0x08001fc3   Thumb Code    62  pin.o(.text)
    _pin_control                             0x08002001   Thumb Code    52  pin.o(.text)
    .text                                    0x0800222c   Section        0  serial.o(.text)
    _serial_int_rx                           0x0800222d   Thumb Code   140  serial.o(.text)
    _serial_check_buffer_size                0x080022b9   Thumb Code    38  serial.o(.text)
    _serial_fifo_calc_recved_len             0x080022df   Thumb Code    76  serial.o(.text)
    rt_dma_calc_recved_len                   0x0800232b   Thumb Code    12  serial.o(.text)
    rt_dma_recv_update_get_index             0x08002337   Thumb Code    92  serial.o(.text)
    rt_dma_recv_update_put_index             0x08002393   Thumb Code   144  serial.o(.text)
    _serial_dma_rx                           0x08002423   Thumb Code   276  serial.o(.text)
    rt_serial_init                           0x08002537   Thumb Code    52  serial.o(.text)
    rt_serial_open                           0x0800256b   Thumb Code   842  serial.o(.text)
    rt_serial_close                          0x080028b5   Thumb Code   334  serial.o(.text)
    rt_serial_read                           0x08002a03   Thumb Code    90  serial.o(.text)
    rt_serial_write                          0x08002a5d   Thumb Code    90  serial.o(.text)
    rt_serial_control                        0x08002ab7   Thumb Code   206  serial.o(.text)
    _serial_poll_rx                          0x08002d65   Thumb Code    76  serial.o(.text)
    _serial_poll_tx                          0x08002db1   Thumb Code    74  serial.o(.text)
    _serial_int_tx                           0x08002dfb   Thumb Code   128  serial.o(.text)
    _serial_dma_tx                           0x08002e7b   Thumb Code    92  serial.o(.text)
    .text                                    0x08002f50   Section        0  spi_core.o(.text)
    .text                                    0x08003558   Section        0  spi_dev.o(.text)
    _spi_bus_device_read                     0x08003559   Thumb Code    56  spi_dev.o(.text)
    _spi_bus_device_write                    0x08003591   Thumb Code    56  spi_dev.o(.text)
    _spi_bus_device_control                  0x080035c9   Thumb Code    20  spi_dev.o(.text)
    _spidev_device_read                      0x08003615   Thumb Code    56  spi_dev.o(.text)
    _spidev_device_write                     0x0800364d   Thumb Code    56  spi_dev.o(.text)
    _spidev_device_control                   0x08003685   Thumb Code    20  spi_dev.o(.text)
    .text                                    0x08003764   Section        0  completion.o(.text)
    rt_list_isempty                          0x080038a1   Thumb Code    16  completion.o(.text)
    .text                                    0x08003930   Section        0  dataqueue.o(.text)
    rt_list_insert_before                    0x08003931   Thumb Code    14  dataqueue.o(.text)
    rt_list_init                             0x08003f3f   Thumb Code     6  dataqueue.o(.text)
    rt_list_isempty                          0x08003f45   Thumb Code    16  dataqueue.o(.text)
    .text                                    0x08003f64   Section        0  n32_msp.o(.text)
    uart_test_rw                             0x0800410b   Thumb Code   138  n32_msp.o(.text)
    uart_test                                0x08004195   Thumb Code    14  n32_msp.o(.text)
    pwm_set_test                             0x080041a3   Thumb Code    60  n32_msp.o(.text)
    pwm_led_sample                           0x080041df   Thumb Code    72  n32_msp.o(.text)
    pwm_led_sample_off                       0x08004227   Thumb Code    40  n32_msp.o(.text)
    .text                                    0x080042f8   Section       64  startup_n32g45x.o(.text)
    $v0                                      0x080042f8   Number         0  startup_n32g45x.o(.text)
    .text                                    0x08004338   Section        0  board.o(.text)
    __NVIC_SetPriority                       0x08004339   Thumb Code    32  board.o(.text)
    .text                                    0x080043ec   Section        0  drv_gpio.o(.text)
    bit2bitno                                0x080044eb   Thumb Code    30  drv_gpio.o(.text)
    pin_irq_hdr                              0x080047e9   Thumb Code    60  drv_gpio.o(.text)
    .text                                    0x08004948   Section        0  drv_spi.o(.text)
    configure                                0x08004949   Thumb Code   370  drv_spi.o(.text)
    xfer                                     0x08004abb   Thumb Code   274  drv_spi.o(.text)
    .text                                    0x08004c60   Section        0  drv_soft_i2c.o(.text)
    n32_i2c_gpio_init                        0x08004c61   Thumb Code    40  drv_soft_i2c.o(.text)
    n32_set_sda                              0x08004c89   Thumb Code    30  drv_soft_i2c.o(.text)
    n32_set_scl                              0x08004ca7   Thumb Code    30  drv_soft_i2c.o(.text)
    n32_get_sda                              0x08004cc5   Thumb Code    14  drv_soft_i2c.o(.text)
    n32_get_scl                              0x08004cd3   Thumb Code    14  drv_soft_i2c.o(.text)
    n32_udelay                               0x08004ce1   Thumb Code    72  drv_soft_i2c.o(.text)
    n32_i2c_bus_unlock                       0x08004d29   Thumb Code    70  drv_soft_i2c.o(.text)
    .text                                    0x08004e34   Section        0  drv_pwm.o(.text)
    drv_pwm_enable                           0x08004e35   Thumb Code   154  drv_pwm.o(.text)
    drv_pwm_get                              0x08004ecf   Thumb Code   258  drv_pwm.o(.text)
    drv_pwm_set                              0x08004fd1   Thumb Code   312  drv_pwm.o(.text)
    drv_pwm_control                          0x08005109   Thumb Code    84  drv_pwm.o(.text)
    rt_hw_pwm_init                           0x0800515d   Thumb Code   130  drv_pwm.o(.text)
    .text                                    0x08005230   Section        0  drv_usart.o(.text)
    n32_uart_configure                       0x08005231   Thumb Code   230  drv_usart.o(.text)
    DMA_Configuration                        0x08005317   Thumb Code   176  drv_usart.o(.text)
    n32_uart_control                         0x080053c7   Thumb Code   176  drv_usart.o(.text)
    n32_uart_putc                            0x08005477   Thumb Code    96  drv_usart.o(.text)
    n32_uart_getc                            0x080054d7   Thumb Code    42  drv_usart.o(.text)
    dma_uart_rx_idle_isr                     0x08005501   Thumb Code    68  drv_usart.o(.text)
    dma_rx_done_isr                          0x08005545   Thumb Code    56  drv_usart.o(.text)
    uart_isr                                 0x0800557d   Thumb Code   256  drv_usart.o(.text)
    NVIC_Configuration                       0x080056c5   Thumb Code    34  drv_usart.o(.text)
    .text                                    0x08005774   Section        0  drv_common.o(.text)
    reboot                                   0x08005775   Thumb Code    12  drv_common.o(.text)
    .text                                    0x080057c8   Section        0  fingerprint.o(.text)
    tx_buf_add_checksum                      0x080057c9   Thumb Code    66  fingerprint.o(.text)
    cnt_checksum                             0x0800580b   Thumb Code   164  fingerprint.o(.text)
    cnt_tx_pkg_size                          0x080058af   Thumb Code    34  fingerprint.o(.text)
    cnt_rx_pkg_size                          0x080058d1   Thumb Code    58  fingerprint.o(.text)
    master_get_rx                            0x0800590b   Thumb Code   262  fingerprint.o(.text)
    make_prefix                              0x08005a11   Thumb Code    46  fingerprint.o(.text)
    fp_rx_handle                             0x08006441   Thumb Code    18  fingerprint.o(.text)
    fp_hand_shake                            0x08006453   Thumb Code   478  fingerprint.o(.text)
    .text                                    0x080066d4   Section        0  fingerprint_sample.o(.text)
    .text                                    0x08006ffc   Section        0  shell.o(.text)
    finsh_rx_ind                             0x08007115   Thumb Code    34  shell.o(.text)
    shell_auto_complete                      0x0800723b   Thumb Code    34  shell.o(.text)
    shell_handle_history                     0x0800725d   Thumb Code    32  shell.o(.text)
    shell_push_history                       0x0800727d   Thumb Code   216  shell.o(.text)
    .text                                    0x0800797c   Section        0  msh.o(.text)
    msh_split                                0x080079c9   Thumb Code   202  msh.o(.text)
    msh_get_cmd                              0x08007a93   Thumb Code    56  msh.o(.text)
    _msh_exec_cmd                            0x08007acb   Thumb Code   136  msh.o(.text)
    str_common                               0x08007ba7   Thumb Code    32  msh.o(.text)
    .text                                    0x08007cc0   Section        0  cmd.o(.text)
    rt_list_len                              0x08007cc1   Thumb Code    20  cmd.o(.text)
    clear                                    0x08007ce1   Thumb Code    12  cmd.o(.text)
    list_find_init                           0x08007cf7   Thumb Code    42  cmd.o(.text)
    list_get_next                            0x08007d21   Thumb Code   136  cmd.o(.text)
    show_wait_queue                          0x08007ecf   Thumb Code    42  cmd.o(.text)
    rt_list_isempty                          0x080089b7   Thumb Code    16  cmd.o(.text)
    object_split                             0x080089c7   Thumb Code    22  cmd.o(.text)
    .text                                    0x08008a7c   Section        0  thread.o(.text)
    rt_list_remove                           0x08008a7d   Thumb Code    18  thread.o(.text)
    _thread_cleanup_execute                  0x08008aa1   Thumb Code    28  thread.o(.text)
    _thread_exit                             0x08008ac3   Thumb Code    76  thread.o(.text)
    _thread_init                             0x08008b77   Thumb Code   158  thread.o(.text)
    .text                                    0x0800931c   Section        0  components.o(.text)
    rti_start                                0x0800931d   Thumb Code     4  components.o(.text)
    rti_board_start                          0x08009321   Thumb Code     4  components.o(.text)
    rti_board_end                            0x08009325   Thumb Code     4  components.o(.text)
    rti_end                                  0x08009329   Thumb Code     4  components.o(.text)
    .text                                    0x080093f0   Section        0  device.o(.text)
    .text                                    0x080098ac   Section        0  mem.o(.text)
    plug_holes                               0x080098b9   Thumb Code   160  mem.o(.text)
    .text                                    0x0800a170   Section        0  ipc.o(.text)
    rt_list_insert_before                    0x0800a171   Thumb Code    14  ipc.o(.text)
    _ipc_list_suspend                        0x0800a17f   Thumb Code   120  ipc.o(.text)
    _ipc_list_resume_all                     0x0800a1f7   Thumb Code    50  ipc.o(.text)
    rt_list_init                             0x0800c06f   Thumb Code     6  ipc.o(.text)
    rt_list_isempty                          0x0800c075   Thumb Code    16  ipc.o(.text)
    _ipc_object_init                         0x0800c085   Thumb Code    16  ipc.o(.text)
    _ipc_list_resume                         0x0800c095   Thumb Code    24  ipc.o(.text)
    .text                                    0x0800c0c0   Section        0  irq.o(.text)
    .text                                    0x0800c14c   Section        0  kservice.o(.text)
    print_number                             0x0800c415   Thumb Code   414  kservice.o(.text)
    skip_atoi                                0x0800c5b3   Thumb Code    38  kservice.o(.text)
    .text                                    0x0800cc0c   Section        0  timer.o(.text)
    rt_list_insert_after                     0x0800cc0d   Thumb Code    14  timer.o(.text)
    rt_list_remove                           0x0800cc1b   Thumb Code    18  timer.o(.text)
    _timer_init                              0x0800cc39   Thumb Code    66  timer.o(.text)
    _timer_list_next_timeout                 0x0800cc7b   Thumb Code    44  timer.o(.text)
    _timer_remove                            0x0800cca7   Thumb Code    28  timer.o(.text)
    _timer_thread_entry                      0x0800d323   Thumb Code    62  timer.o(.text)
    rt_list_init                             0x0800d3b3   Thumb Code     6  timer.o(.text)
    rt_list_isempty                          0x0800d3b9   Thumb Code    16  timer.o(.text)
    .text                                    0x0800d3f0   Section        0  object.o(.text)
    rt_list_insert_after                     0x0800d3f1   Thumb Code    14  object.o(.text)
    rt_list_remove                           0x0800d3ff   Thumb Code    18  object.o(.text)
    .text                                    0x0800d824   Section        0  clock.o(.text)
    .text                                    0x0800d8d8   Section        0  idle.o(.text)
    rt_defunct_execute                       0x0800d997   Thumb Code   140  idle.o(.text)
    rt_thread_idle_entry                     0x0800da23   Thumb Code    30  idle.o(.text)
    .text                                    0x0800dae0   Section        0  scheduler.o(.text)
    _rt_scheduler_stack_check                0x0800daed   Thumb Code    86  scheduler.o(.text)
    _scheduler_get_highest_priority_thread   0x0800db43   Thumb Code    30  scheduler.o(.text)
    .text                                    0x0800deb4   Section        0  libc.o(.text)
    .text                                    0x0800deb8   Section        0  syscalls.o(.text)
    .text                                    0x0800dfdc   Section        0  stdlib.o(.text)
    .text                                    0x0800e064   Section        0  n32g45x_gpio.o(.text)
    .text                                    0x0800e598   Section        0  n32g45x_tim.o(.text)
    ConfigTI4                                0x0800ea49   Thumb Code   116  n32g45x_tim.o(.text)
    ConfigTI3                                0x0800eacf   Thumb Code   108  n32g45x_tim.o(.text)
    ConfigTI2                                0x0800eb55   Thumb Code   116  n32g45x_tim.o(.text)
    ConfigTI1                                0x0800ebdb   Thumb Code   104  n32g45x_tim.o(.text)
    .text                                    0x0800f4f8   Section        0  n32g45x_spi.o(.text)
    .text                                    0x0800f804   Section        0  n32g45x_dma.o(.text)
    .text                                    0x0800fa94   Section        0  n32g45x_rcc.o(.text)
    .text                                    0x0800ffa4   Section        0  misc.o(.text)
    .text                                    0x0801006c   Section        0  n32g45x_usart.o(.text)
    .text                                    0x08010458   Section        0  n32g45x_exti.o(.text)
    .text                                    0x0801058c   Section        0  system_n32g45x.o(.text)
    SetSysClock                              0x0801058d   Thumb Code   200  system_n32g45x.o(.text)
    .text                                    0x080107c0   Section        0  multi_button.o(.text)
    .text                                    0x08010aa4   Section        0  fix_brickeduid.o(.text)
    .text                                    0x08010b20   Section        0  mifare_classic_value_block.o(.text)
    formatValueBlock                         0x08010b21   Thumb Code   302  mifare_classic_value_block.o(.text)
    dump_byte_array                          0x08010c4f   Thumb Code    46  mifare_classic_value_block.o(.text)
    .text                                    0x08011388   Section        0  mfrc522_rtt_port.o(.text)
    rt_hw_spi_rc522_init                     0x08011389   Thumb Code    80  mfrc522_rtt_port.o(.text)
    .text                                    0x08011418   Section        0  mfrc522.o(.text)
    mfrc522_spi_send_no_take_no_release      0x08011419   Thumb Code    50  mfrc522.o(.text)
    mfrc522_spi_recv_no_take_no_release      0x0801144b   Thumb Code    50  mfrc522.o(.text)
    mfrc522_spi_send_then_recv_no_take_no_release 0x0801147d   Thumb Code    90  mfrc522.o(.text)
    timerout                                 0x08011759   Thumb Code     8  mfrc522.o(.text)
    .text                                    0x08013378   Section        0  change_uid.o(.text)
    .text                                    0x080134a4   Section        0  dunp_info.o(.text)
    .text                                    0x08013538   Section        0  firmware_check.o(.text)
    .text                                    0x0801365c   Section        0  read_nuid.o(.text)
    .text                                    0x080138fc   Section        0  sensor_cmd.o(.text)
    sensor_show_data                         0x080138fd   Thumb Code   652  sensor_cmd.o(.text)
    rx_callback                              0x08013b89   Thumb Code    18  sensor_cmd.o(.text)
    sensor_fifo_rx_entry                     0x08013b9b   Thumb Code   118  sensor_cmd.o(.text)
    sensor_fifo                              0x08013c11   Thumb Code  1064  sensor_cmd.o(.text)
    sensor_irq_rx_entry                      0x08014039   Thumb Code    60  sensor_cmd.o(.text)
    sensor_int                               0x08014075   Thumb Code   216  sensor_cmd.o(.text)
    sensor_polling                           0x0801414d   Thumb Code   236  sensor_cmd.o(.text)
    sensor                                   0x08014239   Thumb Code  2012  sensor_cmd.o(.text)
    .text                                    0x08014c08   Section        2  use_no_semi.o(.text)
    .text                                    0x08014c0a   Section      238  lludivv7m.o(.text)
    .text                                    0x08014cf8   Section        0  atoi.o(.text)
    .text                                    0x08014d12   Section        0  memcmp.o(.text)
    .text                                    0x08014d6a   Section        0  strcpy.o(.text)
    .text                                    0x08014db2   Section        0  strlen.o(.text)
    .text                                    0x08014df0   Section        0  strncmp.o(.text)
    .text                                    0x08014e86   Section        0  strcat.o(.text)
    .text                                    0x08014e9e   Section      138  rt_memcpy_v6.o(.text)
    .text                                    0x08014f28   Section      100  rt_memcpy_w.o(.text)
    .text                                    0x08014f8c   Section       68  rt_memclr.o(.text)
    .text                                    0x08014fd0   Section       78  rt_memclr_w.o(.text)
    .text                                    0x0801501e   Section       86  strncpy.o(.text)
    .text                                    0x08015074   Section      128  strcmpv7m.o(.text)
    .text                                    0x080150f4   Section        0  heapauxi.o(.text)
    .text                                    0x080150fc   Section        8  rt_errno_addr_intlibspace.o(.text)
    .text                                    0x08015104   Section        0  strtol.o(.text)
    .text                                    0x08015174   Section        8  libspace.o(.text)
    .text                                    0x0801517c   Section       16  rt_ctype_table.o(.text)
    .text                                    0x0801518c   Section        0  _strtoul.o(.text)
    .text                                    0x0801522a   Section       74  sys_stackheap_outer.o(.text)
    .text                                    0x08015274   Section        8  rt_locale_intlibspace.o(.text)
    .text                                    0x0801527c   Section        0  _chval.o(.text)
    .text                                    0x08015298   Section        0  exit.o(.text)
    locale$$code                             0x080152ac   Section       44  lc_ctype_c.o(locale$$code)
    x$fpl$ddiv                               0x080152d8   Section      688  ddiv.o(x$fpl$ddiv)
    $v0                                      0x080152d8   Number         0  ddiv.o(x$fpl$ddiv)
    ddiv_entry                               0x080152df   Thumb Code     0  ddiv.o(x$fpl$ddiv)
    x$fpl$dfix                               0x08015588   Section       94  dfix.o(x$fpl$dfix)
    $v0                                      0x08015588   Number         0  dfix.o(x$fpl$dfix)
    x$fpl$dfltu                              0x080155e6   Section       38  dflt_clz.o(x$fpl$dfltu)
    $v0                                      0x080155e6   Number         0  dflt_clz.o(x$fpl$dfltu)
    x$fpl$dmul                               0x0801560c   Section      340  dmul.o(x$fpl$dmul)
    $v0                                      0x0801560c   Number         0  dmul.o(x$fpl$dmul)
    x$fpl$dnaninf                            0x08015760   Section      156  dnaninf.o(x$fpl$dnaninf)
    $v0                                      0x08015760   Number         0  dnaninf.o(x$fpl$dnaninf)
    x$fpl$dretinf                            0x080157fc   Section       12  dretinf.o(x$fpl$dretinf)
    $v0                                      0x080157fc   Number         0  dretinf.o(x$fpl$dretinf)
    x$fpl$fpinit                             0x08015808   Section       10  fpinit.o(x$fpl$fpinit)
    $v0                                      0x08015808   Number         0  fpinit.o(x$fpl$fpinit)
    .constdata                               0x08015812   Section       19  cpuport.o(.constdata)
    x$fpl$usenofp                            0x08015812   Section        0  usenofp.o(x$fpl$usenofp)
    __FUNCTION__                             0x08015812   Data          19  cpuport.o(.constdata)
    .constdata                               0x08015825   Section       19  i2c_core.o(.constdata)
    __FUNCTION__                             0x08015825   Data          19  i2c_core.o(.constdata)
    .constdata                               0x08015838   Section       94  i2c_dev.o(.constdata)
    __FUNCTION__                             0x08015838   Data          20  i2c_dev.o(.constdata)
    __FUNCTION__                             0x0801584c   Data          21  i2c_dev.o(.constdata)
    __FUNCTION__                             0x08015861   Data          23  i2c_dev.o(.constdata)
    __FUNCTION__                             0x08015878   Data          30  i2c_dev.o(.constdata)
    .constdata                               0x08015898   Section       12  i2c-bit-ops.o(.constdata)
    i2c_bit_bus_ops                          0x08015898   Data          12  i2c-bit-ops.o(.constdata)
    .constdata                               0x080158a4   Section      136  pin.o(.constdata)
    __FUNCTION__                             0x080158a4   Data          10  pin.o(.constdata)
    __FUNCTION__                             0x080158ae   Data          11  pin.o(.constdata)
    __FUNCTION__                             0x080158b9   Data          13  pin.o(.constdata)
    __FUNCTION__                             0x080158c6   Data          18  pin.o(.constdata)
    __FUNCTION__                             0x080158d8   Data          18  pin.o(.constdata)
    __FUNCTION__                             0x080158ea   Data          18  pin.o(.constdata)
    __FUNCTION__                             0x080158fc   Data          12  pin.o(.constdata)
    __FUNCTION__                             0x08015908   Data          13  pin.o(.constdata)
    __FUNCTION__                             0x08015915   Data          12  pin.o(.constdata)
    __FUNCTION__                             0x08015921   Data          11  pin.o(.constdata)
    .constdata                               0x0801592c   Section      298  serial.o(.constdata)
    __FUNCTION__                             0x0801592c   Data          16  serial.o(.constdata)
    __FUNCTION__                             0x0801593c   Data          16  serial.o(.constdata)
    __FUNCTION__                             0x0801594c   Data          15  serial.o(.constdata)
    __FUNCTION__                             0x0801595b   Data          15  serial.o(.constdata)
    __FUNCTION__                             0x0801596a   Data          29  serial.o(.constdata)
    __FUNCTION__                             0x08015987   Data          29  serial.o(.constdata)
    __FUNCTION__                             0x080159a4   Data          29  serial.o(.constdata)
    __FUNCTION__                             0x080159c1   Data          15  serial.o(.constdata)
    __FUNCTION__                             0x080159d0   Data          15  serial.o(.constdata)
    __FUNCTION__                             0x080159df   Data          15  serial.o(.constdata)
    __FUNCTION__                             0x080159ee   Data          16  serial.o(.constdata)
    __FUNCTION__                             0x080159fe   Data          15  serial.o(.constdata)
    __FUNCTION__                             0x08015a0d   Data          16  serial.o(.constdata)
    __FUNCTION__                             0x08015a1d   Data          18  serial.o(.constdata)
    __FUNCTION__                             0x08015a2f   Data          22  serial.o(.constdata)
    __FUNCTION__                             0x08015a45   Data          17  serial.o(.constdata)
    .constdata                               0x08015a56   Section      163  spi_core.o(.constdata)
    __FUNCTION__                             0x08015a56   Data          17  spi_core.o(.constdata)
    __FUNCTION__                             0x08015a67   Data          22  spi_core.o(.constdata)
    __FUNCTION__                             0x08015a7d   Data          22  spi_core.o(.constdata)
    __FUNCTION__                             0x08015a93   Data          16  spi_core.o(.constdata)
    __FUNCTION__                             0x08015aa3   Data          24  spi_core.o(.constdata)
    __FUNCTION__                             0x08015abb   Data          16  spi_core.o(.constdata)
    __FUNCTION__                             0x08015acb   Data          19  spi_core.o(.constdata)
    __FUNCTION__                             0x08015ade   Data          12  spi_core.o(.constdata)
    __FUNCTION__                             0x08015aea   Data          15  spi_core.o(.constdata)
    .constdata                               0x08015af9   Section      129  spi_dev.o(.constdata)
    __FUNCTION__                             0x08015af9   Data          21  spi_dev.o(.constdata)
    __FUNCTION__                             0x08015b0e   Data          22  spi_dev.o(.constdata)
    __FUNCTION__                             0x08015b24   Data          23  spi_dev.o(.constdata)
    __FUNCTION__                             0x08015b3b   Data          20  spi_dev.o(.constdata)
    __FUNCTION__                             0x08015b4f   Data          21  spi_dev.o(.constdata)
    __FUNCTION__                             0x08015b64   Data          22  spi_dev.o(.constdata)
    .constdata                               0x08015b7a   Section       57  completion.o(.constdata)
    __FUNCTION__                             0x08015b7a   Data          19  completion.o(.constdata)
    __FUNCTION__                             0x08015b8d   Data          19  completion.o(.constdata)
    __FUNCTION__                             0x08015ba0   Data          19  completion.o(.constdata)
    .constdata                               0x08015bb3   Section      134  dataqueue.o(.constdata)
    __FUNCTION__                             0x08015bb3   Data          19  dataqueue.o(.constdata)
    __FUNCTION__                             0x08015bc6   Data          19  dataqueue.o(.constdata)
    __FUNCTION__                             0x08015bd9   Data          18  dataqueue.o(.constdata)
    __FUNCTION__                             0x08015beb   Data          19  dataqueue.o(.constdata)
    __FUNCTION__                             0x08015bfe   Data          20  dataqueue.o(.constdata)
    __FUNCTION__                             0x08015c12   Data          21  dataqueue.o(.constdata)
    __FUNCTION__                             0x08015c27   Data          18  dataqueue.o(.constdata)
    .constdata                               0x08015c39   Section       13  n32_msp.o(.constdata)
    __FUNCTION__                             0x08015c39   Data          13  n32_msp.o(.constdata)
    .constdata                               0x08015c48   Section     2240  drv_gpio.o(.constdata)
    pins                                     0x08015c48   Data        2020  drv_gpio.o(.constdata)
    pin_irq_map                              0x0801642c   Data         192  drv_gpio.o(.constdata)
    _n32_pin_ops                             0x080164ec   Data          28  drv_gpio.o(.constdata)
    .constdata                               0x08016508   Section       15  drv_spi.o(.constdata)
    __FUNCTION__                             0x08016508   Data          10  drv_spi.o(.constdata)
    __FUNCTION__                             0x08016512   Data           5  drv_spi.o(.constdata)
    .constdata                               0x08016518   Section       55  drv_soft_i2c.o(.constdata)
    soft_i2c_config                          0x08016518   Data           8  drv_soft_i2c.o(.constdata)
    n32_bit_ops_default                      0x08016520   Data          32  drv_soft_i2c.o(.constdata)
    __FUNCTION__                             0x08016540   Data          15  drv_soft_i2c.o(.constdata)
    .constdata                               0x08016550   Section      104  drv_usart.o(.constdata)
    n32_uart_ops                             0x08016550   Data          20  drv_usart.o(.constdata)
    __FUNCTION__                             0x08016564   Data          19  drv_usart.o(.constdata)
    __FUNCTION__                             0x08016577   Data          17  drv_usart.o(.constdata)
    __FUNCTION__                             0x08016588   Data          14  drv_usart.o(.constdata)
    __FUNCTION__                             0x08016596   Data          14  drv_usart.o(.constdata)
    __FUNCTION__                             0x080165a4   Data           9  drv_usart.o(.constdata)
    .constdata                               0x080165b8   Section      208  fingerprint.o(.constdata)
    __func__                                 0x080165b8   Data          13  fingerprint.o(.constdata)
    __func__                                 0x080165c5   Data          12  fingerprint.o(.constdata)
    __func__                                 0x080165d1   Data          10  fingerprint.o(.constdata)
    __func__                                 0x080165db   Data          13  fingerprint.o(.constdata)
    __func__                                 0x080165e8   Data          14  fingerprint.o(.constdata)
    __func__                                 0x080165f6   Data          14  fingerprint.o(.constdata)
    __func__                                 0x08016604   Data           9  fingerprint.o(.constdata)
    __func__                                 0x0801660d   Data          11  fingerprint.o(.constdata)
    __func__                                 0x08016618   Data          17  fingerprint.o(.constdata)
    __func__                                 0x08016629   Data          11  fingerprint.o(.constdata)
    __func__                                 0x08016634   Data          17  fingerprint.o(.constdata)
    __func__                                 0x08016645   Data          22  fingerprint.o(.constdata)
    __func__                                 0x0801665b   Data          20  fingerprint.o(.constdata)
    __func__                                 0x0801666f   Data          15  fingerprint.o(.constdata)
    .constdata                               0x08016688   Section      135  shell.o(.constdata)
    __FUNCTION__                             0x08016688   Data          22  shell.o(.constdata)
    __FUNCTION__                             0x0801669e   Data          22  shell.o(.constdata)
    __FUNCTION__                             0x080166b4   Data          14  shell.o(.constdata)
    __FUNCTION__                             0x080166c2   Data          13  shell.o(.constdata)
    __FUNCTION__                             0x080166cf   Data          17  shell.o(.constdata)
    __FUNCTION__                             0x080166e0   Data          17  shell.o(.constdata)
    __FUNCTION__                             0x080166f1   Data          15  shell.o(.constdata)
    __FUNCTION__                             0x08016700   Data          15  shell.o(.constdata)
    .constdata                               0x0801670f   Section       14  msh.o(.constdata)
    __FUNCTION__                             0x0801670f   Data          14  msh.o(.constdata)
    .constdata                               0x08016720   Section      100  cmd.o(.constdata)
    device_type_str                          0x08016720   Data         100  cmd.o(.constdata)
    .constdata                               0x08016784   Section      189  thread.o(.constdata)
    __FUNCTION__                             0x08016784   Data          13  thread.o(.constdata)
    __FUNCTION__                             0x08016791   Data          15  thread.o(.constdata)
    __FUNCTION__                             0x080167a0   Data          18  thread.o(.constdata)
    __FUNCTION__                             0x080167b2   Data          17  thread.o(.constdata)
    __FUNCTION__                             0x080167c3   Data          17  thread.o(.constdata)
    __FUNCTION__                             0x080167d4   Data          16  thread.o(.constdata)
    __FUNCTION__                             0x080167e4   Data          22  thread.o(.constdata)
    __FUNCTION__                             0x080167fa   Data          18  thread.o(.constdata)
    __FUNCTION__                             0x0801680c   Data          18  thread.o(.constdata)
    __FUNCTION__                             0x0801681e   Data          17  thread.o(.constdata)
    __FUNCTION__                             0x0801682f   Data          18  thread.o(.constdata)
    .constdata                               0x08016841   Section       20  components.o(.constdata)
    __FUNCTION__                             0x08016841   Data          20  components.o(.constdata)
    .constdata                               0x08016855   Section      186  device.o(.constdata)
    __FUNCTION__                             0x08016855   Data          21  device.o(.constdata)
    __FUNCTION__                             0x0801686a   Data          18  device.o(.constdata)
    __FUNCTION__                             0x0801687c   Data          15  device.o(.constdata)
    __FUNCTION__                             0x0801688b   Data          15  device.o(.constdata)
    __FUNCTION__                             0x0801689a   Data          16  device.o(.constdata)
    __FUNCTION__                             0x080168aa   Data          15  device.o(.constdata)
    __FUNCTION__                             0x080168b9   Data          16  device.o(.constdata)
    __FUNCTION__                             0x080168c9   Data          18  device.o(.constdata)
    __FUNCTION__                             0x080168db   Data          26  device.o(.constdata)
    __FUNCTION__                             0x080168f5   Data          26  device.o(.constdata)
    .constdata                               0x0801690f   Section       60  mem.o(.constdata)
    __FUNCTION__                             0x0801690f   Data          11  mem.o(.constdata)
    __FUNCTION__                             0x0801691a   Data          20  mem.o(.constdata)
    __FUNCTION__                             0x0801692e   Data          10  mem.o(.constdata)
    __FUNCTION__                             0x08016938   Data          11  mem.o(.constdata)
    __FUNCTION__                             0x08016943   Data           8  mem.o(.constdata)
    .constdata                               0x0801694b   Section      539  ipc.o(.constdata)
    __FUNCTION__                             0x0801694b   Data          18  ipc.o(.constdata)
    __FUNCTION__                             0x0801695d   Data          12  ipc.o(.constdata)
    __FUNCTION__                             0x08016969   Data          14  ipc.o(.constdata)
    __FUNCTION__                             0x08016977   Data          14  ipc.o(.constdata)
    __FUNCTION__                             0x08016985   Data          14  ipc.o(.constdata)
    __FUNCTION__                             0x08016993   Data          12  ipc.o(.constdata)
    __FUNCTION__                             0x0801699f   Data          15  ipc.o(.constdata)
    __FUNCTION__                             0x080169ae   Data          15  ipc.o(.constdata)
    __FUNCTION__                             0x080169bd   Data          14  ipc.o(.constdata)
    __FUNCTION__                             0x080169cb   Data          16  ipc.o(.constdata)
    __FUNCTION__                             0x080169db   Data          16  ipc.o(.constdata)
    __FUNCTION__                             0x080169eb   Data          16  ipc.o(.constdata)
    __FUNCTION__                             0x080169fb   Data          14  ipc.o(.constdata)
    __FUNCTION__                             0x08016a09   Data          17  ipc.o(.constdata)
    __FUNCTION__                             0x08016a1a   Data          17  ipc.o(.constdata)
    __FUNCTION__                             0x08016a2b   Data          14  ipc.o(.constdata)
    __FUNCTION__                             0x08016a39   Data          16  ipc.o(.constdata)
    __FUNCTION__                             0x08016a49   Data          16  ipc.o(.constdata)
    __FUNCTION__                             0x08016a59   Data          16  ipc.o(.constdata)
    __FUNCTION__                             0x08016a69   Data          14  ipc.o(.constdata)
    __FUNCTION__                             0x08016a77   Data          14  ipc.o(.constdata)
    __FUNCTION__                             0x08016a85   Data          17  ipc.o(.constdata)
    __FUNCTION__                             0x08016a96   Data          11  ipc.o(.constdata)
    __FUNCTION__                             0x08016aa1   Data          13  ipc.o(.constdata)
    __FUNCTION__                             0x08016aae   Data          13  ipc.o(.constdata)
    __FUNCTION__                             0x08016abb   Data          13  ipc.o(.constdata)
    __FUNCTION__                             0x08016ac8   Data          16  ipc.o(.constdata)
    __FUNCTION__                             0x08016ad8   Data          13  ipc.o(.constdata)
    __FUNCTION__                             0x08016ae5   Data          11  ipc.o(.constdata)
    __FUNCTION__                             0x08016af0   Data          14  ipc.o(.constdata)
    __FUNCTION__                             0x08016afe   Data          11  ipc.o(.constdata)
    __FUNCTION__                             0x08016b09   Data          13  ipc.o(.constdata)
    __FUNCTION__                             0x08016b16   Data          13  ipc.o(.constdata)
    __FUNCTION__                             0x08016b23   Data          13  ipc.o(.constdata)
    __FUNCTION__                             0x08016b30   Data          16  ipc.o(.constdata)
    __FUNCTION__                             0x08016b40   Data          13  ipc.o(.constdata)
    __FUNCTION__                             0x08016b4d   Data          11  ipc.o(.constdata)
    __FUNCTION__                             0x08016b58   Data          14  ipc.o(.constdata)
    .constdata                               0x08016b66   Section      290  kservice.o(.constdata)
    small_digits                             0x08016c66   Data          17  kservice.o(.constdata)
    large_digits                             0x08016c77   Data          17  kservice.o(.constdata)
    .constdata                               0x08016c88   Section       92  timer.o(.constdata)
    __FUNCTION__                             0x08016c88   Data          14  timer.o(.constdata)
    __FUNCTION__                             0x08016c96   Data          16  timer.o(.constdata)
    __FUNCTION__                             0x08016ca6   Data          16  timer.o(.constdata)
    __FUNCTION__                             0x08016cb6   Data          15  timer.o(.constdata)
    __FUNCTION__                             0x08016cc5   Data          14  timer.o(.constdata)
    __FUNCTION__                             0x08016cd3   Data          17  timer.o(.constdata)
    .constdata                               0x08016ce4   Section      128  object.o(.constdata)
    __FUNCTION__                             0x08016ce4   Data          15  object.o(.constdata)
    __FUNCTION__                             0x08016cf3   Data          17  object.o(.constdata)
    __FUNCTION__                             0x08016d04   Data          19  object.o(.constdata)
    __FUNCTION__                             0x08016d17   Data          17  object.o(.constdata)
    __FUNCTION__                             0x08016d28   Data          26  object.o(.constdata)
    __FUNCTION__                             0x08016d42   Data          19  object.o(.constdata)
    __FUNCTION__                             0x08016d55   Data          15  object.o(.constdata)
    .constdata                               0x08016d64   Section       19  idle.o(.constdata)
    __FUNCTION__                             0x08016d64   Data          19  idle.o(.constdata)
    .constdata                               0x08016d77   Section       78  scheduler.o(.constdata)
    __FUNCTION__                             0x08016d77   Data          26  scheduler.o(.constdata)
    __FUNCTION__                             0x08016d91   Data          26  scheduler.o(.constdata)
    __FUNCTION__                             0x08016dab   Data          26  scheduler.o(.constdata)
    .constdata                               0x08016dc5   Section       20  syscalls.o(.constdata)
    .constdata                               0x08016dda   Section       64  n32g45x_rcc.o(.constdata)
    s_ApbAhbPresTable                        0x08016dda   Data          16  n32g45x_rcc.o(.constdata)
    s_AdcHclkPresTable                       0x08016dea   Data          16  n32g45x_rcc.o(.constdata)
    s_AdcPllClkPresTable                     0x08016dfa   Data          32  n32g45x_rcc.o(.constdata)
    .constdata                               0x08016e1a   Section       16  system_n32g45x.o(.constdata)
    .constdata                               0x08016e2c   Section      270  mfrc522.o(.constdata)
    MFRC522_firmware_referenceV0_0           0x08016e2c   Data          64  mfrc522.o(.constdata)
    MFRC522_firmware_referenceV1_0           0x08016e6c   Data          64  mfrc522.o(.constdata)
    MFRC522_firmware_referenceV2_0           0x08016eac   Data          64  mfrc522.o(.constdata)
    FM17522_firmware_reference               0x08016eec   Data          64  mfrc522.o(.constdata)
    __FUNCTION__                             0x08016f2c   Data           8  mfrc522.o(.constdata)
    .conststring                             0x08016f3c   Section       99  serial.o(.conststring)
    .conststring                             0x08016fa0   Section        5  drv_soft_i2c.o(.conststring)
    .conststring                             0x08016fa8   Section       45  drv_pwm.o(.conststring)
    .conststring                             0x08016fd8   Section      421  cmd.o(.conststring)
    .conststring                             0x08017180   Section       66  thread.o(.conststring)
    .conststring                             0x080171c4   Section      235  mem.o(.conststring)
    .conststring                             0x080172b0   Section      346  ipc.o(.conststring)
    .conststring                             0x0801740c   Section       73  fix_brickeduid.o(.conststring)
    .conststring                             0x08017458   Section      462  mfrc522.o(.conststring)
    .conststring                             0x08017628   Section       86  change_uid.o(.conststring)
    .rodata.name                             0x0801767e   Section      193  rt_drv_pwm.o(.rodata.name)
    .rodata.name                             0x0801773f   Section       80  n32_msp.o(.rodata.name)
    .rodata.name                             0x0801778f   Section       21  drv_common.o(.rodata.name)
    .rodata.name                             0x080177a4   Section      270  fingerprint_sample.o(.rodata.name)
    .rodata.name                             0x080178b2   Section      102  msh.o(.rodata.name)
    .rodata.name                             0x08017918   Section      440  cmd.o(.rodata.name)
    .rodata.name                             0x08017ad0   Section       37  fix_brickeduid.o(.rodata.name)
    .rodata.name                             0x08017af5   Section       60  mifare_classic_value_block.o(.rodata.name)
    .rodata.name                             0x08017b31   Section       28  change_uid.o(.rodata.name)
    .rodata.name                             0x08017b4d   Section       26  dunp_info.o(.rodata.name)
    .rodata.name                             0x08017b67   Section       36  firmware_check.o(.rodata.name)
    .rodata.name                             0x08017b8b   Section       26  read_nuid.o(.rodata.name)
    .rodata.name                             0x08017ba5   Section      167  sensor_cmd.o(.rodata.name)
    .rti_fn.0                                0x08017c4c   Section        4  components.o(.rti_fn.0)
    __tagsym$$used                           0x08017c4c   Number         0  components.o(.rti_fn.0)
    .rti_fn.0.end                            0x08017c50   Section        4  components.o(.rti_fn.0.end)
    __tagsym$$used                           0x08017c50   Number         0  components.o(.rti_fn.0.end)
    .rti_fn.1                                0x08017c54   Section        4  drv_gpio.o(.rti_fn.1)
    __tagsym$$used                           0x08017c54   Number         0  drv_gpio.o(.rti_fn.1)
    .rti_fn.1                                0x08017c58   Section        4  drv_spi.o(.rti_fn.1)
    __tagsym$$used                           0x08017c58   Number         0  drv_spi.o(.rti_fn.1)
    .rti_fn.1                                0x08017c5c   Section        4  drv_soft_i2c.o(.rti_fn.1)
    __tagsym$$used                           0x08017c5c   Number         0  drv_soft_i2c.o(.rti_fn.1)
    .rti_fn.1                                0x08017c60   Section        4  drv_pwm.o(.rti_fn.1)
    __tagsym$$used                           0x08017c60   Number         0  drv_pwm.o(.rti_fn.1)
    .rti_fn.1                                0x08017c64   Section        4  drv_usart.o(.rti_fn.1)
    __tagsym$$used                           0x08017c64   Number         0  drv_usart.o(.rti_fn.1)
    .rti_fn.1.end                            0x08017c68   Section        4  components.o(.rti_fn.1.end)
    __tagsym$$used                           0x08017c68   Number         0  components.o(.rti_fn.1.end)
    .rti_fn.4                                0x08017c6c   Section        4  i2c_core.o(.rti_fn.4)
    __tagsym$$used                           0x08017c6c   Number         0  i2c_core.o(.rti_fn.4)
    .rti_fn.4                                0x08017c70   Section        4  libc.o(.rti_fn.4)
    __tagsym$$used                           0x08017c70   Number         0  libc.o(.rti_fn.4)
    .rti_fn.4                                0x08017c74   Section        4  mfrc522_rtt_port.o(.rti_fn.4)
    __tagsym$$used                           0x08017c74   Number         0  mfrc522_rtt_port.o(.rti_fn.4)
    .rti_fn.6                                0x08017c78   Section        4  shell.o(.rti_fn.6)
    __tagsym$$used                           0x08017c78   Number         0  shell.o(.rti_fn.6)
    .rti_fn.6.end                            0x08017c7c   Section        4  components.o(.rti_fn.6.end)
    __tagsym$$used                           0x08017c7c   Number         0  components.o(.rti_fn.6.end)
    FSymTab                                  0x08017c80   Section       48  rt_drv_pwm.o(FSymTab)
    __tagsym$$used                           0x08017c80   Number         0  rt_drv_pwm.o(FSymTab)
    __tagsym$$used                           0x08017c8c   Number         0  rt_drv_pwm.o(FSymTab)
    __tagsym$$used                           0x08017c98   Number         0  rt_drv_pwm.o(FSymTab)
    __tagsym$$used                           0x08017ca4   Number         0  rt_drv_pwm.o(FSymTab)
    FSymTab                                  0x08017cb0   Section       36  n32_msp.o(FSymTab)
    __tagsym$$used                           0x08017cb0   Number         0  n32_msp.o(FSymTab)
    __tagsym$$used                           0x08017cbc   Number         0  n32_msp.o(FSymTab)
    __tagsym$$used                           0x08017cc8   Number         0  n32_msp.o(FSymTab)
    FSymTab                                  0x08017cd4   Section       12  drv_common.o(FSymTab)
    __tagsym$$used                           0x08017cd4   Number         0  drv_common.o(FSymTab)
    FSymTab                                  0x08017ce0   Section      108  fingerprint_sample.o(FSymTab)
    __tagsym$$used                           0x08017ce0   Number         0  fingerprint_sample.o(FSymTab)
    __tagsym$$used                           0x08017cec   Number         0  fingerprint_sample.o(FSymTab)
    __tagsym$$used                           0x08017cf8   Number         0  fingerprint_sample.o(FSymTab)
    __tagsym$$used                           0x08017d04   Number         0  fingerprint_sample.o(FSymTab)
    __tagsym$$used                           0x08017d10   Number         0  fingerprint_sample.o(FSymTab)
    __tagsym$$used                           0x08017d1c   Number         0  fingerprint_sample.o(FSymTab)
    __tagsym$$used                           0x08017d28   Number         0  fingerprint_sample.o(FSymTab)
    __tagsym$$used                           0x08017d34   Number         0  fingerprint_sample.o(FSymTab)
    __tagsym$$used                           0x08017d40   Number         0  fingerprint_sample.o(FSymTab)
    FSymTab                                  0x08017d4c   Section       36  msh.o(FSymTab)
    __tagsym$$used                           0x08017d4c   Number         0  msh.o(FSymTab)
    __tagsym$$used                           0x08017d58   Number         0  msh.o(FSymTab)
    __tagsym$$used                           0x08017d64   Number         0  msh.o(FSymTab)
    FSymTab                                  0x08017d70   Section      156  cmd.o(FSymTab)
    __tagsym$$used                           0x08017d70   Number         0  cmd.o(FSymTab)
    __tagsym$$used                           0x08017d7c   Number         0  cmd.o(FSymTab)
    __tagsym$$used                           0x08017d88   Number         0  cmd.o(FSymTab)
    __tagsym$$used                           0x08017d94   Number         0  cmd.o(FSymTab)
    __tagsym$$used                           0x08017da0   Number         0  cmd.o(FSymTab)
    __tagsym$$used                           0x08017dac   Number         0  cmd.o(FSymTab)
    __tagsym$$used                           0x08017db8   Number         0  cmd.o(FSymTab)
    __tagsym$$used                           0x08017dc4   Number         0  cmd.o(FSymTab)
    __tagsym$$used                           0x08017dd0   Number         0  cmd.o(FSymTab)
    __tagsym$$used                           0x08017ddc   Number         0  cmd.o(FSymTab)
    __tagsym$$used                           0x08017de8   Number         0  cmd.o(FSymTab)
    __tagsym$$used                           0x08017df4   Number         0  cmd.o(FSymTab)
    __tagsym$$used                           0x08017e00   Number         0  cmd.o(FSymTab)
    FSymTab                                  0x08017e0c   Section       12  fix_brickeduid.o(FSymTab)
    __tagsym$$used                           0x08017e0c   Number         0  fix_brickeduid.o(FSymTab)
    FSymTab                                  0x08017e18   Section       12  mifare_classic_value_block.o(FSymTab)
    __tagsym$$used                           0x08017e18   Number         0  mifare_classic_value_block.o(FSymTab)
    FSymTab                                  0x08017e24   Section       12  change_uid.o(FSymTab)
    __tagsym$$used                           0x08017e24   Number         0  change_uid.o(FSymTab)
    FSymTab                                  0x08017e30   Section       12  dunp_info.o(FSymTab)
    __tagsym$$used                           0x08017e30   Number         0  dunp_info.o(FSymTab)
    FSymTab                                  0x08017e3c   Section       12  firmware_check.o(FSymTab)
    __tagsym$$used                           0x08017e3c   Number         0  firmware_check.o(FSymTab)
    FSymTab                                  0x08017e48   Section       12  read_nuid.o(FSymTab)
    __tagsym$$used                           0x08017e48   Number         0  read_nuid.o(FSymTab)
    FSymTab                                  0x08017e54   Section       48  sensor_cmd.o(FSymTab)
    __tagsym$$used                           0x08017e54   Number         0  sensor_cmd.o(FSymTab)
    __tagsym$$used                           0x08017e60   Number         0  sensor_cmd.o(FSymTab)
    __tagsym$$used                           0x08017e6c   Number         0  sensor_cmd.o(FSymTab)
    __tagsym$$used                           0x08017e78   Number         0  sensor_cmd.o(FSymTab)
    locale$$data                             0x08017ea4   Section      272  lc_ctype_c.o(locale$$data)
    __lcctype_c_name                         0x08017ea8   Data           2  lc_ctype_c.o(locale$$data)
    __lcctype_c_start                        0x08017eb0   Data           0  lc_ctype_c.o(locale$$data)
    __lcctype_c_end                          0x08017fb4   Data           0  lc_ctype_c.o(locale$$data)
    .data                                    0x20000000   Section       16  cpuport.o(.data)
    rt_exception_hook                        0x2000000c   Data           4  cpuport.o(.data)
    .data                                    0x20000010   Section        4  serial.o(.data)
    already_output                           0x20000010   Data           4  serial.o(.data)
    .data                                    0x20000014   Section        4  n32_msp.o(.data)
    u2                                       0x20000014   Data           4  n32_msp.o(.data)
    .data                                    0x20000018   Section      192  drv_gpio.o(.data)
    .data                                    0x200000d8   Section        8  drv_spi.o(.data)
    spi_ops                                  0x200000d8   Data           8  drv_spi.o(.data)
    .data                                    0x200000e0   Section      324  drv_pwm.o(.data)
    n32_pwm_obj                              0x200000e0   Data         320  drv_pwm.o(.data)
    drv_ops                                  0x20000220   Data           4  drv_pwm.o(.data)
    .data                                    0x20000224   Section       64  drv_usart.o(.data)
    .data                                    0x20000264   Section       56  fingerprint.o(.data)
    fp_dev                                   0x20000264   Data           4  fingerprint.o(.data)
    flag_vfy                                 0x20000268   Data           1  fingerprint.o(.data)
    flag_init                                0x20000269   Data           1  fingerprint.o(.data)
    tx_buf                                   0x2000026a   Data          50  fingerprint.o(.data)
    .data                                    0x2000029c   Section       16  shell.o(.data)
    finsh_prompt_custom                      0x200002a8   Data           4  shell.o(.data)
    .data                                    0x200002ac   Section       12  thread.o(.data)
    rt_thread_suspend_hook                   0x200002ac   Data           4  thread.o(.data)
    rt_thread_resume_hook                    0x200002b0   Data           4  thread.o(.data)
    rt_thread_inited_hook                    0x200002b4   Data           4  thread.o(.data)
    .data                                    0x200002b8   Section       32  mem.o(.data)
    rt_malloc_hook                           0x200002b8   Data           4  mem.o(.data)
    rt_free_hook                             0x200002bc   Data           4  mem.o(.data)
    heap_ptr                                 0x200002c0   Data           4  mem.o(.data)
    heap_end                                 0x200002c4   Data           4  mem.o(.data)
    lfree                                    0x200002c8   Data           4  mem.o(.data)
    mem_size_aligned                         0x200002cc   Data           4  mem.o(.data)
    used_mem                                 0x200002d0   Data           4  mem.o(.data)
    max_mem                                  0x200002d4   Data           4  mem.o(.data)
    .data                                    0x200002d8   Section        9  irq.o(.data)
    rt_interrupt_enter_hook                  0x200002d8   Data           4  irq.o(.data)
    rt_interrupt_leave_hook                  0x200002dc   Data           4  irq.o(.data)
    .data                                    0x200002e4   Section       12  kservice.o(.data)
    __rt_errno                               0x200002e4   Data           4  kservice.o(.data)
    _console_device                          0x200002e8   Data           4  kservice.o(.data)
    .data                                    0x200002f0   Section       32  timer.o(.data)
    _timer_list                              0x200002f0   Data           8  timer.o(.data)
    _soft_timer_status                       0x200002f8   Data           1  timer.o(.data)
    _soft_timer_list                         0x200002fc   Data           8  timer.o(.data)
    rt_timer_enter_hook                      0x20000304   Data           4  timer.o(.data)
    rt_timer_exit_hook                       0x20000308   Data           4  timer.o(.data)
    random_nr                                0x2000030c   Data           4  timer.o(.data)
    .data                                    0x20000310   Section      164  object.o(.data)
    _object_container                        0x20000310   Data         144  object.o(.data)
    rt_object_attach_hook                    0x200003a0   Data           4  object.o(.data)
    rt_object_detach_hook                    0x200003a4   Data           4  object.o(.data)
    .data                                    0x200003b4   Section        4  clock.o(.data)
    rt_tick                                  0x200003b4   Data           4  clock.o(.data)
    .data                                    0x200003b8   Section        8  idle.o(.data)
    _rt_thread_defunct                       0x200003b8   Data           8  idle.o(.data)
    .data                                    0x200003c0   Section       24  scheduler.o(.data)
    rt_scheduler_lock_nest                   0x200003c4   Data           2  scheduler.o(.data)
    rt_scheduler_hook                        0x200003d0   Data           4  scheduler.o(.data)
    rt_scheduler_switch_hook                 0x200003d4   Data           4  scheduler.o(.data)
    .data                                    0x200003d8   Section        4  system_n32g45x.o(.data)
    .data                                    0x200003dc   Section        4  multi_button.o(.data)
    head_handle                              0x200003dc   Data           4  multi_button.o(.data)
    .data                                    0x200003e0   Section       10  mifare_classic_value_block.o(.data)
    uid                                      0x200003e0   Data           4  mifare_classic_value_block.o(.data)
    key                                      0x200003e4   Data           6  mifare_classic_value_block.o(.data)
    .data                                    0x200003ec   Section        4  mfrc522_rtt_port.o(.data)
    spi_cs                                   0x200003ec   Data           4  mfrc522_rtt_port.o(.data)
    .data                                    0x200003f0   Section       21  mfrc522.o(.data)
    _chipSelectPin                           0x200003f0   Data           4  mfrc522.o(.data)
    _resetPowerDownPin                       0x200003f4   Data           4  mfrc522.o(.data)
    spi_dev_rc522                            0x200003f8   Data           4  mfrc522.o(.data)
    msg                                      0x200003fc   Data           4  mfrc522.o(.data)
    tim_rc522                                0x20000400   Data           4  mfrc522.o(.data)
    flag_500ms                               0x20000404   Data           1  mfrc522.o(.data)
    .data                                    0x20000408   Section       10  change_uid.o(.data)
    uid                                      0x20000408   Data           4  change_uid.o(.data)
    key                                      0x2000040c   Data           6  change_uid.o(.data)
    .data                                    0x20000414   Section        4  dunp_info.o(.data)
    uid                                      0x20000414   Data           4  dunp_info.o(.data)
    .data                                    0x20000418   Section       16  read_nuid.o(.data)
    key                                      0x20000418   Data           6  read_nuid.o(.data)
    uid                                      0x20000420   Data           4  read_nuid.o(.data)
    .data                                    0x20000428   Section       16  sensor_cmd.o(.data)
    sensor_rx_sem                            0x20000428   Data           4  sensor_cmd.o(.data)
    tid1                                     0x2000042c   Data           4  sensor_cmd.o(.data)
    tid1                                     0x20000430   Data           4  sensor_cmd.o(.data)
    dev                                      0x20000434   Data           4  sensor_cmd.o(.data)
    .bss                                     0x20000438   Section      144  smart_door.o(.bss)
    key1_btn                                 0x20000438   Data          40  smart_door.o(.bss)
    key2_btn                                 0x20000460   Data          40  smart_door.o(.bss)
    .bss                                     0x200004c8   Section       68  pin.o(.bss)
    _hw_pin                                  0x200004c8   Data          68  pin.o(.bss)
    .bss                                     0x2000050c   Section      112  drv_spi.o(.bss)
    spi_bus2                                 0x2000050c   Data         112  drv_spi.o(.bss)
    .bss                                     0x2000057c   Section      152  drv_soft_i2c.o(.bss)
    i2c_obj                                  0x2000057c   Data         152  drv_soft_i2c.o(.bss)
    .bss                                     0x20000614   Section      168  drv_usart.o(.bss)
    .bss                                     0x200006bc   Section       82  fingerprint.o(.bss)
    rx_sem                                   0x200006bc   Data          32  fingerprint.o(.bss)
    rx_buf                                   0x200006dc   Data          50  fingerprint.o(.bss)
    .bss                                     0x2000070e   Section      129  shell.o(.bss)
    finsh_prompt                             0x2000070e   Data         129  shell.o(.bss)
    .bss                                     0x20000790   Section       32  mem.o(.bss)
    heap_sem                                 0x20000790   Data          32  mem.o(.bss)
    .bss                                     0x200007b0   Section      128  kservice.o(.bss)
    rt_log_buf                               0x200007b0   Data         128  kservice.o(.bss)
    .bss                                     0x20000830   Section      640  timer.o(.bss)
    _timer_thread                            0x20000830   Data         128  timer.o(.bss)
    _timer_thread_stack                      0x200008b0   Data         512  timer.o(.bss)
    .bss                                     0x20000ab0   Section      400  idle.o(.bss)
    idle                                     0x20000ab0   Data         128  idle.o(.bss)
    rt_thread_stack                          0x20000b30   Data         256  idle.o(.bss)
    idle_hook_list                           0x20000c30   Data          16  idle.o(.bss)
    .bss                                     0x20000c40   Section      256  scheduler.o(.bss)
    .bss                                     0x20000d40   Section       80  mfrc522_rtt_port.o(.bss)
    mfrc522_spi_dev                          0x20000d40   Data          80  mfrc522_rtt_port.o(.bss)
    .bss                                     0x20000d90   Section       12  mfrc522.o(.bss)
    uid                                      0x20000d90   Data          12  mfrc522.o(.bss)
    .bss                                     0x20000d9c   Section       96  libspace.o(.bss)
    HEAP                                     0x20000e00   Section      512  startup_n32g45x.o(HEAP)
    Heap_Mem                                 0x20000e00   Data         512  startup_n32g45x.o(HEAP)
    STACK                                    0x20001000   Section     1024  startup_n32g45x.o(STACK)
    Stack_Mem                                0x20001000   Data        1024  startup_n32g45x.o(STACK)
    __initial_sp                             0x20001400   Data           0  startup_n32g45x.o(STACK)

    Global Symbols

    Symbol Name                              Value     Ov Type        Size  Object(Section)

    BuildAttributes$$THM_ISAv4$E$P$D$K$B$S$7EM$VFPi3$EXTD16$VFPS$VFMA$PE$A:L22UL41UL21$X:L11$S22US41US21$IEEE1$IW$USESV6$~STKCKD$USESV7$~SHL$OSPACE$ROPI$EBA8$UX$STANDARDLIB$REQ8$PRES8$EABIv2 0x00000000   Number         0  anon$$obj.o ABSOLUTE
    __ARM_use_no_argv                        0x00000000   Number         0  main.o ABSOLUTE
    __ARM_exceptions_init                     - Undefined Weak Reference
    __alloca_initialize                       - Undefined Weak Reference
    __arm_fini_                               - Undefined Weak Reference
    __arm_preinit_                            - Undefined Weak Reference
    __cpp_initialize__aeabi_                  - Undefined Weak Reference
    __cxa_finalize                            - Undefined Weak Reference
    __sigvec_lookup                           - Undefined Weak Reference
    _atexit_init                              - Undefined Weak Reference
    _call_atexit_fns                          - Undefined Weak Reference
    _clock_init                               - Undefined Weak Reference
    _fp_trap_init                             - Undefined Weak Reference
    _fp_trap_shutdown                         - Undefined Weak Reference
    _get_lc_collate                           - Undefined Weak Reference
    _get_lc_monetary                          - Undefined Weak Reference
    _get_lc_numeric                           - Undefined Weak Reference
    _get_lc_time                              - Undefined Weak Reference
    _getenv_init                              - Undefined Weak Reference
    _handle_redirection                       - Undefined Weak Reference
    _init_alloc                               - Undefined Weak Reference
    _init_user_alloc                          - Undefined Weak Reference
    _initio                                   - Undefined Weak Reference
    _rand_init                                - Undefined Weak Reference
    _signal_finish                            - Undefined Weak Reference
    _signal_init                              - Undefined Weak Reference
    _terminate_alloc                          - Undefined Weak Reference
    _terminate_user_alloc                     - Undefined Weak Reference
    _terminateio                              - Undefined Weak Reference
    __Vectors_Size                           0x00000198   Number         0  startup_n32g45x.o ABSOLUTE
    __Vectors                                0x08000000   Data           4  startup_n32g45x.o(RESET)
    __Vectors_End                            0x08000198   Data           0  startup_n32g45x.o(RESET)
    __main                                   0x08000199   Thumb Code     8  __main.o(!!!main)
    __scatterload                            0x080001a1   Thumb Code     0  __scatter.o(!!!scatter)
    __scatterload_rt2                        0x080001a1   Thumb Code    44  __scatter.o(!!!scatter)
    __scatterload_rt2_thumb_only             0x080001a1   Thumb Code     0  __scatter.o(!!!scatter)
    __scatterload_null                       0x080001af   Thumb Code     0  __scatter.o(!!!scatter)
    __decompress                             0x080001d5   Thumb Code    90  __dczerorl2.o(!!dczerorl2)
    __decompress1                            0x080001d5   Thumb Code     0  __dczerorl2.o(!!dczerorl2)
    __scatterload_zeroinit                   0x08000231   Thumb Code    28  __scatter_zi.o(!!handler_zi)
    __rt_lib_init                            0x0800024d   Thumb Code     0  libinit.o(.ARM.Collect$$libinit$$00000000)
    __rt_lib_init_fp_1                       0x0800024f   Thumb Code     0  libinit2.o(.ARM.Collect$$libinit$$00000001)
    __rt_lib_init_heap_1                     0x08000253   Thumb Code     0  libinit2.o(.ARM.Collect$$libinit$$0000000A)
    __rt_lib_init_lc_common                  0x08000253   Thumb Code     0  libinit2.o(.ARM.Collect$$libinit$$0000000F)
    __rt_lib_init_preinit_1                  0x08000253   Thumb Code     0  libinit2.o(.ARM.Collect$$libinit$$00000004)
    __rt_lib_init_rand_1                     0x08000253   Thumb Code     0  libinit2.o(.ARM.Collect$$libinit$$0000000E)
    __rt_lib_init_user_alloc_1               0x08000253   Thumb Code     0  libinit2.o(.ARM.Collect$$libinit$$0000000C)
    __rt_lib_init_lc_collate_1               0x08000259   Thumb Code     0  libinit2.o(.ARM.Collect$$libinit$$00000011)
    __rt_lib_init_lc_ctype_2                 0x08000259   Thumb Code     0  libinit2.o(.ARM.Collect$$libinit$$00000012)
    __rt_lib_init_alloca_1                   0x08000265   Thumb Code     0  libinit2.o(.ARM.Collect$$libinit$$0000002E)
    __rt_lib_init_argv_1                     0x08000265   Thumb Code     0  libinit2.o(.ARM.Collect$$libinit$$0000002C)
    __rt_lib_init_atexit_1                   0x08000265   Thumb Code     0  libinit2.o(.ARM.Collect$$libinit$$0000001B)
    __rt_lib_init_clock_1                    0x08000265   Thumb Code     0  libinit2.o(.ARM.Collect$$libinit$$00000021)
    __rt_lib_init_cpp_1                      0x08000265   Thumb Code     0  libinit2.o(.ARM.Collect$$libinit$$00000032)
    __rt_lib_init_exceptions_1               0x08000265   Thumb Code     0  libinit2.o(.ARM.Collect$$libinit$$00000030)
    __rt_lib_init_fp_trap_1                  0x08000265   Thumb Code     0  libinit2.o(.ARM.Collect$$libinit$$0000001F)
    __rt_lib_init_getenv_1                   0x08000265   Thumb Code     0  libinit2.o(.ARM.Collect$$libinit$$00000023)
    __rt_lib_init_lc_ctype_1                 0x08000265   Thumb Code     0  libinit2.o(.ARM.Collect$$libinit$$00000013)
    __rt_lib_init_lc_monetary_1              0x08000265   Thumb Code     0  libinit2.o(.ARM.Collect$$libinit$$00000015)
    __rt_lib_init_lc_numeric_1               0x08000265   Thumb Code     0  libinit2.o(.ARM.Collect$$libinit$$00000017)
    __rt_lib_init_lc_time_1                  0x08000265   Thumb Code     0  libinit2.o(.ARM.Collect$$libinit$$00000019)
    __rt_lib_init_return                     0x08000265   Thumb Code     0  libinit2.o(.ARM.Collect$$libinit$$00000033)
    __rt_lib_init_signal_1                   0x08000265   Thumb Code     0  libinit2.o(.ARM.Collect$$libinit$$0000001D)
    __rt_lib_init_stdio_1                    0x08000265   Thumb Code     0  libinit2.o(.ARM.Collect$$libinit$$00000025)
    __rt_lib_shutdown                        0x08000267   Thumb Code     0  libshutdown.o(.ARM.Collect$$libshutdown$$00000000)
    __rt_lib_shutdown_cpp_1                  0x08000269   Thumb Code     0  libshutdown2.o(.ARM.Collect$$libshutdown$$00000004)
    __rt_lib_shutdown_fini_1                 0x08000269   Thumb Code     0  libshutdown2.o(.ARM.Collect$$libshutdown$$00000002)
    __rt_lib_shutdown_fp_trap_1              0x08000269   Thumb Code     0  libshutdown2.o(.ARM.Collect$$libshutdown$$00000009)
    __rt_lib_shutdown_heap_1                 0x08000269   Thumb Code     0  libshutdown2.o(.ARM.Collect$$libshutdown$$00000011)
    __rt_lib_shutdown_return                 0x08000269   Thumb Code     0  libshutdown2.o(.ARM.Collect$$libshutdown$$00000012)
    __rt_lib_shutdown_signal_1               0x08000269   Thumb Code     0  libshutdown2.o(.ARM.Collect$$libshutdown$$0000000C)
    __rt_lib_shutdown_stdio_1                0x08000269   Thumb Code     0  libshutdown2.o(.ARM.Collect$$libshutdown$$00000006)
    __rt_lib_shutdown_user_alloc_1           0x08000269   Thumb Code     0  libshutdown2.o(.ARM.Collect$$libshutdown$$0000000E)
    __rt_entry                               0x0800026b   Thumb Code     0  __rtentry.o(.ARM.Collect$$rtentry$$00000000)
    __rt_entry_presh_1                       0x0800026b   Thumb Code     0  __rtentry2.o(.ARM.Collect$$rtentry$$00000002)
    __rt_entry_sh                            0x0800026b   Thumb Code     0  __rtentry4.o(.ARM.Collect$$rtentry$$00000004)
    __rt_entry_li                            0x08000271   Thumb Code     0  __rtentry2.o(.ARM.Collect$$rtentry$$0000000A)
    __rt_entry_postsh_1                      0x08000271   Thumb Code     0  __rtentry2.o(.ARM.Collect$$rtentry$$00000009)
    __rt_entry_main                          0x08000275   Thumb Code     0  __rtentry2.o(.ARM.Collect$$rtentry$$0000000D)
    __rt_entry_postli_1                      0x08000275   Thumb Code     0  __rtentry2.o(.ARM.Collect$$rtentry$$0000000C)
    __rt_exit                                0x0800027d   Thumb Code     0  rtexit.o(.ARM.Collect$$rtexit$$00000000)
    __rt_exit_ls                             0x0800027f   Thumb Code     0  rtexit2.o(.ARM.Collect$$rtexit$$00000003)
    __rt_exit_prels_1                        0x0800027f   Thumb Code     0  rtexit2.o(.ARM.Collect$$rtexit$$00000002)
    __rt_exit_exit                           0x08000283   Thumb Code     0  rtexit2.o(.ARM.Collect$$rtexit$$00000004)
    $Super$$main                             0x08000289   Thumb Code    94  main.o(.text)
    door_control_init                        0x0800065b   Thumb Code   710  smart_door.o(.text)
    rt_hw_interrupt_disable                  0x08000949   Thumb Code     8  context_rvds.o(.text)
    rt_hw_interrupt_enable                   0x08000951   Thumb Code     6  context_rvds.o(.text)
    rt_hw_context_switch                     0x08000957   Thumb Code    32  context_rvds.o(.text)
    rt_hw_context_switch_interrupt           0x08000957   Thumb Code     0  context_rvds.o(.text)
    PendSV_Handler                           0x08000977   Thumb Code   108  context_rvds.o(.text)
    rt_hw_context_switch_to                  0x080009e3   Thumb Code    68  context_rvds.o(.text)
    rt_hw_interrupt_thread_switch            0x08000a27   Thumb Code     2  context_rvds.o(.text)
    HardFault_Handler                        0x08000a29   Thumb Code    56  context_rvds.o(.text)
    rt_hw_stack_init                         0x08000a7d   Thumb Code    74  cpuport.o(.text)
    rt_hw_exception_install                  0x08000ac7   Thumb Code     6  cpuport.o(.text)
    rt_hw_hard_fault_exception               0x08000cab   Thumb Code   220  cpuport.o(.text)
    rt_hw_cpu_shutdown                       0x08000d87   Thumb Code    22  cpuport.o(.text)
    rt_hw_cpu_reset                          0x08000d9d   Thumb Code    10  cpuport.o(.text)
    rt_i2c_bus_device_register               0x08001089   Thumb Code    66  i2c_core.o(.text)
    rt_i2c_bus_device_find                   0x080010cb   Thumb Code    54  i2c_core.o(.text)
    rt_i2c_transfer                          0x08001101   Thumb Code    82  i2c_core.o(.text)
    rt_i2c_control                           0x08001153   Thumb Code    62  i2c_core.o(.text)
    rt_i2c_master_send                       0x08001191   Thumb Code    62  i2c_core.o(.text)
    rt_i2c_master_recv                       0x080011cf   Thumb Code    78  i2c_core.o(.text)
    rt_i2c_core_init                         0x0800121d   Thumb Code     4  i2c_core.o(.text)
    rt_i2c_bus_device_device_init            0x080013cf   Thumb Code    60  i2c_dev.o(.text)
    rt_i2c_bit_add_bus                       0x080018c1   Thumb Code    20  i2c-bit-ops.o(.text)
    rt_device_pwm_register                   0x08001ae7   Thumb Code    70  rt_drv_pwm.o(.text)
    rt_pwm_enable                            0x08001b2d   Thumb Code    68  rt_drv_pwm.o(.text)
    rt_pwm_disable                           0x08001b71   Thumb Code    68  rt_drv_pwm.o(.text)
    rt_pwm_set                               0x08001bb5   Thumb Code    60  rt_drv_pwm.o(.text)
    rt_pwm_get                               0x08001bf1   Thumb Code    32  rt_drv_pwm.o(.text)
    rt_device_pin_register                   0x08002035   Thumb Code    56  pin.o(.text)
    rt_pin_attach_irq                        0x0800206d   Thumb Code    62  pin.o(.text)
    rt_pin_detach_irq                        0x080020ab   Thumb Code    48  pin.o(.text)
    rt_pin_irq_enable                        0x080020db   Thumb Code    52  pin.o(.text)
    rt_pin_mode                              0x0800210f   Thumb Code    38  pin.o(.text)
    rt_pin_write                             0x08002135   Thumb Code    38  pin.o(.text)
    rt_pin_read                              0x0800215b   Thumb Code    34  pin.o(.text)
    rt_pin_get                               0x0800217d   Thumb Code    62  pin.o(.text)
    rt_hw_serial_register                    0x08002b85   Thumb Code    82  serial.o(.text)
    rt_hw_serial_isr                         0x08002bd7   Thumb Code   398  serial.o(.text)
    rt_spi_bus_register                      0x08002f51   Thumb Code    56  spi_core.o(.text)
    rt_spi_bus_attach_device                 0x08002f89   Thumb Code    74  spi_core.o(.text)
    rt_spi_configure                         0x08002fd3   Thumb Code    92  spi_core.o(.text)
    rt_spi_send_then_send                    0x0800302f   Thumb Code   240  spi_core.o(.text)
    rt_spi_send_then_recv                    0x0800311f   Thumb Code   240  spi_core.o(.text)
    rt_spi_transfer                          0x0800320f   Thumb Code   198  spi_core.o(.text)
    rt_spi_transfer_message                  0x080032d5   Thumb Code   162  spi_core.o(.text)
    rt_spi_take_bus                          0x08003377   Thumb Code   204  spi_core.o(.text)
    rt_spi_release_bus                       0x08003443   Thumb Code    72  spi_core.o(.text)
    rt_spi_take                              0x0800348b   Thumb Code    80  spi_core.o(.text)
    rt_spi_release                           0x080034db   Thumb Code    80  spi_core.o(.text)
    rt_spi_bus_device_init                   0x080035dd   Thumb Code    56  spi_dev.o(.text)
    rt_spidev_device_init                    0x08003699   Thumb Code    56  spi_dev.o(.text)
    rt_completion_init                       0x08003765   Thumb Code    42  completion.o(.text)
    rt_completion_wait                       0x0800378f   Thumb Code   198  completion.o(.text)
    rt_completion_done                       0x08003855   Thumb Code    76  completion.o(.text)
    rt_data_queue_init                       0x0800393f   Thumb Code   124  dataqueue.o(.text)
    rt_data_queue_push                       0x080039bb   Thumb Code   346  dataqueue.o(.text)
    rt_data_queue_len                        0x08003b15   Thumb Code   118  dataqueue.o(.text)
    rt_data_queue_pop                        0x08003b8b   Thumb Code   574  dataqueue.o(.text)
    rt_data_queue_peek                       0x08003dc9   Thumb Code   108  dataqueue.o(.text)
    rt_data_queue_reset                      0x08003e35   Thumb Code   192  dataqueue.o(.text)
    rt_data_queue_deinit                     0x08003ef5   Thumb Code    74  dataqueue.o(.text)
    n32_msp_usart_init                       0x08003f65   Thumb Code   144  n32_msp.o(.text)
    n32_msp_spi_init                         0x08003ff5   Thumb Code   104  n32_msp.o(.text)
    n32_msp_tim_init                         0x0800405d   Thumb Code   174  n32_msp.o(.text)
    Reset_Handler                            0x080042f9   Thumb Code     8  startup_n32g45x.o(.text)
    NMI_Handler                              0x08004301   Thumb Code     2  startup_n32g45x.o(.text)
    MemManage_Handler                        0x08004305   Thumb Code     2  startup_n32g45x.o(.text)
    BusFault_Handler                         0x08004307   Thumb Code     2  startup_n32g45x.o(.text)
    UsageFault_Handler                       0x08004309   Thumb Code     2  startup_n32g45x.o(.text)
    SVC_Handler                              0x0800430b   Thumb Code     2  startup_n32g45x.o(.text)
    DebugMon_Handler                         0x0800430d   Thumb Code     2  startup_n32g45x.o(.text)
    ADC1_2_IRQHandler                        0x08004313   Thumb Code     0  startup_n32g45x.o(.text)
    ADC3_4_IRQHandler                        0x08004313   Thumb Code     0  startup_n32g45x.o(.text)
    CAN1_RX1_IRQHandler                      0x08004313   Thumb Code     0  startup_n32g45x.o(.text)
    CAN1_SCE_IRQHandler                      0x08004313   Thumb Code     0  startup_n32g45x.o(.text)
    CAN2_RX0_IRQHandler                      0x08004313   Thumb Code     0  startup_n32g45x.o(.text)
    CAN2_RX1_IRQHandler                      0x08004313   Thumb Code     0  startup_n32g45x.o(.text)
    CAN2_SCE_IRQHandler                      0x08004313   Thumb Code     0  startup_n32g45x.o(.text)
    CAN2_TX_IRQHandler                       0x08004313   Thumb Code     0  startup_n32g45x.o(.text)
    COMP7_IRQHandler                         0x08004313   Thumb Code     0  startup_n32g45x.o(.text)
    COMP_1_2_3_IRQHandler                    0x08004313   Thumb Code     0  startup_n32g45x.o(.text)
    COMP_4_5_6_IRQHandler                    0x08004313   Thumb Code     0  startup_n32g45x.o(.text)
    DMA1_Channel1_IRQHandler                 0x08004313   Thumb Code     0  startup_n32g45x.o(.text)
    DMA1_Channel2_IRQHandler                 0x08004313   Thumb Code     0  startup_n32g45x.o(.text)
    DMA1_Channel3_IRQHandler                 0x08004313   Thumb Code     0  startup_n32g45x.o(.text)
    DMA1_Channel4_IRQHandler                 0x08004313   Thumb Code     0  startup_n32g45x.o(.text)
    DMA1_Channel7_IRQHandler                 0x08004313   Thumb Code     0  startup_n32g45x.o(.text)
    DMA1_Channel8_IRQHandler                 0x08004313   Thumb Code     0  startup_n32g45x.o(.text)
    DMA2_Channel1_IRQHandler                 0x08004313   Thumb Code     0  startup_n32g45x.o(.text)
    DMA2_Channel2_IRQHandler                 0x08004313   Thumb Code     0  startup_n32g45x.o(.text)
    DMA2_Channel3_IRQHandler                 0x08004313   Thumb Code     0  startup_n32g45x.o(.text)
    DMA2_Channel4_IRQHandler                 0x08004313   Thumb Code     0  startup_n32g45x.o(.text)
    DMA2_Channel5_IRQHandler                 0x08004313   Thumb Code     0  startup_n32g45x.o(.text)
    DMA2_Channel6_IRQHandler                 0x08004313   Thumb Code     0  startup_n32g45x.o(.text)
    DMA2_Channel7_IRQHandler                 0x08004313   Thumb Code     0  startup_n32g45x.o(.text)
    DMA2_Channel8_IRQHandler                 0x08004313   Thumb Code     0  startup_n32g45x.o(.text)
    DVP_IRQHandler                           0x08004313   Thumb Code     0  startup_n32g45x.o(.text)
    ETH_IRQHandler                           0x08004313   Thumb Code     0  startup_n32g45x.o(.text)
    ETH_WKUP_IRQHandler                      0x08004313   Thumb Code     0  startup_n32g45x.o(.text)
    FLASH_IRQHandler                         0x08004313   Thumb Code     0  startup_n32g45x.o(.text)
    I2C1_ER_IRQHandler                       0x08004313   Thumb Code     0  startup_n32g45x.o(.text)
    I2C1_EV_IRQHandler                       0x08004313   Thumb Code     0  startup_n32g45x.o(.text)
    I2C2_ER_IRQHandler                       0x08004313   Thumb Code     0  startup_n32g45x.o(.text)
    I2C2_EV_IRQHandler                       0x08004313   Thumb Code     0  startup_n32g45x.o(.text)
    I2C3_ER_IRQHandler                       0x08004313   Thumb Code     0  startup_n32g45x.o(.text)
    I2C3_EV_IRQHandler                       0x08004313   Thumb Code     0  startup_n32g45x.o(.text)
    I2C4_ER_IRQHandler                       0x08004313   Thumb Code     0  startup_n32g45x.o(.text)
    I2C4_EV_IRQHandler                       0x08004313   Thumb Code     0  startup_n32g45x.o(.text)
    MMU_IRQHandler                           0x08004313   Thumb Code     0  startup_n32g45x.o(.text)
    PVD_IRQHandler                           0x08004313   Thumb Code     0  startup_n32g45x.o(.text)
    QSPI_IRQHandler                          0x08004313   Thumb Code     0  startup_n32g45x.o(.text)
    RCC_IRQHandler                           0x08004313   Thumb Code     0  startup_n32g45x.o(.text)
    RSRAM_IRQHandler                         0x08004313   Thumb Code     0  startup_n32g45x.o(.text)
    RTCAlarm_IRQHandler                      0x08004313   Thumb Code     0  startup_n32g45x.o(.text)
    RTC_WKUP_IRQHandler                      0x08004313   Thumb Code     0  startup_n32g45x.o(.text)
    SAC_IRQHandler                           0x08004313   Thumb Code     0  startup_n32g45x.o(.text)
    SDIO_IRQHandler                          0x08004313   Thumb Code     0  startup_n32g45x.o(.text)
    SPI1_IRQHandler                          0x08004313   Thumb Code     0  startup_n32g45x.o(.text)
    SPI2_IRQHandler                          0x08004313   Thumb Code     0  startup_n32g45x.o(.text)
    SPI3_IRQHandler                          0x08004313   Thumb Code     0  startup_n32g45x.o(.text)
    TAMPER_IRQHandler                        0x08004313   Thumb Code     0  startup_n32g45x.o(.text)
    TIM1_BRK_IRQHandler                      0x08004313   Thumb Code     0  startup_n32g45x.o(.text)
    TIM1_CC_IRQHandler                       0x08004313   Thumb Code     0  startup_n32g45x.o(.text)
    TIM1_TRG_COM_IRQHandler                  0x08004313   Thumb Code     0  startup_n32g45x.o(.text)
    TIM1_UP_IRQHandler                       0x08004313   Thumb Code     0  startup_n32g45x.o(.text)
    TIM2_IRQHandler                          0x08004313   Thumb Code     0  startup_n32g45x.o(.text)
    TIM3_IRQHandler                          0x08004313   Thumb Code     0  startup_n32g45x.o(.text)
    TIM4_IRQHandler                          0x08004313   Thumb Code     0  startup_n32g45x.o(.text)
    TIM5_IRQHandler                          0x08004313   Thumb Code     0  startup_n32g45x.o(.text)
    TIM6_IRQHandler                          0x08004313   Thumb Code     0  startup_n32g45x.o(.text)
    TIM7_IRQHandler                          0x08004313   Thumb Code     0  startup_n32g45x.o(.text)
    TIM8_BRK_IRQHandler                      0x08004313   Thumb Code     0  startup_n32g45x.o(.text)
    TIM8_CC_IRQHandler                       0x08004313   Thumb Code     0  startup_n32g45x.o(.text)
    TIM8_TRG_COM_IRQHandler                  0x08004313   Thumb Code     0  startup_n32g45x.o(.text)
    TIM8_UP_IRQHandler                       0x08004313   Thumb Code     0  startup_n32g45x.o(.text)
    TSC_IRQHandler                           0x08004313   Thumb Code     0  startup_n32g45x.o(.text)
    UART4_IRQHandler                         0x08004313   Thumb Code     0  startup_n32g45x.o(.text)
    UART5_IRQHandler                         0x08004313   Thumb Code     0  startup_n32g45x.o(.text)
    UART6_IRQHandler                         0x08004313   Thumb Code     0  startup_n32g45x.o(.text)
    UART7_IRQHandler                         0x08004313   Thumb Code     0  startup_n32g45x.o(.text)
    USART3_IRQHandler                        0x08004313   Thumb Code     0  startup_n32g45x.o(.text)
    USBWakeUp_IRQHandler                     0x08004313   Thumb Code     0  startup_n32g45x.o(.text)
    USB_HP_CAN1_TX_IRQHandler                0x08004313   Thumb Code     0  startup_n32g45x.o(.text)
    USB_LP_CAN1_RX0_IRQHandler               0x08004313   Thumb Code     0  startup_n32g45x.o(.text)
    WWDG_IRQHandler                          0x08004313   Thumb Code     0  startup_n32g45x.o(.text)
    XFMC_IRQHandler                          0x08004313   Thumb Code     0  startup_n32g45x.o(.text)
    __user_initial_stackheap                 0x08004315   Thumb Code     0  startup_n32g45x.o(.text)
    Error_Handler                            0x08004359   Thumb Code     4  board.o(.text)
    SystemClock_Config                       0x0800435d   Thumb Code    64  board.o(.text)
    SysTick_Handler                          0x0800439d   Thumb Code    16  board.o(.text)
    rt_hw_board_init                         0x080043ad   Thumb Code    36  board.o(.text)
    get_pin                                  0x080043ed   Thumb Code    30  drv_gpio.o(.text)
    n32_pin_write                            0x0800440b   Thumb Code    52  drv_gpio.o(.text)
    n32_pin_read                             0x0800443f   Thumb Code    48  drv_gpio.o(.text)
    n32_pin_mode                             0x0800446f   Thumb Code   124  drv_gpio.o(.text)
    n32_pin_attach_irq                       0x08004509   Thumb Code   220  drv_gpio.o(.text)
    n32_pin_dettach_irq                      0x080045e5   Thumb Code   136  drv_gpio.o(.text)
    n32_pin_irq_enable                       0x0800466d   Thumb Code   342  drv_gpio.o(.text)
    n32_hw_pin_init                          0x080047c3   Thumb Code    38  drv_gpio.o(.text)
    EXTI0_IRQHandler                         0x08004825   Thumb Code    18  drv_gpio.o(.text)
    EXTI1_IRQHandler                         0x08004837   Thumb Code    18  drv_gpio.o(.text)
    EXTI2_IRQHandler                         0x08004849   Thumb Code    18  drv_gpio.o(.text)
    EXTI3_IRQHandler                         0x0800485b   Thumb Code    18  drv_gpio.o(.text)
    EXTI4_IRQHandler                         0x0800486d   Thumb Code    18  drv_gpio.o(.text)
    EXTI9_5_IRQHandler                       0x0800487f   Thumb Code    86  drv_gpio.o(.text)
    EXTI15_10_IRQHandler                     0x080048d5   Thumb Code   108  drv_gpio.o(.text)
    rt_hw_spi_init                           0x08004bcd   Thumb Code    32  drv_spi.o(.text)
    rt_hw_i2c_init                           0x08004d6f   Thumb Code   160  drv_soft_i2c.o(.text)
    USART1_IRQHandler                        0x0800567d   Thumb Code    18  drv_usart.o(.text)
    DMA1_Channel5_IRQHandler                 0x0800568f   Thumb Code    18  drv_usart.o(.text)
    USART2_IRQHandler                        0x080056a1   Thumb Code    18  drv_usart.o(.text)
    DMA1_Channel6_IRQHandler                 0x080056b3   Thumb Code    18  drv_usart.o(.text)
    rt_hw_usart_init                         0x080056e7   Thumb Code   102  drv_usart.o(.text)
    rt_hw_us_delay                           0x08005781   Thumb Code    72  drv_common.o(.text)
    fp_get_image                             0x08005a3f   Thumb Code   122  fingerprint.o(.text)
    fp_gen_char                              0x08005ab9   Thumb Code   128  fingerprint.o(.text)
    fp_search                                0x08005b39   Thumb Code   192  fingerprint.o(.text)
    fp_reg_model                             0x08005bf9   Thumb Code   428  fingerprint.o(.text)
    fp_store_char                            0x08005da5   Thumb Code   150  fingerprint.o(.text)
    fp_delet_char                            0x08005e3b   Thumb Code   154  fingerprint.o(.text)
    fp_empty                                 0x08005ed5   Thumb Code   134  fingerprint.o(.text)
    fp_set_reg                               0x08005f5b   Thumb Code   148  fingerprint.o(.text)
    fp_read_sys_para                         0x08005fef   Thumb Code   248  fingerprint.o(.text)
    fp_vfy_pwd                               0x080060e7   Thumb Code   156  fingerprint.o(.text)
    fp_auto_identify                         0x08006183   Thumb Code   214  fingerprint.o(.text)
    fp_valid_templete_num                    0x08006259   Thumb Code   148  fingerprint.o(.text)
    fp_read_index_table                      0x080062ed   Thumb Code   166  fingerprint.o(.text)
    fp_auto_enroll                           0x08006393   Thumb Code   174  fingerprint.o(.text)
    fp_init                                  0x08006631   Thumb Code   122  fingerprint.o(.text)
    fp_port                                  0x080066d5   Thumb Code    40  fingerprint_sample.o(.text)
    fp_delet_char_cmd                        0x080066fd   Thumb Code    60  fingerprint_sample.o(.text)
    fp_get_sys_para                          0x08006739   Thumb Code    88  fingerprint_sample.o(.text)
    fp_get_num                               0x08006791   Thumb Code    30  fingerprint_sample.o(.text)
    get_eff_id                               0x080067af   Thumb Code    76  fingerprint_sample.o(.text)
    get_id_state                             0x080067fb   Thumb Code    80  fingerprint_sample.o(.text)
    get_id_state_cmd                         0x0800684b   Thumb Code    58  fingerprint_sample.o(.text)
    EnsureMessage                            0x08006885   Thumb Code   202  fingerprint_sample.o(.text)
    ShowErrMessage                           0x0800694f   Thumb Code     2  fingerprint_sample.o(.text)
    fp_add_fp                                0x08006951   Thumb Code  1238  fingerprint_sample.o(.text)
    fp_read                                  0x08006e27   Thumb Code   110  fingerprint_sample.o(.text)
    finsh_set_prompt                         0x08006ffd   Thumb Code    64  shell.o(.text)
    finsh_get_prompt                         0x0800703d   Thumb Code    68  shell.o(.text)
    finsh_get_prompt_mode                    0x08007081   Thumb Code    32  shell.o(.text)
    finsh_set_prompt_mode                    0x080070a1   Thumb Code    42  shell.o(.text)
    finsh_getchar                            0x080070cb   Thumb Code    74  shell.o(.text)
    finsh_set_device                         0x08007137   Thumb Code   156  shell.o(.text)
    finsh_get_device                         0x080071d3   Thumb Code    28  shell.o(.text)
    finsh_set_echo                           0x080071ef   Thumb Code    42  shell.o(.text)
    finsh_get_echo                           0x08007219   Thumb Code    34  shell.o(.text)
    finsh_thread_entry                       0x08007355   Thumb Code  1402  shell.o(.text)
    finsh_system_function_init               0x080078cf   Thumb Code    10  shell.o(.text)
    finsh_system_init                        0x080078d9   Thumb Code   102  shell.o(.text)
    msh_help                                 0x0800797d   Thumb Code    48  msh.o(.text)
    cmd_ps                                   0x080079ad   Thumb Code    14  msh.o(.text)
    cmd_free                                 0x080079bb   Thumb Code    14  msh.o(.text)
    msh_exec                                 0x08007b53   Thumb Code    84  msh.o(.text)
    msh_auto_complete                        0x08007bc7   Thumb Code   120  msh.o(.text)
    hello                                    0x08007cd5   Thumb Code    12  cmd.o(.text)
    version                                  0x08007ced   Thumb Code    10  cmd.o(.text)
    list_thread                              0x08007da9   Thumb Code   294  cmd.o(.text)
    list_sem                                 0x08007ef9   Thumb Code   216  cmd.o(.text)
    list_event                               0x08007fd1   Thumb Code   204  cmd.o(.text)
    list_mutex                               0x0800809d   Thumb Code   660  cmd.o(.text)
    list_mailbox                             0x08008331   Thumb Code   226  cmd.o(.text)
    list_msgqueue                            0x08008413   Thumb Code   216  cmd.o(.text)
    list_mempool                             0x080084eb   Thumb Code   232  cmd.o(.text)
    list_timer                               0x080085d3   Thumb Code   770  cmd.o(.text)
    list_device                              0x080088d5   Thumb Code   172  cmd.o(.text)
    list                                     0x08008981   Thumb Code    54  cmd.o(.text)
    rt_thread_suspend_sethook                0x08008a8f   Thumb Code     6  thread.o(.text)
    rt_thread_resume_sethook                 0x08008a95   Thumb Code     6  thread.o(.text)
    rt_thread_inited_sethook                 0x08008a9b   Thumb Code     6  thread.o(.text)
    rt_thread_self                           0x08008abd   Thumb Code     6  thread.o(.text)
    rt_thread_timeout                        0x08008b0f   Thumb Code   104  thread.o(.text)
    rt_thread_init                           0x08008c15   Thumb Code    78  thread.o(.text)
    rt_thread_resume                         0x08008c63   Thumb Code   122  thread.o(.text)
    rt_thread_startup                        0x08008cdd   Thumb Code   110  thread.o(.text)
    rt_thread_detach                         0x08008d4b   Thumb Code   152  thread.o(.text)
    rt_thread_create                         0x08008de3   Thumb Code    80  thread.o(.text)
    rt_thread_delete                         0x08008e33   Thumb Code   492  thread.o(.text)
    rt_thread_yield                          0x0800901f   Thumb Code    44  thread.o(.text)
    rt_thread_suspend                        0x0800904b   Thumb Code   160  thread.o(.text)
    rt_thread_sleep                          0x080090eb   Thumb Code   102  thread.o(.text)
    rt_thread_delay                          0x08009151   Thumb Code    12  thread.o(.text)
    rt_thread_delay_until                    0x0800915d   Thumb Code   160  thread.o(.text)
    rt_thread_mdelay                         0x080091fd   Thumb Code    20  thread.o(.text)
    rt_thread_control                        0x08009211   Thumb Code   184  thread.o(.text)
    rt_thread_find                           0x080092c9   Thumb Code    14  thread.o(.text)
    rt_components_board_init                 0x0800932d   Thumb Code    20  components.o(.text)
    rt_components_init                       0x08009341   Thumb Code    20  components.o(.text)
    main_thread_entry                        0x08009355   Thumb Code    14  components.o(.text)
    rt_application_init                      0x08009363   Thumb Code    48  components.o(.text)
    rtthread_startup                         0x08009393   Thumb Code    42  components.o(.text)
    main                                     0x080093bd   Thumb Code    10  components.o(.text)
    rt_device_find                           0x080093f1   Thumb Code    14  device.o(.text)
    rt_device_register                       0x080093ff   Thumb Code    52  device.o(.text)
    rt_device_unregister                     0x08009433   Thumb Code    64  device.o(.text)
    rt_device_create                         0x08009473   Thumb Code    46  device.o(.text)
    rt_device_destroy                        0x080094a1   Thumb Code    68  device.o(.text)
    rt_device_init                           0x080094e5   Thumb Code    64  device.o(.text)
    rt_device_open                           0x08009525   Thumb Code   168  device.o(.text)
    rt_device_close                          0x080095cd   Thumb Code    92  device.o(.text)
    rt_device_read                           0x08009629   Thumb Code    98  device.o(.text)
    rt_device_write                          0x0800968b   Thumb Code    98  device.o(.text)
    rt_device_control                        0x080096ed   Thumb Code    66  device.o(.text)
    rt_device_set_rx_indicate                0x0800972f   Thumb Code    48  device.o(.text)
    rt_device_set_tx_complete                0x0800975f   Thumb Code    48  device.o(.text)
    rt_malloc_sethook                        0x080098ad   Thumb Code     6  mem.o(.text)
    rt_free_sethook                          0x080098b3   Thumb Code     6  mem.o(.text)
    rt_system_heap_init                      0x08009959   Thumb Code   204  mem.o(.text)
    rt_malloc                                0x08009a25   Thumb Code   522  mem.o(.text)
    rt_free                                  0x08009c2f   Thumb Code   634  mem.o(.text)
    rt_realloc                               0x08009ea9   Thumb Code   336  mem.o(.text)
    rt_calloc                                0x08009ff9   Thumb Code    34  mem.o(.text)
    rt_memory_info                           0x0800a01b   Thumb Code    26  mem.o(.text)
    list_mem                                 0x0800a035   Thumb Code    34  mem.o(.text)
    rt_sem_init                              0x0800a229   Thumb Code    70  ipc.o(.text)
    rt_sem_detach                            0x0800a26f   Thumb Code    78  ipc.o(.text)
    rt_sem_create                            0x0800a2bd   Thumb Code   102  ipc.o(.text)
    rt_sem_delete                            0x0800a323   Thumb Code   120  ipc.o(.text)
    rt_sem_take                              0x0800a39b   Thumb Code   288  ipc.o(.text)
    rt_sem_trytake                           0x0800a4bb   Thumb Code    14  ipc.o(.text)
    rt_sem_release                           0x0800a4c9   Thumb Code   140  ipc.o(.text)
    rt_sem_control                           0x0800a555   Thumb Code    90  ipc.o(.text)
    rt_mutex_init                            0x0800a5af   Thumb Code   380  ipc.o(.text)
    rt_mutex_detach                          0x0800a72b   Thumb Code    80  ipc.o(.text)
    rt_mutex_create                          0x0800a77b   Thumb Code   102  ipc.o(.text)
    rt_mutex_delete                          0x0800a7e1   Thumb Code   126  ipc.o(.text)
    rt_mutex_take                            0x0800a85f   Thumb Code   400  ipc.o(.text)
    rt_mutex_trytake                         0x0800a9ef   Thumb Code    14  ipc.o(.text)
    rt_mutex_release                         0x0800a9fd   Thumb Code   512  ipc.o(.text)
    rt_mutex_control                         0x0800abfd   Thumb Code    52  ipc.o(.text)
    rt_event_init                            0x0800ac31   Thumb Code    46  ipc.o(.text)
    rt_event_detach                          0x0800ac5f   Thumb Code    78  ipc.o(.text)
    rt_event_create                          0x0800acad   Thumb Code    88  ipc.o(.text)
    rt_event_delete                          0x0800ad05   Thumb Code   124  ipc.o(.text)
    rt_event_send                            0x0800ad81   Thumb Code   248  ipc.o(.text)
    rt_event_recv                            0x0800ae79   Thumb Code   606  ipc.o(.text)
    rt_event_control                         0x0800b0d7   Thumb Code    92  ipc.o(.text)
    rt_mb_init                               0x0800b133   Thumb Code    76  ipc.o(.text)
    rt_mb_detach                             0x0800b17f   Thumb Code    86  ipc.o(.text)
    rt_mb_create                             0x0800b1d5   Thumb Code   128  ipc.o(.text)
    rt_mb_delete                             0x0800b255   Thumb Code   138  ipc.o(.text)
    rt_mb_send_wait                          0x0800b2df   Thumb Code   422  ipc.o(.text)
    rt_mb_send                               0x0800b485   Thumb Code    18  ipc.o(.text)
    rt_mb_urgent                             0x0800b497   Thumb Code   332  ipc.o(.text)
    rt_mb_recv                               0x0800b5e3   Thumb Code   434  ipc.o(.text)
    rt_mb_control                            0x0800b795   Thumb Code   104  ipc.o(.text)
    rt_mq_init                               0x0800b7fd   Thumb Code   128  ipc.o(.text)
    rt_mq_detach                             0x0800b87d   Thumb Code    86  ipc.o(.text)
    rt_mq_create                             0x0800b8d3   Thumb Code   292  ipc.o(.text)
    rt_mq_delete                             0x0800b9f7   Thumb Code   138  ipc.o(.text)
    rt_mq_send_wait                          0x0800ba81   Thumb Code   488  ipc.o(.text)
    rt_mq_send                               0x0800bc69   Thumb Code    22  ipc.o(.text)
    rt_mq_urgent                             0x0800bc7f   Thumb Code   240  ipc.o(.text)
    rt_mq_recv                               0x0800bd6f   Thumb Code   640  ipc.o(.text)
    rt_mq_control                            0x0800bfef   Thumb Code   128  ipc.o(.text)
    rt_interrupt_enter_sethook               0x0800c0c1   Thumb Code     6  irq.o(.text)
    rt_interrupt_leave_sethook               0x0800c0c7   Thumb Code     6  irq.o(.text)
    rt_interrupt_enter                       0x0800c0cd   Thumb Code    46  irq.o(.text)
    rt_interrupt_leave                       0x0800c0fb   Thumb Code    46  irq.o(.text)
    rt_interrupt_get_nest                    0x0800c129   Thumb Code    22  irq.o(.text)
    rt_get_errno                             0x0800c14d   Thumb Code    32  kservice.o(.text)
    rt_set_errno                             0x0800c16d   Thumb Code    36  kservice.o(.text)
    _rt_errno                                0x0800c191   Thumb Code    30  kservice.o(.text)
    rt_memset                                0x0800c1af   Thumb Code    72  kservice.o(.text)
    rt_memcpy                                0x0800c1f7   Thumb Code   124  kservice.o(.text)
    rt_memmove                               0x0800c273   Thumb Code    66  kservice.o(.text)
    rt_memcmp                                0x0800c2b5   Thumb Code    38  kservice.o(.text)
    rt_strlen                                0x0800c2db   Thumb Code    18  kservice.o(.text)
    rt_strstr                                0x0800c2ed   Thumb Code    62  kservice.o(.text)
    rt_strcasecmp                            0x0800c32b   Thumb Code    48  kservice.o(.text)
    rt_strncpy                               0x0800c35b   Thumb Code    52  kservice.o(.text)
    rt_strncmp                               0x0800c38f   Thumb Code    40  kservice.o(.text)
    rt_strcmp                                0x0800c3b7   Thumb Code    28  kservice.o(.text)
    rt_strnlen                               0x0800c3d3   Thumb Code    24  kservice.o(.text)
    strnlen                                  0x0800c3d3   Thumb Code     0  kservice.o(.text)
    rt_strdup                                0x0800c3eb   Thumb Code    40  kservice.o(.text)
    strdup                                   0x0800c3eb   Thumb Code     0  kservice.o(.text)
    rt_hw_console_output                     0x0800c413   Thumb Code     2  kservice.o(.text)
    rt_vsnprintf                             0x0800c5d9   Thumb Code   824  kservice.o(.text)
    rt_kprintf                               0x0800c911   Thumb Code    66  kservice.o(.text)
    rt_show_version                          0x0800c953   Thumb Code    42  kservice.o(.text)
    rt_snprintf                              0x0800c97d   Thumb Code    38  kservice.o(.text)
    rt_vsprintf                              0x0800c9a3   Thumb Code    22  kservice.o(.text)
    rt_sprintf                               0x0800c9b9   Thumb Code    34  kservice.o(.text)
    rt_console_get_device                    0x0800c9db   Thumb Code     6  kservice.o(.text)
    rt_console_set_device                    0x0800c9e1   Thumb Code    56  kservice.o(.text)
    rt_kputs                                 0x0800ca19   Thumb Code    48  kservice.o(.text)
    rt_malloc_align                          0x0800ca49   Thumb Code    70  kservice.o(.text)
    rt_free_align                            0x0800ca8f   Thumb Code    16  kservice.o(.text)
    __rt_ffs                                 0x0800ca9f   Thumb Code    70  kservice.o(.text)
    rt_assert_set_hook                       0x0800cae5   Thumb Code     6  kservice.o(.text)
    rt_assert_handler                        0x0800caeb   Thumb Code    56  kservice.o(.text)
    rt_timer_enter_sethook                   0x0800cc2d   Thumb Code     6  timer.o(.text)
    rt_timer_exit_sethook                    0x0800cc33   Thumb Code     6  timer.o(.text)
    rt_timer_init                            0x0800ccc3   Thumb Code    58  timer.o(.text)
    rt_timer_detach                          0x0800ccfd   Thumb Code    96  timer.o(.text)
    rt_timer_create                          0x0800cd5d   Thumb Code    54  timer.o(.text)
    rt_timer_delete                          0x0800cd93   Thumb Code    96  timer.o(.text)
    rt_timer_start                           0x0800cdf3   Thumb Code   368  timer.o(.text)
    rt_timer_stop                            0x0800cf63   Thumb Code   102  timer.o(.text)
    rt_timer_control                         0x0800cfc9   Thumb Code   414  timer.o(.text)
    rt_timer_check                           0x0800d167   Thumb Code   208  timer.o(.text)
    rt_timer_next_timeout_tick               0x0800d237   Thumb Code    10  timer.o(.text)
    rt_soft_timer_check                      0x0800d241   Thumb Code   226  timer.o(.text)
    rt_system_timer_init                     0x0800d361   Thumb Code    24  timer.o(.text)
    rt_system_timer_thread_init              0x0800d379   Thumb Code    58  timer.o(.text)
    rt_object_attach_sethook                 0x0800d411   Thumb Code     6  object.o(.text)
    rt_object_detach_sethook                 0x0800d417   Thumb Code     6  object.o(.text)
    rt_object_trytake_sethook                0x0800d41d   Thumb Code     6  object.o(.text)
    rt_object_take_sethook                   0x0800d423   Thumb Code     6  object.o(.text)
    rt_object_put_sethook                    0x0800d429   Thumb Code     6  object.o(.text)
    rt_object_get_information                0x0800d42f   Thumb Code    36  object.o(.text)
    rt_object_get_length                     0x0800d453   Thumb Code    58  object.o(.text)
    rt_object_get_pointers                   0x0800d48d   Thumb Code    86  object.o(.text)
    rt_object_init                           0x0800d4e3   Thumb Code   140  object.o(.text)
    rt_object_detach                         0x0800d56f   Thumb Code    62  object.o(.text)
    rt_object_allocate                       0x0800d5ad   Thumb Code   158  object.o(.text)
    rt_object_delete                         0x0800d64b   Thumb Code    88  object.o(.text)
    rt_object_is_systemobject                0x0800d6a3   Thumb Code    34  object.o(.text)
    rt_object_get_type                       0x0800d6c5   Thumb Code    26  object.o(.text)
    rt_object_find                           0x0800d6df   Thumb Code   124  object.o(.text)
    rt_tick_get                              0x0800d825   Thumb Code     6  clock.o(.text)
    rt_tick_set                              0x0800d82b   Thumb Code    22  clock.o(.text)
    rt_tick_increase                         0x0800d841   Thumb Code    74  clock.o(.text)
    rt_tick_from_millisecond                 0x0800d88b   Thumb Code    58  clock.o(.text)
    rt_tick_get_millisecond                  0x0800d8c5   Thumb Code    14  clock.o(.text)
    rt_thread_idle_sethook                   0x0800d8d9   Thumb Code    58  idle.o(.text)
    rt_thread_idle_delhook                   0x0800d913   Thumb Code    62  idle.o(.text)
    rt_thread_defunct_enqueue                0x0800d951   Thumb Code    24  idle.o(.text)
    rt_thread_defunct_dequeue                0x0800d969   Thumb Code    46  idle.o(.text)
    rt_thread_idle_init                      0x0800da41   Thumb Code    74  idle.o(.text)
    rt_thread_idle_gethandler                0x0800da8b   Thumb Code    10  idle.o(.text)
    rt_scheduler_sethook                     0x0800dae1   Thumb Code     6  scheduler.o(.text)
    rt_scheduler_switch_sethook              0x0800dae7   Thumb Code     6  scheduler.o(.text)
    rt_system_scheduler_init                 0x0800db61   Thumb Code    42  scheduler.o(.text)
    rt_schedule_remove_thread                0x0800db8b   Thumb Code    94  scheduler.o(.text)
    rt_system_scheduler_start                0x0800dbe9   Thumb Code    36  scheduler.o(.text)
    rt_schedule_insert_thread                0x0800dc0d   Thumb Code   118  scheduler.o(.text)
    rt_schedule                              0x0800dc83   Thumb Code   318  scheduler.o(.text)
    rt_enter_critical                        0x0800ddc1   Thumb Code    28  scheduler.o(.text)
    rt_exit_critical                         0x0800dddd   Thumb Code    60  scheduler.o(.text)
    rt_critical_level                        0x0800de19   Thumb Code     8  scheduler.o(.text)
    libc_system_init                         0x0800deb5   Thumb Code     4  libc.o(.text)
    _sys_open                                0x0800deb9   Thumb Code    54  syscalls.o(.text)
    _sys_close                               0x0800deef   Thumb Code     6  syscalls.o(.text)
    _sys_read                                0x0800def5   Thumb Code    30  syscalls.o(.text)
    _sys_write                               0x0800df13   Thumb Code    68  syscalls.o(.text)
    _sys_seek                                0x0800df57   Thumb Code    18  syscalls.o(.text)
    _sys_tmpnam                              0x0800df69   Thumb Code    24  syscalls.o(.text)
    _sys_command_string                      0x0800df81   Thumb Code     6  syscalls.o(.text)
    _ttywrch                                 0x0800df87   Thumb Code    16  syscalls.o(.text)
    _sys_exit                                0x0800df97   Thumb Code    14  syscalls.o(.text)
    _sys_flen                                0x0800dfa5   Thumb Code     8  syscalls.o(.text)
    _sys_istty                               0x0800dfad   Thumb Code    18  syscalls.o(.text)
    remove                                   0x0800dfbf   Thumb Code     8  syscalls.o(.text)
    __rt_libc_exit                           0x0800dfdd   Thumb Code    50  stdlib.o(.text)
    system                                   0x0800e00f   Thumb Code    50  stdlib.o(.text)
    GPIO_DeInit                              0x0800e065   Thumb Code   172  n32g45x_gpio.o(.text)
    GPIO_AFIOInitDefault                     0x0800e111   Thumb Code    20  n32g45x_gpio.o(.text)
    GPIO_InitPeripheral                      0x0800e125   Thumb Code   278  n32g45x_gpio.o(.text)
    GPIO_InitStruct                          0x0800e23b   Thumb Code    16  n32g45x_gpio.o(.text)
    GPIO_ReadInputDataBit                    0x0800e24b   Thumb Code    18  n32g45x_gpio.o(.text)
    GPIO_ReadInputData                       0x0800e25d   Thumb Code     8  n32g45x_gpio.o(.text)
    GPIO_ReadOutputDataBit                   0x0800e265   Thumb Code    18  n32g45x_gpio.o(.text)
    GPIO_ReadOutputData                      0x0800e277   Thumb Code     8  n32g45x_gpio.o(.text)
    GPIO_SetBits                             0x0800e27f   Thumb Code     4  n32g45x_gpio.o(.text)
    GPIO_SetBitsHigh16                       0x0800e283   Thumb Code     4  n32g45x_gpio.o(.text)
    GPIO_ResetBits                           0x0800e287   Thumb Code     4  n32g45x_gpio.o(.text)
    GPIO_WriteBit                            0x0800e28b   Thumb Code    10  n32g45x_gpio.o(.text)
    GPIO_Write                               0x0800e295   Thumb Code     4  n32g45x_gpio.o(.text)
    GPIO_ConfigPinLock                       0x0800e299   Thumb Code    18  n32g45x_gpio.o(.text)
    GPIO_ConfigEventOutput                   0x0800e2ab   Thumb Code    26  n32g45x_gpio.o(.text)
    GPIO_CtrlEventOutput                     0x0800e2c5   Thumb Code     6  n32g45x_gpio.o(.text)
    GPIO_ConfigPinRemap                      0x0800e2cb   Thumb Code   624  n32g45x_gpio.o(.text)
    GPIO_ConfigEXTILine                      0x0800e53b   Thumb Code    66  n32g45x_gpio.o(.text)
    GPIO_ETH_ConfigMediaInterface            0x0800e57d   Thumb Code    22  n32g45x_gpio.o(.text)
    TIM_DeInit                               0x0800e599   Thumb Code   196  n32g45x_tim.o(.text)
    TIM_InitTimeBase                         0x0800e65d   Thumb Code   314  n32g45x_tim.o(.text)
    TIM_InitOc1                              0x0800e797   Thumb Code   106  n32g45x_tim.o(.text)
    TIM_InitOc2                              0x0800e801   Thumb Code   126  n32g45x_tim.o(.text)
    TIM_InitOc3                              0x0800e87f   Thumb Code   118  n32g45x_tim.o(.text)
    TIM_InitOc4                              0x0800e8f5   Thumb Code    98  n32g45x_tim.o(.text)
    TIM_InitOc5                              0x0800e957   Thumb Code   120  n32g45x_tim.o(.text)
    TIM_InitOc6                              0x0800e9cf   Thumb Code    96  n32g45x_tim.o(.text)
    TIM_SetInCap4Prescaler                   0x0800ea2f   Thumb Code    26  n32g45x_tim.o(.text)
    TIM_SetInCap3Prescaler                   0x0800eabd   Thumb Code    18  n32g45x_tim.o(.text)
    TIM_SetInCap2Prescaler                   0x0800eb3b   Thumb Code    26  n32g45x_tim.o(.text)
    TIM_SetInCap1Prescaler                   0x0800ebc9   Thumb Code    18  n32g45x_tim.o(.text)
    TIM_ICInit                               0x0800ec43   Thumb Code   150  n32g45x_tim.o(.text)
    TIM_ConfigPwmIc                          0x0800ecd9   Thumb Code   124  n32g45x_tim.o(.text)
    TIM_ConfigBkdt                           0x0800ed55   Thumb Code    82  n32g45x_tim.o(.text)
    TIM_InitTimBaseStruct                    0x0800eda7   Thumb Code    30  n32g45x_tim.o(.text)
    TIM_InitOcStruct                         0x0800edc5   Thumb Code    20  n32g45x_tim.o(.text)
    TIM_InitIcStruct                         0x0800edd9   Thumb Code    40  n32g45x_tim.o(.text)
    TIM_InitBkdtStruct                       0x0800ee01   Thumb Code    18  n32g45x_tim.o(.text)
    TIM_Enable                               0x0800ee13   Thumb Code    22  n32g45x_tim.o(.text)
    TIM_EnableCtrlPwmOutputs                 0x0800ee29   Thumb Code    30  n32g45x_tim.o(.text)
    TIM_ConfigInt                            0x0800ee47   Thumb Code    18  n32g45x_tim.o(.text)
    TIM_GenerateEvent                        0x0800ee59   Thumb Code     4  n32g45x_tim.o(.text)
    TIM_ConfigDma                            0x0800ee5d   Thumb Code    10  n32g45x_tim.o(.text)
    TIM_EnableDma                            0x0800ee67   Thumb Code    18  n32g45x_tim.o(.text)
    TIM_ConfigInternalClk                    0x0800ee79   Thumb Code    12  n32g45x_tim.o(.text)
    TIM_SelectInputTrig                      0x0800ee85   Thumb Code    18  n32g45x_tim.o(.text)
    TIM_ConfigInternalTrigToExt              0x0800ee97   Thumb Code    24  n32g45x_tim.o(.text)
    TIM_ConfigExtTrigAsClk                   0x0800eeaf   Thumb Code    62  n32g45x_tim.o(.text)
    TIM_ConfigExtTrig                        0x0800eeed   Thumb Code    28  n32g45x_tim.o(.text)
    TIM_ConfigExtClkMode1                    0x0800ef09   Thumb Code    54  n32g45x_tim.o(.text)
    TIM_ConfigExtClkMode2                    0x0800ef3f   Thumb Code    32  n32g45x_tim.o(.text)
    TIM_ConfigPrescaler                      0x0800ef5f   Thumb Code     6  n32g45x_tim.o(.text)
    TIM_ConfigCntMode                        0x0800ef65   Thumb Code    16  n32g45x_tim.o(.text)
    TIM_ConfigEncoderInterface               0x0800ef75   Thumb Code    64  n32g45x_tim.o(.text)
    TIM_ConfigForcedOc1                      0x0800efb5   Thumb Code    18  n32g45x_tim.o(.text)
    TIM_ConfigForcedOc2                      0x0800efc7   Thumb Code    26  n32g45x_tim.o(.text)
    TIM_ConfigForcedOc3                      0x0800efe1   Thumb Code    18  n32g45x_tim.o(.text)
    TIM_ConfigForcedOc4                      0x0800eff3   Thumb Code    26  n32g45x_tim.o(.text)
    TIM_ConfigForcedOc5                      0x0800f00d   Thumb Code    22  n32g45x_tim.o(.text)
    TIM_ConfigForcedOc6                      0x0800f023   Thumb Code    30  n32g45x_tim.o(.text)
    TIM_ConfigArPreload                      0x0800f041   Thumb Code    22  n32g45x_tim.o(.text)
    TIM_SelectComEvt                         0x0800f057   Thumb Code    22  n32g45x_tim.o(.text)
    TIM_SelectCapCmpDmaSrc                   0x0800f06d   Thumb Code    22  n32g45x_tim.o(.text)
    TIM_EnableCapCmpPreloadControl           0x0800f083   Thumb Code    22  n32g45x_tim.o(.text)
    TIM_ConfigOc1Preload                     0x0800f099   Thumb Code    18  n32g45x_tim.o(.text)
    TIM_ConfigOc2Preload                     0x0800f0ab   Thumb Code    26  n32g45x_tim.o(.text)
    TIM_ConfigOc3Preload                     0x0800f0c5   Thumb Code    18  n32g45x_tim.o(.text)
    TIM_ConfigOc4Preload                     0x0800f0d7   Thumb Code    26  n32g45x_tim.o(.text)
    TIM_ConfigOc5Preload                     0x0800f0f1   Thumb Code    22  n32g45x_tim.o(.text)
    TIM_ConfigOc6Preload                     0x0800f107   Thumb Code    30  n32g45x_tim.o(.text)
    TIM_ConfigOc1Fast                        0x0800f125   Thumb Code    18  n32g45x_tim.o(.text)
    TIM_ConfigOc2Fast                        0x0800f137   Thumb Code    26  n32g45x_tim.o(.text)
    TIM_ConfigOc3Fast                        0x0800f151   Thumb Code    18  n32g45x_tim.o(.text)
    TIM_ConfigOc4Fast                        0x0800f163   Thumb Code    26  n32g45x_tim.o(.text)
    TIM_ConfigOc5Fast                        0x0800f17d   Thumb Code    22  n32g45x_tim.o(.text)
    TIM_ConfigOc6Fast                        0x0800f193   Thumb Code    30  n32g45x_tim.o(.text)
    TIM_ClrOc1Ref                            0x0800f1b1   Thumb Code    18  n32g45x_tim.o(.text)
    TIM_ClrOc2Ref                            0x0800f1c3   Thumb Code    24  n32g45x_tim.o(.text)
    TIM_ClrOc3Ref                            0x0800f1db   Thumb Code    18  n32g45x_tim.o(.text)
    TIM_ClrOc4Ref                            0x0800f1ed   Thumb Code    24  n32g45x_tim.o(.text)
    TIM_ClrOc5Ref                            0x0800f205   Thumb Code    22  n32g45x_tim.o(.text)
    TIM_ClrOc6Ref                            0x0800f21b   Thumb Code    28  n32g45x_tim.o(.text)
    TIM_ConfigOc1Polarity                    0x0800f237   Thumb Code    16  n32g45x_tim.o(.text)
    TIM_ConfigOc1NPolarity                   0x0800f247   Thumb Code    16  n32g45x_tim.o(.text)
    TIM_ConfigOc2Polarity                    0x0800f257   Thumb Code    18  n32g45x_tim.o(.text)
    TIM_ConfigOc2NPolarity                   0x0800f269   Thumb Code    18  n32g45x_tim.o(.text)
    TIM_ConfigOc3Polarity                    0x0800f27b   Thumb Code    18  n32g45x_tim.o(.text)
    TIM_ConfigOc3NPolarity                   0x0800f28d   Thumb Code    18  n32g45x_tim.o(.text)
    TIM_ConfigOc4Polarity                    0x0800f29f   Thumb Code    18  n32g45x_tim.o(.text)
    TIM_ConfigOc5Polarity                    0x0800f2b1   Thumb Code    18  n32g45x_tim.o(.text)
    TIM_ConfigOc6Polarity                    0x0800f2c3   Thumb Code    18  n32g45x_tim.o(.text)
    TIM_EnableCapCmpCh                       0x0800f2d5   Thumb Code    28  n32g45x_tim.o(.text)
    TIM_EnableCapCmpChN                      0x0800f2f1   Thumb Code    28  n32g45x_tim.o(.text)
    TIM_SelectOcMode                         0x0800f30d   Thumb Code    86  n32g45x_tim.o(.text)
    TIM_EnableUpdateEvt                      0x0800f363   Thumb Code    22  n32g45x_tim.o(.text)
    TIM_ConfigUpdateRequestIntSrc            0x0800f379   Thumb Code    22  n32g45x_tim.o(.text)
    TIM_SelectHallSensor                     0x0800f38f   Thumb Code    22  n32g45x_tim.o(.text)
    TIM_SelectOnePulseMode                   0x0800f3a5   Thumb Code    16  n32g45x_tim.o(.text)
    TIM_SelectOutputTrig                     0x0800f3b5   Thumb Code    16  n32g45x_tim.o(.text)
    TIM_SelectSlaveMode                      0x0800f3c5   Thumb Code    18  n32g45x_tim.o(.text)
    TIM_SelectMasterSlaveMode                0x0800f3d7   Thumb Code    18  n32g45x_tim.o(.text)
    TIM_SetCnt                               0x0800f3e9   Thumb Code     4  n32g45x_tim.o(.text)
    TIM_SetAutoReload                        0x0800f3ed   Thumb Code     4  n32g45x_tim.o(.text)
    TIM_SetCmp1                              0x0800f3f1   Thumb Code     4  n32g45x_tim.o(.text)
    TIM_SetCmp2                              0x0800f3f5   Thumb Code     4  n32g45x_tim.o(.text)
    TIM_SetCmp3                              0x0800f3f9   Thumb Code     4  n32g45x_tim.o(.text)
    TIM_SetCmp4                              0x0800f3fd   Thumb Code     6  n32g45x_tim.o(.text)
    TIM_SetCmp5                              0x0800f403   Thumb Code     6  n32g45x_tim.o(.text)
    TIM_SetCmp6                              0x0800f409   Thumb Code     6  n32g45x_tim.o(.text)
    TIM_SetClkDiv                            0x0800f40f   Thumb Code    16  n32g45x_tim.o(.text)
    TIM_GetCap1                              0x0800f41f   Thumb Code     6  n32g45x_tim.o(.text)
    TIM_GetCap2                              0x0800f425   Thumb Code     6  n32g45x_tim.o(.text)
    TIM_GetCap3                              0x0800f42b   Thumb Code     6  n32g45x_tim.o(.text)
    TIM_GetCap4                              0x0800f431   Thumb Code     8  n32g45x_tim.o(.text)
    TIM_GetCap5                              0x0800f439   Thumb Code     8  n32g45x_tim.o(.text)
    TIM_GetCap6                              0x0800f441   Thumb Code     8  n32g45x_tim.o(.text)
    TIM_GetCnt                               0x0800f449   Thumb Code     6  n32g45x_tim.o(.text)
    TIM_GetPrescaler                         0x0800f44f   Thumb Code     6  n32g45x_tim.o(.text)
    TIM_GetAutoReload                        0x0800f455   Thumb Code     6  n32g45x_tim.o(.text)
    TIM_GetCCENStatus                        0x0800f45b   Thumb Code    68  n32g45x_tim.o(.text)
    TIM_GetFlagStatus                        0x0800f49f   Thumb Code    18  n32g45x_tim.o(.text)
    TIM_ClearFlag                            0x0800f4b1   Thumb Code     8  n32g45x_tim.o(.text)
    TIM_GetIntStatus                         0x0800f4b9   Thumb Code    34  n32g45x_tim.o(.text)
    TIM_ClrIntPendingBit                     0x0800f4db   Thumb Code     8  n32g45x_tim.o(.text)
    SPI_I2S_DeInit                           0x0800f4f9   Thumb Code    76  n32g45x_spi.o(.text)
    SPI_Init                                 0x0800f545   Thumb Code    60  n32g45x_spi.o(.text)
    I2S_Init                                 0x0800f581   Thumb Code   226  n32g45x_spi.o(.text)
    SPI_InitStruct                           0x0800f663   Thumb Code    24  n32g45x_spi.o(.text)
    I2S_InitStruct                           0x0800f67b   Thumb Code    20  n32g45x_spi.o(.text)
    SPI_Enable                               0x0800f68f   Thumb Code    24  n32g45x_spi.o(.text)
    I2S_Enable                               0x0800f6a7   Thumb Code    24  n32g45x_spi.o(.text)
    SPI_I2S_EnableInt                        0x0800f6bf   Thumb Code    32  n32g45x_spi.o(.text)
    SPI_I2S_EnableDma                        0x0800f6df   Thumb Code    18  n32g45x_spi.o(.text)
    SPI_I2S_TransmitData                     0x0800f6f1   Thumb Code     4  n32g45x_spi.o(.text)
    SPI_I2S_ReceiveData                      0x0800f6f5   Thumb Code     6  n32g45x_spi.o(.text)
    SPI_SetNssLevel                          0x0800f6fb   Thumb Code    30  n32g45x_spi.o(.text)
    SPI_SSOutputEnable                       0x0800f719   Thumb Code    24  n32g45x_spi.o(.text)
    SPI_ConfigDataLen                        0x0800f731   Thumb Code    18  n32g45x_spi.o(.text)
    SPI_TransmitCrcNext                      0x0800f743   Thumb Code    10  n32g45x_spi.o(.text)
    SPI_EnableCalculateCrc                   0x0800f74d   Thumb Code    24  n32g45x_spi.o(.text)
    SPI_GetCRCDat                            0x0800f765   Thumb Code    16  n32g45x_spi.o(.text)
    SPI_GetCRCPoly                           0x0800f775   Thumb Code     6  n32g45x_spi.o(.text)
    SPI_ConfigBidirectionalMode              0x0800f77b   Thumb Code    28  n32g45x_spi.o(.text)
    SPI_I2S_GetStatus                        0x0800f797   Thumb Code    18  n32g45x_spi.o(.text)
    SPI_I2S_ClrCRCErrFlag                    0x0800f7a9   Thumb Code     6  n32g45x_spi.o(.text)
    SPI_I2S_GetIntStatus                     0x0800f7af   Thumb Code    52  n32g45x_spi.o(.text)
    SPI_I2S_ClrITPendingBit                  0x0800f7e3   Thumb Code    20  n32g45x_spi.o(.text)
    DMA_DeInit                               0x0800f805   Thumb Code   428  n32g45x_dma.o(.text)
    DMA_Init                                 0x0800f9b1   Thumb Code    60  n32g45x_dma.o(.text)
    DMA_StructInit                           0x0800f9ed   Thumb Code    26  n32g45x_dma.o(.text)
    DMA_EnableChannel                        0x0800fa07   Thumb Code    24  n32g45x_dma.o(.text)
    DMA_ConfigInt                            0x0800fa1f   Thumb Code    18  n32g45x_dma.o(.text)
    DMA_SetCurrDataCounter                   0x0800fa31   Thumb Code     4  n32g45x_dma.o(.text)
    DMA_GetCurrDataCounter                   0x0800fa35   Thumb Code     8  n32g45x_dma.o(.text)
    DMA_GetFlagStatus                        0x0800fa3d   Thumb Code    24  n32g45x_dma.o(.text)
    DMA_ClearFlag                            0x0800fa55   Thumb Code     4  n32g45x_dma.o(.text)
    DMA_GetIntStatus                         0x0800fa59   Thumb Code    24  n32g45x_dma.o(.text)
    DMA_ClrIntPendingBit                     0x0800fa71   Thumb Code     4  n32g45x_dma.o(.text)
    DMA_RequestRemap                         0x0800fa75   Thumb Code    22  n32g45x_dma.o(.text)
    RCC_DeInit                               0x0800fa95   Thumb Code    74  n32g45x_rcc.o(.text)
    RCC_ConfigHse                            0x0800fadf   Thumb Code    70  n32g45x_rcc.o(.text)
    RCC_GetFlagStatus                        0x0800fb25   Thumb Code    56  n32g45x_rcc.o(.text)
    RCC_WaitHseStable                        0x0800fb5d   Thumb Code    56  n32g45x_rcc.o(.text)
    RCC_SetHsiCalibValue                     0x0800fb95   Thumb Code    20  n32g45x_rcc.o(.text)
    RCC_EnableHsi                            0x0800fba9   Thumb Code     6  n32g45x_rcc.o(.text)
    RCC_ConfigPll                            0x0800fbaf   Thumb Code    24  n32g45x_rcc.o(.text)
    RCC_EnablePll                            0x0800fbc7   Thumb Code     6  n32g45x_rcc.o(.text)
    RCC_ConfigSysclk                         0x0800fbcd   Thumb Code    18  n32g45x_rcc.o(.text)
    RCC_GetSysclkSrc                         0x0800fbdf   Thumb Code    10  n32g45x_rcc.o(.text)
    RCC_ConfigHclk                           0x0800fbe9   Thumb Code    18  n32g45x_rcc.o(.text)
    RCC_ConfigPclk1                          0x0800fbfb   Thumb Code    18  n32g45x_rcc.o(.text)
    RCC_ConfigPclk2                          0x0800fc0d   Thumb Code    20  n32g45x_rcc.o(.text)
    RCC_ConfigInt                            0x0800fc21   Thumb Code    26  n32g45x_rcc.o(.text)
    RCC_ConfigUsbClk                         0x0800fc3b   Thumb Code    16  n32g45x_rcc.o(.text)
    RCC_ConfigTim18Clk                       0x0800fc4b   Thumb Code    18  n32g45x_rcc.o(.text)
    RCC_ConfigRngcClk                        0x0800fc5d   Thumb Code    18  n32g45x_rcc.o(.text)
    RCC_ConfigEthClk                         0x0800fc6f   Thumb Code    18  n32g45x_rcc.o(.text)
    RCC_ConfigAdc1mClk                       0x0800fc81   Thumb Code    24  n32g45x_rcc.o(.text)
    RCC_ConfigAdcPllClk                      0x0800fc99   Thumb Code    30  n32g45x_rcc.o(.text)
    RCC_ConfigAdcHclk                        0x0800fcb7   Thumb Code    18  n32g45x_rcc.o(.text)
    RCC_ConfigTrng1mClk                      0x0800fcc9   Thumb Code    24  n32g45x_rcc.o(.text)
    RCC_EnableTrng1mClk                      0x0800fce1   Thumb Code    30  n32g45x_rcc.o(.text)
    RCC_ConfigLse                            0x0800fcff   Thumb Code    50  n32g45x_rcc.o(.text)
    RCC_EnableLsi                            0x0800fd31   Thumb Code     6  n32g45x_rcc.o(.text)
    RCC_ConfigRtcClk                         0x0800fd37   Thumb Code    22  n32g45x_rcc.o(.text)
    RCC_EnableRtcClk                         0x0800fd4d   Thumb Code     8  n32g45x_rcc.o(.text)
    RCC_GetClocksFreqValue                   0x0800fd55   Thumb Code   240  n32g45x_rcc.o(.text)
    RCC_EnableAHBPeriphClk                   0x0800fe45   Thumb Code    26  n32g45x_rcc.o(.text)
    RCC_EnableAPB2PeriphClk                  0x0800fe5f   Thumb Code    78  n32g45x_rcc.o(.text)
    RCC_EnableAPB1PeriphClk                  0x0800fead   Thumb Code    26  n32g45x_rcc.o(.text)
    RCC_EnableAHBPeriphReset                 0x0800fec7   Thumb Code    26  n32g45x_rcc.o(.text)
    RCC_EnableAPB2PeriphReset                0x0800fee1   Thumb Code    26  n32g45x_rcc.o(.text)
    RCC_EnableAPB1PeriphReset                0x0800fefb   Thumb Code    26  n32g45x_rcc.o(.text)
    RCC_EnableBORReset                       0x0800ff15   Thumb Code    30  n32g45x_rcc.o(.text)
    RCC_EnableBackupReset                    0x0800ff33   Thumb Code     6  n32g45x_rcc.o(.text)
    RCC_EnableClockSecuritySystem            0x0800ff39   Thumb Code     6  n32g45x_rcc.o(.text)
    RCC_ConfigMcoPllClk                      0x0800ff3f   Thumb Code    18  n32g45x_rcc.o(.text)
    RCC_ConfigMco                            0x0800ff51   Thumb Code    20  n32g45x_rcc.o(.text)
    RCC_ClrFlag                              0x0800ff65   Thumb Code    24  n32g45x_rcc.o(.text)
    RCC_GetIntStatus                         0x0800ff7d   Thumb Code    20  n32g45x_rcc.o(.text)
    RCC_ClrIntPendingBit                     0x0800ff91   Thumb Code     6  n32g45x_rcc.o(.text)
    NVIC_PriorityGroupConfig                 0x0800ffa5   Thumb Code    10  misc.o(.text)
    NVIC_Init                                0x0800ffaf   Thumb Code   100  misc.o(.text)
    NVIC_SetVectorTable                      0x08010013   Thumb Code    14  misc.o(.text)
    NVIC_SystemLPConfig                      0x08010021   Thumb Code    34  misc.o(.text)
    SysTick_CLKSourceConfig                  0x08010043   Thumb Code    22  misc.o(.text)
    USART_DeInit                             0x0801006d   Thumb Code   186  n32g45x_usart.o(.text)
    USART_Init                               0x08010127   Thumb Code   168  n32g45x_usart.o(.text)
    USART_StructInit                         0x080101cf   Thumb Code    24  n32g45x_usart.o(.text)
    USART_ClockInit                          0x080101e7   Thumb Code    34  n32g45x_usart.o(.text)
    USART_ClockStructInit                    0x08010209   Thumb Code    12  n32g45x_usart.o(.text)
    USART_Enable                             0x08010215   Thumb Code    24  n32g45x_usart.o(.text)
    USART_ConfigInt                          0x0801022d   Thumb Code    74  n32g45x_usart.o(.text)
    USART_EnableDMA                          0x08010277   Thumb Code    18  n32g45x_usart.o(.text)
    USART_SetAddr                            0x08010289   Thumb Code    18  n32g45x_usart.o(.text)
    USART_ConfigWakeUpMode                   0x0801029b   Thumb Code    18  n32g45x_usart.o(.text)
    USART_EnableRcvWakeUp                    0x080102ad   Thumb Code    24  n32g45x_usart.o(.text)
    USART_ConfigLINBreakDetectLength         0x080102c5   Thumb Code    18  n32g45x_usart.o(.text)
    USART_EnableLIN                          0x080102d7   Thumb Code    24  n32g45x_usart.o(.text)
    USART_SendData                           0x080102ef   Thumb Code     8  n32g45x_usart.o(.text)
    USART_ReceiveData                        0x080102f7   Thumb Code    10  n32g45x_usart.o(.text)
    USART_SendBreak                          0x08010301   Thumb Code    10  n32g45x_usart.o(.text)
    USART_SetGuardTime                       0x0801030b   Thumb Code    16  n32g45x_usart.o(.text)
    USART_SetPrescaler                       0x0801031b   Thumb Code    16  n32g45x_usart.o(.text)
    USART_EnableSmartCard                    0x0801032b   Thumb Code    24  n32g45x_usart.o(.text)
    USART_SetSmartCardNACK                   0x08010343   Thumb Code    24  n32g45x_usart.o(.text)
    USART_EnableHalfDuplex                   0x0801035b   Thumb Code    24  n32g45x_usart.o(.text)
    USART_ConfigIrDAMode                     0x08010373   Thumb Code    18  n32g45x_usart.o(.text)
    USART_EnableIrDA                         0x08010385   Thumb Code    24  n32g45x_usart.o(.text)
    USART_GetFlagStatus                      0x0801039d   Thumb Code    26  n32g45x_usart.o(.text)
    USART_ClrFlag                            0x080103b7   Thumb Code    18  n32g45x_usart.o(.text)
    USART_GetIntStatus                       0x080103c9   Thumb Code    84  n32g45x_usart.o(.text)
    USART_ClrIntPendingBit                   0x0801041d   Thumb Code    30  n32g45x_usart.o(.text)
    EXTI_DeInit                              0x08010459   Thumb Code    28  n32g45x_exti.o(.text)
    EXTI_InitPeripheral                      0x08010475   Thumb Code   142  n32g45x_exti.o(.text)
    EXTI_InitStruct                          0x08010503   Thumb Code    16  n32g45x_exti.o(.text)
    EXTI_TriggerSWInt                        0x08010513   Thumb Code    16  n32g45x_exti.o(.text)
    EXTI_GetStatusFlag                       0x08010523   Thumb Code    22  n32g45x_exti.o(.text)
    EXTI_ClrStatusFlag                       0x08010539   Thumb Code     8  n32g45x_exti.o(.text)
    EXTI_GetITStatus                         0x08010541   Thumb Code    34  n32g45x_exti.o(.text)
    EXTI_ClrITPendBit                        0x08010563   Thumb Code     8  n32g45x_exti.o(.text)
    EXTI_RTCTimeStampSel                     0x0801056b   Thumb Code    26  n32g45x_exti.o(.text)
    SystemInit                               0x08010655   Thumb Code   146  system_n32g45x.o(.text)
    SystemCoreClockUpdate                    0x080106e7   Thumb Code   162  system_n32g45x.o(.text)
    button_init                              0x080107c1   Thumb Code    50  multi_button.o(.text)
    button_attach                            0x080107f3   Thumb Code    10  multi_button.o(.text)
    get_button_event                         0x080107fd   Thumb Code     8  multi_button.o(.text)
    button_handler                           0x08010805   Thumb Code   574  multi_button.o(.text)
    button_start                             0x08010a43   Thumb Code    38  multi_button.o(.text)
    button_stop                              0x08010a69   Thumb Code    34  multi_button.o(.text)
    button_ticks                             0x08010a8b   Thumb Code    22  multi_button.o(.text)
    fix_brickeduid                           0x08010aa5   Thumb Code    56  fix_brickeduid.o(.text)
    mifare_classic_value_block               0x08010c7d   Thumb Code  1668  mifare_classic_value_block.o(.text)
    MFRC522                                  0x080114d7   Thumb Code    42  mfrc522.o(.text)
    PCD_WriteReg_Byte                        0x08011501   Thumb Code    48  mfrc522.o(.text)
    PCD_WriteRegister                        0x08011531   Thumb Code    56  mfrc522.o(.text)
    PCD_ReadReg_Byte                         0x08011569   Thumb Code    64  mfrc522.o(.text)
    PCD_ReadRegister                         0x080115a9   Thumb Code   184  mfrc522.o(.text)
    PCD_SetRegisterBitMask                   0x08011661   Thumb Code    28  mfrc522.o(.text)
    PCD_ClearRegisterBitMask                 0x0801167d   Thumb Code    28  mfrc522.o(.text)
    PCD_CalculateCRC                         0x08011699   Thumb Code   118  mfrc522.o(.text)
    PCD_AntennaOn                            0x0801170f   Thumb Code    30  mfrc522.o(.text)
    PCD_Reset                                0x0801172d   Thumb Code    44  mfrc522.o(.text)
    PCD_Init                                 0x08011761   Thumb Code   200  mfrc522.o(.text)
    PCD_AntennaOff                           0x08011829   Thumb Code    12  mfrc522.o(.text)
    PCD_GetAntennaGain                       0x08011835   Thumb Code    14  mfrc522.o(.text)
    PCD_SetAntennaGain                       0x08011843   Thumb Code    32  mfrc522.o(.text)
    PCD_PerformSelfTest                      0x08011863   Thumb Code   272  mfrc522.o(.text)
    PCD_SoftPowerDown                        0x08011973   Thumb Code    24  mfrc522.o(.text)
    PCD_SoftPowerUp                          0x0801198b   Thumb Code    66  mfrc522.o(.text)
    PCD_CommunicateWithPICC                  0x080119cd   Thumb Code   352  mfrc522.o(.text)
    PCD_TransceiveData                       0x08011b2d   Thumb Code    48  mfrc522.o(.text)
    PICC_REQA_or_WUPA                        0x08011b5d   Thumb Code    84  mfrc522.o(.text)
    PICC_RequestA                            0x08011bb1   Thumb Code    18  mfrc522.o(.text)
    PICC_WakeupA                             0x08011bc3   Thumb Code    18  mfrc522.o(.text)
    PICC_Select                              0x08011bd5   Thumb Code   882  mfrc522.o(.text)
    PICC_HaltA                               0x08011f47   Thumb Code    76  mfrc522.o(.text)
    PCD_Authenticate                         0x08011f93   Thumb Code   114  mfrc522.o(.text)
    PCD_StopCrypto1                          0x08012005   Thumb Code    12  mfrc522.o(.text)
    MIFARE_Read                              0x08012011   Thumb Code    68  mfrc522.o(.text)
    PCD_MIFARE_Transceive                    0x08012055   Thumb Code   152  mfrc522.o(.text)
    MIFARE_Write                             0x080120ed   Thumb Code    68  mfrc522.o(.text)
    MIFARE_Ultralight_Write                  0x08012131   Thumb Code    60  mfrc522.o(.text)
    MIFARE_TwoStepHelper                     0x0801216d   Thumb Code    58  mfrc522.o(.text)
    MIFARE_Decrement                         0x080121a7   Thumb Code    18  mfrc522.o(.text)
    MIFARE_Increment                         0x080121b9   Thumb Code    18  mfrc522.o(.text)
    MIFARE_Restore                           0x080121cb   Thumb Code    16  mfrc522.o(.text)
    MIFARE_Transfer                          0x080121db   Thumb Code    36  mfrc522.o(.text)
    MIFARE_GetValue                          0x080121ff   Thumb Code    62  mfrc522.o(.text)
    MIFARE_SetValue                          0x0801223d   Thumb Code   134  mfrc522.o(.text)
    PCD_NTAG216_AUTH                         0x080122c3   Thumb Code   118  mfrc522.o(.text)
    GetStatusCodeName                        0x08012339   Thumb Code   192  mfrc522.o(.text)
    PICC_GetType                             0x080123f9   Thumb Code    90  mfrc522.o(.text)
    PICC_GetTypeName                         0x08012453   Thumb Code   214  mfrc522.o(.text)
    PCD_DumpVersionToSerial                  0x08012529   Thumb Code   120  mfrc522.o(.text)
    PICC_DumpMifareUltralightToSerial        0x080125a1   Thumb Code   188  mfrc522.o(.text)
    PICC_DumpMifareClassicSectorToSerial     0x0801265d   Thumb Code  1492  mfrc522.o(.text)
    PICC_DumpMifareClassicToSerial           0x08012c31   Thumb Code    86  mfrc522.o(.text)
    PICC_DumpDetailsToSerial                 0x08012c87   Thumb Code   128  mfrc522.o(.text)
    PICC_DumpToSerial                        0x08012d07   Thumb Code   298  mfrc522.o(.text)
    MIFARE_SetAccessBits                     0x08012e31   Thumb Code   142  mfrc522.o(.text)
    MIFARE_OpenUidBackdoor                   0x08012ebf   Thumb Code   284  mfrc522.o(.text)
    PICC_ReadCardSerial                      0x08012fdb   Thumb Code    22  mfrc522.o(.text)
    PICC_IsNewCardPresent                    0x08012ff1   Thumb Code    64  mfrc522.o(.text)
    MIFARE_SetUid                            0x08013031   Thumb Code   340  mfrc522.o(.text)
    MIFARE_UnbrickUidSector                  0x08013185   Thumb Code    68  mfrc522.o(.text)
    get_uid                                  0x080131c9   Thumb Code     4  mfrc522.o(.text)
    PCD_End                                  0x080131cd   Thumb Code    18  mfrc522.o(.text)
    change_uid                               0x08013379   Thumb Code   206  change_uid.o(.text)
    dump_info                                0x080134a5   Thumb Code    88  dunp_info.o(.text)
    firmware_check                           0x08013539   Thumb Code   112  firmware_check.o(.text)
    printDec                                 0x0801365d   Thumb Code    46  read_nuid.o(.text)
    printHex                                 0x0801368b   Thumb Code    46  read_nuid.o(.text)
    read_nuid                                0x080136b9   Thumb Code   320  read_nuid.o(.text)
    __semihosting$guard                      0x08014c09   Thumb Code     0  use_no_semi.o(.text)
    __use_no_semihosting_swi                 0x08014c09   Thumb Code     2  use_no_semi.o(.text)
    __aeabi_uldivmod                         0x08014c0b   Thumb Code     0  lludivv7m.o(.text)
    _ll_udiv                                 0x08014c0b   Thumb Code   238  lludivv7m.o(.text)
    atoi                                     0x08014cf9   Thumb Code    26  atoi.o(.text)
    memcmp                                   0x08014d13   Thumb Code    88  memcmp.o(.text)
    strcpy                                   0x08014d6b   Thumb Code    72  strcpy.o(.text)
    strlen                                   0x08014db3   Thumb Code    62  strlen.o(.text)
    strncmp                                  0x08014df1   Thumb Code   150  strncmp.o(.text)
    strcat                                   0x08014e87   Thumb Code    24  strcat.o(.text)
    __aeabi_memcpy                           0x08014e9f   Thumb Code     0  rt_memcpy_v6.o(.text)
    __rt_memcpy                              0x08014e9f   Thumb Code   138  rt_memcpy_v6.o(.text)
    _memcpy_lastbytes                        0x08014f05   Thumb Code     0  rt_memcpy_v6.o(.text)
    __aeabi_memcpy4                          0x08014f29   Thumb Code     0  rt_memcpy_w.o(.text)
    __aeabi_memcpy8                          0x08014f29   Thumb Code     0  rt_memcpy_w.o(.text)
    __rt_memcpy_w                            0x08014f29   Thumb Code   100  rt_memcpy_w.o(.text)
    _memcpy_lastbytes_aligned                0x08014f71   Thumb Code     0  rt_memcpy_w.o(.text)
    __aeabi_memclr                           0x08014f8d   Thumb Code     0  rt_memclr.o(.text)
    __rt_memclr                              0x08014f8d   Thumb Code    68  rt_memclr.o(.text)
    _memset                                  0x08014f91   Thumb Code     0  rt_memclr.o(.text)
    __aeabi_memclr4                          0x08014fd1   Thumb Code     0  rt_memclr_w.o(.text)
    __aeabi_memclr8                          0x08014fd1   Thumb Code     0  rt_memclr_w.o(.text)
    __rt_memclr_w                            0x08014fd1   Thumb Code    78  rt_memclr_w.o(.text)
    _memset_w                                0x08014fd5   Thumb Code     0  rt_memclr_w.o(.text)
    strncpy                                  0x0801501f   Thumb Code    86  strncpy.o(.text)
    strcmp                                   0x08015075   Thumb Code   128  strcmpv7m.o(.text)
    __use_two_region_memory                  0x080150f5   Thumb Code     2  heapauxi.o(.text)
    __rt_heap_escrow$2region                 0x080150f7   Thumb Code     2  heapauxi.o(.text)
    __rt_heap_expand$2region                 0x080150f9   Thumb Code     2  heapauxi.o(.text)
    __aeabi_errno_addr                       0x080150fd   Thumb Code     8  rt_errno_addr_intlibspace.o(.text)
    __errno$intlibspace                      0x080150fd   Thumb Code     0  rt_errno_addr_intlibspace.o(.text)
    __rt_errno_addr$intlibspace              0x080150fd   Thumb Code     0  rt_errno_addr_intlibspace.o(.text)
    strtol                                   0x08015105   Thumb Code   112  strtol.o(.text)
    __user_libspace                          0x08015175   Thumb Code     8  libspace.o(.text)
    __user_perproc_libspace                  0x08015175   Thumb Code     0  libspace.o(.text)
    __user_perthread_libspace                0x08015175   Thumb Code     0  libspace.o(.text)
    __rt_ctype_table                         0x0801517d   Thumb Code    16  rt_ctype_table.o(.text)
    _strtoul                                 0x0801518d   Thumb Code   158  _strtoul.o(.text)
    __user_setup_stackheap                   0x0801522b   Thumb Code    74  sys_stackheap_outer.o(.text)
    __rt_locale                              0x08015275   Thumb Code     8  rt_locale_intlibspace.o(.text)
    _chval                                   0x0801527d   Thumb Code    28  _chval.o(.text)
    exit                                     0x08015299   Thumb Code    18  exit.o(.text)
    _get_lc_ctype                            0x080152ad   Thumb Code    44  lc_ctype_c.o(locale$$code)
    __aeabi_ddiv                             0x080152d9   Thumb Code     0  ddiv.o(x$fpl$ddiv)
    _ddiv                                    0x080152d9   Thumb Code   552  ddiv.o(x$fpl$ddiv)
    __aeabi_d2iz                             0x08015589   Thumb Code     0  dfix.o(x$fpl$dfix)
    _dfix                                    0x08015589   Thumb Code    94  dfix.o(x$fpl$dfix)
    __aeabi_ui2d                             0x080155e7   Thumb Code     0  dflt_clz.o(x$fpl$dfltu)
    _dfltu                                   0x080155e7   Thumb Code    38  dflt_clz.o(x$fpl$dfltu)
    __aeabi_dmul                             0x0801560d   Thumb Code     0  dmul.o(x$fpl$dmul)
    _dmul                                    0x0801560d   Thumb Code   332  dmul.o(x$fpl$dmul)
    __fpl_dnaninf                            0x08015761   Thumb Code   156  dnaninf.o(x$fpl$dnaninf)
    __fpl_dretinf                            0x080157fd   Thumb Code    12  dretinf.o(x$fpl$dretinf)
    _fp_init                                 0x08015809   Thumb Code    10  fpinit.o(x$fpl$fpinit)
    __fplib_config_fpu_vfp                   0x08015811   Thumb Code     0  fpinit.o(x$fpl$fpinit)
    __fplib_config_pureend_doubles           0x08015811   Thumb Code     0  fpinit.o(x$fpl$fpinit)
    __I$use$fp                               0x08015812   Number         0  usenofp.o(x$fpl$usenofp)
    __lowest_bit_bitmap                      0x08016b66   Data         256  kservice.o(.constdata)
    __stdin_name                             0x08016dc5   Data           6  syscalls.o(.constdata)
    __stdout_name                            0x08016dcb   Data           7  syscalls.o(.constdata)
    __stderr_name                            0x08016dd2   Data           7  syscalls.o(.constdata)
    AHBPrescTable                            0x08016e1a   Data          16  system_n32g45x.o(.constdata)
    __fsym_pwm_enable_name                   0x0801767e   Data          11  rt_drv_pwm.o(.rodata.name)
    __fsym_pwm_enable_desc                   0x08017689   Data          40  rt_drv_pwm.o(.rodata.name)
    __fsym_pwm_disable_name                  0x080176b1   Data          12  rt_drv_pwm.o(.rodata.name)
    __fsym_pwm_disable_desc                  0x080176bd   Data          41  rt_drv_pwm.o(.rodata.name)
    __fsym_pwm_set_name                      0x080176e6   Data           8  rt_drv_pwm.o(.rodata.name)
    __fsym_pwm_set_desc                      0x080176ee   Data          45  rt_drv_pwm.o(.rodata.name)
    __fsym_pwm_get_name                      0x0801771b   Data           8  rt_drv_pwm.o(.rodata.name)
    __fsym_pwm_get_desc                      0x08017723   Data          28  rt_drv_pwm.o(.rodata.name)
    __fsym_uart_test_name                    0x0801773f   Data          10  n32_msp.o(.rodata.name)
    __fsym_uart_test_desc                    0x08017749   Data          10  n32_msp.o(.rodata.name)
    __fsym_pwm_led_sample_name               0x08017753   Data          15  n32_msp.o(.rodata.name)
    __fsym_pwm_led_sample_desc               0x08017762   Data          11  n32_msp.o(.rodata.name)
    __fsym_pwm_led_sample_off_name           0x0801776d   Data          19  n32_msp.o(.rodata.name)
    __fsym_pwm_led_sample_off_desc           0x08017780   Data          15  n32_msp.o(.rodata.name)
    __fsym_reboot_name                       0x0801778f   Data           7  drv_common.o(.rodata.name)
    __fsym_reboot_desc                       0x08017796   Data          14  drv_common.o(.rodata.name)
    __fsym_fp_port_name                      0x080177a4   Data           8  fingerprint_sample.o(.rodata.name)
    __fsym_fp_port_desc                      0x080177ac   Data           8  fingerprint_sample.o(.rodata.name)
    __fsym_fp_delet_char_cmd_name            0x080177b4   Data          18  fingerprint_sample.o(.rodata.name)
    __fsym_fp_delet_char_cmd_desc            0x080177c6   Data          20  fingerprint_sample.o(.rodata.name)
    __fsym_fp_empty_name                     0x080177da   Data           9  fingerprint_sample.o(.rodata.name)
    __fsym_fp_empty_desc                     0x080177e3   Data          11  fingerprint_sample.o(.rodata.name)
    __fsym_fp_get_sys_para_name              0x080177ee   Data          16  fingerprint_sample.o(.rodata.name)
    __fsym_fp_get_sys_para_desc              0x080177fe   Data          19  fingerprint_sample.o(.rodata.name)
    __fsym_fp_get_num_name                   0x08017811   Data          11  fingerprint_sample.o(.rodata.name)
    __fsym_fp_get_num_desc                   0x0801781c   Data          24  fingerprint_sample.o(.rodata.name)
    __fsym_get_eff_id_name                   0x08017834   Data          11  fingerprint_sample.o(.rodata.name)
    __fsym_get_eff_id_desc                   0x0801783f   Data          13  fingerprint_sample.o(.rodata.name)
    __fsym_get_id_state_cmd_name             0x0801784c   Data          17  fingerprint_sample.o(.rodata.name)
    __fsym_get_id_state_cmd_desc             0x0801785d   Data          19  fingerprint_sample.o(.rodata.name)
    __fsym_fp_add_fp_name                    0x08017870   Data          10  fingerprint_sample.o(.rodata.name)
    __fsym_fp_add_fp_desc                    0x0801787a   Data          24  fingerprint_sample.o(.rodata.name)
    __fsym_fp_read_name                      0x08017892   Data           8  fingerprint_sample.o(.rodata.name)
    __fsym_fp_read_desc                      0x0801789a   Data          24  fingerprint_sample.o(.rodata.name)
    __fsym_help_name                         0x080178b2   Data           5  msh.o(.rodata.name)
    __fsym_help_desc                         0x080178b7   Data          24  msh.o(.rodata.name)
    __fsym_ps_name                           0x080178cf   Data           3  msh.o(.rodata.name)
    __fsym_ps_desc                           0x080178d2   Data          28  msh.o(.rodata.name)
    __fsym_free_name                         0x080178ee   Data           5  msh.o(.rodata.name)
    __fsym_free_desc                         0x080178f3   Data          37  msh.o(.rodata.name)
    __fsym_hello_name                        0x08017918   Data           6  cmd.o(.rodata.name)
    __fsym_hello_desc                        0x0801791e   Data          16  cmd.o(.rodata.name)
    __fsym_clear_name                        0x0801792e   Data           6  cmd.o(.rodata.name)
    __fsym_clear_desc                        0x08017934   Data          26  cmd.o(.rodata.name)
    __fsym_version_name                      0x0801794e   Data           8  cmd.o(.rodata.name)
    __fsym_version_desc                      0x08017956   Data          37  cmd.o(.rodata.name)
    __fsym_list_thread_name                  0x0801797b   Data          12  cmd.o(.rodata.name)
    __fsym_list_thread_desc                  0x08017987   Data          12  cmd.o(.rodata.name)
    __fsym_list_sem_name                     0x08017993   Data           9  cmd.o(.rodata.name)
    __fsym_list_sem_desc                     0x0801799c   Data          25  cmd.o(.rodata.name)
    __fsym_list_event_name                   0x080179b5   Data          11  cmd.o(.rodata.name)
    __fsym_list_event_desc                   0x080179c0   Data          21  cmd.o(.rodata.name)
    __fsym_list_mutex_name                   0x080179d5   Data          11  cmd.o(.rodata.name)
    __fsym_list_mutex_desc                   0x080179e0   Data          21  cmd.o(.rodata.name)
    __fsym_list_mailbox_name                 0x080179f5   Data          13  cmd.o(.rodata.name)
    __fsym_list_mailbox_desc                 0x08017a02   Data          24  cmd.o(.rodata.name)
    __fsym_list_msgqueue_name                0x08017a1a   Data          14  cmd.o(.rodata.name)
    __fsym_list_msgqueue_desc                0x08017a28   Data          29  cmd.o(.rodata.name)
    __fsym_list_mempool_name                 0x08017a45   Data          13  cmd.o(.rodata.name)
    __fsym_list_mempool_desc                 0x08017a52   Data          27  cmd.o(.rodata.name)
    __fsym_list_timer_name                   0x08017a6d   Data          11  cmd.o(.rodata.name)
    __fsym_list_timer_desc                   0x08017a78   Data          21  cmd.o(.rodata.name)
    __fsym_list_device_name                  0x08017a8d   Data          12  cmd.o(.rodata.name)
    __fsym_list_device_desc                  0x08017a99   Data          22  cmd.o(.rodata.name)
    __fsym_list_name                         0x08017aaf   Data           5  cmd.o(.rodata.name)
    __fsym_list_desc                         0x08017ab4   Data          28  cmd.o(.rodata.name)
    __fsym_fix_brickeduid_name               0x08017ad0   Data          15  fix_brickeduid.o(.rodata.name)
    __fsym_fix_brickeduid_desc               0x08017adf   Data          22  fix_brickeduid.o(.rodata.name)
    __fsym_mifare_classic_value_block_name   0x08017af5   Data          27  mifare_classic_value_block.o(.rodata.name)
    __fsym_mifare_classic_value_block_desc   0x08017b10   Data          33  mifare_classic_value_block.o(.rodata.name)
    __fsym_change_uid_name                   0x08017b31   Data          11  change_uid.o(.rodata.name)
    __fsym_change_uid_desc                   0x08017b3c   Data          17  change_uid.o(.rodata.name)
    __fsym_dump_info_name                    0x08017b4d   Data          10  dunp_info.o(.rodata.name)
    __fsym_dump_info_desc                    0x08017b57   Data          16  dunp_info.o(.rodata.name)
    __fsym_firmware_check_name               0x08017b67   Data          15  firmware_check.o(.rodata.name)
    __fsym_firmware_check_desc               0x08017b76   Data          21  firmware_check.o(.rodata.name)
    __fsym_read_nuid_name                    0x08017b8b   Data          10  read_nuid.o(.rodata.name)
    __fsym_read_nuid_desc                    0x08017b95   Data          16  read_nuid.o(.rodata.name)
    __fsym_sensor_fifo_name                  0x08017ba5   Data          12  sensor_cmd.o(.rodata.name)
    __fsym_sensor_fifo_desc                  0x08017bb1   Data          31  sensor_cmd.o(.rodata.name)
    __fsym_sensor_int_name                   0x08017bd0   Data          11  sensor_cmd.o(.rodata.name)
    __fsym_sensor_int_desc                   0x08017bdb   Data          36  sensor_cmd.o(.rodata.name)
    __fsym_sensor_polling_name               0x08017bff   Data          15  sensor_cmd.o(.rodata.name)
    __fsym_sensor_polling_desc               0x08017c0e   Data          34  sensor_cmd.o(.rodata.name)
    __fsym_sensor_name                       0x08017c30   Data           7  sensor_cmd.o(.rodata.name)
    __fsym_sensor_desc                       0x08017c37   Data          21  sensor_cmd.o(.rodata.name)
    __rt_init_rti_start                      0x08017c4c   Data           4  components.o(.rti_fn.0)
    __rt_init_rti_board_start                0x08017c50   Data           4  components.o(.rti_fn.0.end)
    __rt_init_n32_hw_pin_init                0x08017c54   Data           4  drv_gpio.o(.rti_fn.1)
    __rt_init_rt_hw_spi_init                 0x08017c58   Data           4  drv_spi.o(.rti_fn.1)
    __rt_init_rt_hw_i2c_init                 0x08017c5c   Data           4  drv_soft_i2c.o(.rti_fn.1)
    __rt_init_rt_hw_pwm_init                 0x08017c60   Data           4  drv_pwm.o(.rti_fn.1)
    __rt_init_rt_hw_usart_init               0x08017c64   Data           4  drv_usart.o(.rti_fn.1)
    __rt_init_rti_board_end                  0x08017c68   Data           4  components.o(.rti_fn.1.end)
    __rt_init_rt_i2c_core_init               0x08017c6c   Data           4  i2c_core.o(.rti_fn.4)
    __rt_init_libc_system_init               0x08017c70   Data           4  libc.o(.rti_fn.4)
    __rt_init_rt_hw_spi_rc522_init           0x08017c74   Data           4  mfrc522_rtt_port.o(.rti_fn.4)
    __rt_init_finsh_system_init              0x08017c78   Data           4  shell.o(.rti_fn.6)
    __rt_init_rti_end                        0x08017c7c   Data           4  components.o(.rti_fn.6.end)
    FSymTab$$Base                            0x08017c80   Number         0  rt_drv_pwm.o(FSymTab)
    __fsym_pwm_enable                        0x08017c80   Data          12  rt_drv_pwm.o(FSymTab)
    __fsym_pwm_disable                       0x08017c8c   Data          12  rt_drv_pwm.o(FSymTab)
    __fsym_pwm_set                           0x08017c98   Data          12  rt_drv_pwm.o(FSymTab)
    __fsym_pwm_get                           0x08017ca4   Data          12  rt_drv_pwm.o(FSymTab)
    __fsym_uart_test                         0x08017cb0   Data          12  n32_msp.o(FSymTab)
    __fsym_pwm_led_sample                    0x08017cbc   Data          12  n32_msp.o(FSymTab)
    __fsym_pwm_led_sample_off                0x08017cc8   Data          12  n32_msp.o(FSymTab)
    __fsym_reboot                            0x08017cd4   Data          12  drv_common.o(FSymTab)
    __fsym_fp_port                           0x08017ce0   Data          12  fingerprint_sample.o(FSymTab)
    __fsym_fp_delet_char_cmd                 0x08017cec   Data          12  fingerprint_sample.o(FSymTab)
    __fsym_fp_empty                          0x08017cf8   Data          12  fingerprint_sample.o(FSymTab)
    __fsym_fp_get_sys_para                   0x08017d04   Data          12  fingerprint_sample.o(FSymTab)
    __fsym_fp_get_num                        0x08017d10   Data          12  fingerprint_sample.o(FSymTab)
    __fsym_get_eff_id                        0x08017d1c   Data          12  fingerprint_sample.o(FSymTab)
    __fsym_get_id_state_cmd                  0x08017d28   Data          12  fingerprint_sample.o(FSymTab)
    __fsym_fp_add_fp                         0x08017d34   Data          12  fingerprint_sample.o(FSymTab)
    __fsym_fp_read                           0x08017d40   Data          12  fingerprint_sample.o(FSymTab)
    __fsym_help                              0x08017d4c   Data          12  msh.o(FSymTab)
    __fsym_ps                                0x08017d58   Data          12  msh.o(FSymTab)
    __fsym_free                              0x08017d64   Data          12  msh.o(FSymTab)
    __fsym_hello                             0x08017d70   Data          12  cmd.o(FSymTab)
    __fsym_clear                             0x08017d7c   Data          12  cmd.o(FSymTab)
    __fsym_version                           0x08017d88   Data          12  cmd.o(FSymTab)
    __fsym_list_thread                       0x08017d94   Data          12  cmd.o(FSymTab)
    __fsym_list_sem                          0x08017da0   Data          12  cmd.o(FSymTab)
    __fsym_list_event                        0x08017dac   Data          12  cmd.o(FSymTab)
    __fsym_list_mutex                        0x08017db8   Data          12  cmd.o(FSymTab)
    __fsym_list_mailbox                      0x08017dc4   Data          12  cmd.o(FSymTab)
    __fsym_list_msgqueue                     0x08017dd0   Data          12  cmd.o(FSymTab)
    __fsym_list_mempool                      0x08017ddc   Data          12  cmd.o(FSymTab)
